:0600000002308A002B2AE9
:10000800F30003088301D3000408D4000A08D500CC
:100018008A017408DC007E08DD007F08DE007508B0
:10002800DA007608DB007708DF007808E300790853
:10003800E4007A08E2007B08E1007C08E0007D0823
:10004800E5005808D6005908D700831603138C1CFE
:100058005B2883128C1C5B28831201088316E90035
:10006800831281018C102208F23A031D4928831655
:100078006908143A8312031D44282619462848287B
:100088002619482887144928871012308316031325
:10009800690203185128E901572817306902031C1F
:1000A80057280830E90001308312D200BF288B1A84
:1000B8000B1DBF285D3083128107B3282108F40087
:1000C800F5017508103E8312D9007408793E0318AB
:1000D800D90A0A128A115C220A128A11013A031DEE
:1000E80078280C3097047B280711F330970583167E
:1000F800A10A2108083A031DBE280530A100A30162
:10010800A30AA2010430A6282208A73E840083136C
:1001180000082305031994280C30831297049828A3
:1001280083120711F33097058030831623020318D2
:10013800A0280310A30DBE28A301A30AA20AA10B9D
:10014800BE280530A000BE28F3308312970507119A
:100158008B128316A00102308312D200BE288316A8
:100168002008023A03196228063A03198828013A36
:100178000319A8280B1183168C1E5C2983128C1E68
:100188005C2983121A08D0001819CC28981C4B290E
:10019800981CD128181200001816023003171002F4
:1001A800031CBA290A168A11DE250A128A110317B6
:1001B80091011008043A0319BA2949290313500870
:1001C800553A0317031DF728910A1108043A031D2D
:1001D800BA290A168A11EE250A128A110317910103
:1001E8009001900ABA299101BA29031350085A3A82
:1001F800031D05295A30031794009101910A023012
:1002080040290317910A1108083A031DBA294229FF
:10021800910A1103143E84008317031350088000C9
:1002280003171108043A031DBA290A168A116D2703
:100238000A128A1103179200120F23294229033048
:100248004029910A1103143E8400831703135008B0
:100258008000031712081102031CBA29031318128D
:1002680083168C128312031791010A168A11DE2550
:100278000A128A11043003179000BA290A168A1143
:10028800DE250A128A11031791019001BA29031772
:1002980010080319E228013A0319F928033A031947
:1002A8000C29013A03192529073A0319BA294229C1
:1002B80083160C1EBA2983120C1EBA29A729553099
:1002C800031399000317910A11080A3A031DB82964
:1002D80091019001900AB829FF3003139900031780
:1002E800910A1108023A031DB8290A168A116D27C6
:1002F8000A128A110317920091010330A529910A65
:100308001103143E84008317000803139900031790
:1003180012081102031CB82991010530A5295C3087
:10032800031399000317910A1103031DB829063016
:10033800A5298316031398120C128312031791012F
:1003480007309000B829831203171008031963298E
:10035800013A03197029023A03198329063A031945
:100368009329033A03199D2903130C1283120313CB
:100378000C1C042A83160C1C042A8312B60A0319BF
:10038800B70A0619A70AA5080319861ACD2906105F
:10039800A40AF03022020318032A10308A00220827
:1003A800F4000310F40D0310F40D0310740DF400A1
:1003B8002308F5000310F50C0310F50C0310750C59
:1003C8000739740700200A128A11F4000130F50079
:1003D80023080739F600F60AF3290310F50DF60B82
:1003E800F129750874050319FF298714A50803194D
:1003F800022AA503022A87100430A500A30A0C10BC
:10040800031383125C08F4005D08FE005E08FF0019
:100418005A08F5005B08F6005F08F7006308F80063
:100428006408F9006208FA006108FB006008FC0033
:100438006508FD005608D8005708D90054088400FC
:1004480055088A0053088300F30E730E0900203004
:10045800840051304A220230D9007230D80051301D
:10046800840053304F22A0308400EA304A22831798
:10047800103084005E304A2290308400B1304A2225
:100488000A128A15A72D04068001840A0406031D92
:10049800472A64000034F4000A128A115F220A1203
:1004A8008A118000840A0408740603190034502A4B
:1004B80083120313D800D91B6A2A591B722A5908B8
:1004C8008A005808D80A0319D90A820083135918D0
:1004D80083175808D80A840000080800003400343C
:1004E8000310FF30F407F409031CF507F509031C92
:1004F800F607F609031CF707F709080084017408D2
:10050800FC007508FD007608FE007708FF00F6017C
:10051800F701F401F5010310FF0CFE0CFD0CFC0CB7
:10052800031CA42A7808F40779080318790FF5073B
:100538007A0803187A0FF6077B0803187B0FF7076A
:100548007C087D047E047F040319B02A0310F80D8B
:10055800F90DFA0DFB0D8F2A84080319003477086A
:100568008000840376088000840375088000840373
:10057800740880000034FA01F51FC92AF409F40A46
:100588000319F503F5097A17FA1777088039FA0677
:10059800F71FD52AF609F60A0319F703F709D52A2A
:1005A800FA01F801F90176087704031DDE2AF4013F
:1005B800F50100341F30FA040310FA0AF60DF70D9E
:1005C800031CE12AF70CF60C77087502031DEE2AC6
:1005D80076087402031CF62A7608F4027708031CCE
:1005E800770AF502F80DF90DFA0BFA1AE62AFA1F3E
:1005F800022BF809F80A0319F903F9097808F60033
:100608007908F7007A1F0034F409F40A0319F5038E
:10061800F5090034FC01750D760DFA007A08031906
:10062800192BFC0DF601F5170800F401F501F60188
:100638000034FC10780D790DFB007B080319292B79
:100648000318FC14F901F8170800FB01F701F80179
:10065800F90108007A080319192BF513FC0C7A0C18
:10066800F6000318F517E42BFA08031D4C2BF401C8
:10067800F501F601E42B76030319F40A0319F50AC8
:100688000319F60A0310F60CF50CF40CFA0A382BC9
:10069800F608031D3F2B7408750403193B2BF51B43
:1006A8002E2BFA0303193B2B0310F40DF50D532BD6
:1006B8007A087B02031C6B2B031908000310F60C45
:1006C800F50CF40CFA0A7A087B02602B0310F90C7B
:1006D800F80CF70CFB0A7A087B06031908006A2B4A
:1006E8008030F90684010E231D235C237C1C842B97
:1006F800F409F509F609F40A0319F50A0319F60AC3
:10070800FC1C8E2BF709F809F909F70A0319F80AEE
:100718000319F90A7708F40778080318780FF5071A
:1007280079080318790FF607FC01F61F382BF4092E
:10073800F509F609F40A0319F50A0319F60A7C14EF
:10074800382B84010E23F7018230FA07FA1B192B84
:10075800F030FA07FA1BC12B18307A020318192B4C
:10076800FA08031DBA2B7C1874220800FA03031038
:10077800F40DF50DF60DF70DB42B0310F60CF50C72
:10078800F40CFA0FC12BB72BF71FCD2B7C14742256
:10079800CE2BFC018E30FA008401F7080319382BA0
:1007A8000310F70CF60CF50CF40CFA0AD12BF60131
:1007B800F51BF6037608F700C82BF601F701CD2BD9
:1007C80084080319003476088000840375088000C3
:1007D800840374088000003483012C0803179700F1
:1007E80003132D080317980003132E080317990005
:1007F80003132F0803179A0003132208F03A03196A
:10080800261D082CF130092C220803179B00023002
:100818000A128A11EB270A128A1103179C00831601
:10082800100883129D007F309E0003130800831276
:100838000317951F2D2C00300A168A11A7270A12B4
:100848008A1100380319C62F181683168C16013022
:10085800E92F0313E52F190CF400F40C740C073975
:100868000319462C0313261A462C031326160317BE
:1008780017080739F4007407913E84008317800134
:10088800840A8001031717080739F4007407913E9A
:100898008400831716080006031D552C1708840AC0
:1008A80000060319DA2F19080739F4000130F60099
:1008B800F701F40A622C0310F60DF70DF40B5F2C08
:1008C800FF30F607031CF70703132F08F605F70197
:1008D800031718087F39F400F50177087506031D1A
:1008E800772C76087406031DDA2F17080739F400E9
:1008F8007407A13E8400831716088000840A17082D
:100908008000A72CF130031322020318B52C0630FF
:10091800A20040303607A800013003180230A12C8D
:10092800053003132202031CB52C0530A2009330B6
:100938003607A8000330031804303707A900A52C90
:100948000313A615B52C190CF500F50C750C073911
:10095800013A0319862C033A0319942C013A031916
:10096800A42C0A168A11D5260A128A110130F6001B
:10097800031715080739F700F70AC42C0310F60DFA
:10098800F70BC22C7608F600760374050A128A154E
:100998002E200A128A112C080317960003132D081B
:1009A8000317970003132E080317980003132F0843
:1009B8000317990095010313A61DE52C07300317AB
:1009C80095040313261FEA2C0317951403133708FD
:1009D800F5003608F4000A128A11E123A930F7005D
:1009E8002B30F8004530F9000A128A1176230A12D2
:1009F8008A11A5230A128A117408B3007508B40075
:100A08000330A604DA2F03132F0803171906031D52
:100A18001D2D03132E0803171806031D1D2D031380
:100A28002D0803171706031D1D2D03132C08031784
:100A38001606031DDA2F0313C10141084107A13E21
:100A4800840083170008C200840A0008C300420417
:100A580003193C2D4208BF004308C0004108410764
:100A6800913E840083173F088000840A4008800074
:100A7800C10A08304102031C212D3F08F500F4018A
:100A88007408C4007508C5004008F400F50144085E
:100A9800F4044508F504FF307405BF000F307505F0
:100AA800C000031715080739013A031D6A2D0313FF
:100AB8002208F03A031D6A2D0630A200403036079E
:100AC800A8000130031802303707A90000300313CB
:100AD8004002053003193F02031C802D00304002FC
:100AE800083003193F02031C8F2D003040020D30DF
:100AF80003193F0203188F2D3708F5003608F40054
:100B08000A128A11E1230A128A11A930F7002B3040
:100B1800F80046309B2D3708F5003608F4000A1215
:100B28008A11E123A930F7002B30F8004530F9008D
:100B38000A128A1176230A128A11A5230A128A1127
:100B48007408B3007508B400A614B730A605DA2FE8
:100B580003132F0803171B06031DC22D03132E08AA
:100B680003171A06031DC22D03132D0803171906B0
:100B7800031DC22D03132C0803171806031DDA2FB3
:100B880003132C080317960003132D080317970067
:100B980003132E080317980003132F08031799004F
:100BA80003133708F5003608F4000A128A11E12306
:100BB800A930F7002B30F8004530F9000A128A11E5
:100BC80076230A128A11A5230A128A117408B3001F
:100BD8007508B400082E21300313A604162E0A1235
:100BE8008A150C250A128A11152E2208F03A031DBF
:100BF800152E0630A20040303607A8000130031831
:100C080002303707A900152E031715080739013ACE
:100C18000319EF2D043A0319F32D023A03130319AC
:100C2800F92D2614103003179500DA2F16088316AD
:100C3800031325068312031D292E0317170883168D
:100C48000313240683120319DB2F2208023A031D1B
:100C5800302EF030A20087102208083A0319DA2F44
:100C68007A30C8000330C9000A168A111B270A30D7
:100C78000A128A154F250A128A11DA2F1A08031345
:100C88002D06031DDA2F0317190803132E06031D5B
:100C9800DA2F0317180803132F06031DDA2F7830ED
:100CA800C8000530C9000A168A111B270A128A11C2
:100CB80003179608031D752E17080313A100A10832
:100CC8000319712E0830A20093303607A8000330AC
:100CD800031804303707A9008F2EF030A2008710C0
:100CE8008F2E03132208023A0319842E0230A20021
:100CF800BA303607A8000A3003180B303707A900A6
:100D08000317170883160313A40083120317160882
:100D180083160313A5000A128A150C250A128A11D4
:100D2800DA2F17085A3A031D9F2E0A168A11AB2587
:100D38000A128A11DA2F0A128A15CB230A128A118B
:100D4800DA2F13300313C8000130C9000A168A11BC
:100D58001B2713300313C8000130C9000A168A1173
:100D68001B270A128A1103132208083A0319DA2FDB
:100D780005300A128A154F250A128A11DA2F1A0825
:100D880003132D06031DDA2F0317190803132E0664
:100D9800031DDA2F0317180803132F06031DDA2F74
:100DA800CE30C8000430C9000A168A111B27031761
:100DB80017080A128A156F250A128A11DA2F0A12E1
:100DC8008A150C250A128A11DA2F15080739031912
:100DD8001A2E013A0319422E033A0319AD2E013A8D
:100DE8000319B72E073A0319C32E013A0319952E92
:100DF800033A0319A52E013A0319E32EDA2F173007
:100E080084008317031331080006031D0E2F3208D0
:100E1800840A00060319192F031717080313B100D2
:100E2800031718080313B200B00107303002031883
:100E3800DA2FB00A0A168A11D52674080A128A15FA
:100E48002E200A128A11402F03132F0803171A069F
:100E5800031D3E2F03132E0803171906031D3E2FEB
:100E680003132D0803171806031D3E2F03132C0820
:100E780003171706031DDA2FF0230A128A11261406
:100E8800DA2F03132F0803171A06031D5B2F03130A
:100E98002E0803171906031D5B2F03132D080317CC
:100EA8001806031D5B2F03132C0803171706031DD1
:100EB800DA2F8B1383168C185E2F83128D01013065
:100EC8008C0083168C1303108B1B03148B130C15C7
:100ED80055308D00AA308D008C140C1103188B1717
:100EE80083120514762F03132F0803171A06031D00
:100EF8008D2F03132E0803171906031D8D2F0313B7
:100F08002D0803171806031D8D2F03132C0803172C
:100F1800170603199F2FDA2F03132208F23A031D2D
:100F2800972FF030A20087109D2FF2300313A200F4
:100F380087142614AF2F1C08F7001B08F600AB2FE8
:100F480076080319902F013A0319992FAF2F7708C4
:100F5800803A0319A42F0313261CDA2F03179601CE
:100F6800960AF0230A128A11DA2F16080319032F9A
:100F7800013A0319282F033A0319452F073A031991
:100F8800772FDA2F0317150CF500F50C750C0F39B0
:100F980003192F2C013A0319072D033A0319AC2D15
:100FA800063A0319E92E0B3A0319B92F83120313D2
:100FB800261CE52F0A128A1509200A128A11261002
:100FC800E82F181683168C16003083120800830148
:100FD800C600831603178C18ED2F831203134608D7
:100FE80003178D0083168C130C1483120C0803133B
:100FF8000800830151080800820711344434603422
:101008000034E134813448340F34831203179001DB
:10101800910101300A128A1529230A128A1500380B
:1010280003191F28A20100303607A8007D300318D5
:101038007E303707A9005A30031794009513013002
:101048000A168A11A7270A128A15831698160C16EB
:10105800831208008301C60080280F08C900CA014E
:10106800F500F4010E087404C9007508CA000F06DB
:10107800031D31285A304907C700153003181630A8
:101088004A07C800640048084A02031D4D2847085B
:101098004902031C61284A08F5004908F40047087A
:1010A800F402031CF5034808F5028030750200308D
:1010B80003197402031C802872284808F5004708A1
:1010C800F4004908F402031CF5034A08F5028030CD
:1010D8007502013003197402031880280F08C9002B
:1010E800CA01F500F4010E087404C9007508CA00A5
:1010F8000F0603194728722883120313C603460FE5
:1011080031280800BB2930303002031CB72983126C
:10111800BF018316B901B401B501F82883123F084D
:10112800F4000310F40D0310740D0C3EAF3E840060
:1011380083130008F7003F08F4000310F40D0310B0
:10114800740D0B3EAF3E840083130008F6003F0881
:10115800F4000310F40D0310740D0D3EAF3E84002F
:1011680083130008F5003F08F4000310F40D031082
:10117800740D0E3EAF3E8400831300087507760792
:1011880077078316B8000310B80C0310B80C0310C7
:10119800B80C10308A0083123F0856200A128A15AC
:1011A80000380319EA28053083163802031CEF2893
:1011B8000A30F400F5013808F402031CF50374083A
:1011C800B4070318B50A7508B507F628083083165A
:1011D8003802031CF228B901B90AF6283808B407FE
:1011E8000318B50A8312BF0A0C3083123F02831614
:1011F80003180129B90803199228360A0319370A6E
:1012080003191929B908031D112935083702031DC7
:101218000F293408360203181C29AF01AF0AB001A0
:10122800B00AFF30B600B700C929B908031DC9299B
:101238003408B6003508B700C929A60130080F39A7
:101248000F3A031DB7298312BF013F08F4000310AA
:10125800F40D0310740D303CB73E8400831300086E
:10126800F7003F08F4000310F40D0310740D303C30
:10127800B93E840083130008F6003F08F400031009
:10128800F40D0310740D303CB83E8400831300083D
:10129800F5003F08F4000310F40D0310740D303C02
:1012A800B63E840083130008750776077707831610
:1012B800B8000310B80C0310B80C0310B80C0310D6
:1012C800A60D06303802031826148312BF0A04300C
:1012D8003F02031C29290930831626020318852991
:1012E80010308A0026086E200A128A15F400740A43
:1012F800B100A730B200B301B30A0230AF00B001A9
:10130800B729AF01B001C92930080339033A031DD1
:10131800B7296608670769076807B8000310B80C9B
:101328000310B80C0310B80C0630380232088400D9
:101338008313031CA22933088004A42933098005D8
:10134800803033020318AB290310B30DB729B3015A
:10135800B30AB20AB10BB7298C10831212110330E9
:101368008316AF00B929B00AC9290130DD298316CF
:1013780003132F0803198728013A03192129033A6F
:1013880003198829013A0319B9298312BF013F08B3
:10139800BB3E840083130008F4003F08BA3E840073
:1013A800831374088000BF0A2F303F02031CCB2927
:1013B8000030831208008301BF000310BF0D8B1398
:1013C80007103F0893008316141CE7298716831219
:1013D800071493018316141CEE298712831213082D
:1013E800BF008B1708008301C8000310C80D4814FC
:1013F8008B130710480893008316141C002A8312C5
:101408000714470893008316141C072A8B178312A6
:1014180008003A308301C7000030F7210A30C800BD
:10142800C9010A168A111B270A128A153B30C70000
:101438000030F7210A30C800C9010A168A111B2793
:101448000A128A155830C7000130F7212030C7002A
:101458000230F721C7010330F7210130DF21583A64
:10146800031D01340230DF21203A031D013403300B
:10147800DF210038031D01344230C7000430F72152
:101488001430C7000530F7219C30C7000630F7211B
:101498000430DF21423A031D01340530DF21143ABC
:1014A800031D01340630DF219C3A031D013402304C
:1014B800C7000730F7218030C7000830F721123005
:1014C800C7000A30F721C7010B30F72108308A001E
:1014D80002300020C7000C300A128A15F72110309C
:1014E800C7000D30F7212630C7000E30F7219C3099
:1014F800C7000F30F7216B30C7001030F7215B3081
:10150800C7001130F7217030C7001230F721C7012A
:10151800C70A1330F721C7011C30F7211030C70064
:101528004030F7210830C7004130F7213F30C7006D
:101538004230F7210430C7004330F721C701443057
:10154800F721C7014530F721C7014630F7210A12B4
:101558008A1501200A128A15C7000030F7210830C1
:101568008A0001300020C70009300A128A15F721C5
:1015780008308A0002300020C7000C300A128A1591
:10158800F721A630C7000E30F7210E30DF21F40016
:10159800F41DC92A2630C7000E30F72108308A000A
:1015A80004300020C70000300A128A15F7210830DD
:1015B8008A0005300020C70009300A128A15F72171
:1015C80008308A0006300020C7000C300A128A153D
:1015D800F721A630C7000E30F7210E30DF21F400C6
:1015E800F41DF12A2630C7000E30F7213F30C7001E
:1015F8000030F7215530C7000B30F7210B30DF21C1
:10160800553A031D0134AA30C7000B30F7210B30BF
:10161800DF21AA3A031D0234C7010B30F7217B30C2
:10162800C7000030F7210230C800C9010A168A1124
:101638001B270A128A157930C7000030F7210A16CD
:101648008A11B1250A128A1500348301C600640084
:10165800D10008308A004608F4000310F40D031086
:10166800740D0020C70000300A128A15F7210830CF
:101678008A004608F4000310F40D0310740DF400FA
:10168800740A0020C70009300A128A15F7210830A9
:101698008A004608F4000310F40D0310740D023E8E
:1016A8000020C7000C300A128A15F721C608031D4E
:1016B800602BC7010B30F7210A168A11B1250A12CF
:1016C8008A15460B003408308A004608F4000310D7
:1016D800F40D0310740D033E0020C7000B300A12EE
:1016E8008A15F7210A168A11A5250A128A150034C7
:1016F800831603138C10831212119101203092006B
:101708003730831692001C30831295009701831698
:10171800A1010230A000831203170510C5308316FB
:101728000313810064008312031705140B11FF30A3
:10173800031381008B16121508008301CF00CE0118
:101748000310CF1FAE2BCF0DCD1FAB2B4F14853001
:10175800CF06B12BCF0DCD1B4F140310CD0DCE0AE4
:1017680008304E02031CA52B4F0808008301CC004B
:10177800C62BCC0A4C03840083130008CD004A080A
:10178800A123CA00CB034B0FBD2B4A080800093020
:1017980083160313A600B101B001A001AF018312A3
:1017A800D201FF308316B600B70083120317051065
:1017B800683083160313810064008312031705142D
:1017C8000313810121309200F930831692008312AD
:1017D800910112158C1083168C148312080009309D
:1017E800831603132602031CFB2BCB230134260E7E
:1017F800F0398312CD00F530A123BF00CA001030A4
:101808008A00831626086E20003E8312CB00A7307C
:101818000A128A15BA23BF00CD01A123BF001030D8
:101828008A00831626086E200A128A15A73E8400AD
:101838008313000883123F060319F02CCB230234CC
:1018480027082506031D2C2C2808240603190A2D11
:1018580083122208023A031D352CF030A2008710AB
:101868003B2C2208083A031D3B2CCB2300347A304A
:10187800C8000330C9000A168A111B270A128A15E4
:101888000A304F250A128A150034290883122D06BA
:10189800031D0A2D8316280883122E06031D0A2D00
:1018A8008316270883122F06031D0A2D7830C800D7
:1018B8000530C9000A168A111B270A128A15220840
:1018C800023A0319712C0230A200BA303607A80078
:1018D8000A3003180B303707A90083162B08A40019
:1018E8002A08A5000C250A128A1500341330831221
:1018F800C8000130C9000A168A111B271330831249
:10190800C8000130C9000A168A111B270A128A1555
:1019180083122208083A031D932CCB230034053088
:101928004F250A128A150034290883122D06031D33
:101938000A2D8316280883122E06031D0A2D8316E6
:10194800270883122F06031D0A2DCE30C800043045
:10195800C9000A168A111B270A128A1583162A0833
:101968006F25CB2300340C250A128A150034290868
:1019780083122D06031D0A2D8316280883122E06AE
:10198800031D0A2D8316270883122F06031D0A2D0F
:101998007830C8000530C9000A168A111B270A12B8
:1019A8008A1583162A088312A100A1080319E72CB7
:1019B8000830A20093303607A8000330031804301B
:1019C8003707A900EA2CF030A20087100C250A126C
:1019D8008A150034CB230334831626080319242CD4
:1019E800013A0319492C033A0319822C013A0319C5
:1019F8008C2C073A0319982C023A03197A2C013ACD
:101A08000319B72C0F3A0319BB2CEE2CCB23003447
:101A180083160313A60183122F088316A7008312C7
:101A28002E088316A80083122D088316A900AA0180
:101A38002A08F0390138AA0083122208023A003035
:101A480003190130F400F40CF40C83162A08740608
:101A58007F397406AA0028308312CA000430CB00EC
:101A6800A730BA23C900CD01A123C900A53A031D97
:101A78004A2D8316AA1628308312CA000430CB00D8
:101A8800A730BA23C900CD01A123C900490883168C
:101A9800AB007C2308008301C6000A168A11D526EC
:101AA8004608F600F7010A128A11BF220A128A159F
:101AB8007408C700682D2230C8000130C9000A1612
:101AC8008A111B270A128A15C703470F5F2D0C2599
:101AD8000A128A1508008301C6000310C60DA32D3B
:101AE8003708F5003608F4000A128A11E12312308B
:101AF800F7000230F8004130F9000A128A11762303
:101B08000A128A11A5230A128A157408C7007508D3
:101B1800C8000C250A128A158316A008031D902DEB
:101B280083124708C9004808CA000A168A111626EF
:101B38000A128A15F400F50175040319942DC603D9
:101B4800460F742D08000330831603138E041630D5
:101B5800831203178500640005140A168A118E265D
:101B68000A128A151530AC00FD3003178D001F309E
:101B78008F0083160C118C170C148310831083129A
:101B88000E080C080313AD00FE3003178D001F303C
:101B98008F0083160C118C170C148310831083127A
:101BA8000E080C080313AE00FF3003178D001F301A
:101BB8008F0083160C118C170C148310831083125A
:101BC8000E080C080313AF00A601A50187142E0800
:101BD800BD00BE01BE00BD012F08BD043D08C80000
:101BE8003E08C9000A168A11CB26C0308B00033084
:101BF8000A128A11EB270A128A1583160317900016
:101C0800100F072E0B2E10081F3A031D172E000069
:101C1800000000002130900083120313BF0003303E
:101C28000A168A11362604300A128A11EB270A127C
:101C38008A15A0007F3A03192B2E0000000000002F
:101C480000007F30BF0004300A168A11362608309B
:101C58000A128A11EB270A128A15A0007A3A031D84
:101C6800422EBF0108300A168A1136260A128A1532
:101C7800F030A200243083168604A42E00300A1601
:101C88008A11CF253230C800C9010A168A111B27CC
:101C9800AA300A168A11CF253230C800C9010A169F
:101CA8008A111B272D082F072E070A168A11CF2500
:101CB8003230C800C9010A168A111B272D080A16D6
:101CC8008A11CF253230C800C9010A168A111B278C
:101CD8002E080A168A11CF253230C800C9010A1603
:101CE8008A111B272F080A168A11CF250A30C80027
:101CF800C9010A168A111B2783160615323083126A
:101D0800C800C9010A168A111B270A128A15061D5E
:101D1800982E5E30C8000130C9000A168A111B27A8
:101D28000A128A15061DA22EA20100303607A80045
:101D38007D3003187E303707A900A42EF030A200AA
:101D48000A168A1156260A128A1500380319B52E62
:101D5800A20100303607A8007D3003187E3037070F
:101D6800A90083160C1483123708F5003608F4000E
:101D78000A128A11E123E230F700E430F800443017
:101D8800F9000A128A1176230A128A11A523740807
:101D9800AA007508AB000A128A15CB230A128A1505
:101DA8000614A408031D861EFB2E05302402031CFE
:101DB800EA2E0430A200A301A50010303607A800BF
:101DC8000030031801303707A900F92E0230240229
:101DD800031CF92EF030A2005030A604A301A5017F
:101DE8003608A8003708A9008714A4010614A70814
:101DF800031D0619212F05302202031C202F0B304A
:101E080027020318202F0830270205300318162F41
:101E18002702031C112F0630162F02302702031C3D
:101E2800202F0730A20000303607A8007D300318A5
:101E38007E303707A900A615A701520803193A2FC3
:101E4800520B352FD2010A128A1586200A128A15DA
:101E5800013A031D3A2F0A128A15F3230A128A152A
:101E68003A2F0A128A15CB230A128A15031710086B
:101E7800043A031D4C2F0A128A111B240A128A15D0
:101E880000380317031D5B2F930F5A2F930A5A2FFD
:101E98001008073A031D5C2F00300A128A152923FF
:101EA8000A128A15181683168C16831203179001C6
:101EB8000313350836060319D52E64003608B50015
:101EC800A618992F2A08C9002B08CA000A168A11D1
:101ED80016260A128A15F400F50175040319C52F90
:101EE8003708F5003608F4000A128A11E123E230B7
:101EF800F700E430F8004430F9000A128A1176231A
:101F08000A128A11A5230A128A157408AA007508EC
:101F1800AB00031793080319932F9301C52F0A16D3
:101F28008A1156260A128A15C52F3308C9003408A3
:101F3800CA000A168A1116260A128A15F400F50133
:101F480075040319C52FCD30A605BD01F401F501AF
:101F58003D083D07A13E8400831774088000840A69
:101F6800750880003D083D07913E8400831774087A
:101F78008000840A75088000BD0A08303D02031CF1
:101F8800AA2FF030031322020318D52E0A3022029A
:101F9800031CD02FF030A2002808C9002908CA0065
:101FA8000A168A1116260A128A15F400F501750414
:101FB8000319D52EA301A5012208023A031DE92F12
:101FC8008316A501F0308312FD2F2208083A031D5D
:101FD800FC2FA1080319FE2FA10BF32FFC2F933020
:101FE8003607A8000330031804303707A900FE2F6E
:101FF800F030A2008714D52E8207CC34CC34CC34F0
:10200800CC34CC34CC34CC34CC34FF340034FF342E
:102018000034FF340034FF340034FF34FF34FF341D
:10202800FF34FF34FF34FF34FF34FF34FF34FF3410
:10203800FF34FF34FF34FF34FF34FD34FF34FF3402
:10204800FF34FF34FF34FF34FF34EE34EE34AA3467
:10205800AA34FF34FF34FF34FF34CC34FC34FF346B
:10206800FF34FF34FF34FF34FF34CC34CC34CC3469
:10207800FF34FF34FF34FF34FF34FF34FF34FF34C0
:10208800FF34FF34FF34FF34FF3482070D34083443
:102098000D340934FF340934FF34FF34FF34FF347E
:1020A800FF340B3482070134003401340034003427
:1020B800013400340134013400340134003482071F
:1020C80008340834FF34083408340A34FF34FF3441
:1020D800FF340934820702340534003400340434F0
:1020E80000340034003404348207013400340134ED
:0A20F80000340034013400340134D8
:102B4A000D308301C700C70BA82D08008316031395
:102B5A008C108312121108007D308301C700C7034D
:102B6A00470FB42D0800831203179008031DBF2DC9
:102B7A000030C02D01300313080083160313AF0879
:102B8A00031DCC2DA008031DCC2D0030CD2D013006
:102B9A00831208008301BF008B13061100003F084F
:102BAA0093008316141CD62D0000831206158B176A
:102BBA00080083010710213093008316141CE22DAC
:102BCA00831207146B3093008316141CE92D8312A9
:102BDA00080083010710213093008316141CF22D7C
:102BEA00831207147B3093008316141CF92D831269
:102BFA0008008301BD009F0183169F01831281385B
:102C0A009F00BE010A303E020318102EBE0A0A3087
:102C1A003E02031C0B2E9F1400009F18122E1E0842
:102C2A0008008B13831203134A083702031D1F2E51
:102C3A0049083602031C342E3708F5003608F4001A
:102C4A004908F402031CF5034A08F50280307502AC
:102C5A000030031974028B17031C013400348B17DC
:102C6A0000348301C000831603178C18382E831290
:102C7A000313400803178D0003133F0803178C0042
:102C8A0083168C1303108B1B03148B130C155530EE
:102C9A008D00AA308D008C140C1103188B17830138
:102CAA0008008301181283168C1298120C128312D0
:102CBA0003179001910103133708F5003608F40051
:102CCA000A128A11E123A930F7002B30F8004530A7
:102CDA00F9000A128A1176230A128A11A5237408A6
:102CEA00B3007508B4000A128A150D220A168A1151
:102CFA0000380319822E01308C2E00300A128A15F0
:102D0A0029230A168A11181683168C160030831284
:102D1A000800603083160313810024309500831263
:102D2A0086003A3083168600083083128500033005
:102D3A0083168500413083128700903083168700FE
:102D4A000330031788000A30890081308312031385
:102D5A009F0083169F01113083129000E930831679
:102D6A009700831203178916A5308700403083160F
:102D7A00031394003130831294000C3083169900A7
:102D8A0004309800803083129800080083014808B4
:102D9A00B9004908BA00BB01BC01B801B80A080069
:102DAA008301B808031DDD2EC801C80AC901CB2654
:102DBA006D30F8004E30F900C630FA004130FB00A1
:102DCA003908F4003A08F5003B08F6003C08F70019
:102DDA000A128A1182220A168A113930F800303012
:102DEA00F900FA01FB0178087407FC007508FD0078
:102DFA0079080318790FFD077608FE007A08031888
:102E0A007A0FFE077708FF007B0803187B0FFF077E
:102E1A007C08B9007D08BA007E08BB007F08BC00A8
:102E2A00F5003B08F4007F30F5050800612F0F0814
:102E3A00CD000E08CC004D080F06031D1C2F6400A0
:102E4A00C6304C07CA000330031804304D07CB00C4
:102E5A004B084D02031D332F4A084C02031C472F0F
:102E6A004D08F5004C08F4004A08F402031CF50367
:102E7A004B08F50280307502003003197402031CF6
:102E8A00612F582F4B08F5004A08F4004C08F40249
:102E9A00031CF5034D08F502803075020130031951
:102EAA0074020318612F0F08CD000E08CC004D08DC
:102EBA000F0603192D2F582F8312031348080319DD
:102ECA00C903C803480A0319490A031908001C2F31
:102EDA0083120317150CF400F40C740C0F39F40068
:102EEA000530740203188B2F10308A00150D150D4A
:102EFA000139F400150CF500F50C750C0F39F500C5
:102F0A007507740763200A168A11A52F150CF40099
:102F1A00F40C740C0F390F3A031DA42F0630160255
:102F2A000318A42F10308A00150D150D0139F4006D
:102F3A0016081607740749200A168A11A52FFF30AA
:102F4A00031308008301C600FF30CA00CB006D27B7
:102F5A008313C900490FB22FFF34FE30C907C801D5
:102F6A00490848020318DA2F4808143E84008317D8
:102F7A000008CA06C7014A1CD02F4B08F5004A08A8
:102F8A00F4000310F50CF40C01307406CA00A030EA
:102F9A007506CB00D32F0310CB0CCA0CC70A083016
:102FAA004702031CC02FC80AB52FC6080319EA2F07
:102FBA004908143E840083174B0880004908153ECF
:102FCA00840083174A08800000344908143E8400AC
:102FDA0083170008F500F4014908153E8400831799
:102FEA000008F4044B087506031DFD2F4A087406F1
:062FFA0003190034FF344E
:04400E00C123FF3E8D
:00000001FF
