:0600000002308A002A2AEA
:10000800F30003088301D3000408D4000A08D500CC
:100018008A017408DE007E08DD007F08DC007508B0
:10002800E5007608E2007708DF007808E000790844
:10003800E1007A08E4007B08E3007C08DB007D0827
:10004800DA005608D8005708D900831603138C1C09
:100058005B2883128C1C5B28831201088316E90035
:10006800831281018C102208F23A031D4928831655
:100078006908143A8312031D44282619462848287B
:100088002619482887144928871012308316031325
:10009800690203185128E901572817306902031C1F
:1000A80057280830E90001308312D100BF288B1A85
:1000B8000B1DBF285D3083128107B3282108F40087
:1000C800F5017508103E8312D7007408843E0318A2
:1000D800D70A0A128A115B220A128A11013A031DF1
:1000E80078280C3097047B280711F330970583167E
:1000F800A10A2108083A031DBE280530A100A30162
:10010800A30AA2010430A6282208A73E840083136C
:1001180000082305031994280C30831297049828A3
:1001280083120711F33097058030831623020318D2
:10013800A0280310A30DBE28A301A30AA20AA10B9D
:10014800BE280530A000BE28F3308312970507119A
:100158008B128316A00102308312D100BE288316A9
:100168002008023A03196228063A03198828013A36
:100178000319A8280B1183168C1E5C2983128C1E68
:100188005C2983121A08D0001819CC28981C4B290E
:10019800981CD128181200001816023003171002F4
:1001A800031CBA290A168A11AB250A128A110317E9
:1001B80091011008043A0319BA2949290313500870
:1001C800553A0317031DF728910A1108043A031D2D
:1001D800BA290A168A119B250A128A110317910156
:1001E8009001900ABA299101BA29031350085A3A82
:1001F800031D05295A30031794009101910A023012
:1002080040290317910A1108083A031DBA294229FF
:10021800910A1103143E84008317031350088000C9
:1002280003171108043A031DBA290A128A15F02087
:100238000A128A1103179200120F23294229033048
:100248004029910A1103143E8400831703135008B0
:100258008000031712081102031CBA29031318128D
:1002680083168C128312031791010A168A11AB2583
:100278000A128A11043003179000BA290A168A1143
:10028800AB250A128A11031791019001BA290317A5
:1002980010080319E228013A0319F928033A031947
:1002A8000C29013A03192529073A0319BA294229C1
:1002B80083160C1EBA2983120C1EBA29A729553099
:1002C800031399000317910A11080A3A031DB82964
:1002D80091019001900AB829FF3003139900031780
:1002E800910A1108023A031DB8290A128A15F0204A
:1002F8000A128A110317920091010330A529910A65
:100308001103143E84008317000803139900031790
:1003180012081102031CB82991010530A5295C3087
:10032800031399000317910A1103031DB829063016
:10033800A5298316031398120C128312031791012F
:1003480007309000B829831203171008031963298E
:10035800013A03197029023A03198329063A031945
:100368009329033A03199D2903130C1283120313CB
:100378000C1C032A83160C1C032A8312B60A0319C1
:10038800B70A0619A70AA5080319861ACC29A40AC8
:10039800F03022020318022A10308A002208F400E2
:1003A8000310F40D0310F40D0310740DF40023086A
:1003B800F5000310F50C0310F50C0310750C073944
:1003C800740700200A128A11F4000130F50023088E
:1003D8000739F600F60AF2290310F50DF60BF02995
:1003E800750874050319FE298714A5080319012A3D
:1003F800A503012A87100430A500A30A0C100313D3
:1004080083125E08F4005D08FE005C08FF006508C2
:10041800F5006208F6005F08F7006008F800610858
:10042800F9006408FA006308FB005B08FC005A083E
:10043800FD005808D6005908D7005408840055080C
:100448008A0053088300F30E730E090020308400DD
:10045800513049220230D7007130D6005130840023
:1004680053304E22A0308400EF30492283171030D9
:1004780084005E30492290308400B53049220A1247
:100488008A15A32D04068001840A0406031D462A42
:1004980064000034F4000A128A115E220A128A11DA
:1004A8008000840A04087406031900344F2A831252
:1004B8000313D600D71B692A571B712A57088A00CD
:1004C8005608D60A0319D70A8200831357188317C8
:1004D8005608D60A84000008080000340034840155
:1004E8007408FC007508FD007608FE007708FF0018
:1004F800F601F701F401F5010310FF0CFE0CFD0CE9
:10050800FC0C031C952A7808F40779080318790F5E
:10051800F5077A0803187A0FF6077B0803187B0F8C
:10052800F7077C087D047E047F040319A12A0310C1
:10053800F80DF90DFA0DFB0D802A84080319003413
:10054800770880008403760880008403750880009B
:100558008403740880000034FA01F51FBA2AF409EC
:10056800F40A0319F503F5097A17FA177708803999
:10057800FA06F71FC62AF609F60A0319F703F70958
:10058800C62AFA01F801F90176087704031DCF2A73
:10059800F401F50100341F30FA040310FA0AF60DCD
:1005A800F70D031CD22AF70CF60C77087502031D09
:1005B800DF2A76087402031CE72A7608F402770813
:1005C800031C770AF502F80DF90DFA0BFA1AD72A67
:1005D800FA1FF32AF809F80A0319F903F909780840
:1005E800F6007908F7007A1F0034F409F40A0319B1
:1005F800F503F509003483120317900191010130C6
:100608000A168A11AD270A128A1100380319152B08
:10061800A20100303607A8007D3003187E30370766
:10062800A9005A3003179400951301300A128A154D
:100638002A210A128A11831698160C1683120800AA
:1006480083012C080317970003132D08031798003C
:1006580003132E080317990003132F0803179A0092
:1006680003132208F03A0319261D3C2BF1303D2BC9
:10067800220803179B0002300A128A11ED270A127A
:100688008A1103179C008316100883129D008D3071
:100698009E000313080083120317951F612B003077
:1006A8000A128A152A210A128A1100380319A12F61
:1006B800181683168C160130C22F0313BE2F190E7D
:1006C800F400F40C740C0339F400F41CA42B831606
:1006D8000313AF01EA1483123708F5003608F40053
:1006E800C930F4070318F50A0130F50774088316B2
:1006F800ED007508EE0083120317160883169300A1
:1007080083121708831694001308F500F40174087F
:1007180003138312C4007508C50083160317140851
:10072800F400F501031383124408F4044508F504A2
:10073800FF3074058316031793000F307505940076
:1007480083121608831691008312170883169200E5
:100758001108F500F401740803138312C400750826
:10076800C500831603171208F400F501031383125A
:100778004408F4044508F504FF307405831603178C
:1007880091000F307505920012081406031DCE2B38
:10079800110813068312031DE22B190EF400F40C42
:1007A800740C0339F400F418E22B031306148316AF
:1007B800AF01AF0AEA10EA138312A6130317190C44
:1007C800F400F40C740C07390319F92B0313261AD7
:1007D800F92B2616031717080739F4007407953EF6
:1007E800840083178001840A800183160313EA1F9B
:1007F800EA1C1F2C8312A61F1F2CCD30A605BF0193
:10080800F401F5013F083F07A53E840083177408EB
:100818008000840A750880003F083F07953E8400E1
:10082800831774088000840A75088000BF0A08309E
:100838003F02031C042C8312031717080739F4001E
:100848007407953E8400831716080006031D2F2C95
:100858001708840A00060319B52F19080739F40088
:100868000130F600F701F40A3C2C0310F60DF70DE1
:10087800F40B392CFF30F607031CF70703132F0876
:10088800F605F701031718087F39F400F501770812
:100898007506031D512C76087406031DB52F17081D
:1008A8000739F4007407A53E8400831716088000F2
:1008B800840A17088000812CF130031322020318E0
:1008C8008F2C0630A20040303607A80001300318EC
:1008D80002307B2C053003132202031C8F2C0530B9
:1008E800A20093303607A8000330031804303707F6
:1008F800A9007F2C0313A6158F2C190CF500F50CF5
:10090800750C0739013A0319602C033A03196E2C48
:10091800013A03197E2C0A168A111D260A128A1119
:100928000130F600031715080739F700F70A9E2C5F
:100938000310F60DF70B9C2C7608F6007603740569
:100948000A128A1598200A128A112C080317960091
:1009580003132D080317970003132E080317980095
:1009680003132F080317990095010313A61DBE2C26
:10097800031715140313261FC32C03179514031309
:10098800A61FC82C03171515BA3003133607B30072
:100998000A3003180B303707B4000330A604B52F0C
:1009A80003132F0803171906031DEA2C03132E0837
:1009B80003171806031DEA2C03132D08031717063F
:1009C800031DEA2C03132C0803171606031DB52F65
:1009D8000313C10141084107A53E8400831700089D
:1009E800C200840A0008C30042040319092D420802
:1009F800BF004308C00041084107953E84008317A3
:100A08003F088000840A40088000C10A083041027B
:100A1800031CEE2C3F08F500F4017408C4007508A7
:100A2800C5004008F400F5014408F4044508F5043D
:100A3800FF307405BF000F307505C0000317150897
:100A48000739F400741C372D03132208F03A031DEC
:100A5800372D0630A20040303607A80001300318B1
:100A680002303707A90083160317140883120313EB
:100A78004006031D452D831603171308831203131D
:100A88003F06031D542D031715080739F400741D7C
:100A9800512D83160313EA17542D83160313EA13F3
:100AA800003083124002053003193F02031C6A2DEF
:100AB80000304002083003193F02031C712D00303A
:100AC80040020D3003193F020318712DEA30360732
:100AD800B3002A3003182B30772DBA303607B3000D
:100AE8000A3003180B303707B4008316EA1F932D1A
:100AF80003171408831203134006031D892D831658
:100B080003171308831203133F06031D932DE430C4
:100B18003607B3000030031801303707B4008312DA
:100B2800A6143730A605B52F03132F0803171B0685
:100B3800031DAE2D03132E0803171A06031DAE2D31
:100B480003132D0803171906031DAE2D03132C08D4
:100B580003171806031DB52F03132C080317960057
:100B680003132D080317970003132E080317980083
:100B780003132F0803179900BA3003133607B3007D
:100B88000A3003180B303707B400E32D2130031364
:100B9800A604F12D0A128A1519250A128A11F02DB8
:100BA8002208F03A031DF02D0630A2004030360727
:100BB800A8000130031802303707A900F02D0317E9
:100BC80015080739013A0319CA2D043A0319CE2D1D
:100BD800023A03130319D42D261410300317950075
:100BE800B52F16088316031325068312031D042E3A
:100BF8000317170883160313240683120319B62F45
:100C08002208023A031D0B2EF030A200871022089A
:100C1800083A0319B52F7A30C8000330C9000A1200
:100C28008A1546200A300A128A155C250A128A118A
:100C3800B52F1A0803132D06031DB52F031719081E
:100C480003132E06031DB52F0317180803132F06C9
:100C5800031DB52F7830C8000530C9000A128A155F
:100C680046200A128A1103179608031D502E1708EA
:100C78000313A100A10803194C2E0830A2009330D9
:100C88003607A8000330031804303707A9006A2E76
:100C9800F030A20087106A2E03132208023A0319C3
:100CA8005F2E0230A200BA303607A8000A300318B7
:100CB8000B303707A9000317170883160313A4007E
:100CC80083120317160883160313A5000A128A1540
:100CD80019250A128A11B52F17085A3A031D7A2EB8
:100CE8000A168A1169250A128A11B52F0A128A155D
:100CF800D7230A128A11B52F13300313C800013005
:100D0800C9000A128A15462013300313C80001309F
:100D1800C9000A128A1546200A128A1103132208EA
:100D2800083A0319B52F05300A128A155C250A12EC
:100D38008A11B52F1A0803132D06031DB52F0317A3
:100D4800190803132E06031DB52F031718080313DC
:100D58002F06031DB52FCE30C8000430C9000A1273
:100D68008A154620031717080A128A157C250A12C5
:100D78008A11B52F0A128A1519250A128A11B52F58
:100D8800150807390319F52D013A03191D2E033AE1
:100D98000319882E013A0319922E073A03199E2E39
:100DA800013A0319702E033A0319802E013A0319E8
:100DB800BE2EB52F173084008317031331080006A1
:100DC800031DE92E3208840A00060319F42E0317BE
:100DD80017080313B100031718080313B200B00172
:100DE800073030020318B52FB00A0A168A111D26DB
:100DF80074080A128A1598200A128A111B2F0313E5
:100E08002F0803171A06031D192F03132E0803179B
:100E18001906031D192F03132D0803171806031DA0
:100E2800192F03132C0803171706031DB52F2423A6
:100E38000A128A112614B52F03132F0803171A064E
:100E4800031D362F03132E0803171906031D362F0B
:100E580003132D0803171806031D362F03132C0838
:100E680003171706031DB52F8B1383168C18392FFC
:100E780083128D0101308C0083168C1303108B1B99
:100E880003148B130C1555308D00AA308D008C146B
:100E98000C1103188B1783120514512F03132F08F5
:100EA80003171A06031D682F03132E0803171906C4
:100EB800031D682F03132D0803171806031D682F39
:100EC80003132C080317170603197A2FB52F0313DA
:100ED8002208F23A031D722FF030A2008710782FF3
:100EE800F2300313A200871426148A2F1C08F70077
:100EF8001B08F600862F760803196B2F013A031991
:100F0800742F8A2F7708803A03197F2F0313261C22
:100F1800B52F03179601960A24230A128A11B52FB2
:100F280016080319DE2E013A0319032F033A031991
:100F3800202F073A0319522FB52F0317150CF50068
:100F4800F50C750C0F390319632B013A0319D42CCE
:100F5800033A0319982D063A0319C42E0B3A0319BC
:100F6800942F83120313261CBE2FFF220A128A1104
:100F78002610C12F181683168C160030831208000D
:100F88008301181283168C1298120C1283120317FD
:100F980090019101BA3003133607B3000A300318E1
:100FA8000B303707B4000A168A1191260A128A11E3
:100FB80000380319E12F0130EB2F00300A168A118F
:100FC800AD270A128A11181683168C160030831260
:100FD80008008301C600831603178C18EF2F8312AD
:100FE8000313460803178D0083168C130C14831201
:060FF8000C0803130800C1
:1010000082071134443460340034E134813448348C
:101010000F3460308316031381002430950083124F
:1010200086003A308316860008308312850003302C
:101030008316850041308312870090308316870025
:101040000330031788000A308900813083120313AC
:101050009F0083169F01113083129000E9308316A0
:101060009700831203178916A53087004030831636
:10107000031394003130831294000C3083169900CE
:101080000430980080308312980008008C280F08E4
:10109000CD000E08CC004D080F06031D4728640044
:1010A000C6304C07CA000330031804304D07CB008C
:1010B0004B084D02031D5E284A084C02031C72288F
:1010C0004D08F5004C08F4004A08F402031CF5032F
:1010D0004B08F50280307502003003197402031CBE
:1010E0008C2883284B08F5004A08F4004C08F402C9
:1010F000031CF5034D08F502803075020130031919
:10110000740203188C280F08CD000E08CC004D087F
:101110000F0603195828832883120313480803195C
:10112000C903C803480A0319490A031908004728D4
:101130008301C600EA280F08C900CA01F500F401BE
:101140000E087404C9007508CA000F06031D9B2809
:101150005A304907C7001530031816304A07C8002F
:10116000640048084A02031DB72847084902031CC7
:10117000CB284A08F5004908F4004708F402031C8C
:10118000F5034808F5028030750200300319740237
:10119000031CEA28DC284808F5004708F400490841
:1011A000F402031CF5034A08F50280307502013091
:1011B000031974020318EA280F08C900CA01F500D0
:1011C000F4010E087404C9007508CA000F0603195B
:1011D000B128DC2883120313C603460F9B2808009E
:1011E00083120317150CF400F40C740C0F39F4007F
:1011F0000530740203180E2910308A00150D150DE4
:101200000139F400150CF500F50C750C0F39F500DB
:101210007507740763200A128A152829150CF40033
:10122000F40C740C0F390F3A031D272906301602EF
:101230000318272910308A00150D150D0139F40007
:1012400016081607740756200A128A152829FF3037
:10125000031308008301C600FF30CA00CB00F02052
:101260008313C900490F3529FF34FE30C907C8016F
:101270004908480203185D294808143E8400831772
:101280000008CA06C7014A1C53294B08F5004A0842
:10129000F4000310F50CF40C01307406CA00A03001
:1012A0007506CB0056290310CB0CCA0CC70A0830B0
:1012B0004702031C4329C80A3829C60803196D29A7
:1012C0004908143E840083174B0880004908153EE6
:1012D000840083174A08800000344908143E8400C3
:1012E00083170008F500F4014908153E84008317B0
:1012F0000008F4044B087506031D80294A0874068B
:1013000003190034FF34612B28303002031C5D2B9D
:101310008312BF018316B901B401B501F529831207
:101320003F08F4000310F40D0310740D0C3EAF3EA3
:10133000840083130008F7003F08F4000310F40D45
:101340000310740D0B3EAF3E840083130008F600BB
:101350003F08F4000310F40D0310740D0D3EAF3E72
:10136000840083130008F5003F08F4000310F40D17
:101370000310740D0E3EAF3E840083130008750702
:10138000760777078316B8000310B80C0310B80C63
:101390000310B80C10308A0083123F086E200A1226
:1013A0008A1500380319E729043083163802031C14
:1013B000EC290A30F400F5013808F402031CF503A7
:1013C0007408B4070318B50A7508B507F329023085
:1013D00083163802031CEF29B901B90AF32938082A
:1013E000B4070318B50A8312BF0A0A3083123F02FA
:1013F00083160318FE29B90803198F29360A031921
:10140000370A0319BE2AB908031D0E2A3508370208
:10141000031D0C2A340836020318C12AB001B00A91
:10142000FF30B600B7008312013086068316EA1B30
:10143000292A8312A6172208F03A031D292A04300C
:10144000A2000F303607A80000300318013037071C
:10145000A9008312A617722B30303002031C5D2BBB
:101460008312BF018316B901B401B5019D2A83120D
:101470003F08F4000310F40D0310740D0C3EAF3E52
:10148000840083130008F7003F08F4000310F40DF4
:101490000310740D0B3EAF3E840083130008F6006A
:1014A0003F08F4000310F40D0310740D0D3EAF3E21
:1014B000840083130008F5003F08F4000310F40DC6
:1014C0000310740D0E3EAF3E8400831300087507B1
:1014D000760777078316B8000310B80C0310B80C12
:1014E0000310B80C10308A0083123F0849200A12FA
:1014F0008A15003803198F2A043083163802031C1A
:10150000942A0A30F400F5013808F402031CF503AC
:101510007408B4070318B50A7508B5079B2A02308A
:1015200083163802031C972AB901B90A9B2A380886
:10153000B4070318B50A8312BF0A0C3083123F02A6
:1015400083160318A62AB9080319372A360A03197D
:10155000370A0319BE2AB908031DB62A350837020F
:10156000031DB42A340836020318C12A0230AF0022
:10157000B001B00AFF30B600B700722BB908031DE6
:10158000722B3408B6003508B700722BA60130085C
:101590000F390F3A031D5D2B8312BF013F08F40082
:1015A0000310F40D0310740D303CB73E8400831318
:1015B0000008F7003F08F4000310F40D0310740D49
:1015C000303CB93E840083130008F6003F08F40065
:1015D0000310F40D0310740D303CB83E84008313E7
:1015E0000008F5003F08F4000310F40D0310740D1B
:1015F000303CB63E840083130008750776077707F2
:101600008316B8000310B80C0310B80C0310B80C04
:101610000310A60D06303802031826148312BF0AE1
:1016200004303F02031CCE2A093083162602031819
:101630002A2B10308A00260879200A128A15F40015
:10164000740AB100A730B200B301B30A0330AF008F
:10165000B0015D2BAF01AF0AB001722B3008033926
:10166000033A031D5D2B6608670769076807B80022
:101670000310B80C0310B80C0310B80C0630380275
:10168000320884008313031C482B330880044A2B40
:1016900033098005803033020318512B0310B30D3A
:1016A0005D2BB301B30AB20AB10B5D2B8C10831210
:1016B000121104308316AF005F2BB00A722B013079
:1016C000862B831603132F0803198429013A031963
:1016D0002C2A033A0319C62A013A03192E2B073A7A
:1016E00003195F2B8312BF013F08BB3E84008313A5
:1016F0000008F4003F08BA3E840083137408800099
:10170000BF0A2F303F02031C742B003083120800E5
:10171000831603138C108312121191012030920052
:101720003730831692001C30831295009701831680
:10173000A1010230A000831203170510C5308316E3
:101740000313810064008312031705140B11FF308B
:10175000031381008B16121508008301CF00CE0100
:101760000310CF1FBA2BCF0DCD1FB72B4F148530D1
:10177000CF06BD2BCF0DCD1B4F140310CD0DCE0AC0
:1017800008304E02031CB12B4F0808008301CC0027
:10179000D22BCC0A4C03840083130008CD004A08E6
:1017A000AD23CA00CB034B0FC92B4A0808000930F0
:1017B00083160313A600B101B001A001AF01AF0A67
:1017C0008312D101FF308316B600B70083120317CE
:1017D0000510683083160313810064008312031719
:1017E00005140313810121309200F9308316920011
:1017F0008312910112158C1083168C148312080029
:101800000930831603132602031C082CD723013446
:10181000260EF0398312CD00F530AD23BF00CA008B
:1018200010308A00831626087920003E8312CB00F0
:10183000A7300A128A15C623BF00CD01AD23BF0011
:1018400010308A008316260879200A128A15A73ECE
:1018500084008313000883123F060319FD2CD7234D
:10186000023427082506031D392C280824060319ED
:10187000172D83122208023A031D422CF030A200D9
:101880008710482C2208083A031D482CD72300341F
:101890007A30C8000330C9000A128A1546200A129D
:1018A0008A150A305C250A128A1500342908831229
:1018B0002D06031D172D8316280883122E06031DDF
:1018C000172D8316270883122F06031D172D783036
:1018D000C8000530C9000A128A1546200A128A1566
:1018E0002208023A03197E2C0230A200BA303607D1
:1018F000A8000A3003180B303707A90083162B08FD
:10190000A4002A08A50019250A128A1500341330EC
:101910008312C8000130C9000A128A15462013300C
:101920008312C8000130C9000A128A1546200A1223
:101930008A1583122208083A031DA02CD7230034ED
:1019400005305C250A128A150034290883122D06F9
:10195000031D172D8316280883122E06031D172D2D
:101960008316270883122F06031D172DCE30C800BB
:101970000430C9000A128A1546200A128A158316F5
:101980002A087C25D723003419250A128A15003429
:10199000290883122D06031D172D8316280883128C
:1019A0002E06031D172D8316270883122F06031DED
:1019B000172D7830C8000530C9000A128A15462054
:1019C0000A128A1583162A088312A100A108031996
:1019D000F42C0830A20093303607A8000330031817
:1019E00004303707A900F72CF030A2008710192522
:1019F0000A128A150034D7230334831626080319E4
:101A0000312C013A0319562C033A03198F2C013A51
:101A10000319992C073A0319A52C023A0319872CAC
:101A2000013A0319C42C0F3A0319C82CFB2CD723F5
:101A3000003483160313A60183122F088316A70010
:101A400083122E088316A80083122D088316A9007E
:101A5000AA012A08F0390138AA0083122208023AA2
:101A6000003003190130F400F40CF40C83162A083A
:101A700074067F397406AA0028308312CA00043025
:101A8000CB00A730C623C900CD01AD23C900A53ABC
:101A9000031D572D8316AA1628308312CA0004305E
:101AA000CB00A730C623C900CD01AD23C90049082A
:101AB0008316AB00882308008301C6000A168A112A
:101AC0001D264608F600F7010A128A11B0220A12F2
:101AD0008A157408C700752D2230C8000130C9006E
:101AE0000A128A1546200A128A15C703470F6C2D61
:101AF00019250A128A1508008301C6000310C60DB5
:101B00009F2D08303607C700003003180130370713
:101B1000C80019250A128A158316A008031D8C2DEA
:101B200083124708C9004808CA000A168A11D3253B
:101B30000A128A15F400F50175040319902DC603E5
:101B4000460F812D08000330831603138E041630D0
:101B5000831203178500640005140A128A150920F0
:101B60000A128A151630AC00FD3003178D001F30A5
:101B70008F0083160C118C170C14831083108312A2
:101B80000E080C080313AD00FE3003178D001F3044
:101B90008F0083160C118C170C1483108310831282
:101BA0000E080C080313AE00FF3003178D001F3022
:101BB0008F0083160C118C170C1483108310831262
:101BC0000E080C080313AF00A601A50187142E0808
:101BD000BD00BE01BE00BD012F08BD043D08C80008
:101BE0003E08C9000A168A111326C0308B00033044
:101BF0000A128A11ED270A128A158316031790001C
:101C0000100F032E072E10081F3A031D132E00007D
:101C1000000000002130900083120313BF00033046
:101C20000A168A11F32504300A128A11ED270A12C6
:101C30008A15A0008D3A0319272E0000000000002D
:101C400000008D30BF0004300A168A11F3250830D9
:101C50000A128A11ED270A128A15A000A00803199A
:101C60003E2EBF0108300A168A11F3250A128A1582
:101C7000F030A200243083168604A02E00300A160D
:101C80008A118C253230C800C9010A128A154620F3
:101C9000AA300A168A118C253230C800C9010A12EE
:101CA0008A1546202D082F072E070A168A118C2523
:101CB0003230C800C9010A128A1546202D080A16BA
:101CC0008A118C253230C800C9010A128A154620B3
:101CD0002E080A168A118C253230C800C9010A1252
:101CE0008A1546202F080A168A118C250A30C8004A
:101CF000C9010A128A15462083160615323083124E
:101D0000C800C9010A128A1546200A128A15061D42
:101D1000942E5E30C8000130C9000A128A15462090
:101D20000A128A15061D9E2EA20100303607A80051
:101D30007D3003187E303707A900A02EF030A200B6
:101D40000A128A11C4270A128A1500380319B12E03
:101D5000A20100303607A8007D3003187E30370717
:101D6000A90083160C14273083123607AA00073007
:101D7000031808303707AB000A128A15D7230A1256
:101D80008A150614A408031D861EE82E05302402B9
:101D9000031CD72E0430A200A301A5001030360783
:101DA000A8000030031801303707A900E62E0230E2
:101DB0002402031CE62EF030A2005030A604A3013A
:101DC000A5013608A8003708A9008714A401061445
:101DD000A708031D06190E2F05302202031C0D2F24
:101DE0000B30270203180D2F083027020530031887
:101DF000032F2702031CFE2E0630032F023027027A
:101E0000031C0D2F0730A20000303607A8007D30DC
:101E100003187E303707A900A615A701510803193A
:101E2000272F510B222FD1010A128A1583210A1262
:101E30008A15013A031D272F0A128A1500240A1257
:101E40008A15272F0A128A15D7230A128A15031713
:101E50001008043A031D392F0A128A114F230A125F
:101E60008A1500380317031D482F930F472F930A35
:101E7000472F1008073A031D492F00300A168A1110
:101E8000AD270A128A15181683168C1683120317AB
:101E900090010313350836060319C22E6400360874
:101EA000B500A618752F2A08C9002B08CA000A1603
:101EB0008A11D3250A128A15F400F5017504031955
:101EC000A12F27303607AA0007300318083037073C
:101ED000AB000317930803196F2F9301A12F0A1268
:101EE0008A11C4270A128A15A12F3308C9003408A1
:101EF000CA000A168A11D3250A128A15F400F501C0
:101F000075040319A12FCD30A605BD01F401F5011B
:101F10003D083D07A53E8400831774088000840AAD
:101F2000750880003D083D07953E840083177408BE
:101F30008000840A75088000BD0A08303D02031C39
:101F4000862F83160313EA1CC22F6D088312C90063
:101F500083166E088312CA000A168A11D3250A1244
:101F60008A15F400F50175040319C22F06148316AF
:101F7000AF01AF0AEA10EA138312A6138316031700
:101F800093019401F0308312031322020318C22E2E
:101F90000A302202031CCF2FF0308313A20028083E
:101FA000C9002908CA000A168A11D3250A128A15FF
:101FB000F400F50175040319C22EA301A50122083E
:101FC000023A031DE92F8316A501F0308313831213
:101FD000FD2F2208083A031DFC2FA1080319FE2F2C
:101FE000A10BF32FFC2F93303607A8000330031802
:101FF00004303707A900FE2FF030A2008714C22E4C
:102000008207CC34CC34CC34CC34CC34CC34CC3447
:10201000CC34FF340034FF340034FF340034FF3458
:102020000034FF34FF34FF34FF34FF34FF34FF3417
:10203000FF34FF34FF34FF34FF34FF34FF34FF3408
:10204000FF34FD34FF34FF34FF34FF34FF34FF34FA
:10205000FF34EE34EE34AA34AA34FF34FF34FF34B4
:10206000FF34CC34FC34FF34FF34FF34FF34FF340E
:10207000FF34CC34CC34CC34FF34FF34FF34FF3461
:10208000FF34FF34FF34FF34FF34FF34FF34FF34B8
:10209000FF34820701340034013400340034013449
:1020A00000340134013400340134003482070D342B
:1020B00008340D340934FF340934FF34FF34FF345D
:1020C000FF34FF340B34820708340834FF340834FB
:1020D00008340A34FF34FF34FF34093482070134F2
:1020E000003401340134003400340034003400344E
:1020F00000348207023405340034003404340034E0
:1021000000340034043482070134003401340034D4
:082110000034013400340134F5
:102AC0008301520808000D308301C700C70B662D33
:102AD0000800831603138C108312121108007D3036
:102AE0008301C700C703470F722D08008312031725
:102AF0009008031D7D2D00307E2D0130031308004A
:102B0000831603132F0B892DA008031D892D003078
:102B10008A2D0130831208008301BF008B13061138
:102B200000003F0893008316141C932D00008312AD
:102B300006158B17080083010710213093008316B8
:102B4000141C9F2D831207147B3093008316141CD2
:102B5000A62D8312080083010710213093008316ED
:102B6000141CAF2D831207146B3093008316141CB2
:102B7000B62D831208008301BD009F0183169F01BB
:102B8000831281389F00BE010A303E020318CD2D0A
:102B9000BE0A0A303E02031CC82D9F1400009F1875
:102BA000CF2D1E0808008B13831203134A08370227
:102BB000031DDC2D49083602031CF12D3708F500F2
:102BC0003608F4004908F402031CF5034A08F5022C
:102BD000803075020030031974028B17031C013416
:102BE00000348B1700348301C000831603178C1840
:102BF000F52D83120313400803178D0003133F08BC
:102C000003178C0083168C1303108B1B03148B1378
:102C10000C1555308D00AA308D008C140C11031842
:102C20008B178301080083014808B9004908BA00DE
:102C3000BB01BC01B801B80A08008301B808031D34
:102C4000252EC801C80AC90113266D30F8004E3080
:102C5000F900C630FA004130FB003908F4003A08A8
:102C6000F5003B08F6003C08F7000A128A117322AF
:102C70000A168A113930F8003030F900FA01FB01E8
:102C800078087407FC007508FD0079080318790FAF
:102C9000FD077608FE007A0803187A0FFE0777080A
:102CA000FF007B0803187B0FFF077C08B9007D0835
:102CB000BA007E08BB007F08BC00F5003B08F400AA
:102CC0007F30F50508008301BF000310BF0D8B1393
:102CD00007103F0893008316141C6B2E871683126F
:102CE000071493018316141C722E87128312130883
:102CF000BF008B1708008301C8000310C80D4814DB
:102D00008B130710480893008316141C842E83121B
:102D10000714470893008316141C8B2E8B178312FD
:102D200008003A308301C70000307B260A30C80013
:102D3000C9010A128A1546200A168A113B30C700BB
:102D400000307B260A30C800C9010A128A154620C5
:102D50000A168A115830C70001307B262030C70080
:102D600002307B26C70103307B2601306326583AA8
:102D7000031D013402306326203A031D0134033061
:102D800063260038031D01344230C70004307B261F
:102D90001430C70005307B269C30C70006307B26E8
:102DA00004306326423A031D013405306326143A89
:102DB000031D0134063063269C3A031D01340230A2
:102DC000C70007307B268030C70008307B261230D2
:102DD000C7000A307B26C7010B307B2608308A00EB
:102DE00002300020C7000C300A168A117B261030F2
:102DF000C7000D307B262630C7000E307B269C3066
:102E0000C7000F307B266B30C70010307B265B304D
:102E1000C70011307B267030C70012307B26C701F7
:102E2000C70A13307B26C7011C307B261030C70031
:102E300040307B260830C70041307B263F30C7003A
:102E400042307B260430C70043307B26C701443024
:102E50007B26C70145307B26C70146307B260A12F8
:102E60008A1501200A168A11C70000307B26083017
:102E70008A0001300020C70009300A168A117B261B
:102E800008308A0002300020C7000C300A168A1170
:102E90007B26A630C7000E307B260E306326F4005A
:102EA000F41D4D2F2630C7000E307B2608308A00D7
:102EB00004300020C70000300A168A117B26083033
:102EC0008A0005300020C70009300A168A117B26C7
:102ED00008308A0006300020C7000C300A168A111C
:102EE0007B26A630C7000E307B260E306326F4000A
:102EF000F41D752F2630C7000E307B263F30C700EB
:102F000000307B265530C7000B307B260B30632604
:102F1000553A031D0134AA30C7000B307B260B3015
:102F20006326AA3A031D0234C7010B307B267B308F
:102F3000C70000307B260230C800C9010A128A157A
:102F400046200A168A117930C70000307B260A16FF
:102F50008A116F250A168A1100348301C6006400A5
:102F6000D20008308A004608F4000310F40D031064
:102F7000740D0020C70000300A168A117B26083025
:102F80008A004608F4000310F40D0310740DF400D9
:102F9000740A0020C70009300A168A117B260830FF
:102FA0008A004608F4000310F40D0310740D023E6D
:102FB0000020C7000C300A168A117B26C608031DA4
:102FC000E42FC7010B307B260A168A116F250A16DB
:102FD0008A11460B003408308A004608F4000310BA
:102FE000F40D0310740D033E0020C7000B300A16C9
:102FF0008A117B260A168A1163250A168A11003463
:04400E00C123FF3E8D
:00000001FF
