:0600000002308A002A2AEA
:10000800F30003088301D3000408D4000A08D500CC
:100018008A017408DE007E08DD007F08DC007508B0
:10002800E5007608E2007708DF007808E000790844
:10003800E1007A08E4007B08E3007C08DB007D0827
:10004800DA005608D8005708D900831603138C1C09
:100058005B2883128C1C5B28831201088316E90035
:10006800831281018C102208F23A031D4928831655
:100078006908143A8312031D44282619462848287B
:100088002619482887144928871012308316031325
:10009800690203185128E901572817306902031C1F
:1000A80057280830E90001308312D100BF288B1A85
:1000B8000B1DBF285D3083128107B3282108F40087
:1000C800F5017508103E8312D7007408803E0318A6
:1000D800D70A0A128A115B220A128A11013A031DF1
:1000E80078280C3097047B280711F330970583167E
:1000F800A10A2108083A031DBE280530A100A30162
:10010800A30AA2010430A6282208A73E840083136C
:1001180000082305031994280C30831297049828A3
:1001280083120711F33097058030831623020318D2
:10013800A0280310A30DBE28A301A30AA20AA10B9D
:10014800BE280530A000BE28F3308312970507119A
:100158008B128316A00102308312D100BE288316A9
:100168002008023A03196228063A03198828013A36
:100178000319A8280B1183168C1E5C2983128C1E68
:100188005C2983121A08D0001819CC28981C4B290E
:10019800981CD128181200001816023003171002F4
:1001A800031CBA290A168A11BE250A128A110317D6
:1001B80091011008043A0319BA2949290313500870
:1001C800553A0317031DF728910A1108043A031D2D
:1001D800BA290A168A11AE250A128A110317910143
:1001E8009001900ABA299101BA29031350085A3A82
:1001F800031D05295A30031794009101910A023012
:1002080040290317910A1108083A031DBA294229FF
:10021800910A1103143E84008317031350088000C9
:1002280003171108043A031DBA290A128A1507216F
:100238000A128A1103179200120F23294229033048
:100248004029910A1103143E8400831703135008B0
:100258008000031712081102031CBA29031318128D
:1002680083168C128312031791010A168A11BE2570
:100278000A128A11043003179000BA290A168A1143
:10028800BE250A128A11031791019001BA29031792
:1002980010080319E228013A0319F928033A031947
:1002A8000C29013A03192529073A0319BA294229C1
:1002B80083160C1EBA2983120C1EBA29A729553099
:1002C800031399000317910A11080A3A031DB82964
:1002D80091019001900AB829FF3003139900031780
:1002E800910A1108023A031DB8290A128A15072132
:1002F8000A128A110317920091010330A529910A65
:100308001103143E84008317000803139900031790
:1003180012081102031CB82991010530A5295C3087
:10032800031399000317910A1103031DB829063016
:10033800A5298316031398120C128312031791012F
:1003480007309000B829831203171008031963298E
:10035800013A03197029023A03198329063A031945
:100368009329033A03199D2903130C1283120313CB
:100378000C1C032A83160C1C032A8312B60A0319C1
:10038800B70A0619A70AA5080319861ACC29A40AC8
:10039800F03022020318022A10308A002208F400E2
:1003A8000310F40D0310F40D0310740DF40023086A
:1003B800F5000310F50C0310F50C0310750C073944
:1003C800740700200A128A11F4000130F50023088E
:1003D8000739F600F60AF2290310F50DF60BF02995
:1003E800750874050319FE298714A5080319012A3D
:1003F800A503012A87100430A500A30A0C100313D3
:1004080083125E08F4005D08FE005C08FF006508C2
:10041800F5006208F6005F08F7006008F800610858
:10042800F9006408FA006308FB005B08FC005A083E
:10043800FD005808D6005908D7005408840055080C
:100448008A0053088300F30E730E090020308400DD
:10045800513049220230D7007130D6005130840023
:1004680053304E22A0308400EF30492283171030D9
:1004780084005E30492290308400B53049220A1247
:100488008A15BA2D04068001840A0406031D462A2B
:1004980064000034F4000A128A115E220A128A11DA
:1004A8008000840A04087406031900344F2A831252
:1004B8000313D600D71B692A571B712A57088A00CD
:1004C8005608D60A0319D70A8200831357188317C8
:1004D8005608D60A84000008080000340034840155
:1004E8007408FC007508FD007608FE007708FF0018
:1004F800F601F701F401F5010310FF0CFE0CFD0CE9
:10050800FC0C031C952A7808F40779080318790F5E
:10051800F5077A0803187A0FF6077B0803187B0F8C
:10052800F7077C087D047E047F040319A12A0310C1
:10053800F80DF90DFA0DFB0D802A84080319003413
:10054800770880008403760880008403750880009B
:100558008403740880000034FA01F51FBA2AF409EC
:10056800F40A0319F503F5097A17FA177708803999
:10057800FA06F71FC62AF609F60A0319F703F70958
:10058800C62AFA01F801F90176087704031DCF2A73
:10059800F401F50100341F30FA040310FA0AF60DCD
:1005A800F70D031CD22AF70CF60C77087502031D09
:1005B800DF2A76087402031CE72A7608F402770813
:1005C800031C770AF502F80DF90DFA0BFA1AD72A67
:1005D800FA1FF32AF809F80A0319F903F909780840
:1005E800F6007908F7007A1F0034F409F40A0319B1
:1005F800F503F509003483120317900191010130C6
:100608000A168A11AD270A128A1100380319152B08
:10061800A20100303607A8007D3003187E30370766
:10062800A9005A3003179400951301300A128A154D
:1006380041210A128A11831698160C168312080093
:1006480083012C080317970003132D08031798003C
:1006580003132E080317990003132F0803179A0092
:1006680003132208F03A0319261D3C2BF1303D2BC9
:10067800220803179B0002300A128A11ED270A127A
:100688008A1103179C008316100883129D008D3071
:100698009E000313080083120317951F612B003077
:1006A8000A128A1541210A128A1100380319A12F4A
:1006B800181683168C160130C22F0313BE2F190E7D
:1006C800F400F40C740C0339F400F41CA42B831606
:1006D8000313AF01EA1483123708F5003608F40053
:1006E800C930F4070318F50A0130F50774088316B2
:1006F800ED007508EE0083120317160883169300A1
:1007080083121708831694001308F500F40174087F
:1007180003138312C4007508C50083160317140851
:10072800F400F501031383124408F4044508F504A2
:10073800FF3074058316031793000F307505940076
:1007480083121608831691008312170883169200E5
:100758001108F500F401740803138312C400750826
:10076800C500831603171208F400F501031383125A
:100778004408F4044508F504FF307405831603178C
:1007880091000F307505920012081406031DCE2B38
:10079800110813068312031DE22B190EF400F40C42
:1007A800740C0339F400F418E22B031306148316AF
:1007B800AF01AF0AEA10EA138312A6130317190C44
:1007C800F400F40C740C07390319F92B0313261AD7
:1007D800F92B2616031717080739F4007407953EF6
:1007E800840083178001840A800183160313EA1F9B
:1007F800EA1C1F2C8312A61F1F2CCD30A605BF0193
:10080800F401F5013F083F07A53E840083177408EB
:100818008000840A750880003F083F07953E8400E1
:10082800831774088000840A75088000BF0A08309E
:100838003F02031C042C8312031717080739F4001E
:100848007407953E8400831716080006031D2F2C95
:100858001708840A00060319B52F19080739F40088
:100868000130F600F701F40A3C2C0310F60DF70DE1
:10087800F40B392CFF30F607031CF70703132F0876
:10088800F605F701031718087F39F400F501770812
:100898007506031D512C76087406031DB52F17081D
:1008A8000739F4007407A53E8400831716088000F2
:1008B800840A17088000812CF130031322020318E0
:1008C8008F2C0630A20040303607A80001300318EC
:1008D80002307B2C053003132202031C8F2C0530B9
:1008E800A20093303607A8000330031804303707F6
:1008F800A9007F2C0313A6158F2C190CF500F50CF5
:10090800750C0739013A0319602C033A03196E2C48
:10091800013A03197E2C0A128A1517200A128A1125
:100928000130F600031715080739F700F70A9E2C5F
:100938000310F60DF70B9C2C7608F6007603740569
:100948000A128A15AF200A128A112C08031796007A
:1009580003132D080317970003132E080317980095
:1009680003132F080317990095010313A61DBE2C26
:10097800031715140313261FC32C03179514031309
:10098800A61FC82C03171515BA3003133607B30072
:100998000A3003180B303707B4000330A604B52F0C
:1009A80003132F0803171906031DEA2C03132E0837
:1009B80003171806031DEA2C03132D08031717063F
:1009C800031DEA2C03132C0803171606031DB52F65
:1009D8000313C10141084107A53E8400831700089D
:1009E800C200840A0008C30042040319092D420802
:1009F800BF004308C00041084107953E84008317A3
:100A08003F088000840A40088000C10A083041027B
:100A1800031CEE2C3F08F500F4017408C4007508A7
:100A2800C5004008F400F5014408F4044508F5043D
:100A3800FF307405BF000F307505C0000317150897
:100A48000739F400741C372D03132208F03A031DEC
:100A5800372D0630A20040303607A80001300318B1
:100A680002303707A90083160317140883120313EB
:100A78004006031D452D831603171308831203131D
:100A88003F06031D542D031715080739F400741D7C
:100A9800512D83160313EA17542D83160313EA13F3
:100AA800003083124002053003193F02031C6A2DEF
:100AB80000304002083003193F02031C712D00303A
:100AC80040020D3003193F020318712DEA30360732
:100AD800B3002A3003182B30772DBA303607B3000D
:100AE8000A3003180B303707B4008316EA1F932D1A
:100AF80003171408831203134006031D892D831658
:100B080003171308831203133F06031D932DE430C4
:100B18003607B3000030031801303707B4008312DA
:100B2800A6143730A605B52F03132F0803171B0685
:100B3800031DAE2D03132E0803171A06031DAE2D31
:100B480003132D0803171906031DAE2D03132C08D4
:100B580003171806031DB52F03132C080317960057
:100B680003132D080317970003132E080317980083
:100B780003132F0803179900BA3003133607B3007D
:100B88000A3003180B303707B400E32D2130031364
:100B9800A604F12D0A128A1530250A128A11F02DA1
:100BA8002208F03A031DF02D0630A2004030360727
:100BB800A8000130031802303707A900F02D0317E9
:100BC80015080739013A0319CA2D043A0319CE2D1D
:100BD800023A03130319D42D261410300317950075
:100BE800B52F16088316031325068312031D042E3A
:100BF8000317170883160313240683120319B62F45
:100C08002208023A031D0B2EF030A200871022089A
:100C1800083A0319B52F7A30C8000330C9000A1200
:100C28008A155D200A300A128A1573250A128A115C
:100C3800B52F1A0803132D06031DB52F031719081E
:100C480003132E06031DB52F0317180803132F06C9
:100C5800031DB52F7830C8000530C9000A128A155F
:100C68005D200A128A1103179608031D502E1708D3
:100C78000313A100A10803194C2E0830A2009330D9
:100C88003607A8000330031804303707A9006A2E76
:100C9800F030A20087106A2E03132208023A0319C3
:100CA8005F2E0230A200BA303607A8000A300318B7
:100CB8000B303707A9000317170883160313A4007E
:100CC80083120317160883160313A5000A128A1540
:100CD80030250A128A11B52F17085A3A031D7A2EA1
:100CE8000A168A117C250A128A11B52F0A128A154A
:100CF800EE230A128A11B52F13300313C8000130EE
:100D0800C9000A128A155D2013300313C800013088
:100D1800C9000A128A155D200A128A1103132208D3
:100D2800083A0319B52F05300A128A1573250A12D5
:100D38008A11B52F1A0803132D06031DB52F0317A3
:100D4800190803132E06031DB52F031718080313DC
:100D58002F06031DB52FCE30C8000430C9000A1273
:100D68008A155D20031717080A128A1593250A1297
:100D78008A11B52F0A128A1530250A128A11B52F41
:100D8800150807390319F52D013A03191D2E033AE1
:100D98000319882E013A0319922E073A03199E2E39
:100DA800013A0319702E033A0319802E013A0319E8
:100DB800BE2EB52F173084008317031331080006A1
:100DC800031DE92E3208840A00060319F42E0317BE
:100DD80017080313B100031718080313B200B00172
:100DE800073030020318B52FB00A0A128A151720E7
:100DF80074080A128A15AF200A128A111B2F0313CE
:100E08002F0803171A06031D192F03132E0803179B
:100E18001906031D192F03132D0803171806031DA0
:100E2800192F03132C0803171706031DB52F2423A6
:100E38000A128A112614B52F03132F0803171A064E
:100E4800031D362F03132E0803171906031D362F0B
:100E580003132D0803171806031D362F03132C0838
:100E680003171706031DB52F8B1383168C18392FFC
:100E780083128D0101308C0083168C1303108B1B99
:100E880003148B130C1555308D00AA308D008C146B
:100E98000C1103188B1783120514512F03132F08F5
:100EA80003171A06031D682F03132E0803171906C4
:100EB800031D682F03132D0803171806031D682F39
:100EC80003132C080317170603197A2FB52F0313DA
:100ED8002208F23A031D722FF030A2008710782FF3
:100EE800F2300313A200871426148A2F1C08F70077
:100EF8001B08F600862F760803196B2F013A031991
:100F0800742F8A2F7708803A03197F2F0313261C22
:100F1800B52F03179601960A24230A128A11B52FB2
:100F280016080319DE2E013A0319032F033A031991
:100F3800202F073A0319522FB52F0317150CF50068
:100F4800F50C750C0F390319632B013A0319D42CCE
:100F5800033A0319982D063A0319C42E0B3A0319BC
:100F6800942F83120313261CBE2FFF220A128A1104
:100F78002610C12F181683168C160030831208000D
:100F88008301181283168C1298120C1283120317FD
:100F980090019101BA3003133607B3000A300318E1
:100FA8000B303707B4000A168A1191260A128A11E3
:100FB80000380319E12F0130EB2F00300A168A118F
:100FC800AD270A128A11181683168C160030831260
:100FD80008008301C600831603178C18EF2F8312AD
:100FE8000313460803178D0083168C130C14831201
:060FF8000C0803130800C1
:1010000082070134003401340034003401340034E8
:101010000134013400340134003483014808B9003C
:101020004908BA00BB01BC01B801B80A0800830135
:10103000B808031D1F28C801C80AC9010D206D305A
:10104000F8004E30F900C630FA004130FB00390894
:10105000F4003A08F5003B08F6003C08F7000A12D5
:101060008A1173220A128A153930F8003030F900DB
:10107000FA01FB0178087407FC007508FD00790887
:101080000318790FFD077608FE007A0803187A0F17
:10109000FE077708FF007B0803187B0FFF077C081B
:1010A000B9007D08BA007E08BB007F08BC00F500CF
:1010B0003B08F4007F30F5050800A3280F08CD0099
:1010C0000E08CC004D080F06031D5E286400C630D4
:1010D0004C07CA000330031804304D07CB004B08FF
:1010E0004D02031D75284A084C02031C89284D082F
:1010F000F5004C08F4004A08F402031CF5034B0801
:10110000F50280307502003003197402031CA32815
:101110009A284B08F5004A08F4004C08F402031C16
:10112000F5034D08F5028030750201300319740291
:101130000318A3280F08CD000E08CC004D080F0699
:1011400003196F289A288312031348080319C90347
:10115000C803480A0319490A031908005E288301D5
:10116000C60001290F08C900CA01F500F4010E08E4
:101170007404C9007508CA000F06031DB2285A304E
:101180004907C7001530031816304A07C800640025
:1011900048084A02031DCE2847084902031CE228DA
:1011A0004A08F5004908F4004708F402031CF50357
:1011B0004808F50280307502003003197402031CE0
:1011C0000129F3284808F5004708F4004908F4020B
:1011D000031CF5034A08F50280307502013003193B
:1011E0007402031801290F08C900CA01F500F401AF
:1011F0000E087404C9007508CA000F060319C82830
:10120000F32883120313C603460FB2280800831283
:101210000317150CF400F40C740C0F39F4000530AE
:1012200074020318252910308A00150D150D013997
:10123000F400150CF500F50C750C0F39F500750769
:10124000740756200A128A153F29150CF400F40C75
:10125000740C0F390F3A031D3E290630160203188D
:101260003E2910308A00150D150D0139F4001608BD
:101270001607740749200A128A153F29FF30031305
:1012800008008301C600FF30CA00CB00072183138A
:10129000C900490F4C29FF34FE30C907C80149086D
:1012A0004802031874294808143E84008317000874
:1012B000CA06C7014A1C6A294B08F5004A08F4000F
:1012C0000310F50CF40C01307406CA00A03075064A
:1012D000CB006D290310CB0CCA0CC70A083047029B
:1012E000031C5A29C80A4F29C6080319842949082A
:1012F000143E840083174B0880004908153E840083
:1013000083174A08800000344908143E840083177C
:101310000008F500F4014908153E84008317000811
:10132000F4044B087506031D97294A08740603192F
:101330000034FF34782B28303002031C742B8312C6
:10134000BF018316B901B401B5010C2A83123F080D
:10135000F4000310F40D0310740D0C3EAF3E840036
:1013600083130008F7003F08F4000310F40D031086
:10137000740D0B3EAF3E840083130008F6003F0857
:10138000F4000310F40D0310740D0D3EAF3E840005
:1013900083130008F5003F08F4000310F40D031058
:1013A000740D0E3EAF3E8400831300087507760768
:1013B00077078316B8000310B80C0310B80C03109D
:1013C000B80C10308A0083123F0861200A128A1577
:1013D00000380319FE29043083163802031C032A3F
:1013E0000A30F400F5013808F402031CF503740810
:1013F000B4070318B50A7508B5070A2A0230831620
:101400003802031C062AB901B90A0A2A3808B407A7
:101410000318B50A8312BF0A0A3083123F028316EB
:101420000318152AB9080319A629360A0319370A19
:101430000319D52AB908031D252A35083702031DCB
:10144000232A340836020318D82AB001B00AFF3024
:10145000B600B7008312013086068316EA1B402AC5
:101460008312A6172208F03A031D402A0430A20076
:101470000F303607A8000030031801303707A900E5
:101480008312A617892B30303002031C742B831271
:10149000BF018316B901B401B501B42A83123F0814
:1014A000F4000310F40D0310740D0C3EAF3E8400E5
:1014B00083130008F7003F08F4000310F40D031035
:1014C000740D0B3EAF3E840083130008F6003F0806
:1014D000F4000310F40D0310740D0D3EAF3E8400B4
:1014E00083130008F5003F08F4000310F40D031007
:1014F000740D0E3EAF3E8400831300087507760717
:1015000077078316B8000310B80C0310B80C03104B
:10151000B80C08308A0083123F0800200A128A158E
:1015200000380319A62A043083163802031CAB2A9C
:101530000A30F400F5013808F402031CF5037408BE
:10154000B4070318B50A7508B507B22A0230831626
:101550003802031CAE2AB901B90AB22A3808B40706
:101560000318B50A8312BF0A0C3083123F02831698
:101570000318BD2AB90803194E2A360A0319370A77
:101580000319D52AB908031DCD2A35083702031DD2
:10159000CB2A340836020318D82A0230AF00B00133
:1015A000B00AFF30B600B700892BB908031D892B9C
:1015B0003408B6003508B700892BA60130080F396A
:1015C0000F3A031D742B8312BF013F08F400031070
:1015D000F40D0310740D303CB73E840083130008F3
:1015E000F7003F08F4000310F40D0310740D303CB5
:1015F000B93E840083130008F6003F08F40003108E
:10160000F40D0310740D303CB83E840083130008C1
:10161000F5003F08F4000310F40D0310740D303C86
:10162000B63E840083130008750776077707831694
:10163000B8000310B80C0310B80C0310B80C03105A
:10164000A60D06303802031826148312BF0A043090
:101650003F02031CE52A0930831626020318412B9A
:1016600010308A0026086C200A128A15F400740AC9
:10167000B100A730B200B301B30A0330AF00B0012C
:10168000742BAF01AF0AB001892B30080339033A3C
:10169000031D742B6608670769076807B800031005
:1016A000B80C0310B80C0310B80C0630380232081E
:1016B00084008313031C5F2B33088004612B3309E0
:1016C0008005803033020318682B0310B30D742B90
:1016D000B301B30AB20AB10B742B8C10831212112E
:1016E00004308316AF00762BB00A892B01309D2B76
:1016F000831603132F0803199B29013A0319432A60
:10170000033A0319DD2A013A0319452B073A031955
:10171000762B8312BF013F08BB3E84008313000871
:10172000F4003F08BA3E8400831374088000BF0AA7
:101730002F303F02031C8B2B0030831208008316CE
:1017400003138C1083121211910120309200373054
:10175000831692001C308312950097018316A10115
:101760000230A000831203170510C530831603133F
:10177000810064008312031705140B11FF3003135B
:1017800081008B16121508008301CF00CE010310D3
:10179000CF1FD12BCF0DCD1FCE2B4F148530CF06B1
:1017A000D42BCF0DCD1B4F140310CD0DCE0A083016
:1017B0004E02031CC82B4F0808008301CC00E92B04
:1017C000CC0A4C03840083130008CD004A08C423CC
:1017D000CA00CB034B0FE02B4A08080009308316E0
:1017E0000313A600B101B001A001AF01AF0A83123B
:1017F000D101FF308316B600B7008312031705101E
:1018000068308316031381006400831203170514E4
:101810000313810121309200F93083169200831264
:10182000910112158C1083168C1483120800093054
:10183000831603132602031C1F2CEE230134260EED
:10184000F0398312CD00F530C423BF00CA00103038
:101850008A00831626086C20003E8312CB00A73036
:101860000A128A15DD23BF00CD01C423BF0010304A
:101870008A00831626086C200A128A15A73E840067
:101880008313000883123F060319142DEE2302343C
:1018900027082506031D502C2808240603192E2D81
:1018A00083122208023A031D592CF030A20087103F
:1018B0005F2C2208083A031D5F2CEE2300347A3097
:1018C000C8000330C9000A128A155D200A128A1561
:1018D0000A3073250A128A150034290883122D064E
:1018E000031D2E2D8316280883122E06031D2E2D70
:1018F0008316270883122F06031D2E2D7830C8006B
:101900000530C9000A128A155D200A128A152208BC
:10191000023A0319952C0230A200BA303607A8000B
:101920000A3003180B303707A90083162B08A400D0
:101930002A08A50030250A128A15003413308312B4
:10194000C8000130C9000A128A155D2013308312C5
:10195000C8000130C9000A128A155D200A128A15D2
:1019600083122208083A031DB72CEE2300340530F9
:1019700073250A128A150034290883122D06031DC7
:101980002E2D8316280883122E06031D2E2D831656
:10199000270883122F06031D2E2DCE30C8000430D9
:1019A000C9000A128A155D200A128A1583162A08B0
:1019B0009325EE23003430250A128A1500342908B5
:1019C00083122D06031D2E2D8316280883122E0642
:1019D000031D2E2D8316270883122F06031D2E2D7F
:1019E0007830C8000530C9000A128A155D200A1235
:1019F0008A1583162A088312A100A10803190B2D4A
:101A00000830A20093303607A800033003180430D2
:101A10003707A9000E2DF030A200871030250A12DA
:101A20008A150034EE230334831626080319482C44
:101A3000013A03196D2C033A0319A62C013A031934
:101A4000B02C073A0319BC2C023A03199E2C013A18
:101A50000319DB2C0F3A0319DF2C122DEE2300346F
:101A600083160313A60183122F088316A70083127F
:101A70002E088316A80083122D088316A900AA0138
:101A80002A08F0390138AA0083122208023A0030ED
:101A900003190130F400F40CF40C83162A087406C0
:101AA0007F397406AA0028308312CA000430CB00A4
:101AB000A730DD23C900CD01C423C900A53A031D09
:101AC0006E2D8316AA1628308312CA000430CB006C
:101AD000A730DD23C900CD01C423C90049088316FE
:101AE000AB009F2308008301C6000A128A15172045
:101AF0004608F600F7010A128A11B0220A128A1566
:101B00007408C7008C2D2230C8000130C9000A12A9
:101B10008A155D200A128A15C703470F832D3025C9
:101B20000A128A1508008301C6000310C60DB62DDF
:101B300008303607C7000030031801303707C800E7
:101B400030250A128A158316A008031DA32D8312BF
:101B50004708C9004808CA000A168A11E6250A1271
:101B60008A15F400F50175040319A72DC603460F65
:101B7000982D08000330831603138E041630831249
:101B800003178500640005140A168A1126260A1216
:101B90008A151630AC00FD3003178D001F308F0002
:101BA00083160C118C170C148310831083120E08EB
:101BB0000C080313AD00FE3003178D001F308F009B
:101BC00083160C118C170C148310831083120E08CB
:101BD0000C080313AE00FF3003178D001F308F0079
:101BE00083160C118C170C148310831083120E08AB
:101BF0000C080313AF00A601A50187142E08BD0031
:101C0000BE01BE00BD012F08BD043D08C8003E084E
:101C1000C9000A128A150D20C0308B0003300A1249
:101C20008A11ED270A128A15831603179000100FE8
:101C30001A2E1E2E10081F3A031D2A2E0000000027
:101C400000002130900083120313BF0003300A16F6
:101C50008A11062604300A128A11ED270A128A1503
:101C6000A0008D3A03193E2E000000000000000085
:101C70008D30BF0004300A168A11062600300A167D
:101C80008A119F253230C800C9010A128A155D20C9
:101C9000AA300A168A119F253230C800C9010A12DB
:101CA0008A155D202D082F072E070A168A119F25F9
:101CB0003230C800C9010A128A155D202D080A16A3
:101CC0008A119F253230C800C9010A128A155D2089
:101CD0002E080A168A119F253230C800C9010A123F
:101CE0008A155D202F080A168A119F250A30C80020
:101CF000C9010A128A155D20831606153230831237
:101D0000C800C9010A128A155D200A128A15061D2B
:101D1000942E5E30C8000130C9000A128A155D2079
:101D20000A128A15061D9E2EA20100303607A80051
:101D30007D3003187E303707A900A02EF030A200B6
:101D40000A128A11C4270A128A1500380319B12E03
:101D5000A20100303607A8007D3003187E30370717
:101D6000A90083160C14273083123607AA00073007
:101D7000031808303707AB000A128A15EE230A123F
:101D80008A150614A408031D861EE82E05302402B9
:101D9000031CD72E0430A200A301A5001030360783
:101DA000A8000030031801303707A900E62E0230E2
:101DB0002402031CE62EF030A2005030A604A3013A
:101DC000A5013608A8003708A9008714A401061445
:101DD000A708031D06190E2F05302202031C0D2F24
:101DE0000B30270203180D2F083027020530031887
:101DF000032F2702031CFE2E0630032F023027027A
:101E0000031C0D2F0730A20000303607A8007D30DC
:101E100003187E303707A900A615A701510803193A
:101E2000272F510B222FD1010A128A159A210A124B
:101E30008A15013A031D272F0A128A1517240A1240
:101E40008A15272F0A128A15EE230A128A150317FC
:101E50001008043A031D392F0A128A114F230A125F
:101E60008A1500380317031D482F930F472F930A35
:101E7000472F1008073A031D492F00300A168A1110
:101E8000AD270A128A15181683168C1683120317AB
:101E900090010313350836060319C22E6400360874
:101EA000B500A618752F2A08C9002B08CA000A1603
:101EB0008A11E6250A128A15F400F5017504031942
:101EC000A12F27303607AA0007300318083037073C
:101ED000AB000317930803196F2F9301A12F0A1268
:101EE0008A11C4270A128A15A12F3308C9003408A1
:101EF000CA000A168A11E6250A128A15F400F501AD
:101F000075040319A12FCD30A605BD01F401F5011B
:101F10003D083D07A53E8400831774088000840AAD
:101F2000750880003D083D07953E840083177408BE
:101F30008000840A75088000BD0A08303D02031C39
:101F4000862F83160313EA1CC22F6D088312C90063
:101F500083166E088312CA000A168A11E6250A1231
:101F60008A15F400F50175040319C22F06148316AF
:101F7000AF01AF0AEA10EA138312A6138316031700
:101F800093019401F0308312031322020318C22E2E
:101F90000A302202031CCF2FF0308313A20028083E
:101FA000C9002908CA000A168A11E6250A128A15EC
:101FB000F400F50175040319C22EA301A50122083E
:101FC000023A031DE92F8316A501F0308313831213
:101FD000FD2F2208083A031DFC2FA1080319FE2F2C
:101FE000A10BF32FFC2F93303607A8000330031802
:101FF00004303707A900FE2FF030A2008714C22E4C
:102000008207CC34CC34CC34CC34CC34CC34CC3447
:10201000CC34FF340034FF340034FF340034FF3458
:102020000034FF34FF34FF34FF34FF34FF34FF3417
:10203000FF34FF34FF34FF34FF34FF34FF34FF3408
:10204000FF34FD34FF34FF34FF34FF34FF34FF34FA
:10205000FF34EE34EE34AA34AA34FF34FF34FF34B4
:10206000FF34CC34FC34FF34FF34FF34FF34FF340E
:10207000FF34CC34CC34CC34FF34FF34FF34FF3461
:10208000FF34FF34FF34FF34FF34FF34FF34FF34B8
:10209000FF3482070D3408340D340934FF34093419
:1020A000FF34FF34FF34FF34FF340B34820708342D
:1020B0000834FF34083408340A34FF34FF34FF3462
:1020C000093482070134003401340134003400340F
:1020D0000034003400340034820702340534003404
:1020E00000340434003400340034043482071134E2
:1020F000443460340034E134813448340F3482078E
:10210000013400340134003400340134003401342B
:102AE6008301520808000D308301C700C70B792DFA
:102AF6000800831603138C108312121108007D3010
:102B06008301C700C703470F852D080083120317EB
:102B16009008031D902D0030912D013003130800FD
:102B2600831603132F0B9C2DA008031D9C2D00302C
:102B36009D2D0130831208008301BF008B130611FF
:102B460000003F0893008316141CA62D0000831274
:102B560006158B1708008301071021309300831692
:102B6600141CB22D831207147B3093008316141C99
:102B7600B92D8312080083010710213093008316B4
:102B8600141CC22D831207146B3093008316141C79
:102B9600C92D831208008301BD009F0183169F0182
:102BA600831281389F00BE010A303E020318E02DD1
:102BB600BE0A0A303E02031CDB2D9F1400009F183C
:102BC600E22D1E0808008B13831203134A083702EE
:102BD600031DEF2D49083602031C042E3708F500A5
:102BE6003608F4004908F402031CF5034A08F50206
:102BF600803075020030031974028B17031C0134F0
:102C060000348B1700348301C000831603178C1819
:102C1600082E83120313400803178D0003133F0881
:102C260003178C0083168C1303108B1B03148B1352
:102C36000C1555308D00AA308D008C140C1103181C
:102C46008B1783010800603083160313810024303C
:102C56009500831286003A30831686000830831268
:102C6600850003308316850041308312870090303B
:102C7600831687000330031788000A3089008130E5
:102C8600831203139F0083169F0111308312900055
:102C9600E93083169700831203178916A53087003B
:102CA60040308316031394003130831294000C30A5
:102CB600831699000430980080308312980008002B
:102CC6008301BF000310BF0D8B1307103F0893004D
:102CD6008316141C6B2E8716831207149301831612
:102CE600141C722E871283121308BF008B1708005C
:102CF6008301C8000310C80D48148B130710480839
:102D060093008316141C842E83120714470893001D
:102D16008316141C8B2E8B17831208003A308301FE
:102D2600C70000307B260A30C800C9010A128A157E
:102D36005D200A168A113B30C70000307B260A3018
:102D4600C800C9010A128A155D200A168A11583070
:102D5600C70001307B262030C70002307B26C70122
:102D660003307B2601306326583A031D01340230B6
:102D76006326203A031D0134033063260038031D01
:102D860001344230C70004307B261430C7000530BA
:102D96007B269C30C70006307B2604306326423AE9
:102DA600031D013405306326143A031D0134063031
:102DB60063269C3A031D01340230C70007307B2688
:102DC6008030C70008307B261230C7000A307B26C9
:102DD600C7010B307B2610308A0002307620C700F0
:102DE6000C300A168A117B261030C7000D307B2660
:102DF6002630C7000E307B269C30C7000F307B265E
:102E06006B30C70010307B265B30C70011307B2645
:102E16007030C70012307B26C701C70A13307B26E5
:102E2600C7011C307B261030C70040307B26083097
:102E3600C70041307B263F30C70042307B26043036
:102E4600C70043307B26C70144307B26C701453087
:102E56007B26C70146307B260A168A1177200A167A
:102E66008A11C70000307B2610308A000130762098
:102E7600C70009300A168A117B2610308A000230F4
:102E86007620C7000C300A168A117B26A630C700AA
:102E96000E307B260E306326F400F41D4D2F2630AF
:102EA600C7000E307B2610308A0004307620C7001B
:102EB60000300A168A117B2610308A0005307620EB
:102EC600C70009300A168A117B2610308A000630A0
:102ED6007620C7000C300A168A117B26A630C7005A
:102EE6000E307B260E306326F400F41D752F263037
:102EF600C7000E307B263F30C70000307B2655309A
:102F0600C7000B307B260B306326553A031D013470
:102F1600AA30C7000B307B260B306326AA3A031D66
:102F26000234C7010B307B267B30C70000307B267E
:102F36000230C800C9010A128A155D200A168A11D4
:102F46007930C70000307B260A168A1182250A16B8
:102F56008A1100348301C6006400D20010308A0052
:102F66004608F4000310F40D0310740D7620C70014
:102F760000300A168A117B2610308A004608F400B3
:102F86000310F40D0310740DF400740A7620C700C4
:102F960009300A168A117B2610308A004608F4008A
:102FA6000310F40D0310740D023E7620C7000C309A
:102FB6000A168A117B26C608031DE42FC7010B30AB
:102FC6007B260A168A1182250A168A11460B0034B8
:102FD60010308A004608F4000310F40D0310740D37
:102FE600033E7620C7000B300A168A117B260A1686
:0A2FF6008A1176250A168A110034AC
:04400E00C123FF3E8D
:00000001FF
