:0600000002308A00262AEE
:10000800F30003088301D1000408D2000A08D300D2
:100018008A017408E2007E08DA007F08D9007508B2
:10002800D8007608E1007708DF007808DE00790854
:10003800E3007A08DC007B08DD007C08DB007D0833
:10004800E0005408D6005508D700831603138C1C0B
:100058005B2883128C1C5B28831201088316E90035
:10006800831281018C102208F23A031D4928831655
:100078006908143A8312031D44282419462848287D
:100088002419482887144928871012308316031327
:10009800690203185128E901572817306902031C1F
:1000A80057280830E90001308312CF00BF288B1A87
:1000B8000B1DBF285D3083128107B3282108F40087
:1000C800F5017508103E8312D50074088D3E03189B
:1000D800D50A0A128A1157220A128A11013A031DF7
:1000E80078280C3097047B280711F330970583167E
:1000F800A10A2108083A031DBE280530A100A30162
:10010800A30AA2010430A6282208A73E840083136C
:1001180000082305031994280C30831297049828A3
:1001280083120711F33097058030831623020318D2
:10013800A0280310A30DBE28A301A30AA20AA10B9D
:10014800BE280530A000BE28F3308312970507119A
:100158008B128316A00102308312CF00BE288316AB
:100168002008023A03196228063A03198828013A36
:100178000319A8280B1183168C1E5C2983128C1E68
:100188005C2983121A08CE001819CC28981C4B2910
:10019800981CD128181200001816023003171002F4
:1001A800031CBA290A168A1188250A128A1103170C
:1001B80091011008043A0319BA29492903134E0872
:1001C800553A0317031DF728910A1108043A031D2D
:1001D800BA290A168A1178250A128A110317910179
:1001E8009001900ABA299101BA2903134E085A3A84
:1001F800031D05295A30031794009101910A023012
:1002080040290317910A1108083A031DBA294229FF
:10021800910A1103143E8400831703134E088000CB
:1002280003171108043A031DBA290A128A15E72090
:100238000A128A1103179200120F23294229033048
:100248004029910A1103143E8400831703134E08B2
:100258008000031712081102031CBA29031318128D
:1002680083168C128312031791010A168A118825A6
:100278000A128A11043003179000BA290A168A1143
:1002880088250A128A11031791019001BA290317C8
:1002980010080319E228013A0319F928033A031947
:1002A8000C29013A03192529073A0319BA294229C1
:1002B80083160C1EBA2983120C1EBA29A729553099
:1002C800031399000317910A11080A3A031DB82964
:1002D80091019001900AB829FF3003139900031780
:1002E800910A1108023A031DB8290A128A15E72053
:1002F8000A128A110317920091010330A529910A65
:100308001103143E84008317000803139900031790
:1003180012081102031CB82991010530A5295C3087
:10032800031399000317910A1103031DB829063016
:10033800A5298316031398120C128312031791012F
:1003480007309000B829831203171008031963298E
:10035800013A03197029023A03198329063A031945
:100368009329033A03199D2903130C1283120313CB
:100378000C1CFF2983160C1CFF298312B40A0319CD
:10038800B50A0619A50AF03022020318FE29103012
:100398008A002208F4000310F40D0310F40D031072
:1003A800740DF4002308F5000310F50C0310F50C88
:1003B8000310750C0739740700200A128A11F4001B
:1003C8000130F50023080739F600F60AED29031075
:1003D800F50DF60BEB29750874050319F629241990
:1003E800F829FA292419FA298714FB298710831276
:1003F8000313A30A0C10031383126208F4005A08AB
:10040800FE005908FF005808F5006108F6005F086B
:10041800F7005E08F8006308F9005C08FA005D0858
:10042800FB005B08FC006008FD005608D400570874
:10043800D5005208840053088A0051088300F30E3F
:10044800730E0900203084004F3045220230D50059
:100458006D30D4004F30840051304A22A0308400DF
:10046800EF3045228317103084005E3045229030EB
:100478008400B53045220A128A15A32D040680018E
:10048800840A0406031D422A64000034F4000A1298
:100498008A115A220A128A118000840A04087406F2
:1004A800031900344B2A83120313D400D51B652A81
:1004B800551B6D2A55088A005408D40A0319D50A11
:1004C80082008313551883175408D40A840000083F
:1004D80008000034003484017408FC007508FD002D
:1004E8007608FE007708FF00F601F701F401F50130
:1004F8000310FF0CFE0CFD0CFC0C031C912A780861
:10050800F40779080318790FF5077A0803187A0FA2
:10051800F6077B0803187B0FF7077C087D047E0429
:100528007F0403199D2A0310F80DF90DFA0DFB0D30
:100538007C2A84080319003477088000840376082D
:1005480080008403750880008403740880000034E8
:10055800FA01F51FB62AF409F40A0319F503F50997
:100568007A17FA1777088039FA06F71FC22AF609A8
:10057800F60A0319F703F709C22AFA01F801F90183
:1005880076087704031DCB2AF401F50100341F30E7
:10059800FA040310FA0AF60DF70D031CCE2AF70C1D
:1005A800F60C77087502031DDB2A76087402031C13
:1005B800E32A7608F4027708031C770AF502F80D97
:1005C800F90DFA0BFA1AD32AFA1FEF2AF809F80AD2
:1005D8000319F903F9097808F6007908F7007A1F72
:1005E8000034F409F40A0319F503F50900348312F9
:1005F80003179001910101300A168A11AD270A12DA
:100608008A1100380319112BA20100303407A60003
:100618007D3003187E303507A7005A300317940041
:10062800951301300A128A1521210A128A1183169C
:1006380098160C168312080083012A0803179700DE
:1006480003132B080317980003132C0803179900AA
:1006580003132D0803179A0003132208F03A03190D
:10066800241D382BF130392B220803179B00023048
:100678000A168A1198250A128A1103179C008316F4
:10068800100883129D008E309E0003130800831209
:100698000317951F5D2B00300A128A1521210A12B3
:1006A8008A1100380319C02F181683168C160130CA
:1006B800E12F0313DD2F190EF400F40C740C033929
:1006C800F400F41CA02B83160313AF01EA14831261
:1006D8003508F5003408F4002730F4070318F50A44
:1006E8000730F50774088316ED007508EE008312CD
:1006F80003171608831693008312170883169400AD
:100708001308F500F401740803138312C200750876
:10071800C300831603171408F400F50103138312AA
:100728004208F4044308F504FF30740583160317E0
:1007380093000F30750594008312160883169100F4
:1007480083121708831692001108F500F401740843
:1007580003138312C2007508C30083160317120817
:10076800F400F501031383124208F4044308F50466
:10077800FF3074058316031791000F30750592003A
:1007880012081406031DCA2B110813068312031D31
:10079800DE2B190EF400F40C740C0339F400F41871
:1007A800DE2B031306148316AF01AF0AEA10EA130F
:1007B8008312A4130317190CF400F40C740C0739F2
:1007C8000319F52B0313241AF52B241603171708FE
:1007D8000739F4007407953E840083178001840A62
:1007E800800183160313EA1FEA1C1B2C8312A41F23
:1007F8001B2CCD30A405BD01F401F5013D083D07D2
:10080800A53E8400831774088000840A7508800058
:100818003D083D07953E8400831774088000840ACC
:1008280075088000BD0A08303D02031C002C8312A5
:10083800031717080739F4007407953E84008317D7
:1008480016080006031D2B2C1708840A0006031936
:10085800D42F19080739F4000130F600F701F40A1B
:10086800382C0310F60DF70DF40B352CFF30F60776
:10087800031CF70703132D08F605F70103171808DB
:100888007F39F400F50177087506031D4D2C7608AD
:100898007406031DD42F17080739F4007407A53E02
:1008A8008400831716088000840A170880007D2CAE
:1008B800F1300313220203188B2C0630A2004030BB
:1008C8003407A600013003180230772C05300313D3
:1008D8002202031C8B2C0530A20093303407A6009B
:1008E8000330031804303507A7007B2C0313A41525
:1008F8008B2C190CF500F50C750C0739013A031906
:100908005C2C033A03196A2C013A03197A2C0A164B
:100918008A111D260A128A110130F60003171508DC
:100928000739F700F70A9A2C0310F60DF70B982CE5
:100938007608F600760374050A128A158F200A12C3
:100948008A112A080317960003132B080317970028
:1009580003132C080317980003132D080317990095
:1009680095010313A41DBA2C031715140313A41F10
:10097800BF2C03171515BA3003133407B1000A301A
:1009880003180B303507B2000330A404D42F031327
:100998002D0803171906031DE12C03132C08031750
:1009A8001806031DE12C03132B0803171706031D54
:1009B800E12C03132A0803171606031DD42F03136B
:1009C800BF013F083F07A53E840083170008C00009
:1009D800840A0008C10040040319002D4008BD0026
:1009E8004108BE003F083F07953E840083173D0835
:1009F8008000840A3E088000BF0A08303F02031CBA
:100A0800E52C3D08F500F4017408C2007508C30020
:100A18003E08F400F5014208F4044308F504FF30E9
:100A28007405BD000F307505BE000317150807399A
:100A3800F400741C2E2D03132208F03A031D2E2DEA
:100A48000630A20040303407A600013003180230F7
:100A58003507A700831603171408831203133E06ED
:100A6800031D3C2D831603171308831203133D0639
:100A7800031D4B2D031715080739F400741D482D65
:100A880083160313EA174B2D83160313EA1300305A
:100A980083123E02053003193D02031C612D00300C
:100AA8003E02083003193D02031C682D00303E0247
:100AB8000D3003193D020318682DEA303407B100E0
:100AC8002A3003182B306E2DBA303407B1000A30A3
:100AD80003180B303507B2008316EA1F8A2D031757
:100AE8001408831203133E06031D802D8316031773
:100AF8001308831203133D06031D8A2DE4303407BF
:100B0800B1000030031801303507B2008312A41475
:100B18007730A405D42F03132D0803171B06031DD4
:100B2800A52D03132C0803171A06031DA52D03135F
:100B38002B0803171906031DA52D03132A080317ED
:100B48001806031DD42F03132A080317960003134E
:100B58002B080317970003132C0803179800031397
:100B68002D0803179900BA3003133407B1000A306F
:100B780003180B303507B200DA2D21300313A40413
:100B8800E82D0A128A1519250A128A11E72D22085A
:100B9800F03A031DE72D0630A20040303407A600C6
:100BA8000130031802303507A700E72D0317150891
:100BB8000739013A0319C12D043A0319C52D023A20
:100BC80003130319CB2D2414103003179500D42FC9
:100BD80016088316031325068312031DFB2D03171E
:100BE800170883160313240683120319D52F220826
:100BF800023A031D062EF030A200241D052E87148C
:100C0800062E87102208083A0319D42F7A30C60016
:100C18000330C7000A128A153D200A300A128A15C5
:100C28005C250A128A11D42F1A0803132B06031DF8
:100C3800D42F0317190803132C06031DD42F0317E9
:100C4800180803132D06031DD42F7830C60005306D
:100C5800C7000A128A153D200A128A11031796083E
:100C6800031D4F2E17080313A100A1080319472ECF
:100C78000830A20093303407A6000330031804306C
:100C88003507A700692EF030A200241D4D2E8714C9
:100C9800692E8710692E03132208023A03195E2E63
:100CA8000230A200BA303407A6000A3003180B300D
:100CB8003507A7000317170883160313A400831228
:100CC8000317160883160313A5000A128A15192597
:100CD8000A128A11D42F17085A3A031D792E0A16B8
:100CE8008A1137250A128A11D42F0A128A15CE239F
:100CF8000A128A11D42F13300313C6000130C7001B
:100D08000A128A153D2013300313C6000130C700AC
:100D18000A128A153D200A128A1103132208083A7A
:100D28000319D42F05300A128A155C250A128A1174
:100D3800D42F1A0803132B06031DD42F03171908E1
:100D480003132C06031DD42F0317180803132D06AD
:100D5800031DD42FCE30C6000430C7000A128A15EE
:100D68003D20031717080A128A157C250A128A11D2
:100D7800D42F0A128A1519250A128A11D42F150898
:100D880007390319EC2D013A0319182E033A0319F0
:100D9800872E013A0319912E073A03199D2E013A1D
:100DA80003196F2E033A03197F2E013A0319BD2E3A
:100DB800D42F17308400831703132F080006031D50
:100DC800E82E3008840A00060319F32E03171708C3
:100DD8000313AF00031718080313B000AE01073060
:100DE8002E020318D42FAE0A0A168A111D2674087B
:100DF8000A128A158F200A128A111A2F03132D0836
:100E080003171A06031D182F03132C0803171906B6
:100E1800031D182F03132B0803171806031D182F7B
:100E280003132A0803171706031DD42F20230A12B9
:100E38008A112414D42F03132D0803171A06031D2F
:100E4800352F03132C0803171906031D352F031319
:100E58002B0803171806031D352F03132A08031739
:100E68001706031DD42F8B1383168C18382F831263
:100E78008D0101308C0083168C1303108B1B031417
:100E88008B130C1555308D00AA308D008C140C1165
:100E980003188B1783120514502F03132D080317FB
:100EA8001A06031D672F03132C0803171906031DC1
:100EB800672F03132B0803171806031D672F031347
:100EC8002A08031717060319962FD42F031322088D
:100ED800F23A031D712FF030A200241D7C2F8714D5
:100EE8007D2FF2300313A20024197C2F87147D2F45
:100EF80087108312942F04300313A4062419862F15
:100F08000030872F77308312C40006300A168A1102
:100F1800CA250A128A11241D932F8714942F87102B
:100F28002414A92F1C08F7001B08F600A52F760823
:100F380003196A2F013A0319752F033A03197F2FF2
:100F4800A92F7708803A03199B2F0313241CD42F49
:100F580003179601960A20230A128A11D42F16081D
:100F68000319DD2E013A0319022F033A03191F2F23
:100F7800073A0319512FD42F0317150CF500F50C58
:100F8800750C0F3903195F2B013A0319CB2C033A5F
:100F980003198F2D063A0319C32E0B3A0319B32FE1
:100FA80083120313241CDD2FFB220A128A1124103A
:100FB800E02F181683168C16003083120800830160
:100FC800BB009F0183169F01831281389F00BC01DB
:100FD8000A303C020318F52FBC0A0A303C02031CF5
:100FE800F02F9F1400009F18F72F1E080800830198
:040FF8005008080095
:10100000603083160313810024309500831286001C
:101010003A30831686000830831285000330831629
:10102000850041308312870090308316870003309B
:10103000031788000A3089008130831203139F0050
:1010400083169F01113083129000E83083169700B9
:10105000831203178916A5308700403083160313C7
:1010600094003130831294000C30831699000430C0
:101070009800803083129800080083280F08CB0066
:101080000E08CA004B080F06031D3E286400C63038
:101090004A07C8000330031804304B07C900490849
:1010A0004B02031D552848084A02031C69284B08B7
:1010B000F5004A08F4004808F402031CF503490847
:1010C000F50280307502003003197402031C832876
:1010D0007A284908F5004808F4004A08F402031C7D
:1010E000F5034B08F50280307502013003197402D4
:1010F000031883280F08CB000E08CA004B080F0600
:1011000003194F287A288312031346080319C703CB
:10111000C603460A0319470A031908003E2883013B
:10112000C400E1280F08C700C801F500F4010E084B
:101130007404C7007508C8000F06031D92285A30B2
:101140004707C5001530031816304807C60064006D
:1011500046084802031DAE2845084702031CC22862
:101160004808F5004708F4004508F402031CF5039D
:101170004608F50280307502003003197402031C22
:10118000E128D3284608F5004508F4004708F40292
:10119000031CF5034808F50280307502013003197D
:1011A00074020318E1280F08C700C801F500F40114
:1011B0000E087404C7007508C8000F060319A82894
:1011C000D32883120313C403440F92280800831208
:1011D0000317150CF400F40C740C0F39F4000530EF
:1011E00074020318052910308A00150D150D0139F8
:1011F000F400150CF500F50C750C0F39F5007507AA
:10120000740763200A128A151F29150CF400F40CC8
:10121000740C0F390F3A031D1E29063016020318ED
:101220001E2910308A00150D150D0139F40016081D
:101230001607740756200A128A151F29FF30031358
:1012400008008301C400FF30C800C900E7208313F1
:10125000C700470F2C29FF34FE30C707C6014708D7
:101260004602031854294608143E840083170008D8
:10127000C806C501481C4A294908F5004808F40079
:101280000310F50CF40C01307406C800A03075068C
:10129000C9004D290310C90CC80CC50A0830450205
:1012A000031C3A29C60A2F29C408031964294708D0
:1012B000143E84008317490880004708153E8400C7
:1012C00083174808800000344708143E84008317C1
:1012D0000008F500F4014708153E84008317000854
:1012E000F40449087506031D772948087406031994
:1012F0000034FF34582B28303002031C542B831247
:10130000BD018316B901B401B501EC2983123D0872
:10131000F4000310F40D0310740D0C3EAF3E840076
:1013200083130008F7003D08F4000310F40D0310C8
:10133000740D0B3EAF3E840083130008F6003D0899
:10134000F4000310F40D0310740D0D3EAF3E840045
:1013500083130008F5003D08F4000310F40D03109A
:10136000740D0E3EAF3E84008313000875077607A8
:1013700077078316B8000310B80C0310B80C0310DD
:10138000B80C10308A0083123D086E200A128A15AC
:1013900000380319DE29043083163802031CE329C0
:1013A0000A30F400F5013808F402031CF503740850
:1013B000B4070318B50A7508B507EA290230831681
:1013C0003802031CE629B901B90AEA293808B4072A
:1013D0000318B50A8312BD0A0A3083123D02831630
:1013E0000318F529B90803198629360A0319370A9B
:1013F0000319B52AB908031D052A35083702031D4C
:10140000032A340836020318B82AB001B00AFF30A4
:10141000B600B7008312013086068316EA1B202A25
:101420008312A4172208F03A031D202A0430A200D8
:101430000F303407A6000030031801303507A7002D
:101440008312A417692B30303002031C542B8312F3
:10145000BD018316B901B401B501942A83123D0878
:10146000F4000310F40D0310740D0C3EAF3E840025
:1014700083130008F7003D08F4000310F40D031077
:10148000740D0B3EAF3E840083130008F6003D0848
:10149000F4000310F40D0310740D0D3EAF3E8400F4
:1014A00083130008F5003D08F4000310F40D031049
:1014B000740D0E3EAF3E8400831300087507760757
:1014C00077078316B8000310B80C0310B80C03108C
:1014D000B80C10308A0083123D0849200A128A1580
:1014E00000380319862A043083163802031C8B2A1D
:1014F0000A30F400F5013808F402031CF5037408FF
:10150000B4070318B50A7508B507922A0230831686
:101510003802031C8E2AB901B90A922A3808B40786
:101520000318B50A8312BD0A0C3083123D028316DC
:1015300003189D2AB90803192E2A360A0319370AF7
:101540000319B52AB908031DAD2A35083702031D52
:10155000AB2A340836020318B82A0230AF00B001B3
:10156000B00AFF30B600B700692BB908031D692B1C
:101570003408B6003508B700692BA60130080F39CA
:101580000F3A031D542B8312BD013D08F4000310D4
:10159000F40D0310740D303CB73E84008313000833
:1015A000F7003D08F4000310F40D0310740D303CF7
:1015B000B93E840083130008F6003D08F4000310D0
:1015C000F40D0310740D303CB83E84008313000802
:1015D000F5003D08F4000310F40D0310740D303CC9
:1015E000B63E8400831300087507760777078316D5
:1015F000B8000310B80C0310B80C0310B80C03109B
:10160000A60D06303802031826148312BD0A0430D2
:101610003D02031CC52A0930831626020318212B1C
:1016200010308A00260879200A128A15F400740AFC
:10163000B100A730B200B301B30A0330AF00B0016C
:10164000542BAF01AF0AB001692B30080339033ABC
:10165000031D542B6608670769076807B800031065
:10166000B80C0310B80C0310B80C0630380232085E
:1016700084008313031C3F2B33088004412B330960
:101680008005803033020318482B0310B30D542B10
:10169000B301B30AB20AB10B542B8C10831212118E
:1016A00004308316AF00562BB00A692B01307D2B16
:1016B000831603132F0803197B29013A0319232AE0
:1016C000033A0319BD2A013A0319252B073A0319D6
:1016D000562B8312BD013D08BB3E840083130008D6
:1016E000F4003D08BA3E8400831374088000BD0AEC
:1016F0002F303D02031C6B2B003083120800831631
:1017000003138C1083121211910120309200373094
:10171000831692001C308312950097018316A10155
:101720000230A000831203170510C530831603137F
:10173000810064008312031705140B11FF3003139B
:1017400081008B16121508008301CD00CC01031017
:10175000CD1FB12BCD0DCB1FAE2B4D148530CD063B
:10176000B42BCD0DCB1B4D140310CB0DCC0A083080
:101770004C02031CA82B4D0808008301CA00C92B8A
:10178000CA0A4A03840083130008CB004808A42334
:10179000C800C903490FC02B480808000930831648
:1017A0000313A600B101B001A001AF01AF0A83127B
:1017B000CF01FF308316B600B70083120317051060
:1017C0006830831603138100640083120317051425
:1017D0000313810121309200F930831692008312A5
:1017E000910112158C1083168C1483120800093095
:1017F000831603132602031CFF2BCE230134260E6F
:10180000F0398312CB00F530A423BD00C80010309E
:101810008A00831626087920003E8312C900A7306B
:101820000A128A15BD23BD00CB01A423BD001030D0
:101830008A008316260879200A128A15A73E84009A
:101840008313000883123D060319FD2CCE230234B6
:1018500027082506031D302C280824060319172DF8
:1018600083122208023A031D3D2CF030A200241DF1
:101870003B2C8714432C8710432C2208083A031D65
:10188000432CCE2300347A300313C6000330C70044
:101890000A128A153D200A128A150A305C250A129E
:1018A0008A150034290883122B06031D172D831671
:1018B000280883122C06031D172D83162708831270
:1018C0002D06031D172D7830C6000530C7000A12FB
:1018D0008A153D200A128A152208023A03197A2C29
:1018E0000230A200BA303407A6000A3003180B30C9
:1018F0003507A70083162B08A4002A08A500192580
:101900000A128A15003413308312C6000130C70052
:101910000A128A153D2013308312C6000130C70019
:101920000A128A153D200A128A1583122208083AE3
:10193000031D9C2CCE23003405305C250A128A1529
:101940000034290883122B06031D172D831628083F
:1019500083122C06031D172D8316270883122D06CC
:10196000031D172DCE30C6000430C7000A128A1599
:101970003D200A128A1583162A087C25CE230034BE
:1019800019250A128A150034290883122B06031D13
:10199000172D8316280883122C06031D172D831676
:1019A000270883122D06031D172D7830C600053039
:1019B000C7000A128A153D200A128A1583162A08C2
:1019C0008312A100A1080319F02C0830A200933063
:1019D0003407A6000330031804303507A700F72C9E
:1019E000F030A200241DF62C8714F72C871019253F
:1019F0000A128A150034CE230334831626080319ED
:101A0000282C013A0319522C033A03198B2C013A62
:101A10000319952C073A0319A12C023A0319832CB8
:101A2000013A0319C02C0F3A0319C42CFB2CCE2306
:101A3000003483160313A60183122D088316A70012
:101A400083122C088316A80083122B088316A90082
:101A5000AA012A08F0390138AA0083122208023AA2
:101A6000003003190130F400F40CF40C83162A083A
:101A700074067F397406AA0028308312C800043027
:101A8000C900A730BD23C700CB01A423C700A53AD6
:101A9000031D572D8316AA1628308312C800043060
:101AA000C900A730BD23C700CB01A423C700470846
:101AB0008316AB007F2308008301C4000A168A1135
:101AC0001D264408F600F7010A128A11AC220A12F8
:101AD0008A157408C500752D2230C6000130C70074
:101AE0000A128A153D200A128A15C503450F6C2D6E
:101AF00019250A128A1508008301C4000310C40DB9
:101B00009F2D08303407C500003003180130350719
:101B1000C60019250A128A158316A008031D8C2DEC
:101B200083124508C7004608C8000A168A11AA256C
:101B30000A128A15F400F50175040319902DC403E7
:101B4000440F812D08000330831603138E041630D2
:101B5000831203178500640005140A128A150020F9
:101B60000A128A151630AA00FD3003178D001F30A7
:101B70008F0083160C118C170C14831083108312A2
:101B80000E080C080313AB00FE3003178D001F3046
:101B90008F0083160C118C170C1483108310831282
:101BA0000E080C080313AC00FF3003178D001F3024
:101BB0008F0083160C118C170C1483108310831262
:101BC0000E080C080313AD0006300A168A1198257A
:101BD0000A128A15A000773A031DF12D0430A400E3
:101BE000002EA401A0080319002E00000000000030
:101BF0000000C40106300A168A11CA250A128A1585
:101C0000241D042E8714052E87102C08BB00BC0150
:101C1000BC00BB012D08BB043B08C6003C08C70044
:101C20000A168A111326C0308B0003300A168A1157
:101C300098250A128A15831603179000100F212E7B
:101C4000252E10081F3A031D312E00000000000051
:101C50002130900083120313C40003300A168A1146
:101C6000CA2504300A168A1198250A128A15A0007E
:101C70008E3A0319452E00000000000000008E304F
:101C8000C40004300A168A11CA2508300A168A11BF
:101C900098250A128A15A000A00803195C2EC40119
:101CA00008300A168A11CA250A128A15F030A200D5
:101CB000243083168604BE2E00300A168A115A2557
:101CC0003230C600C7010A128A153D20AA300A1612
:101CD0008A115A253230C600C7010A128A153D20E2
:101CE0002B082D072C070A168A115A253230C600F8
:101CF000C7010A128A153D202B080A168A115A2597
:101D00003230C600C7010A128A153D202C080A1677
:101D10008A115A253230C600C7010A128A153D20A1
:101D20002D080A168A115A250A30C600C7010A1260
:101D30008A153D208316061532308312C600C7016E
:101D40000A128A153D200A128A15061DB22E5E302F
:101D5000C6000130C7000A128A153D200A128A15F2
:101D6000061DBC2EA20100303407A6007D300318EA
:101D70007E303507A700BE2EF030A2000A168A1169
:101D8000EA250A128A1500380319CF2EA201003065
:101D90003407A6007D3003187E303507A700831670
:101DA0000C14273083123407A800073003180830BA
:101DB0003507A9000A168A1169250A128A15CE2349
:101DC0000A128A15061483120313A508031D0619A7
:101DD0000B2F05302202031C0A2F0B30250203189B
:101DE0000A2F0830250205300318002F2502031C96
:101DF000FB2E0630002F02302502031C0A2F07306D
:101E0000A20040303407A600013003180230350725
:101E1000A700A415A5014F080319242F4F0B1F2F4E
:101E2000CF010A128A157A210A128A15013A031D76
:101E3000242F0A128A15F7230A128A15242F0A1250
:101E40008A15CE230A128A1503171008043A031DB7
:101E5000362F0A128A114B230A128A1500380317EB
:101E6000031D452F930F442F930A442F1008073A60
:101E7000031D462F00300A168A11AD270A128A1553
:101E8000181683168C168312031790010313330858
:101E900034060319E32E64003408B300A418722F2B
:101EA0002808C7002908C8000A168A11AA250A129C
:101EB0008A15F400F501750403199E2F27303407A5
:101EC000A8000730031808303507A9000317930846
:101ED00003196C2F93019E2F0A168A11EA250A1204
:101EE0008A159E2F3108C7003208C8000A168A11C9
:101EF000AA250A128A15F400F501750403199E2F0C
:101F0000CD30A405BB01F401F5013B083B07A53E1C
:101F10008400831774088000840A750880003B08D9
:101F20003B07953E8400831774088000840A750877
:101F30008000BB0A08303B02031C832F8316031367
:101F4000EA1CBF2F6D088312C70083166E08831228
:101F5000C8000A168A11AA250A128A15F400F5018A
:101F600075040319BF2F06148316AF01AF0AEA10D8
:101F7000EA138312A4138316031793019401F0301C
:101F80008312031322020318E32E0A302202031CD9
:101F9000CC2FF0308313A2002608C7002708C80002
:101FA0000A168A11AA250A128A15F400F501750489
:101FB0000319E32EA3012208023A031DE52F83161D
:101FC000A501F03083138312F92F2208083A031D6C
:101FD000F82FA1080319FA2FA10BEF2FF82F933038
:101FE0003407A6000330031804303507A700FA2F82
:101FF000F030A200241DFE2F8714E32E8710E32E5D
:102000008207CC34CC34CC34CC34CC34CC34CC3447
:10201000CC34FF340034FF340034FF340034FF3458
:102020000034FF34FF34FF34FF34FF34FF34FF3417
:10203000FF34FF34FF34FF34FF34FF34FF34FF3408
:10204000FF34F934FF34FF34FF34FF34FF34FF34FE
:10205000FF34EE34EE34AA34AA34FF34FF34FF34B4
:10206000FF34CC34FC34FF34FF34FF34FF34FF340E
:10207000FF34CC34CC34CC34FF34FF34FF34FF3461
:10208000FF34FF34FF34FF34FF34FF34FF34FF34B8
:10209000FF34820701340034013400340034013449
:1020A00000340134013400340134003482070D342B
:1020B00008340D340934FF340934FF34FF34FF345D
:1020C000FF34FF340B34820708340834FF340834FB
:1020D00008340A34FF34FF34FF34093482070134F2
:1020E000003401340134003400340034003400344E
:1020F00000348207023405340034003404340034E0
:102100000034003404348207113444346034003421
:10211000E13481344834C03482070134003401345E
:0A21200000340034013400340134AF
:102A62000D308301C500C50B342D080083160313F6
:102A72008C108312121108007D308301C500C5033A
:102A8200450F402D0800831203179008031D4B2D9C
:102A920000304C2D013003130800831603132F0B53
:102AA200572DA008031D572D0030582D01308312D9
:102AB20008008301BD008B13061100003D0893003E
:102AC2008316141C612D0000831206158B17080053
:102AD200831203179001910101300A168A11AD2762
:102AE2000A168A110317900191016400732D830164
:102AF2000710213093008316141C7C2D83120714B7
:102B02007B3093008316141C832D831208008301EB
:102B12000710213093008316141C8C2D8312071486
:102B22006B3093008316141C932D831208008301CB
:102B3200C400831603178C189A2D831203134408BA
:102B420003178D0083168C130C1483120C080313C5
:102B520008008B138312031348083502031DB32D9B
:102B620047083402031CC82D3508F5003408F40068
:102B72004708F402031CF5034808F5028030750289
:102B82000030031974028B17031C013400348B17B5
:102B920000348301C500831603178C18CC2D8312D1
:102BA2000313450803178D000313440803178C0011
:102BB20083168C1303108B1B03148B130C155530C7
:102BC2008D00AA308D008C140C1103188B17830111
:102BD20008008301181283168C1298120C128312A9
:102BE200031790019101BA3003133407B1000A3080
:102BF20003180B303507B2000A168A1191260A16FD
:102C02008A1100380319072E0130112E00300A16DE
:102C12008A11AD270A168A11181683168C160030EF
:102C22008312080083014608B7004708B800B901BB
:102C3200BA01B601B60A08008301B608031D252EA3
:102C4200C601C60AC70113266D30F8004E30F900DE
:102C5200C630FA004130FB003708F4003808F500AE
:102C62003908F6003A08F7000A128A116F220A168A
:102C72008A113930F8003030F900FA01FB01780886
:102C82007407FC007508FD0079080318790FFD0729
:102C92007608FE007A0803187A0FFE077708FF000D
:102CA2007B0803187B0FFF077C08B7007D08B8007C
:102CB2007E08B9007F08BA00F5003908F4007F30B9
:102CC200F50508008301BD000310BD0D8B1307102D
:102CD2003D0893008316141C6B2E8716831207146B
:102CE20093018316141C722E871283121308BD00DF
:102CF2008B1708008301C6000310C60D46148B1300
:102D02000710460893008316141C842E831207149E
:102D1200450893008316141C8B2E8B178312080010
:102D22003A308301C50000307B260A30C600C70155
:102D32000A128A153D200A168A113B30C50000305E
:102D42007B260A30C600C7010A128A153D200A16E0
:102D52008A115830C50001307B262030C500023070
:102D62007B26C50103307B2601306326583A031DBA
:102D7200013402306326203A031D013403306326F6
:102D82000038031D01344230C50004307B26143064
:102D9200C50005307B269C30C50006307B260430FA
:102DA2006326423A031D013405306326143A031D9B
:102DB2000134063063269C3A031D01340230C500FB
:102DC20007307B268030C50008307B261230C500D4
:102DD2000A307B26C5010B307B2610308A00023078
:102DE2008320C5000C300A168A117B261030C500DC
:102DF2000D307B262630C5000E307B269C30C50068
:102E02000F307B266B30C50010307B265B30C5004F
:102E120011307B267030C50012307B26C501C50AF1
:102E220013307B26C5011C307B261030C500403094
:102E32007B260830C50041307B263F30C50042303A
:102E42007B260430C50043307B26C50144307B26F7
:102E5200C50145307B26C50146307B260A168A11FC
:102E620084200A168A11C50000307B2610308A00A1
:102E720001308320C50009300A168A117B261030E2
:102E82008A0002308320C5000C300A168A117B2684
:102E9200A630C5000E307B260E306326F400F41DEA
:102EA2004D2F2630C5000E307B2610308A000430AC
:102EB2008320C50000300A168A117B2610308A0052
:102EC20005308320C50009300A168A117B2610308E
:102ED2008A0006308320C5000C300A168A117B2630
:102EE200A630C5000E307B260E306326F400F41D9A
:102EF200752F2630C5000E307B263F30C5000030CE
:102F02007B265530C5000B307B260B306326553AA5
:102F1200031D0134AA30C5000B307B260B3063261B
:102F2200AA3A031D0234C5010B307B267B30C50053
:102F320000307B260230C600C7010A128A153D20E6
:102F42000A168A117930C50000307B260A168A11CA
:102F52003D250A168A1100348301C4006400D000A2
:102F620010308A004408F4000310F40D0310740DAD
:102F72008320C50000300A168A117B2610308A0091
:102F82004408F4000310F40D0310740DF400740AE5
:102F92008320C50009300A168A117B2610308A0068
:102FA2004408F4000310F40D0310740D023E832054
:102FB200C5000C300A168A117B26C408031DE42FB3
:102FC200C5010B307B260A168A113D250A168A1185
:102FD200440B003410308A004408F4000310F40D4E
:102FE2000310740D033E8320C5000B300A168A11AC
:0E2FF2007B260A168A1131250A168A11003430
:04400E00C123FF3E8D
:00000001FF
