:0600000002308A00232AF1
:10000800F30003088301D1000408D2000A08D300D2
:100018008A017408DA007E08DB007F08DC007508B6
:10002800D8007608D9007708DD007808E10079085B
:10003800E2007A08E0007B08DF007C08DE007D082B
:10004800E3005608D4005708D500831603138C1C08
:100058005B2883128C1C5B28831201088316E90035
:10006800831281018C102308F23A031D4928831654
:100078006908143A8312031D442821194628482880
:10008800211948288714492887101230831603132A
:10009800690203185128E901572817306902031C1F
:1000A80057280830E90001308312D000BF288B1A86
:1000B8000B1DBF285D3083128107B3282108F40087
:1000C800F5017508103E8312D7007408823E0318A4
:1000D800D70A0A128A1154220A128A11013A031DF8
:1000E80078280C3097047B280711F330970583167E
:1000F800A10A2108083A031DBE280530A100A30162
:10010800A30AA2010430A6282208A73E840083136C
:1001180000082305031994280C30831297049828A3
:1001280083120711F33097058030831623020318D2
:10013800A0280310A30DBE28A301A30AA20AA10B9D
:10014800BE280530A000BE28F3308312970507119A
:100158008B128316A00102308312D000BE288316AA
:100168002008023A03196228063A03198828013A36
:100178000319A8280B1183168C1E5C2983128C1E68
:100188005C2983121A08CE001819CC28981C4B2910
:10019800981CD128181200001816023003171002F4
:1001A800031CBA290A168A1126260A128A1103176D
:1001B80091011008043A0319BA29492903134E0872
:1001C800553A0317031DF728910A1108043A031D2D
:1001D800BA290A168A1136260A128A1103179101BA
:1001E8009001900ABA299101BA2903134E085A3A84
:1001F800031D05295A30031794009101910A023012
:1002080040290317910A1108083A031DBA294229FF
:10021800910A1103143E8400831703134E088000CB
:1002280003171108043A031DBA290A128A152F2048
:100238000A128A1103179200120F23294229033048
:100248004029910A1103143E8400831703134E08B2
:100258008000031712081102031CBA29031318128D
:1002680083168C128312031791010A168A11262607
:100278000A128A11043003179000BA290A168A1143
:1002880026260A128A11031791019001BA29031729
:1002980010080319E228013A0319F928033A031947
:1002A8000C29013A03192529073A0319BA294229C1
:1002B80083160C1EBA2983120C1EBA29A729553099
:1002C800031399000317910A11080A3A031DB82964
:1002D80091019001900AB829FF3003139900031780
:1002E800910A1108023A031DB8290A128A152F200B
:1002F8000A128A110317920091010330A529910A65
:100308001103143E84008317000803139900031790
:1003180012081102031CB82991010530A5295C3087
:10032800031399000317910A1103031DB829063016
:10033800A5298316031398120C128312031791012F
:1003480007309000B829831203171008031963298E
:10035800013A03197029023A03198329063A031945
:100368009329033A03199D2903130C1283120313CB
:100378000C1CFC2983160C1CFC298312B40A0319D3
:10038800B50A0619A50AF03023020318F729103018
:100398008A002308F4000310F40D0310F40D031071
:1003A800740DF4002408F5000310F50C0310F50C87
:1003B8000310750C0739740700200A128A11F4001B
:1003C8000130F50024080739F600F60AED29031074
:1003D800F50DF60BEB29750874050319F529871037
:1003E800F6298714A40A061DFB29023087060C107B
:1003F800031383125A08F4005B08FE005C08FF0030
:100408005808F5005908F6005D08F7006108F8007B
:100418006208F9006008FA005F08FB005E08FC004B
:100428006308FD005408D6005508D7005208840018
:1004380053088A0051088300F30E730E0900203018
:1004480084004F3042220230D7006A30D6004F3045
:10045800840051304722A0308400EA3042228317BA
:10046800103084005E30422290308400B130422245
:100478000A128A15B82B04068001840A0406031D93
:100488003F2A64000034F4000A128A1157220A1223
:100498008A118000840A0408740603190034482A63
:1004A80083120313D600D71B622A571B6A2A5708E0
:1004B8008A005608D60A0319D70A820083135718E8
:1004C80083175608D60A8400000808000034003450
:1004D8000310FF30F407F409031CF507F509031CA2
:1004E800F607F609031CF707F709080084017408E2
:1004F800FC007508FD007608FE007708FF00F6018D
:10050800F701F401F5010310FF0CFE0CFD0CFC0CC7
:10051800031C9C2A7808F40779080318790FF50753
:100528007A0803187A0FF6077B0803187B0FF7077A
:100538007C087D047E047F040319A82A0310F80DA3
:10054800F90DFA0DFB0D872A840803190034770882
:100558008000840376088000840375088000840383
:10056800740880000034FA01F51FC12AF409F40A5E
:100578000319F503F5097A17FA1777088039FA0687
:10058800F71FCD2AF609F60A0319F703F709CD2A4A
:10059800FA01F801F90176087704031DD62AF40157
:1005A800F50100341F30FA040310FA0AF60DF70DAE
:1005B800031CD92AF70CF60C77087502031DE62AE6
:1005C80076087402031CEE2A7608F4027708031CE6
:1005D800770AF502F80DF90DFA0BFA1ADE2AFA1F56
:1005E800FA2AF809F80A0319F903F9097808F6004C
:1005F8007908F7007A1F0034F409F40A0319F5039F
:10060800F5090034FC01750D760DFA007A08031916
:10061800112BFC0DF601F5170800F401F501F601A0
:100628000034FC10780D790DFB007B080319212B91
:100638000318FC14F901F8170800FB01F701F80189
:10064800F90108007A080319112BF513FC0C7A0C30
:10065800F6000318F517DC2BFA08031D442BF401E8
:10066800F501F601DC2B76030319F40A0319F50AE0
:100678000319F60A0310F60CF50CF40CFA0A302BE1
:10068800F608031D372B740875040319332BF51B63
:10069800262BFA030319332B0310F40DF50D4B2BFE
:1006A8007A087B02031C632B031908000310F60C5D
:1006B800F50CF40CFA0A7A087B02582B0310F90C93
:1006C800F80CF70CFB0A7A087B0603190800622B62
:1006D8008030F90684010623152354237C1C7C2BC7
:1006E800F409F509F609F40A0319F50A0319F60AD3
:1006F800FC1C862BF709F809F909F70A0319F80A07
:100708000319F90A7708F40778080318780FF5072A
:1007180079080318790FF607FC01F61F302BF40946
:10072800F509F609F40A0319F50A0319F60A7C14FF
:10073800302B84010623F7018230FA07FA1B112BAC
:10074800F030FA07FA1BB92B18307A020318112B6C
:10075800FA08031DB22B7C186C220800FA03031058
:10076800F40DF50DF60DF70DAC2B0310F60CF50C8A
:10077800F40CFA0FB92BAF2BF71FC52B7C146C2286
:10078800C62BFC018E30FA008401F7080319302BC0
:100798000310F70CF60CF50CF40CFA0AC92BF60149
:1007A800F51BF6037608F700C02BF601F701C52BF9
:1007B80084080319003476088000840375088000D3
:1007C800840374088000003483012A080317970003
:1007D80003132B080317980003132C080317990019
:1007E80003132D0803179A0003132308F03A03197B
:1007F800211D002CF130012C230803179B00023027
:100808000A168A1146260A128A1103179C008316B3
:10081800100883129D007B309E000313080083128A
:100828000317951F252C00300A128A1569200A1211
:100838008A1100380319B72F181683168C16013041
:10084800DA2F0313D62F190CF400F40C740C0739A3
:1008580003193E2C0313211A3E2C031321160317E8
:1008680017080739F4007407913E84008317800144
:10087800840A8001031717080739F4007407913EAA
:100888008400831716080006031D4D2C1708840AD8
:1008980000060319CB2F19080739F4000130F600B8
:1008A800F701F40A5A2C0310F60DF70DF40B572C28
:1008B800FF30F607031CF70703132D08F605F701A9
:1008C800031718087F39F400F50177087506031D2A
:1008D8006F2C76087406031DCB2F17080739F40010
:1008E8007407A13E8400831716088000840A17083D
:1008F80080009F2CF130031323020318AD2C06301F
:10090800A30040303407A600013003180230992CA8
:10091800053003132302031CAD2C0530A3009330CC
:100928003407A6000330031804303507A7009D2CB0
:100938000313A115AD2C190CF500F50C750C07392E
:10094800013A03197E2C033A03198C2C013A031936
:100958009C2C0A168A1110270A128A110130F600F7
:10096800031715080739F700F70ABC2C0310F60D12
:10097800F70BBA2C7608F600760374050A168A1166
:10098800A8270A128A112A080317960003132B08AE
:100998000317970003132C080317980003132D0857
:1009A8000317990095010313A11DDC2C03171514D7
:1009B80003133508F5003408F4000A128A11D92304
:1009C800A930F7002B30F8004530F9000A128A11D7
:1009D8006E230A128A119D230A128A117408B10023
:1009E8007508B2000330A104CB2F03132D08031799
:1009F8001906031D0F2D03132C0803171806031DD2
:100A08000F2D03132B0803171706031D0F2D0313B0
:100A18002A0803171606031DCB2F0313BF013F082F
:100A28003F07A13E840083170008C000840A00081D
:100A3800C100400403192E2D4008BD004108BE0026
:100A48003F083F07913E840083173D088000840AD1
:100A58003E088000BF0A08303F02031C132D3D08E2
:100A6800F500F4017408C2007508C3003E08F400DC
:100A7800F5014208F4044308F504FF307405BD008D
:100A88000F307505BE00031715080739013A031D15
:100A98005C2D03132308F03A031D5C2D0630A300D8
:100AA80040303407A6000130031802303507A7008C
:100AB800003003133E02053003193D02031C722D5A
:100AC80000303E02083003193D02031C812D00301E
:100AD8003E020D3003193D020318812D3508F5003B
:100AE8003408F4000A128A11D9230A128A11A9308B
:100AF800F7002B30F80046308D2D3508F500340806
:100B0800F4000A128A11D923A930F7002B30F80013
:100B18004530F9000A128A116E230A128A119D23A0
:100B28000A128A117408B1007508B200A114A11143
:100B3800CB2F03132D0803171B06031DB32D031317
:100B48002C0803171A06031DB32D03132B080317CC
:100B58001906031DB32D03132A0803171806031DCE
:100B6800CB2F03132A080317960003132B08031728
:100B7800970003132C080317980003132D08031775
:100B8800990003133508F5003408F4000A128A1195
:100B9800D923A930F7002B30F8004530F9000A12A4
:100BA8008A116E230A128A119D230A128A11740867
:100BB800B1007508B200F92D21300313A104072EE6
:100BC8000A128A1565270A128A11062E2308F03A96
:100BD800031D062E0630A30040303407A60001305E
:100BE800031802303507A700062E03171508073922
:100BF800013A0319E02D043A0319E42D023A0313CC
:100C08000319EA2D2114103003179500CB2F16086D
:100C18008316031325068312031D1A2E03171708BC
:100C280083160313240683120319CC2F2308023AD0
:100C3800031D212EF030A30087102308083A03195A
:100C4800CB2F7A30C6000330C7000A168A11562700
:100C58000A300A128A15A8270A128A11CB2F1A08F5
:100C680003132B06031DCB2F0317190803132C0698
:100C7800031DCB2F0317180803132D06031DCB2FB5
:100C88007830C6000530C7000A168A1156270A129E
:100C98008A1103179608031D662E17080313A2006E
:100CA800A2080319622E0830A30093303407A60067
:100CB8000330031804303507A700802EF030A30056
:100CC8008710802E03132308023A0319752E023069
:100CD800A300BA303407A6000A3003180B303507D2
:100CE800A7000317170883160313A400831203171A
:100CF800160883160313A5000A128A1565270A1217
:100D08008A11CB2F17085A3A031D902E0A168A11FA
:100D1800FD250A128A11CB2F0A128A1524260A12D7
:100D28008A11CB2F13300313C6000130C7000A16EF
:100D38008A11562713300313C6000130C7000A165C
:100D48008A1156270A128A1103132308083A03192D
:100D5800CB2F05300A128A15A8270A128A11CB2F21
:100D68001A0803132B06031DCB2F031719080313A7
:100D78002C06031DCB2F0317180803132D06031D7C
:100D8800CB2FCE30C6000430C7000A168A1156276A
:100D9800031717080A128A15C8270A128A11CB2FB7
:100DA8000A128A1565270A128A11CB2F15080739E6
:100DB80003190B2E013A0319332E033A03199E2EF9
:100DC800013A0319A82E073A0319B42E013A031958
:100DD800862E033A0319962E013A0319D42ECB2FE7
:100DE80017308400831703132F080006031DFF2EF6
:100DF8003008840A000603190A2F0317170803137B
:100E0800AF00031718080313B000AE0107302E0215
:100E18000318CB2FAE0A0A168A11102774080A166F
:100E28008A11A8270A128A11312F03132D080317D4
:100E38001A06031D2F2F03132C0803171906031D69
:100E48002F2F03132B0803171806031D2F2F031327
:100E58002A0803171706031DCB2FE8230A128A1145
:100E68002114CB2F03132D0803171A06031D4C2F2B
:100E780003132C0803171906031D4C2F03132B0803
:100E880003171806031D4C2F03132A080317170608
:100E9800031DCB2F8B1383168C184F2F83128D01B4
:100EA80001308C0083168C1303108B1B03148B13D7
:100EB8000C1555308D00AA308D008C140C110318B8
:100EC8008B1783120514672F03132D0803171A06AF
:100ED800031D7E2F03132C0803171906031D7E2FED
:100EE80003132B0803171806031D7E2F03132A0864
:100EF800031717060319902FCB2F03132308F23A71
:100F0800031D882FF030A30087108E2FF2300313B3
:100F1800A30087142114A02F1C08F7001B08F60053
:100F28009C2F76080319812F013A03198A2FA02FC5
:100F38007708803A0319952F0313211CCB2F031729
:100F48009601960AE8230A128A11CB2F160803196C
:100F5800F42E013A0319192F033A0319362F073AC9
:100F68000319682FCB2F0317150CF500F50C750C1A
:100F78000F390319272C013A0319F92C033A0319DD
:100F88009D2D063A0319DA2E0B3A0319AA2F83125C
:100F98000313211CD62F0A128A150A200A128A1155
:100FA8002110D92F181683168C16003083120800CA
:100FB8008301BE00831603178C18DE2F83120313D8
:100FC8003E0803178D0003133D0803178C00831692
:100FD8008C1303108B1B03148B130C1555308D00C9
:100FE800AA308D008C140C1103188B17830108008C
:060FF80083014F08080010
:10100000831203179008031D0728003008280130B9
:1010100003130800831203179001910101300A1293
:101020008A1565230A128A15003803192028A3019E
:1010300000303407A6007D3003187E303507A70046
:101040005A3003179400951301300A128A1569204B
:101050000A128A15831698160C168312080083123A
:101060000317150CF400F40C740C0F39F400053060
:10107000740203184D2810308A00150D150D013922
:10108000F400150CF500F50C750C0F39F50075071B
:10109000740763200A128A156728150CF400F40CF3
:1010A000740C0F390F3A031D662806301602031818
:1010B000662810308A00150D150D0139F400160848
:1010C0001607740749200A128A156728FF30031390
:1010D00008008301C400FF30C800C9002F2083131B
:1010E000C700470F7428FF34FE30C707C601470802
:1010F000460203189C284608143E84008317000803
:10110000C806C501481C92284908F5004808F400A3
:101110000310F50CF40C01307406C800A0307506FD
:10112000C90095280310C90CC80CC50A083045022F
:10113000031C8228C60A7728C4080319AC2847086C
:10114000143E84008317490880004708153E840038
:1011500083174808800000344708143E8400831732
:101160000008F500F4014708153E840083170008C5
:10117000F40449087506031DBF28480874060319BE
:101180000034FF34F72930303002031CF329831276
:10119000BD018316B901B401B501342983123D089C
:1011A000F4000310F40D0310740D0C3EAF3E8400E8
:1011B00083130008F7003D08F4000310F40D03103A
:1011C000740D0B3EAF3E840083130008F6003D080B
:1011D000F4000310F40D0310740D0D3EAF3E8400B7
:1011E00083130008F5003D08F4000310F40D03100C
:1011F000740D0E3EAF3E840083130008750776071A
:1012000077078316B8000310B80C0310B80C03104E
:10121000B80C10308A0083123D0856200A128A1535
:10122000003803192629053083163802031C2B29A0
:101230000A30F400F5013808F402031CF5037408C1
:10124000B4070318B50A7508B507322908308316A4
:101250003802031C2E29B901B90A32293808B4070B
:101260000318B50A8312BD0A0C3083123D0283169F
:1012700003183D29B9080319CE28360A0319370A7D
:1012800003195529B908031D4D2935083702031DD7
:101290004B293408360203185829AF01AF0AB001B0
:1012A000B00AFF30B600B700052AB908031D052AA9
:1012B0003408B6003508B700052AA60130080F39F2
:1012C0000F3A031DF3298312BD013D08F4000310FA
:1012D000F40D0310740D303CB73E840083130008F6
:1012E000F7003D08F4000310F40D0310740D303CBA
:1012F000B93E840083130008F6003D08F400031093
:10130000F40D0310740D303CB83E840083130008C4
:10131000F5003D08F4000310F40D0310740D303C8B
:10132000B63E840083130008750776077707831697
:10133000B8000310B80C0310B80C0310B80C03105D
:10134000A60D06303802031826148312BD0A043095
:101350003D02031C65290930831626020318C129A2
:1013600010308A0026086E200A128A15F400740ACA
:10137000B100A730B200B301B30A0230AF00B00130
:10138000F329AF01B001052A30080339033A031DE0
:10139000F3296608670769076807B8000310B80CE7
:1013A0000310B80C0310B80C063038023208840061
:1013B0008313031CDE2933088004E02933098005E8
:1013C000803033020318E7290310B30DF329B3016A
:1013D000B30AB20AB10BF3298C1083121211033035
:1013E0008316AF00F529B00A052A0130192A8316A1
:1013F00003132F080319C328013A03195D29033A7F
:101400000319C429013A0319F5298312BD013D08C6
:10141000BB3E840083130008F4003D08BA3E8400FC
:10142000831374088000BD0A2F303D02031C072A75
:101430000030831208008301BD000310BD0D8B1323
:1014400007103D0893008316141C232A8716831265
:10145000071493018316141C2A2A87128312130877
:10146000BD008B1708008301C6000310C60D46148B
:101470008B130710460893008316141C3C2A831212
:101480000714450893008316141C432A8B178312F4
:1014900008003A308301C500003033220A30C6000C
:1014A000C7010A168A1156270A128A153B30C50051
:1014B000003033220A30C600C7010A168A115627A7
:1014C0000A128A155830C500013033222030C50079
:1014D00002303322C5010330332201301B22583A37
:1014E000031D013402301B22203A031D0134033056
:1014F0001B220038031D01344230C5000430332262
:101500001430C500053033229C30C500063033222C
:1015100004301B22423A031D013405301B22143AC9
:10152000031D013406301B229C3A031D0134023096
:10153000C500073033228030C50008303322123016
:10154000C5000A303322C5010B30332210308A0027
:1015500002307820C5000C300A128A153322103070
:10156000C5000D3033222630C5000E3033229C30AA
:10157000C5000F3033226B30C500103033225B3092
:10158000C500113033227030C50012303322C5013E
:10159000C50A13303322C5011C3033221030C50078
:1015A000403033220830C500413033223F30C5007F
:1015B000423033220430C50043303322C501443069
:1015C0003322C50145303322C501463033220A1685
:1015D0008A1179200A128A15C50000303322103092
:1015E0008A0001307820C50009300A128A1533229A
:1015F00010308A0002307820C5000C300A128A159B
:101600003322A630C5000E3033220E301B22F400E8
:10161000F41D052B2630C5000E30332210308A0011
:1016200004307820C50000300A128A1533221030A9
:101630008A0005307820C50009300A128A15332245
:1016400010308A0006307820C5000C300A128A1546
:101650003322A630C5000E3033220E301B22F40098
:10166000F41D2D2B2630C5000E3033223F30C5002F
:10167000003033225530C5000B3033220B301B2293
:10168000553A031D0134AA30C5000B3033220B300C
:101690001B22AA3A031D0234C5010B3033227B30D2
:1016A000C500003033220230C600C7010A168A1175
:1016B00056270A128A157930C500003033220A16DF
:1016C0008A1103260A128A1500348301C4006400BB
:1016D000CF0010308A004408F4000310F40D03100A
:1016E000740D7820C50000300A128A15332210309C
:1016F0008A004408F4000310F40D0310740DF40084
:10170000740A7820C50009300A128A153322103075
:101710008A004408F4000310F40D0310740D023E17
:101720007820C5000C300A128A153322C408031D24
:101730009C2BC5010B3033220A168A1103260A128C
:101740008A15440B003410308A004408F40003105A
:10175000F40D0310740D033E7820C5000B300A12FF
:101760008A1533220A168A11F7250A128A150034BF
:101770000330831603138E0416308312031785007B
:10178000640005140A168A11C8260A128A150A303E
:10179000AA00FD3003178D001F308F0083160C1137
:1017A0008C170C148310831083120E080C0803137B
:1017B000AB00FE3003178D001F308F0083160C1115
:1017C0008C170C148310831083120E080C0803135B
:1017D000AC00FF3003178D001F308F0083160C11F3
:1017E0008C170C148310831083120E080C0803133B
:1017F000AD0006300A168A1146260A128A15A00084
:10180000A00803190C2C0000000000000000BD011E
:1018100006300A128A11DC27A10187102C08BB00B0
:10182000BC01BC00BB012D08BB043B08C6003C0842
:10183000C7000A168A110627C0308B0003300A162B
:101840008A1146260A128A15831603179000100F74
:101850002A2C2E2C10081F3A031D3A2C00000000E1
:1018600000002130900083120313BD0003300A12E0
:101870008A11DC2704300A168A1146260A128A15B4
:10188000A0007B3A03194E2C00000000000000006D
:101890007B30BD0004300A128A11DC2708300A169A
:1018A0008A1146260A128A15A0007A3A031D642C72
:1018B000BD0108300A128A11DC270A128A15F0309D
:1018C000A30083160615C62C00300A168A111726A7
:1018D0003230C600C7010A168A115627AA300A16E6
:1018E0008A1117263230C600C7010A168A115627F8
:1018F0002B082D072C070A168A1117263230C6002E
:10190000C7010A168A1156272B080A168A111726AC
:101910003230C600C7010A168A1156272C080A164B
:101920008A1117263230C600C7010A168A115627B7
:101930002D080A168A1117260A30C600C7010A1692
:101940008A1156278316061532308312C600C70146
:101950000A168A1156270A128A15061DBA2C5E30FD
:10196000C6000130C7000A168A1156270A128A15C6
:10197000061DC42CA30100303407A6007D300318D7
:101980007E303507A700C62CF030A3000A168A1156
:1019900090260A128A1500380319D72CA3010030AB
:1019A0003407A6007D3003187E303507A700831664
:1019B0000C1483123508F5003408F4000A128A1159
:1019C000D923E230F700E430F8004430F9000A127D
:1019D0008A116E230A128A119D237408A8007508C3
:1019E000A9000A128A1524260A128A15061450081C
:1019F0000319102D500B0B2DD0010A128A15C2208D
:101A00000A128A15013A031D102D0A128A154C2656
:101A10000A128A15102D0A128A1524260A128A150E
:101A200003171008043A031D222D0A128A111324E9
:101A30000A128A1500380317031D312D930F302D1C
:101A4000930A302D1008073A031D322D00300A1278
:101A50008A1565230A128A15181683168C168312A6
:101A6000031790010313330834060319F72C64009D
:101A70003408B300A1186F2D2808C7002908C80032
:101A80000A168A1170260A128A15F400F5017504E7
:101A900003199B2D3508F5003408F4000A128A1149
:101AA000D923E230F700E430F8004430F9000A129C
:101AB0008A116E230A128A119D230A128A1574084C
:101AC000A8007508A900031793080319692D93014D
:101AD0009B2D0A168A1190260A128A159B2D310811
:101AE000C7003208C8000A168A1170260A128A1521
:101AF000F400F501750403199B2DCD30A105BB0140
:101B0000F401F5013B083B07A13E840083177408EC
:101B10008000840A750880003B083B07913E8400E2
:101B2000831774088000840A75088000BB0A083097
:101B30003B02031C802DF030031323020318F72C03
:101B40000A302302031CA62DF030A3002608C7008C
:101B50002708C8000A168A1170260A128A15F4008E
:101B6000F50175040319F72CA4012308023A031D9B
:101B7000BE2D8316A501F0308312D22D2308083A1A
:101B8000031DD12DA2080319D32DA20BC82DD12DD1
:101B900093303407A6000330031804303507A7003C
:101BA000D32DF030A3008710F72C831603138C106D
:101BB0008312121191012030920037308316920067
:101BC0001C308312950097018316A1010230A000FA
:101BD000831203170510C5308316031381006400B8
:101BE0008312031705140B11FF30031381008B16AA
:101BF000121508008301CD00CC010310CD1F072E64
:101C0000CD0DCB1F042E4D148530CD060A2ECD0DE3
:101C1000CB1B4D140310CB0DCC0A08304C02031C17
:101C2000FE2D4D0808008301CA001F2ECA0A4A0370
:101C3000840083130008CB004808FA25C800C903B4
:101C4000490F162E48080800093083160313A60012
:101C5000B101B001A001AF018312D001FF308316A2
:101C6000B600B700831203170510683083160313FC
:101C700081006400831203170514031381012130CE
:101C80009200F930831692008312910112158C1084
:101C900083168C148312080009308316031326025E
:101CA000031C542E24260134260EF0398312CB0057
:101CB000F530FA25BD00C80010308A0083162608CA
:101CC0006E20003E8312C900A7300A128A1513261F
:101CD000BD00CB01FA25BD0010308A00831626080E
:101CE0006E200A128A15A73E84008313000883120F
:101CF0003D060319492F2426023427082506031D13
:101D0000852E280824060319632F83122308023A1C
:101D1000031D8E2EF030A3008710942E2308083A5E
:101D2000031D942E242600347A30C6000330C700E9
:101D30000A168A1156270A128A150A30A8270A128B
:101D40008A150034290883122B06031D632F83167E
:101D5000280883122C06031D632F8316270883127D
:101D60002D06031D632F7830C6000530C7000A1604
:101D70008A1156270A128A152308023A0319CA2E15
:101D80000230A300BA303407A6000A3003180B3023
:101D90003507A70083162B08A4002A08A50065278D
:101DA0000A128A15003413308312C6000130C700AE
:101DB0000A168A11562713308312C6000130C70055
:101DC0000A168A1156270A128A1583122308083A1E
:101DD000031DEC2E242600340530A8270A128A158C
:101DE0000034290883122B06031D632F831628084D
:101DF00083122C06031D632F8316270883122D06DA
:101E0000031D632FCE30C6000430C7000A168A11A6
:101E100056270A128A1583162A08C8272426003452
:101E200065270A128A150034290883122B06031D20
:101E3000632F8316280883122C06031D632F831635
:101E4000270883122D06031D632F7830C600053046
:101E5000C7000A168A1156270A128A1583162A08FD
:101E60008312A200A2080319402F0830A300933068
:101E70003407A6000330031804303507A700432FAA
:101E8000F030A300871065270A128A150034242633
:101E900003348316260803197D2E013A0319A22E56
:101EA000033A0319DB2E013A0319E52E073A031909
:101EB000F12E023A0319D32E013A0319102F0F3ACB
:101EC0000319142F472F2426003483160313A60169
:101ED00083122D088316A70083122C088316A800EE
:101EE00083122B088316A900AA012A08F0390138A9
:101EF000AA0083122308023A003003190130F400CB
:101F0000F40CF40C83162A0874067F397406AA00B0
:101F100028308312C8000430C900A7301326C70038
:101F2000CB01FA25C700A53A031DA32F8316AA16D5
:101F300028308312C8000430C900A7301326C70018
:101F4000CB01FA25C70047088316AB00D52508004A
:101F50008301C4000A168A1110274408F600F7010D
:101F60000A128A11B7220A128A157408C500C12FF5
:101F70002230C6000130C7000A168A1156270A12FD
:101F80008A15C503450FB82F65270A128A15080060
:101F90008301C4000310C40DFC2F3508F50034087C
:101FA000F4000A128A11D9231230F7000230F80027
:101FB0004130F9000A128A116E230A128A119D23F8
:101FC0000A128A157408C5007508C60065270A122A
:101FD0008A158316A008031DE92F83124508C70040
:101FE0004608C8000A168A1170260A128A15F400DB
:101FF000F50175040319ED2FC403440FCD2F08001C
:102000008207CC34CC34CC34CC34CC34CC34CC3447
:10201000CC34FF340034FF340034FF340034FF3458
:102020000034FF34FF34FF34FF34FF34FF34FF3417
:10203000FF34FF34FF34FF34FF34FF34FF34FF3408
:10204000FF34FF34FF34FF34FF34FF34FF34FF34F8
:10205000FF34EE34EE34AA34AA34FF34FF34FF34B4
:10206000FF34CC34FC34FF34FF34FF34FF34FF340E
:10207000FF34CC34CC34CC34FF34FF34FF34FF3461
:10208000FF34FF34FF34FF34FF34FF34FF34FF34B8
:10209000FF3482070D3408340D340934FF34093419
:1020A000FF34FF34FF34FF34FF340B348207013434
:1020B000003401340034003401340034013401347C
:1020C000003401340034820708340834FF34083403
:1020D00008340A34FF34FF34FF34093482070234F1
:1020E0000534003400340434003400340034043443
:1020F00082071134443460340034E134813448348C
:102100000F348207013400340134003400340134C8
:042110000034013462
:102BEE000D308301C500C50BFA2D080083160313A3
:102BFE008C108312121108007D308301C500C503AD
:102C0E00450F062E080083160313AF08031D142E5E
:102C1E00A008031D142E0030152E0130831208005B
:102C2E008301BD008B13061100003D08930083162F
:102C3E00141C1E2E0000831206158B17080083012C
:102C4E000710213093008316141C2A2E83120714AA
:102C5E006B3093008316141C312E831208008301EF
:102C6E000710213093008316141C3A2E831207147A
:102C7E007B3093008316141C412E831208008301AF
:102C8E00C400831603178C18482E831203134408AE
:102C9E0003178D0083168C130C1483120C08031368
:102CAE0008008301BB009F0183169F0183128138A8
:102CBE009F00BC010A303C0203186A2EBC0A0A307F
:102CCE003C02031C652E9F1400009F186C2E1E08DC
:102CDE0008008B138312031348083502031D792E47
:102CEE0047083402031C8E2E3508F5003408F40014
:102CFE004708F402031CF5034808F50280307502FC
:102D0E000030031974028B17031C013400348B1727
:102D1E0000348301181283168C1298120C1283122F
:102D2E0003179001910103133508F5003408F400E0
:102D3E000A128A11D923A930F7002B30F80045303A
:102D4E00F9000A128A116E230A128A119D23740841
:102D5E00B1007508B2000A128A1549220A168A11A4
:102D6E0000380319BC2E0130C62E00300A128A1507
:102D7E0065230A168A11181683168C1600308312D4
:102D8E000800043083160313950060308100043070
:102D9E00831286001A30831686000830831285004F
:102DAE0003308316850041308312870090308316DE
:102DBE0087000330031788000A30890081308312A0
:102DCE0003139F0083169F01113083129000E93088
:102DDE0083169700831203178916A530870040309B
:102DEE008316031394003130831294000C30831633
:102DFE0099000430980080308312980008008301F7
:102E0E004608B7004708B800B901BA01B601B60ABC
:102E1E0008008301B608031D182FC601C60AC70194
:102E2E0006276D30F8004E30F900C630FA004130FA
:102E3E00FB003708F4003808F5003908F6003A08A8
:102E4E00F7000A128A117A220A168A113930F8000E
:102E5E003030F900FA01FB0178087407FC007508A0
:102E6E00FD0079080318790FFD077608FE007A0831
:102E7E0003187A0FFE077708FF007B0803187B0FF5
:102E8E00FF077C08B7007D08B8007E08B9007F08F0
:102E9E00BA00F5003908F4007F30F50508009C2FC4
:102EAE000F08CB000E08CA004B080F06031D572F44
:102EBE006400C6304A07C8000330031804304B07BD
:102ECE00C90049084B02031D6E2F48084A02031C15
:102EDE00822F4B08F5004A08F4004808F402031C40
:102EEE00F5034908F50280307502003003197402AB
:102EFE00031C9C2F932F4908F5004808F4004A083C
:102F0E00F402031CF5034B08F50280307502013004
:102F1E000319740203189C2F0F08CB000E08CA0069
:102F2E004B080F060319682F932F831203134608BD
:102F3E000319C703C603460A0319470A03190800F3
:102F4E00572F8301C400FA2F0F08C700C801F500E0
:102F5E00F4010E087404C7007508C8000F06031D9F
:102F6E00AB2F5A304707C5001530031816304807E7
:102F7E00C600640046084802031DC72F45084702D5
:102F8E00031CDB2F4808F5004708F4004508F4023F
:102F9E00031CF5034608F502803075020030031954
:102FAE007402031CFA2FEC2F4608F5004508F400B6
:102FBE004708F402031CF5034808F5028030750239
:102FCE000130031974020318FA2F0F08C700C80145
:102FDE00F500F4010E087404C7007508C8000F064A
:102FEE000319C12FEC2F83120313C403440FAB2F0D
:022FFE000800C9
:04400E00C123FF3E8D
:00000001FF
