:0600000002308A00262AEE
:10000800F30003088301D1000408D2000A08D300D2
:100018008A017408DA007E08DC007F08DE007508B3
:10002800E0007608DB007708E3007808DD0079084F
:10003800E1007A08DF007B08E2007C08D9007D082F
:10004800D8005408D6005508D700831603138C1C13
:100058005B2883128C1C5B28831201088316E90035
:10006800831281018C102208F23A031D4928831655
:100078006908143A8312031D44282419462848287D
:100088002419482887144928871012308316031327
:10009800690203185128E901572817306902031C1F
:1000A80057280830E90001308312D000BF288B1A86
:1000B8000B1DBF285D3083128107B3282108F40087
:1000C800F5017508103E8312D5007408823E0318A6
:1000D800D50A0A128A1157220A128A11013A031DF7
:1000E80078280C3097047B280711F330970583167E
:1000F800A10A2108083A031DBE280530A100A30162
:10010800A30AA2010430A6282208A73E840083136C
:1001180000082305031994280C30831297049828A3
:1001280083120711F33097058030831623020318D2
:10013800A0280310A30DBE28A301A30AA20AA10B9D
:10014800BE280530A000BE28F3308312970507119A
:100158008B128316A00102308312D000BE288316AA
:100168002008023A03196228063A03198828013A36
:100178000319A8280B1183168C1E5C2983128C1E68
:100188005C2983121A08CE001819CC28981C4B2910
:10019800981CD128181200001816023003171002F4
:1001A800031CBA290A168A11D7250A128A110317BD
:1001B80091011008043A0319BA29492903134E0872
:1001C800553A0317031DF728910A1108043A031D2D
:1001D800BA290A168A11C7250A128A11031791012A
:1001E8009001900ABA299101BA2903134E085A3A84
:1001F800031D05295A30031794009101910A023012
:1002080040290317910A1108083A031DBA294229FF
:10021800910A1103143E8400831703134E088000CB
:1002280003171108043A031DBA290A168A116D2703
:100238000A128A1103179200120F23294229033048
:100248004029910A1103143E8400831703134E08B2
:100258008000031712081102031CBA29031318128D
:1002680083168C128312031791010A168A11D72557
:100278000A128A11043003179000BA290A168A1143
:10028800D7250A128A11031791019001BA29031779
:1002980010080319E228013A0319F928033A031947
:1002A8000C29013A03192529073A0319BA294229C1
:1002B80083160C1EBA2983120C1EBA29A729553099
:1002C800031399000317910A11080A3A031DB82964
:1002D80091019001900AB829FF3003139900031780
:1002E800910A1108023A031DB8290A168A116D27C6
:1002F8000A128A110317920091010330A529910A65
:100308001103143E84008317000803139900031790
:1003180012081102031CB82991010530A5295C3087
:10032800031399000317910A1103031DB829063016
:10033800A5298316031398120C128312031791012F
:1003480007309000B829831203171008031963298E
:10035800013A03197029023A03198329063A031945
:100368009329033A03199D2903130C1283120313CB
:100378000C1CFF2983160C1CFF298312B40A0319CD
:10038800B50A0619A50AF03022020318FE29103012
:100398008A002208F4000310F40D0310F40D031072
:1003A800740DF4002308F5000310F50C0310F50C88
:1003B8000310750C0739740700200A128A11F4001B
:1003C8000130F50023080739F600F60AED29031075
:1003D800F50DF60BEB29750874050319F629241990
:1003E800F829FA292419FA298714FB298710831276
:1003F8000313A30A0C10031383125A08F4005C08B1
:10040800FE005E08FF006008F5005B08F600630860
:10041800F7005D08F8006108F9005F08FA00620853
:10042800FB005908FC005808FD005608D40057087E
:10043800D5005208840053088A0051088300F30E3F
:10044800730E0900203084004F3045220230D50059
:100458006D30D4004F30840051304A22A0308400DF
:10046800EA3045228317103084005E3045229030F0
:100478008400B13045220A128A15AE2D0406800187
:10048800840A0406031D422A64000034F4000A1298
:100498008A115A220A128A118000840A04087406F2
:1004A800031900344B2A83120313D400D51B652A81
:1004B800551B6D2A55088A005408D40A0319D50A11
:1004C80082008313551883175408D40A840000083F
:1004D8000800003400340310FF30F407F409031C4B
:1004E800F507F509031CF607F609031CF707F709D2
:1004F800080084017408FC007508FD007608FE00F9
:100508007708FF00F601F701F401F5010310FF0C6D
:10051800FE0CFD0CFC0C031C9F2A7808F4077908D4
:100528000318790FF5077A0803187A0FF6077B087E
:1005380003187B0FF7077C087D047E047F040319EA
:10054800AB2A0310F80DF90DFA0DFB0D8A2A840861
:100558000319003477088000840376088000840338
:10056800750880008403740880000034FA01F51FC0
:10057800C42AF409F40A0319F503F5097A17FA17D6
:1005880077088039FA06F71FD02AF609F60A031900
:10059800F703F709D02AFA01F801F9017608770478
:1005A800031DD92AF401F50100341F30FA040310A1
:1005B800FA0AF60DF70D031CDC2AF70CF60C77087F
:1005C8007502031DE92A76087402031CF12A7608CD
:1005D800F4027708031C770AF502F80DF90DFA0BF7
:1005E800FA1AE12AFA1FFD2AF809F80A0319F90389
:1005F800F9097808F6007908F7007A1F0034F40939
:10060800F40A0319F503F5090034FC01750D760D9C
:10061800FA007A080319142BFC0DF601F5170800E7
:10062800F401F501F6010034FC10780D790DFB009A
:100638007B080319242B0318FC14F901F817080088
:10064800FB01F701F801F90108007A080319142BD6
:10065800F513FC0C7A0CF6000318F517DF2BFA08D3
:10066800031D472BF401F501F601DF2B760303196F
:10067800F40A0319F50A0319F60A0310F60CF50C27
:10068800F40CFA0A332BF608031D3A2B7408750488
:100698000319362BF51B292BFA030319362B0310E4
:1006A800F40DF50D4E2B7A087B02031C662B0319FB
:1006B80008000310F60CF50CF40CFA0A7A087B0211
:1006C8005B2B0310F90CF80CF70CFB0A7A087B0675
:1006D80003190800652B8030F906840109231823C3
:1006E80057237C1C7F2BF409F509F609F40A031932
:1006F800F50A0319F60AFC1C892BF709F809F90908
:10070800F70A0319F80A0319F90A7708F4077808A9
:100718000318780FF50779080318790FF607FC0115
:10072800F61F332BF409F509F609F40A0319F50A3B
:100738000319F60A7C14332B84010923F70182304C
:10074800FA07FA1B142BF030FA07FA1BBC2B1830E7
:100758007A020318142BFA08031DB52B7C186F2294
:100768000800FA030310F40DF50DF60DF70DAF2B85
:100778000310F60CF50CF40CFA0FBC2BB22BF71F78
:10078800C82B7C146F22C92BFC018E30FA0084011F
:10079800F7080319332B0310F70CF60CF50CF40CBF
:1007A800FA0ACC2BF601F51BF6037608F700C32BE3
:1007B800F601F701C82B8408031900347608800075
:1007C8008403750880008403740880000034831251
:1007D8000317951FFD2B00300A168A11A7270A1246
:1007E8008A1100380319BB2F181683168C1601308E
:1007F800DE2F0313DA2F190CF400F40C740C0739EC
:100808000319162C0313241A162C03132416031782
:1008180017080739F4007407913E84008317800194
:10082800840A8001031717080739F4007407913EFA
:100838008400831716080006031D252C1708840A50
:1008480000060319CF2F19080739F4000130F60004
:10085800F701F40A322C0310F60DF70DF40B2F2CC8
:10086800FF30F607031CF70703132D08F605F701F9
:10087800031718087F39F400F50177087506031D7A
:10088800472C76087406031DCF2F17080739F40084
:100898007407A13E8400831716088000840A17088D
:1008A8008000772CF130031322020318852C0630C0
:1008B800A20040303407A600013003180230712C22
:1008C800053003132202031C852C0530A200933047
:1008D8003407A6000330031804303507A700752C29
:1008E8000313A415852C190CF500F50C750C0739A4
:1008F800013A0319562C033A0319642C013A0319D7
:10090800742C0A168A11D5260A128A110130F600AB
:10091800031715080739F700F70A942C0310F60D8A
:10092800F70B922C7608F600760374050A128A15DE
:100938002C200A128A112A080317960003132B0881
:100948000317970003132C080317980003132D08A7
:100958000317990095010313A41DB42C031715144C
:1009680003133508F5003408F4000A128A11DC2351
:10097800A930F7002B30F8004530F9000A128A1127
:1009880071230A128A11A0230A128A117408B1006D
:100998007508B2000330A404CF2F03132D080317E2
:1009A8001906031DE72C03132C0803171806031D4B
:1009B800E72C03132B0803171706031DE72C031353
:1009C8002A0803171606031DCF2F0313BF013F087C
:1009D8003F07A13E840083170008C000840A00086E
:1009E800C10040040319062D4008BD004108BE009F
:1009F8003F083F07913E840083173D088000840A22
:100A08003E088000BF0A08303F02031CEB2C3D085B
:100A1800F500F4017408C2007508C3003E08F4002C
:100A2800F5014208F4044308F504FF307405BD00DD
:100A38000F307505BE00031715080739013A031D65
:100A4800342D03132208F03A031D342D0630A2007A
:100A580040303407A6000130031802303507A700DC
:100A6800003003133E02053003193D02031C4A2DD2
:100A780000303E02083003193D02031C592D003096
:100A88003E020D3003193D020318592D3508F500B3
:100A98003408F4000A128A11DC230A128A11A930D8
:100AA800F7002B30F8004630652D3508F50034087E
:100AB800F4000A128A11DC23A930F7002B30F80061
:100AC8004530F9000A128A1171230A128A11A023EB
:100AD8000A128A117408B1007508B200A414A4118E
:100AE800CF2F03132D0803171B06031D8B2D03138C
:100AF8002C0803171A06031D8B2D03132B08031745
:100B08001906031D8B2D03132A0803171806031D46
:100B1800CF2F03132A080317960003132B08031774
:100B2800970003132C080317980003132D080317C5
:100B3800990003133508F5003408F4000A128A11E5
:100B4800DC23A930F7002B30F8004530F9000A12F1
:100B58008A1171230A128A11A0230A128A117408B1
:100B6800B1007508B200D12D21300313A404DF2D84
:100B78000A128A1513250A128A11DE2D2208F03A64
:100B8800031DDE2D0630A20040303407A6000130D8
:100B9800031802303507A700DE2D0317150807399B
:100BA800013A0319B82D043A0319BC2D023A03136C
:100BB8000319C22D2414103003179500CF2F1608DF
:100BC8008316031325068312031DF22D0317170836
:100BD80083160313240683120319D02F2208023A1E
:100BE800031DFD2DF030A200241DFC2D8714FD2DC2
:100BF80087102208083A0319CF2F7A30C60003302D
:100C0800C7000A168A111B270A300A128A155625A8
:100C18000A128A11CF2F1A0803132B06031DCF2F90
:100C28000317190803132C06031DCF2F03171808E1
:100C380003132D06031DCF2F7830C6000530C700DB
:100C48000A168A111B270A128A1103179608031D10
:100C5800462E17080313A100A10803193E2E0830D9
:100C6800A20093303407A600033003180430350778
:100C7800A700602EF030A200241D442E8714602E99
:100C88008710602E03132208023A0319552E0230EA
:100C9800A200BA303407A6000A3003180B30350713
:100CA800A7000317170883160313A400831203175A
:100CB800160883160313A5000A128A1513250A12AB
:100CC8008A11CF2F17085A3A031D702E0A168A1157
:100CD80094250A128A11CF2F0A128A15C9230A12DB
:100CE8008A11CF2F13300313C6000130C7000A162C
:100CF8008A111B2713300313C6000130C7000A16D8
:100D08008A111B270A128A1103132208083A0319A9
:100D1800CF2F05300A128A1556250A128A11CF2FAD
:100D28001A0803132B06031DCF2F031719080313E3
:100D38002C06031DCF2F0317180803132D06031DB8
:100D4800CF2FCE30C6000430C7000A168A111B27E1
:100D5800031717080A128A1576250A128A11CF2F47
:100D68000A128A1513250A128A11CF2F1508073976
:100D78000319E32D013A03190F2E033A03197E2EA6
:100D8800013A0319882E073A0319942E013A0319D8
:100D9800662E033A0319762E013A0319B42ECF2F83
:100DA80017308400831703132F080006031DDF2E56
:100DB8003008840A00060319EA2E031717080313DC
:100DC800AF00031718080313B000AE0107302E0256
:100DD8000318CF2FAE0A0A168A11D52674080A12EC
:100DE8008A152C200A128A11112F03132D080317B4
:100DF8001A06031D0F2F03132C0803171906031DCA
:100E08000F2F03132B0803171806031D0F2F0313A7
:100E18002A0803171706031DCF2F0A128A15012067
:100E28000A128A112414CF2F03132D0803171A0648
:100E3800031D2E2F03132C0803171906031D2E2F2D
:100E480003132B0803171806031D2E2F03132A0854
:100E580003171706031DCF2F8B1383168C18312FFA
:100E680083128D0101308C0083168C1303108B1BA9
:100E780003148B130C1555308D00AA308D008C147B
:100E88000C1103188B1783120514492F03132D080F
:100E980003171A06031D602F03132C0803171906DE
:100EA800031D602F03132B0803171806031D602F5B
:100EB80003132A080317170603198F2FCF2F0313BD
:100EC8002208F23A031D6A2FF030A200241D752F64
:100ED8008714762FF2300313A2002419752F871474
:100EE800762F871083128D2F04300313A40624193C
:100EF8007F2F0030802F77308312C40006300A1607
:100F08008A1111260A128A11241D8C2F87148D2FFD
:100F180087102414A22F1C08F7001B08F6009E2F28
:100F280076080319632F013A03196E2F033A031940
:100F3800782FA22F7708803A0319942F0313241CC3
:100F4800CF2F03179601960A0A128A1501200A1252
:100F58008A11CF2F16080319D42E013A0319F92E36
:100F6800033A0319182F073A03194A2FCF2F0317EB
:100F7800150CF500F50C750C0F390319FF2B013A08
:100F88000319D12C033A0319752D063A0319BA2E01
:100F98000B3A0319AE2F83120313241CDA2F0A16F7
:100FA8008A1131260A128A112410DD2F1816831689
:100FB8008C160030831208008B1383120313480821
:100FC8003502031DE92F47083402031CFE2F35089C
:100FD800F5003408F4004708F402031CF503480838
:100FE800F502803075020030031974028B17031C58
:080FF800013400348B170034B2
:1010020083012A080317970003132B08031798007C
:1010120003132C080317990003132D0803179A00D2
:1010220003132208F03A0319241D1928F1301A2853
:10103200220803179B0002300A168A11E7250A12BA
:101042008A1503179C008316100883129D007F30B7
:101052009E00031308008301C4007E280F08C70006
:10106200C801F500F4010E087404C7007508C80031
:101072000F06031D2F285A304707C50015300318E5
:1010820016304807C600640046084802031D4B2874
:1010920045084702031C5F284808F5004708F4008A
:1010A2004508F402031CF5034608F5028030750278
:1010B200003003197402031C7E2870284608F500CC
:1010C2004508F4004708F402031CF5034808F5023A
:1010D2008030750201300319740203187E280F084C
:1010E200C700C801F500F4010E087404C7007508B2
:1010F200C8000F0603194528702883120313C4037E
:10110200440F2F280800B92930303002031CB529BA
:101112008312BD018316B901B401B501F628831209
:101122003D08F4000310F40D0310740D0C3EAF3EA5
:10113200840083130008F7003D08F4000310F40D47
:101142000310740D0B3EAF3E840083130008F600BB
:101152003D08F4000310F40D0310740D0D3EAF3E74
:10116200840083130008F5003D08F4000310F40D19
:101172000310740D0E3EAF3E840083130008750702
:10118200760777078316B8000310B80C0310B80C63
:101192000310B80C10308A0083123D0849200A124D
:1011A2008A1500380319E828053083163802031C13
:1011B200ED280A30F400F5013808F402031CF503A7
:1011C2007408B4070318B50A7508B507F42808307F
:1011D20083163802031CF028B901B90AF42838082A
:1011E200B4070318B50A8312BD0A0C3083123D02FC
:1011F20083160318FF28B90803199028360A031921
:10120200370A03191729B908031D0F2935083702B0
:10121200031D0D293408360203181A29AF01AF0A3B
:10122200B001B00AFF30B600B700C729B908031DE4
:10123200C7293408B6003508B700C729A601300807
:101242000F390F3A031DB5298312BD013D08F40081
:101252000310F40D0310740D303CB73E8400831369
:101262000008F7003D08F4000310F40D0310740D9C
:10127200303CB93E840083130008F6003D08F400B8
:101282000310F40D0310740D303CB83E8400831338
:101292000008F5003D08F4000310F40D0310740D6E
:1012A200303CB63E84008313000875077607770743
:1012B2008316B8000310B80C0310B80C0310B80C56
:1012C2000310A60D06303802031826148312BD0A35
:1012D20004303D02031C2729093083162602031815
:1012E200832910308A0026086E200A128A15F4001B
:1012F200740AB100A730B200B301B30A0230AF00E2
:10130200B001B529AF01B001C72930080339033A4A
:10131200031DB5296608670769076807B800031047
:10132200B80C0310B80C0310B80C0630380232089F
:1013320084008313031CA02933088004A2293309E3
:101342008005803033020318A9290310B30DB52993
:10135200B301B30AB20AB10BB5298C108312121170
:1013620003308316AF00B729B00AC7290130DB2941
:10137200831603132F0803198528013A03191F291D
:10138200033A03198629013A0319B7298312BD01C9
:101392003D08BB3E840083130008F4003D08BA3EBA
:1013A2008400831374088000BD0A2F303D02031CA1
:1013B200C9290030831208008301BD000310BD0D4E
:1013C2008B1307103D0893008316141CE52987161A
:1013D2008312071493018316141CEC2987128312BB
:1013E2001308BD008B1708008301C6000310C60D49
:1013F20046148B130710460893008316141CFE290B
:1014020083120714450893008316141C052A8B17B0
:10141200831208003A308301C5000030F5210A30FA
:10142200C600C7010A168A111B270A128A153B3009
:10143200C5000030F5210A30C600C7010A168A111C
:101442001B270A128A155830C5000130F5212030B9
:10145200C5000230F521C5010330F5210130DD213F
:10146200583A031D01340230DD21203A031D0134B4
:101472000330DD210038031D01344230C500043041
:10148200F5211430C5000530F5219C30C500063029
:10149200F5210430DD21423A031D01340530DD21FE
:1014A200143A031D01340630DD219C3A031D013438
:1014B2000230C5000730F5218030C5000830F52123
:1014C2001230C5000A30F521C5010B30F52110306C
:1014D2008A0002307820C5000C300A128A15F521E4
:1014E2001030C5000D30F5212630C5000E30F52133
:1014F2009C30C5000F30F5216B30C5001030F5214E
:101502005B30C5001130F5217030C5001230F52175
:10151200C501C50A1330F521C5011C30F521103073
:10152200C5004030F5210830C5004130F5213F307B
:10153200C5004230F5210430C5004330F521C50114
:101542004430F521C5014530F521C5014630F5216C
:101552000A168A1179200A128A15C5000030F5216F
:1015620010308A0001307820C50009300A128A152D
:10157200F52110308A0002307820C5000C300A12A2
:101582008A15F521A630C5000E30F5210E30DD2179
:10159200F400F41DC72A2630C5000E30F5211030A4
:1015A2008A0004307820C50000300A128A15F5211D
:1015B20010308A0005307820C50009300A128A15D9
:1015C200F52110308A0006307820C5000C300A124E
:1015D2008A15F521A630C5000E30F5210E30DD2129
:1015E200F400F41DEF2A2630C5000E30F5213F30FD
:1015F200C5000030F5215530C5000B30F5210B3008
:10160200DD21553A031D0134AA30C5000B30F52106
:101612000B30DD21AA3A031D0234C5010B30F5213E
:101622007B30C5000030F5210230C600C7010A1622
:101632008A111B270A128A157930C5000030F5215C
:101642000A168A119A250A128A1500348301C400E7
:101652006400CF0010308A004408F4000310F40D37
:101662000310740D7820C50000300A128A15F52186
:1016720010308A004408F4000310F40D0310740DB6
:10168200F400740A7820C50009300A128A15F5217F
:1016920010308A004408F4000310F40D0310740D96
:1016A200023E7820C5000C300A128A15F521C408C2
:1016B200031D5E2BC5010B30F5210A168A119A25EE
:1016C2000A128A15440B003410308A004408F400D0
:1016D2000310F40D0310740D033E7820C5000B3087
:1016E2000A128A15F5210A168A118E250A128A15FE
:1016F2000034831603138C108312121191012030CF
:1017020092003730831692001C30831295009701A5
:101712008316A1010230A000831203170510C53001
:1017220083160313810064008312031705140B113F
:10173200FF30031381008B16121508008301CD00C0
:10174200CC010310CD1FAC2BCD0DCB1FA92B4D14FB
:101752008530CD06AF2BCD0DCB1B4D140310CB0D19
:10176200CC0A08304C02031CA32B4D08080083014D
:10177200CA00C42BCA0A4A03840083130008CB00A0
:1017820048089F23C800C903490FBB2B480808001B
:10179200093083160313A600B101B001A001AF0105
:1017A2008312D001FF308316B600B70083120317ED
:1017B2000510683083160313810064008312031737
:1017C20005140313810121309200F930831692002F
:1017D2008312910112158C1083168C148312080047
:1017E2000930831603132602031CF92BC923013483
:1017F200260EF0398312CB00F5309F23BD00C800BE
:1018020010308A00831626086E20003E8312C9001B
:10181200A7300A128A15B823BD00CB019F23BD0051
:1018220010308A00831626086E200A128A15A73EF7
:1018320084008313000883123D060319F72CC92381
:10184200023427082506031D2A2C2808240603191A
:10185200112D83122208023A031D372CF030A20008
:10186200241D352C87143D2C87103D2C2208083A64
:10187200031D3D2CC92300347A300313C600033004
:10188200C7000A168A111B270A128A150A30562522
:101892000A128A150034290883122B06031D112D02
:1018A2008316280883122C06031D112D8316270880
:1018B20083122D06031D112D7830C6000530C70096
:1018C2000A168A111B270A128A152208023A0319DC
:1018D200742C0230A200BA303407A6000A30031872
:1018E2000B303507A70083162B08A4002A08A50091
:1018F20013250A128A15003413308312C6000130F0
:10190200C7000A168A111B2713308312C600013042
:10191200C7000A168A111B270A128A158312220887
:10192200083A031D962CC9230034053056250A12A5
:101932008A150034290883122B06031D112D8316E4
:10194200280883122C06031D112D831627088312E3
:101952002D06031D112DCE30C6000430C7000A1615
:101962008A111B270A128A1583162A087625C9238B
:10197200003413250A128A150034290883122B0613
:10198200031D112D8316280883122C06031D112D09
:101992008316270883122D06031D112D7830C600E9
:1019A2000530C7000A168A111B270A128A158316E8
:1019B2002A088312A100A1080319EA2C0830A20008
:1019C20093303407A6000330031804303507A7000C
:1019D200F12CF030A200241DF02C8714F12C87107A
:1019E20013250A128A150034C923033483162608E4
:1019F2000319222C013A03194C2C033A0319852CA2
:101A0200013A03198F2C073A03199B2C023A031946
:101A12007D2C013A0319BA2C0F3A0319BE2CF52C6E
:101A2200C923003483160313A60183122D088316DB
:101A3200A70083122C088316A80083122B08831692
:101A4200A900AA012A08F0390138AA008312220843
:101A5200023A003003190130F400F40CF40C83163E
:101A62002A0874067F397406AA0028308312C80037
:101A72000430C900A730B823C700CB019F23C70099
:101A8200A53A031D512D8316AA1628308312C800C9
:101A92000430C900A730B823C700CB019F23C70079
:101AA20047088316AB007A2308008301C4000A1694
:101AB2008A11D5264408F600F7010A128A11BA22C1
:101AC2000A128A157408C5006F2D2230C600013033
:101AD200C7000A168A111B270A128A15C503450F69
:101AE200662D13250A128A1508008301C40003100B
:101AF200C40DAA2D3508F5003408F4000A128A1123
:101B0200DC231230F7000230F8004130F9000A12EB
:101B12008A1171230A128A11A0230A128A157408E3
:101B2200C5007508C60013250A128A158316A00877
:101B3200031D972D83124508C7004608C8000A12E4
:101B42008A11E0270A128A15F400F50175040319B7
:101B52009B2DC403440F7B2D08000330831603130F
:101B62008E041630831203178500640005140A16CA
:101B72008A118E260A128A150A30AA00FD3003172E
:101B82008D001F308F0083160C118C170C148310DC
:101B9200831083120E080C080313AB00FE300317E8
:101BA2008D001F308F0083160C118C170C148310BC
:101BB200831083120E080C080313AC00FF300317C6
:101BC2008D001F308F0083160C118C170C1483109C
:101BD200831083120E080C080313AD0006300A1698
:101BE2008A11E7250A128A15A000773A0319052EF1
:101BF20000000000000000007730C40006300A1622
:101C02008A1111260A128A150430A400241D0B2EF3
:101C120087140C2E87102C08BB00BC01BC00BB0132
:101C22002D08BB043B08C6003C08C7000A168A11EF
:101C3200CB26C0308B0003300A168A11E7250A1220
:101C42008A15831603179000100F282E2C2E1008C9
:101C52001F3A031D382E00000000000021309000C2
:101C620083120313C40003300A168A1111260430AA
:101C72000A168A11E7250A128A15A0007F3A03196B
:101C82004C2E00000000000000007F30C400043031
:101C92000A168A11112608300A168A11E7250A1235
:101CA2008A15A0007A3A031D632EC40108300A1671
:101CB2008A1111260A128A15F030A20024308316E6
:101CC2008604C52E00300A168A11B8253230C600A5
:101CD200C7010A168A111B27AA300A168A11B825CB
:101CE2003230C600C7010A168A111B272B082D079E
:101CF2002C070A168A11B8253230C600C7010A1607
:101D02008A111B272B080A168A11B8253230C60001
:101D1200C7010A168A111B272C080A168A11B82530
:101D22003230C600C7010A168A111B272D080A166F
:101D32008A11B8250A30C600C7010A168A111B2764
:101D42008316061532308312C600C7010A168A119D
:101D52001B270A128A15061DB92E5E30C6000130F5
:101D6200C7000A168A111B270A128A15061DC32EDE
:101D7200A20100303407A6007D3003187E303507FB
:101D8200A700C52EF030A2000A168A1156260A12A2
:101D92008A1500380319D62EA20100303407A60096
:101DA2007D3003187E303507A70083160C1483128A
:101DB2003508F5003408F4000A128A11DC23E230F7
:101DC200F700E430F8004430F9000A128A11712356
:101DD2000A128A11A0237408A8007508A9000A1221
:101DE2008A15C9230A128A15061483120313A50839
:101DF200031D06191E2F05302202031C1D2F0B3056
:101E0200250203181D2F0830250205300318132F51
:101E12002502031C0E2F0630132F02302502031C4D
:101E22001D2F0730A20040303407A60001300318EE
:101E320002303507A700A415A50150080319372F52
:101E4200500B322FD0010A128A1584200A128A15E9
:101E5200013A031D372F0A128A15F1230A128A1535
:101E6200372F0A128A15C9230A128A150317100876
:101E7200043A031D492F0A128A11EB230A128A150A
:101E820000380317031D582F930F572F930A572F0C
:101E92001008073A031D592F00300A128A1527230A
:101EA2000A128A15181683168C16831203179001CC
:101EB2000313330834060319F62E64003408B30002
:101EC200A418962F2808C7002908C8000A128A11E8
:101ED200E0270A128A15F400F50175040319C22FCE
:101EE2003508F5003408F4000A128A11DC23E230C6
:101EF200F700E430F8004430F9000A128A11712325
:101F02000A128A11A0230A128A157408A8007508F9
:101F1200A900031793080319902F9301C22F0A16E1
:101F22008A1156260A128A15C22F3108C7003208B2
:101F3200C8000A128A11E0270A128A15F400F50174
:101F420075040319C22FCD30A405BB01F401F501BC
:101F52003B083B07A13E8400831774088000840A73
:101F6200750880003B083B07913E84008317740884
:101F72008000840A75088000BB0A08303B02031CFB
:101F8200A72FF030031322020318F62E0A30220282
:101F9200031CCD2FF030A2002608C7002708C80076
:101FA2000A128A11E0270A128A15F400F501750453
:101FB2000319F62EA3012208023A031DE52F831608
:101FC200A501F0308312F92F2208083A031DF82FD9
:101FD200A1080319FA2FA10BEF2FF82F9330340722
:101FE200A6000330031804303507A700FA2FF0309B
:101FF200A200241DFE2F8714F62E8710F62E8207CC
:10200200CC34CC34CC34CC34CC34CC34CC34CC34CE
:10201200FF340034FF340034FF340034FF34003422
:10202200FF34FF34FF34FF34FF34FF34FF34FF3416
:10203200FF34FF34FF34FF34FF34FF34FF34FF3406
:10204200FD34FF34FF34FF34FF34FF34FF34FF34F8
:102052001134113451345534003400340034003416
:10206200413410340034003400340034003400347D
:102072004134103404344134003400340034003428
:10208200FF34FF34FF34FF34FF34FF34FF34FF34B6
:102092008207013400340134003400340134003446
:1020A2000134013400340134003482070D34083421
:1020B2000D340934FF340934FF34FF34FF34FF3464
:1020C200FF340B34820708340834FF3408340834F0
:1020D2000A34FF34FF34FF340934820702340534F2
:1020E20000340034043400340034003404348207F1
:1020F2001134443460340034E134813448340F34D0
:1021020082070134003401340034003401340034D5
:02211200013496
:102B160083014F0808000D308301C500C50B912DB8
:102B26000800831603138C108312121108007D30DF
:102B36008301C500C503450F9D2D080083120317A9
:102B46009008031DA82D0030A92D0130031308009D
:102B560083160313AF08031DB52DA008031DB52D5D
:102B66000030B62D0130831208008301BD008B139F
:102B7600061100003D0893008316141CBF2D0000AB
:102B8600831206158B170800830107102130930066
:102B96008316141CCB2D831207147B3093008316E7
:102BA600141CD22D831208008301071021309300D4
:102BB6008316141CDB2D831207146B3093008316C7
:102BC600141CE22D831208008301C4008316031728
:102BD6008C18E92D83120313440803178D008316FE
:102BE6008C130C1483120C08031308008301BB001A
:102BF6009F0183169F01831281389F00BC010A3012
:102C06003C0203180B2EBC0A0A303C02031C062E9B
:102C16009F1400009F180D2E1E0808008301C50092
:102C2600831603178C18132E8312031345080317F4
:102C36008D000313440803178C0083168C130310AE
:102C46008B1B03148B130C1555308D00AA308D0089
:102C56008C140C1103188B178301080083120317B9
:102C66009001910101300A128A1527230A168A114A
:102C760000380319472EA20100303407A6007D3024
:102C860003187E303507A7005A30031794009513B2
:102C960001300A168A11A7270A168A118316981672
:102CA6000C16831208008301181283168C129812D0
:102CB6000C12831203179001910103133508F500D6
:102CC6003408F4000A128A11DC23A930F7002B30ED
:102CD600F8004530F9000A128A1171230A128A1186
:102CE600A0237408B1007508B2000A128A150B22D7
:102CF6000A168A1100380319822E01308C2E0030F4
:102D06000A128A1527230A168A11181683168C1694
:102D160000308312080060308316031381002430CC
:102D26009500831286003A30831686000830831297
:102D3600850003308316850041308312870090306A
:102D4600831687000330031788000A308900813014
:102D5600831203139F0083169F0111308312900084
:102D6600E93083169700831203178916A53087006A
:102D760040308316031394003130831294000C30D4
:102D8600831699000430980080308312980008005A
:102D960083014608B7004708B800B901BA01B60171
:102DA600B60A08008301B608031DDD2EC601C60A51
:102DB600C701CB266D30F8004E30F900C630FA0058
:102DC6004130FB003708F4003808F5003908F600F2
:102DD6003A08F7000A128A117D220A168A1139303A
:102DE600F8003030F900FA01FB0178087407FC009E
:102DF6007508FD0079080318790FFD077608FE00AF
:102E06007A0803187A0FFE077708FF007B08031875
:102E16007B0FFF077C08B7007D08B8007E08B90065
:102E26007F08BA00F5003908F4007F30F505080080
:102E3600612F0F08CB000E08CA004B080F06031DB2
:102E46001C2F6400C6304A07C8000330031804303C
:102E56004B07C90049084B02031D332F48084A0295
:102E6600031C472F4B08F5004A08F4004808F402F3
:102E7600031CF5034908F50280307502003003197A
:102E86007402031C612F582F4908F5004808F40006
:102E96004A08F402031CF5034B08F502803075025C
:102EA6000130031974020318612F0F08CB000E08B6
:102EB600CA004B080F0603192D2F582F8312031330
:102EC60046080319C703C603460A0319470A031926
:102ED60008001C2F83120317150CF400F40C740C55
:102EE6000F39F4000530740203188B2F10308A0056
:102EF600150D150D0139F400150CF500F50C750CC2
:102F06000F39F5007507740763200A168A11A52F75
:102F1600150CF400F40C740C0F390F3A031DA42F92
:102F2600063016020318A42F10308A00150D150D51
:102F36000139F40016081607740756200A168A1176
:102F4600A52FFF30031308008301C400FF30C8001B
:102F5600C9006D278313C700470FB22FFF34FE3019
:102F6600C707C601470846020318DA2F4608143E6B
:102F7600840083170008C806C501481CD02F4908DD
:102F8600F5004808F4000310F50CF40C0130740643
:102F9600C800A0307506C900D32F0310C90CC80C91
:102FA600C50A08304502031CC02FC60AB52FC4083F
:102FB6000319EA2F4708143E840083174908800046
:102FC6004708153E840083174808800000344708E8
:102FD600143E840083170008F500F4014708153EE7
:102FE600840083170008F40449087506031DFD2FA5
:0A2FF6004808740603190034FF3484
:04400E00C123FF3E8D
:00000001FF
