:0600000002308A00302AE4
:10000800F30003088301D1000408D2000A08D300D2
:100018008A017408DA007E08DC007F08DE007508B3
:10002800E0007608DB007708E3007808DD0079084F
:10003800E1007A08DF007B08E2007C08D9007D082F
:10004800D8005408D6005508D700831603138C1C13
:100058005B2883128C1C5B28831201088316E90035
:10006800831281018C102308F23A031D4928831654
:100078006908143A8312031D442821194628482880
:10008800211948288714492887101230831603132A
:10009800690203185128E901572817306902031C1F
:1000A80057280830E90001308312D000BF288B1A86
:1000B8000B1DBF285D3083128107B3282108F40087
:1000C800F5017508103E8312D5007408823E0318A6
:1000D800D50A0A128A1161220A128A11013A031DED
:1000E80078280C3097047B280711F330970583167E
:1000F800A10A2108083A031DBE280530A100A30162
:10010800A30AA2010430A6282208A73E840083136C
:1001180000082305031994280C30831297049828A3
:1001280083120711F33097058030831623020318D2
:10013800A0280310A30DBE28A301A30AA20AA10B9D
:10014800BE280530A000BE28F3308312970507119A
:100158008B128316A00102308312D000BE288316AA
:100168002008023A03196228063A03198828013A36
:100178000319A8280B1183168C1E5C2983128C1E68
:100188005C2983121A08CE001819CC28981C4B2910
:10019800981CD128181200001816023003171002F4
:1001A800031CBA290A168A11C9250A128A110317CB
:1001B80091011008043A0319BA29492903134E0872
:1001C800553A0317031DF728910A1108043A031D2D
:1001D800BA290A168A11B9250A128A110317910138
:1001E8009001900ABA299101BA2903134E085A3A84
:1001F800031D05295A30031794009101910A023012
:1002080040290317910A1108083A031DBA294229FF
:10021800910A1103143E8400831703134E088000CB
:1002280003171108043A031DBA290A168A116D2703
:100238000A128A1103179200120F23294229033048
:100248004029910A1103143E8400831703134E08B2
:100258008000031712081102031CBA29031318128D
:1002680083168C128312031791010A168A11C92565
:100278000A128A11043003179000BA290A168A1143
:10028800C9250A128A11031791019001BA29031787
:1002980010080319E228013A0319F928033A031947
:1002A8000C29013A03192529073A0319BA294229C1
:1002B80083160C1EBA2983120C1EBA29A729553099
:1002C800031399000317910A11080A3A031DB82964
:1002D80091019001900AB829FF3003139900031780
:1002E800910A1108023A031DB8290A168A116D27C6
:1002F8000A128A110317920091010330A529910A65
:100308001103143E84008317000803139900031790
:1003180012081102031CB82991010530A5295C3087
:10032800031399000317910A1103031DB829063016
:10033800A5298316031398120C128312031791012F
:1003480007309000B829831203171008031963298E
:10035800013A03197029023A03198329063A031945
:100368009329033A03199D2903130C1283120313CB
:100378000C1C092A83160C1C092A8312B40A0319B7
:10038800B50A0619A50A861AD029F0302302031CDB
:10039800D129A1150610D1290614F030230203181B
:1003A800082A10308A002308F4000310F40D031003
:1003B800F40D0310740DF4002408F5000310F50C77
:1003C8000310F50C0310750C0739740700200A1286
:1003D8008A11F4000130F50024080739F600F60AFE
:1003E800F7290310F50DF60BF5297508740503199F
:1003F800002A2119022A042A2119042A8714052A05
:10040800871083120313A40A0C10031383125A08CB
:10041800F4005C08FE005E08FF006008F5005B0859
:10042800F6006308F7005D08F8006108F9005F0846
:10043800FA006208FB005908FC005808FD0056083D
:10044800D4005708D5005208840053088A00510880
:100458008300F30E730E0900203084004F304F22C2
:100468000230D5007730D4004F3084005130542208
:10047800A0308400EA304F228317103084005E30A9
:100488004F2290308400B1304F220A128A15B02DC5
:1004980004068001840A0406031D4C2A6400003403
:1004A800F4000A128A1164220A128A118000840A4E
:1004B8000408740603190034552A83120313D40060
:1004C800D51B6F2A551B772A55088A005408D40A69
:1004D8000319D50A82008313551883175408D40AC0
:1004E800840000080800003400340310FF30F407CB
:1004F800F409031CF507F509031CF607F609031CA4
:10050800F707F709080084017408FC007508FD0066
:100518007608FE007708FF00F601F701F401F501FF
:100528000310FF0CFE0CFD0CFC0C031CA92A780818
:10053800F40779080318790FF5077A0803187A0F72
:10054800F6077B0803187B0FF7077C087D047E04F9
:100558007F040319B52A0310F80DF90DFA0DFB0DE8
:10056800942A8408031900347708800084037608E5
:1005780080008403750880008403740880000034B8
:10058800FA01F51FCE2AF409F40A0319F503F5094F
:100598007A17FA1777088039FA06F71FDA2AF60960
:1005A800F60A0319F703F709DA2AFA01F801F9013B
:1005B80076087704031DE32AF401F50100341F309F
:1005C800FA040310FA0AF60DF70D031CE62AF70CD5
:1005D800F60C77087502031DF32A76087402031CCB
:1005E800FB2A7608F4027708031C770AF502F80D4F
:1005F800F90DFA0BFA1AEB2AFA1F072BF809F80A71
:100608000319F903F9097808F6007908F7007A1F41
:100618000034F409F40A0319F503F5090034FC0160
:10062800750D760DFA007A0803191E2BFC0DF601DC
:10063800F5170800F401F501F6010034FC10780DF7
:10064800790DFB007B0803192E2B0318FC14F90104
:10065800F8170800FB01F701F801F90108007A080A
:1006680003191E2BF513FC0C7A0CF6000318F5176A
:10067800E92BFA08031D512BF401F501F601E92BCA
:1006880076030319F40A0319F50A0319F60A031085
:10069800F60CF50CF40CFA0A3D2BF608031D442B56
:1006A800740875040319402BF51B332BFA0303193F
:1006B800402B0310F40DF50D582B7A087B02031C10
:1006C800702B031908000310F60CF50CF40CFA0A49
:1006D8007A087B02652B0310F90CF80CF70CFB0A5F
:1006E8007A087B06031908006F2B8030F90684010D
:1006F8001323222361237C1C892BF409F509F609AD
:10070800F40A0319F50A0319F60AFC1C932BF709D6
:10071800F809F909F70A0319F80A0319F90A770811
:10072800F40778080318780FF50779080318790F84
:10073800F607FC01F61F3D2BF409F509F609F40A42
:100748000319F50A0319F60A7C143D2B84011323B7
:10075800F7018230FA07FA1B1E2BF030FA07FA1B52
:10076800C62B18307A0203181E2BFA08031DBF2B5C
:100778007C1879220800FA030310F40DF50DF60D24
:10078800F70DB92B0310F60CF50CF40CFA0FC62B69
:10079800BC2BF71FD22B7C147922D32BFC018E3073
:1007A800FA008401F70803193D2B0310F70CF60C27
:1007B800F50CF40CFA0AD62BF601F51BF6037608AD
:1007C800F700CD2BF601F701D22B8408031900346A
:1007D800760880008403750880008403740880000C
:1007E800003483120317951F072C00300A168A114C
:1007F800A7270A128A1100380319C52F181683165D
:100808008C160130E82F0313E42F190CF400F40CB4
:10081800740C07390319202C0313211A202C0313F5
:100828002116031717080739F4007407913E84004E
:1008380083178001840A8001031717080739F40019
:100848007407913E8400831716080006031D2F2C99
:100858001708840A00060319D92F19080739F40064
:100868000130F600F701F40A3C2C0310F60DF70DE1
:10087800F40B392CFF30F607031CF70703132D0878
:10088800F605F701031718087F39F400F501770812
:100898007506031D512C76087406031DD92F1708F9
:1008A8000739F4007407A13E8400831716088000F6
:1008B800840A17088000812CF130031323020318DF
:1008C8008F2C0630A30040303407A60001300318EF
:1008D80002307B2C053003132302031C8F2C0530B8
:1008E800A30093303407A6000330031804303507FB
:1008F800A7007F2C0313A1158F2C190CF500F50CFC
:10090800750C0739013A0319602C033A03196E2C48
:10091800013A03197E2C0A168A11D5260A128A1161
:100928000130F600031715080739F700F70A9E2C5F
:100938000310F60DF70B9C2C7608F6007603740569
:100948000A128A152E200A128A112A0803179600FD
:1009580003132B080317970003132C080317980099
:1009680003132D080317990095010313A11DBE2C2D
:100978000317151403133508F5003408F4000A1298
:100988008A11E623A930F7002B30F8004530F9002A
:100998000A128A117B230A128A11AA230A128A11BF
:1009A8007408B1007508B2000330A104D92F0313ED
:1009B8002D0803171906031DF12C03132C08031720
:1009C8001806031DF12C03132B0803171706031D24
:1009D800F12C03132A0803171606031DD92F031336
:1009E800BF013F083F07A13E840083170008C000ED
:1009F800840A0008C10040040319102D4008BD00F6
:100A08004108BE003F083F07913E840083173D0818
:100A18008000840A3E088000BF0A08303F02031C99
:100A2800F52C3D08F500F4017408C2007508C300F0
:100A38003E08F400F5014208F4044308F504FF30C9
:100A48007405BD000F307505BE000317150807397A
:100A5800013A031D3E2D03132308F03A031D3E2DD2
:100A68000630A30040303407A600013003180230D6
:100A78003507A700003003133E02053003193D0275
:100A8800031C542D00303E02083003193D02031C9C
:100A9800632D00303E020D3003193D020318632D0B
:100AA8003508F5003408F4000A128A11E6230A1200
:100AB8008A11A930F7002B30F80046306F2D350821
:100AC800F5003408F4000A128A11E623A930F70069
:100AD8002B30F8004530F9000A128A117B230A12DC
:100AE8008A11AA230A128A117408B1007508B20083
:100AF800A114A111D92F03132D0803171B06031DD9
:100B0800952D03132C0803171A06031D952D03139F
:100B18002B0803171906031D952D03132A0803171D
:100B28001806031DD92F03132A0803179600031369
:100B38002B080317970003132C08031798000313B7
:100B48002D080317990003133508F5003408F4003D
:100B58000A128A11E623A930F7002B30F800453035
:100B6800F9000A128A117B230A128A11AA230A128F
:100B78008A117408B1007508B200DB2D2130031307
:100B8800A104E92D0A128A1515250A128A11E82DE1
:100B98002308F03A031DE82D0630A300403034073F
:100BA800A6000130031802303507A700E82D031707
:100BB80015080739013A0319C22D043A0319C62D3D
:100BC800023A03130319CC2D211410300317950092
:100BD800D92F16088316031325068312031DFC2D2F
:100BE8000317170883160313240683120319DA2F31
:100BF8002308023A031D072EF030A300211D062EFC
:100C08008714072E87102308083A0319D92F7A303A
:100C1800C6000330C7000A168A111B270A300A12B9
:100C28008A1558250A128A11D92F1A0803132B0678
:100C3800031DD92F0317190803132C06031DD92FD9
:100C48000317180803132D06031DD92F7830C60083
:100C58000530C7000A168A111B270A128A110317C2
:100C68009608031D502E17080313A200A2080319A3
:100C7800482E0830A30093303407A6000330031829
:100C880004303507A7006A2EF030A300211D4E2E30
:100C980087146A2E87106A2E03132308023A031951
:100CA8005F2E0230A300BA303407A6000A300318BA
:100CB8000B303507A7000317170883160313A40082
:100CC80083120317160883160313A5000A128A1540
:100CD80015250A128A11D92F17085A3A031D7A2E98
:100CE8000A168A1186250A128A11D92F0A128A151C
:100CF800CB230A128A11D92F13300313C6000130EF
:100D0800C7000A168A111B2713300313C6000130C7
:100D1800C7000A168A111B270A128A11031323080F
:100D2800083A0319D92F05300A128A1558250A12CC
:100D38008A11D92F1A0803132B06031DD92F03175D
:100D4800190803132C06031DD92F031718080313BA
:100D58002D06031DD92FCE30C6000430C7000A1651
:100D68008A111B27031717080A128A1578250A12F1
:100D78008A11D92F0A128A1515250A128A11D92F14
:100D8800150807390319ED2D013A0319192E033AED
:100D98000319882E013A0319922E073A03199E2E39
:100DA800013A0319702E033A0319802E013A0319E8
:100DB800BE2ED92F17308400831703132F0800067F
:100DC800031DE92E3008840A00060319F42E0317C0
:100DD80017080313AF00031718080313B000AE0178
:100DE80007302E020318D92FAE0A0A168A11D52603
:100DF80074080A128A152E200A128A111B2F03134F
:100E08002D0803171A06031D192F03132C0803179F
:100E18001906031D192F03132B0803171806031DA2
:100E2800192F03132A0803171706031DD92F0A12AF
:100E38008A1503200A128A112114D92F03132D08A9
:100E480003171A06031D382F03132C080317190656
:100E5800031D382F03132B0803171806031D382FFB
:100E680003132A0803171706031DD92F8B1383169C
:100E78008C183B2F83128D0101308C0083168C1344
:100E880003108B1B03148B130C1555308D00AA30DF
:100E98008D008C140C1103188B1783120514532F13
:100EA80003132D0803171A06031D6A2F03132C08B2
:100EB80003171906031D6A2F03132B0803171806B7
:100EC800031D6A2F03132A08031717060319992FFE
:100ED800D92F03132308F23A031D742FF030A3000F
:100EE800211D7F2F8714802FF2300313A3002119AF
:100EF8007F2F8714802F87108312972F04300313B6
:100F0800A1062119892F00308A2F77308312C40057
:100F180006300A168A11F1250A128A11211D962F08
:100F28008714972F87102114AC2F1C08F7001B0873
:100F3800F600A82F760803196D2F013A0319782FA8
:100F4800033A0319822FAC2F7708803A03199E2F92
:100F58000313211CD92F03179601960A0A128A1522
:100F680003200A128A11D92F16080319DE2E013A16
:100F78000319032F033A0319222F073A0319542F91
:100F8800D92F0317150CF500F50C750C0F3903193B
:100F9800092C013A0319DB2C033A03197F2D063A71
:100FA8000319C42E0B3A0319B82F83120313211CFB
:100FB800E42F0A168A1131260A128A112110E72F06
:100FC800181683168C160030831208008301C4009B
:100FD800831603178C18EC2F831203134408031786
:100FE8008D0083168C130C1483120C08031308004D
:060FF80083014F08080010
:1010060083012A080317970003132B080317980078
:1010160003132C080317990003132D0803179A00CE
:1010260003132308F03A0319211D1B28F1301C284D
:10103600230803179B0002300A128A11EA270A12B4
:101046008A1503179C008316100883129D007D30B5
:101056009E00031308008301C40080280F08C70000
:10106600C801F500F4010E087404C7007508C8002D
:101076000F06031D31285A304707C50015300318DF
:1010860016304807C600640046084802031D4D286E
:1010960045084702031C61284808F5004708F40084
:1010A6004508F402031CF5034608F5028030750274
:1010B600003003197402031C802872284608F500C4
:1010C6004508F4004708F402031CF5034808F50236
:1010D60080307502013003197402031880280F0846
:1010E600C700C801F500F4010E087404C7007508AE
:1010F600C8000F0603194728722883120313C40376
:10110600440F31280800BB2930303002031CB729B0
:101116008312BD018316B901B401B501F828831203
:101126003D08F4000310F40D0310740D0C3EAF3EA1
:10113600840083130008F7003D08F4000310F40D43
:101146000310740D0B3EAF3E840083130008F600B7
:101156003D08F4000310F40D0310740D0D3EAF3E70
:10116600840083130008F5003D08F4000310F40D15
:101176000310740D0E3EAF3E8400831300087507FE
:10118600760777078316B8000310B80C0310B80C5F
:101196000310B80C10308A0083123D0849200A1249
:1011A6008A1500380319EA28053083163802031C0D
:1011B600EF280A30F400F5013808F402031CF503A1
:1011C6007408B4070318B50A7508B507F628083079
:1011D60083163802031CF228B901B90AF628380822
:1011E600B4070318B50A8312BD0A0C3083123D02F8
:1011F600831603180129B90803199228360A031918
:10120600370A03191929B908031D112935083702A8
:10121600031D0F293408360203181C29AF01AF0A33
:10122600B001B00AFF30B600B700C929B908031DDE
:10123600C9293408B6003508B700C929A6013008FF
:101246000F390F3A031DB7298312BD013D08F4007B
:101256000310F40D0310740D303CB73E8400831365
:101266000008F7003D08F4000310F40D0310740D98
:10127600303CB93E840083130008F6003D08F400B4
:101286000310F40D0310740D303CB83E8400831334
:101296000008F5003D08F4000310F40D0310740D6A
:1012A600303CB63E8400831300087507760777073F
:1012B6008316B8000310B80C0310B80C0310B80C52
:1012C6000310A60D06303802031826148312BD0A31
:1012D60004303D02031C292909308316260203180F
:1012E600852910308A0026086E200A128A15F40015
:1012F600740AB100A730B200B301B30A0230AF00DE
:10130600B001B729AF01B001C92930080339033A42
:10131600031DB7296608670769076807B800031041
:10132600B80C0310B80C0310B80C0630380232089B
:1013360084008313031CA22933088004A4293309DB
:101346008005803033020318AB290310B30DB7298B
:10135600B301B30AB20AB10BB7298C10831212116A
:1013660003308316AF00B929B00AC9290130DD2937
:10137600831603132F0803198728013A0319212915
:10138600033A03198829013A0319B9298312BD01C1
:101396003D08BB3E840083130008F4003D08BA3EB6
:1013A6008400831374088000BD0A2F303D02031C9D
:1013B600CB290030831208008301BD000310BD0D48
:1013C6008B1307103D0893008316141CE729871614
:1013D6008312071493018316141CEE2987128312B5
:1013E6001308BD008B1708008301C6000310C60D45
:1013F60046148B130710460893008316141C002A04
:1014060083120714450893008316141C072A8B17AA
:10141600831208003A308301C5000030F7210A30F4
:10142600C600C7010A168A111B270A128A153B3005
:10143600C5000030F7210A30C600C7010A168A1116
:101446001B270A128A155830C5000130F7212030B3
:10145600C5000230F721C5010330F7210130DF2135
:10146600583A031D01340230DF21203A031D0134AE
:101476000330DF210038031D01344230C50004303B
:10148600F7211430C5000530F7219C30C500063021
:10149600F7210430DF21423A031D01340530DF21F4
:1014A600143A031D01340630DF219C3A031D013432
:1014B6000230C5000730F7218030C5000830F7211B
:1014C6001230C5000A30F721C5010B30F721103064
:1014D6008A0002307820C5000C300A128A15F721DE
:1014E6001030C5000D30F7212630C5000E30F7212B
:1014F6009C30C5000F30F7216B30C5001030F72146
:101506005B30C5001130F7217030C5001230F7216D
:10151600C501C50A1330F721C5011C30F72110306B
:10152600C5004030F7210830C5004130F7213F3073
:10153600C5004230F7210430C5004330F721C5010C
:101546004430F721C5014530F721C5014630F72162
:101556000A168A1179200A128A15C5000030F72169
:1015660010308A0001307820C50009300A128A1529
:10157600F72110308A0002307820C5000C300A129C
:101586008A15F721A630C5000E30F7210E30DF216F
:10159600F400F41DC92A2630C5000E30F72110309C
:1015A6008A0004307820C50000300A128A15F72117
:1015B60010308A0005307820C50009300A128A15D5
:1015C600F72110308A0006307820C5000C300A1248
:1015D6008A15F721A630C5000E30F7210E30DF211F
:1015E600F400F41DF12A2630C5000E30F7213F30F5
:1015F600C5000030F7215530C5000B30F7210B3000
:10160600DF21553A031D0134AA30C5000B30F721FE
:101616000B30DF21AA3A031D0234C5010B30F72136
:101626007B30C5000030F7210230C600C7010A161C
:101636008A111B270A128A157930C5000030F72156
:101646000A168A118C250A128A1500348301C400F1
:101656006400CF0010308A004408F4000310F40D33
:101666000310740D7820C50000300A128A15F72180
:1016760010308A004408F4000310F40D0310740DB2
:10168600F400740A7820C50009300A128A15F72179
:1016960010308A004408F4000310F40D0310740D92
:1016A600023E7820C5000C300A128A15F721C408BC
:1016B600031D602BC5010B30F7210A168A118C25F4
:1016C6000A128A15440B003410308A004408F400CC
:1016D6000310F40D0310740D033E7820C5000B3083
:1016E6000A128A15F7210A168A1180250A128A1506
:1016F6000034831603138C108312121191012030CB
:1017060092003730831692001C30831295009701A1
:101716008316A1010230A000831203170510C530FD
:1017260083160313810064008312031705140B113B
:10173600FF30031381008B16121508008301CD00BC
:10174600CC010310CD1FAE2BCD0DCB1FAB2B4D14F3
:101756008530CD06B12BCD0DCB1B4D140310CB0D13
:10176600CC0A08304C02031CA52B4D080800830147
:10177600CA00C62BCA0A4A03840083130008CB009A
:101786004808A123C800C903490FBD2B4808080013
:10179600093083160313A600B101B001A001AF0101
:1017A6008312D001FF308316B600B70083120317E9
:1017B6000510683083160313810064008312031733
:1017C60005140313810121309200F930831692002B
:1017D6008312910112158C1083168C148312080043
:1017E6000930831603132602031CFB2BCB2301347B
:1017F600260EF0398312CB00F530A123BD00C800B8
:1018060010308A00831626086E20003E8312C90017
:10181600A7300A128A15BA23BD00CB01A123BD0049
:1018260010308A00831626086E200A128A15A73EF3
:1018360084008313000883123D060319F92CCB2379
:10184600023427082506031D2C2C28082406031914
:10185600132D83122308023A031D392CF030A300FE
:10186600211D372C87143F2C87103F2C2308083A5C
:10187600031D3F2CCB2300347A300313C6000330FC
:10188600C7000A168A111B270A128A150A3058251C
:101896000A128A150034290883122B06031D132DFC
:1018A6008316280883122C06031D132D831627087A
:1018B60083122D06031D132D7830C6000530C70090
:1018C6000A168A111B270A128A152308023A0319D7
:1018D600762C0230A300BA303407A6000A3003186B
:1018E6000B303507A70083162B08A4002A08A5008D
:1018F60015250A128A15003413308312C6000130EA
:10190600C7000A168A111B2713308312C60001303E
:10191600C7000A168A111B270A128A158312230882
:10192600083A031D982CCB230034053058250A129B
:101936008A150034290883122B06031D132D8316DE
:10194600280883122C06031D132D831627088312DD
:101956002D06031D132DCE30C6000430C7000A160F
:101966008A111B270A128A1583162A087825CB2383
:10197600003415250A128A150034290883122B060D
:10198600031D132D8316280883122C06031D132D01
:101996008316270883122D06031D132D7830C600E3
:1019A6000530C7000A168A111B270A128A158316E4
:1019B6002A088312A200A2080319EC2C0830A300FF
:1019C60093303407A6000330031804303507A70008
:1019D600F32CF030A300211DF22C8714F32C871072
:1019E60015250A128A150034CB23033483162608DC
:1019F6000319242C013A03194E2C033A0319872C98
:101A0600013A0319912C073A03199D2C023A03193E
:101A16007F2C013A0319BC2C0F3A0319C02CF72C62
:101A2600CB23003483160313A60183122D088316D5
:101A3600A70083122C088316A80083122B0883168E
:101A4600A900AA012A08F0390138AA00831223083E
:101A5600023A003003190130F400F40CF40C83163A
:101A66002A0874067F397406AA0028308312C80033
:101A76000430C900A730BA23C700CB01A123C70091
:101A8600A53A031D532D8316AA1628308312C800C3
:101A96000430C900A730BA23C700CB01A123C70071
:101AA60047088316AB007C2308008301C4000A168E
:101AB6008A11D5264408F600F7010A128A11C422B3
:101AC6000A128A157408C500712D2230C60001302D
:101AD600C7000A168A111B270A128A15C503450F65
:101AE600682D15250A128A1508008301C400031003
:101AF600C40DAC2D3508F5003408F4000A128A111D
:101B0600E6231230F7000230F8004130F9000A12DD
:101B16008A117B230A128A11AA230A128A157408CB
:101B2600C5007508C60015250A128A158316A00871
:101B3600031D992D83124508C7004608C8000A16DA
:101B46008A1111260A128A15F400F5017504031983
:101B56009D2DC403440F7D2D080003308316031307
:101B66008E041630831203178500640005140A16C6
:101B76008A118E260A128A150A30AA00FD3003172A
:101B86008D001F308F0083160C118C170C148310D8
:101B9600831083120E080C080313AB00FE300317E4
:101BA6008D001F308F0083160C118C170C148310B8
:101BB600831083120E080C080313AC00FF300317C2
:101BC6008D001F308F0083160C118C170C14831098
:101BD600831083120E080C080313AD0006300A1298
:101BE6008A11EA270A128A15A000773A0319072EE6
:101BF60000000000000000007730C40006300A161E
:101C06008A11F1250A128A150430A100211D0D2E14
:101C160087140E2E87102C08BB00BC01BC00BB012C
:101C26002D08BB043B08C6003C08C7000A168A11EB
:101C3600CB26C0308B0003300A128A11EA270A121B
:101C46008A15831603179000100F2A2E2E2E1008C1
:101C56001F3A031D3A2E00000000000021309000BC
:101C660083120313C40003300A168A11F1250430C7
:101C76000A128A11EA270A128A15A0007D3A031968
:101C86004E2E00000000000000007D30C40004302D
:101C96000A168A11F12508300A128A11EA270A1251
:101CA6008A15A0007A3A031D652EC40108300A166B
:101CB6008A11F1250A128A15F030A3002430831602
:101CC6008604C72E00300A168A11AA253230C600AD
:101CD600C7010A168A111B27AA300A168A11AA25D5
:101CE6003230C600C7010A168A111B272B082D079A
:101CF6002C070A168A11AA253230C600C7010A1611
:101D06008A111B272B080A168A11AA253230C6000B
:101D1600C7010A168A111B272C080A168A11AA253A
:101D26003230C600C7010A168A111B272D080A166B
:101D36008A11AA250A30C600C7010A168A111B276E
:101D46008316061532308312C600C7010A168A1199
:101D56001B270A128A15061DBB2E5E30C6000130EF
:101D6600C7000A168A111B270A128A15061DC52ED8
:101D7600A30100303407A6007D3003187E303507F6
:101D8600A700C72EF030A3000A168A1156260A129B
:101D96008A1500380319D82EA30100303407A6008F
:101DA6007D3003187E303507A70083160C14831286
:101DB6003508F5003408F4000A128A11E623E230E9
:101DC600F700E430F8004430F9000A128A117B2348
:101DD6000A128A11AA237408A8007508A9000A1213
:101DE6008A15CB230A128A15061483120313A50833
:101DF600031D06191E2F05302302031C1D2F083054
:101E0600250205300318112F2502031C0C2F06305E
:101E1600112F02302502031C132F0730A300142FA5
:101E2600A30140303407A6000130031802303507FD
:101E3600A700A115A50150080319372F500B322F03
:101E4600D0010A128A1586200A128A15013A031D44
:101E5600372F0A128A15F3230A128A15372F0A1208
:101E66008A15CB230A128A1503171008043A031D94
:101E7600492F0A128A11F5230A128A150038031708
:101E8600031D582F930F572F930A572F1008073A01
:101E9600031D592F00300A128A1529230A128A15A2
:101EA600181683168C168312031790010313330832
:101EB60034060319F82E64003408B300A118962FCF
:101EC6002808C7002908C8000A168A1111260A120E
:101ED6008A15F400F50175040319C22F3508F500BB
:101EE6003408F4000A128A11E623E230F700E430DF
:101EF600F8004430F9000A128A117B230A128A116B
:101F0600AA230A128A157408A8007508A9000317DF
:101F160093080319902F9301C22F0A168A11562689
:101F26000A128A15C22F3108C7003208C8000A16DD
:101F36008A1111260A128A15F400F501750403198F
:101F4600C22FCD30A105BB01F401F5013B083B07CB
:101F5600A13E8400831774088000840A75088000F7
:101F66003B083B07913E8400831774088000840A6F
:101F760075088000BB0A08303B02031CA72FF0300F
:101F8600031323020318F82E0A302302031CCD2F55
:101F9600F030A3002608C7002708C8000A168A11D1
:101FA60011260A128A15F400F50175040319F82E94
:101FB600A4012308023A031DE52F8316A501F0307C
:101FC6008312F92F2308083A031DF82FA2080319D4
:101FD600FA2FA20BEF2FF82F93303407A600033009
:101FE600031804303507A700FA2FF030A300211D8F
:101FF600FE2F8714F82E8710F82E8207CC34CC34A7
:10200600CC34CC34CC34CC34CC34CC34FF34003463
:10201600FF340034FF340034FF340034FF34FF341F
:10202600FF34FF34FF34FF34FF34FF34FF34FF3412
:10203600FF34FF34FF34FF34FF34FF34FF34FF3402
:10204600FF34FF34FF34FF34FF34FF34EE34EE3414
:10205600AA34AA34FF34FF34FF34FF34CC34FC34C2
:10206600FF34FF34FF34FF34FF34FF34CC34CC3438
:10207600CC34FF34FF34FF34FF34FF34FF34FF34F5
:10208600FF34FF34FF34FF34FF34FF34820701345A
:102096000034013400340034013400340134013496
:1020A60000340134003482070D3408340D34093409
:1020B600FF340934FF34FF34FF34FF34FF340B346C
:1020C600820708340834FF34083408340A34FF34ED
:1020D600FF34FF34093482070234053400340034F7
:1020E6000434003400340034043482071134443498
:1020F60060340034E134813448340F3482070134CB
:0E21060000340134003400340134003401345C
:102B00000D308301C500C50B832D08008316031308
:102B10008C108312121108007D308301C500C5039B
:102B2000450F8F2D0800831203179008031D9A2D5F
:102B300000309B2D01300313080083160313AF08E8
:102B4000031DA72DA008031DA72D0030A82D0130BF
:102B5000831208008301BD008B13061100003D089D
:102B600093008316141CB12D0000831206158B17D9
:102B7000080083010710213093008316141CBD2D1B
:102B8000831207147B3093008316141CC42D831208
:102B9000080083010710213093008316141CCD2DEB
:102BA000831207146B3093008316141CD42D8312E8
:102BB00008008301BB009F0183169F0183128138A7
:102BC0009F00BC010A303C020318EB2DBC0A0A30FE
:102BD0003C02031CE62D9F1400009F18ED2D1E08DB
:102BE00008008301C500831603178C18F32D831288
:102BF0000313450803178D000313440803178C00C3
:102C000083168C1303108B1B03148B130C15553078
:102C10008D00AA308D008C140C1103188B178301C2
:102C200008008B138312031348083502031D1A2E64
:102C300047083402031C2F2E3508F5003408F40031
:102C40004708F402031CF5034808F50280307502BA
:102C50000030031974028B17031C013400348B17E6
:102C60000034831203179001910101300A128A1572
:102C700029230A168A1100380319472EA3010030B0
:102C80003407A6007D3003187E303507A7005A3080
:102C900003179400951301300A168A11A7270A1604
:102CA0008A11831698160C168312080083011812D5
:102CB00083168C1298120C12831203179001910143
:102CC00003133508F5003408F4000A128A11E623CC
:102CD000A930F7002B30F8004530F9000A128A11AC
:102CE0007B230A128A11AA237408B1007508B20066
:102CF0000A128A150D220A168A1100380319822E2B
:102D000001308C2E00300A128A1529230A168A11E6
:102D1000181683168C160030831208006030831654
:102D20000313810024309500831286003A30831605
:102D300086000830831285000330831685004130F9
:102D400083128700903083168700033003178800B2
:102D50000A3089008130831203139F0083169F017C
:102D6000113083129000E930831697008312031705
:102D70008916A53087004030831603139400313044
:102D8000831294000C308316990004309800803030
:102D900083129800080083014608B7004708B8006E
:102DA000B901BA01B601B60A08008301B608031DCD
:102DB000DD2EC601C60AC701CB266D30F8004E30A5
:102DC000F900C630FA004130FB003708F40038083B
:102DD000F5003908F6003A08F7000A128A1187222E
:102DE0000A168A113930F8003030F900FA01FB0177
:102DF00078087407FC007508FD0079080318790F3E
:102E0000FD077608FE007A0803187A0FFE07770898
:102E1000FF007B0803187B0FFF077C08B7007D08C5
:102E2000B8007E08B9007F08BA00F5003908F40040
:102E30007F30F5050800612F0F08CB000E08CA008F
:102E40004B080F06031D1C2F6400C6304A07C8003C
:102E50000330031804304B07C90049084B02031D17
:102E6000332F48084A02031C472F4B08F5004A0835
:102E7000F4004808F402031CF5034908F502803009
:102E80007502003003197402031C612F582F490882
:102E9000F5004808F4004A08F402031CF5034B0847
:102EA000F502803075020130031974020318612F96
:102EB0000F08CB000E08CA004B080F0603192D2F70
:102EC000582F8312031346080319C703C603460A83
:102ED0000319470A031908001C2F83120317150C46
:102EE000F400F40C740C0F39F4000530740203186C
:102EF0008B2F10308A00150D150D0139F400150CBB
:102F0000F500F50C750C0F39F50075077407632093
:102F10000A168A11A52F150CF400F40C740C0F3945
:102F20000F3A031DA42F063016020318A42F1030E9
:102F30008A00150D150D0139F400160816077407DF
:102F400056200A168A11A52FFF30031308008301AB
:102F5000C400FF30C800C9006D278313C700470FA6
:102F6000B22FFF34FE30C707C601470846020318D8
:102F7000DA2F4608143E840083170008C806C501EE
:102F8000481CD02F4908F5004808F4000310F50C40
:102F9000F40C01307406C800A0307506C900D32FA8
:102FA0000310C90CC80CC50A08304502031CC02F09
:102FB000C60AB52FC4080319EA2F4708143E840037
:102FC0008317490880004708153E84008317480886
:102FD000800000344708143E840083170008F50081
:102FE000F4014708153E840083170008F4044908DB
:102FF0007506031DFD2F4808740603190034FF34BD
:04400E00C123FF3E8D
:00000001FF
