:0600000002308A001F2AF5
:10000800F30003088301D1000408D2000A08D300D2
:100018008A017408DA007E08DB007F08DC007508B6
:10002800D8007608D9007708DD007808E10079085B
:10003800E2007A08E0007B08DF007C08DE007D082B
:10004800E3005608D4005708D500831603138C1C08
:100058005B2883128C1C5B28831201088316E90035
:10006800831281018C102308F23A031D4928831654
:100078006908143A8312031D442821194628482880
:10008800211948288714492887101230831603132A
:10009800690203185128E901572817306902031C1F
:1000A80057280830E90001308312D000BF288B1A86
:1000B8000B1DBF285D3083128107B3282108F40087
:1000C800F5017508103E8312D7007408773E0318AF
:1000D800D70A0A128A1150220A128A11013A031DFC
:1000E80078280C3097047B280711F330970583167E
:1000F800A10A2108083A031DBE280530A100A30162
:10010800A30AA2010430A6282208A73E840083136C
:1001180000082305031994280C30831297049828A3
:1001280083120711F33097058030831623020318D2
:10013800A0280310A30DBE28A301A30AA20AA10B9D
:10014800BE280530A000BE28F3308312970507119A
:100158008B128316A00102308312D000BE288316AA
:100168002008023A03196228063A03198828013A36
:100178000319A8280B1183168C1E5C2983128C1E68
:100188005C2983121A08CE001819CC28981C4B2910
:10019800981CD128181200001816023003171002F4
:1001A800031CBA290A168A1106260A128A1103178D
:1001B80091011008043A0319BA29492903134E0872
:1001C800553A0317031DF728910A1108043A031D2D
:1001D800BA290A168A1116260A128A1103179101DA
:1001E8009001900ABA299101BA2903134E085A3A84
:1001F800031D05295A30031794009101910A023012
:1002080040290317910A1108083A031DBA294229FF
:10021800910A1103143E8400831703134E088000CB
:1002280003171108043A031DBA290A128A150B206C
:100238000A128A1103179200120F23294229033048
:100248004029910A1103143E8400831703134E08B2
:100258008000031712081102031CBA29031318128D
:1002680083168C128312031791010A168A11062627
:100278000A128A11043003179000BA290A168A1143
:1002880006260A128A11031791019001BA29031749
:1002980010080319E228013A0319F928033A031947
:1002A8000C29013A03192529073A0319BA294229C1
:1002B80083160C1EBA2983120C1EBA29A729553099
:1002C800031399000317910A11080A3A031DB82964
:1002D80091019001900AB829FF3003139900031780
:1002E800910A1108023A031DB8290A128A150B202F
:1002F8000A128A110317920091010330A529910A65
:100308001103143E84008317000803139900031790
:1003180012081102031CB82991010530A5295C3087
:10032800031399000317910A1103031DB829063016
:10033800A5298316031398120C128312031791012F
:1003480007309000B829831203171008031963298E
:10035800013A03197029023A03198329063A031945
:100368009329033A03199D2903130C1283120313CB
:100378000C1CF82983160C1CF8298312B40A0319DB
:10038800B50A0619A50AF03023020318F729103018
:100398008A002308F4000310F40D0310F40D031071
:1003A800740DF4002408F5000310F50C0310F50C87
:1003B8000310750C0739740700200A128A11F4001B
:1003C8000130F50024080739F600F60AED29031074
:1003D800F50DF60BEB29750874050319F529871037
:1003E800F6298714A40A0C10031383125A08F40080
:1003F8005B08FE005C08FF005808F5005908F60085
:100408005D08F7006108F8006208F9006008FA0062
:100418005F08FB005E08FC006308FD005408D60076
:100428005508D7005208840053088A0051088300F1
:10043800F30E730E0900203084004F303E22023044
:10044800D7006630D6004F30840051304322A030A8
:100458008400EA303E228317103084005E303E224A
:1004680090308400B1303E220A128A15BF2D04064E
:100478008001840A0406031D3B2A64000034F4004A
:100488000A128A1153220A128A118000840A040867
:10049800740603190034442A83120313D600D71BA9
:1004A8005E2A571B662A57088A005608D60A031977
:1004B800D70A82008313571883175608D60A840070
:1004C80000080800003400340310FF30F407F40972
:1004D800031CF507F509031CF607F609031CF707C3
:1004E800F709080084017408FC007508FD00760807
:1004F800FE007708FF00F601F701F401F50103108B
:10050800FF0CFE0CFD0CFC0C031C982A7808F40761
:1005180079080318790FF5077A0803187A0FF60790
:100528007B0803187B0FF7077C087D047E047F0493
:100538000319A42A0310F80DF90DFA0DFB0D832AEF
:100548008408031900347708800084037608800043
:100558008403750880008403740880000034FA015D
:10056800F51FBD2AF409F40A0319F503F5097A17EA
:10057800FA1777088039FA06F71FC92AF609F60A22
:100588000319F703F709C92AFA01F801F9017608EE
:100598007704031DD22AF401F50100341F30FA0450
:1005A8000310FA0AF60DF70D031CD52AF70CF60C02
:1005B80077087502031DE22A76087402031CEA2AEA
:1005C8007608F4027708031C770AF502F80DF90D8E
:1005D800FA0BFA1ADA2AFA1FF62AF809F80A03199E
:1005E800F903F9097808F6007908F7007A1F00344A
:1005F800F409F40A0319F503F5090034FC01750D33
:10060800760DFA007A0803190D2BFC0DF601F51783
:100618000800F401F501F6010034FC10780D790D9D
:10062800FB007B0803191D2B0318FC14F901F817AC
:100638000800FB01F701F801F90108007A0803191D
:100648000D2BF513FC0C7A0CF6000318F517D82BB4
:10065800FA08031D402BF401F501F601D82B7603A7
:100668000319F40A0319F50A0319F60A0310F60C1C
:10067800F50CF40CFA0A2C2BF608031D332B74081E
:10068800750403192F2BF51B222BFA0303192F2BA3
:100698000310F40DF50D472B7A087B02031C5F2B22
:1006A800031908000310F60CF50CF40CFA0A7A0882
:1006B8007B02542B0310F90CF80CF70CFB0A7A0890
:1006C8007B06031908005E2B8030F906840102239B
:1006D800112350237C1C782BF409F509F609F40A38
:1006E8000319F50A0319F60AFC1C822BF709F80905
:1006F800F909F70A0319F80A0319F90A7708F40738
:1007080078080318780FF50779080318790FF607A2
:10071800FC01F61F2C2BF409F509F609F40A031954
:10072800F50A0319F60A7C142C2B84010223F7011D
:100738008230FA07FA1B0D2BF030FA07FA1BB52B9B
:1007480018307A0203180D2BFA08031DAE2B7C18FB
:1007580068220800FA030310F40DF50DF60DF70DE5
:10076800A82B0310F60CF50CF40CFA0FB52BAB2BD9
:10077800F71FC12B7C146822C22BFC018E30FA00B3
:100788008401F70803192C2B0310F70CF60CF50C51
:10079800F40CFA0AC52BF601F51BF6037608F700E8
:1007A800BC2BF601F701C12B840803190034760825
:1007B8008000840375088000840374088000003476
:1007C80083012A080317970003132B0803179800BF
:1007D80003132C080317990003132D0803179A0015
:1007E80003132308F03A0319211DFC2BF130FD2BCC
:1007F800230803179B0002300A168A1126260A12BC
:100808008A1103179C008316100883129D007C3000
:100818009E000313080083120317951F212C003034
:100828000A128A1545200A128A1100380319B32FB3
:10083800181683168C160130D62F0313D22F190CD5
:10084800F400F40C740C073903193A2C0313211A19
:100858003A2C03132116031717080739F4007407F5
:10086800913E840083178001840A800103171708CA
:100878000739F4007407913E8400831716080006B0
:10088800031D492C1708840A00060319C72F1908E5
:100898000739F4000130F600F701F40A562C03106A
:1008A800F60DF70DF40B532CFF30F607031CF70772
:1008B80003132D08F605F701031718087F39F4000C
:1008C800F50177087506031D6B2C76087406031D61
:1008D800C72F17080739F4007407A13E840083174F
:1008E80016088000840A170880009B2CF130031337
:1008F80023020318A92C0630A30040303407A600B1
:10090800013003180230952C053003132302031C11
:10091800A92C0530A30093303407A6000330031830
:1009280004303507A700992C0313A115A92C190C1D
:10093800F500F50C750C0739013A03197A2C033ABE
:100948000319882C013A0319982C0A168A111027C2
:100958000A128A110130F600031715080739F70043
:10096800F70AB82C0310F60DF70BB62C7608F6002C
:10097800760374050A168A11A8270A128A112A080A
:100988000317960003132B080317970003132C086B
:100998000317980003132D080317990095010313F3
:1009A800A11DD82C0317151403133508F5003408B6
:1009B800F4000A128A11D523A930F7002B30F80069
:1009C8004530F9000A128A116A230A128A119923FA
:1009D8000A128A117408B1007508B2000330A10424
:1009E800C72F03132D0803171906031D0B2D031317
:1009F8002C0803171806031D0B2D03132B080317C8
:100A08001706031D0B2D03132A0803171606031DCB
:100A1800C72F0313BF013F083F07A13E8400831778
:100A28000008C000840A0008C100400403192A2DE8
:100A38004008BD004108BE003F083F07913E8400C2
:100A480083173D088000840A3E088000BF0A0830EA
:100A58003F02031C0F2D3D08F500F4017408C20085
:100A68007508C3003E08F400F5014208F404430881
:100A7800F504FF307405BD000F307505BE0003177F
:100A880015080739013A031D582D03132308F03AB6
:100A9800031D582D0630A30040303407A60001304E
:100AA800031802303507A700003003133E02053053
:100AB80003193D02031C6E2D00303E020830031955
:100AC8003D02031C7D2D00303E020D3003193D020E
:100AD80003187D2D3508F5003408F4000A128A1130
:100AE800D5230A128A11A930F7002B30F8004630B6
:100AF800892D3508F5003408F4000A128A11D52327
:100B0800A930F7002B30F8004530F9000A128A1195
:100B18006A230A128A1199230A128A117408B100E9
:100B28007508B200A114A111C72F03132D080317CC
:100B38001B06031DAF2D03132C0803171A06031DEC
:100B4800AF2D03132B0803171906031DAF2D03132D
:100B58002A0803171806031DC72F03132A080317AB
:100B6800960003132B080317970003132C08031789
:100B7800980003132D080317990003133508F5008F
:100B88003408F4000A128A11D523A930F7002B3053
:100B9800F8004530F9000A128A116A230A128A11EC
:100BA80099230A128A117408B1007508B200F52D4C
:100BB80021300313A104032E0A128A1524250A12D0
:100BC8008A11022E2308F03A031D022E0630A300D4
:100BD80040303407A6000130031802303507A7005B
:100BE800022E031715080739013A0319DC2D043AB8
:100BF8000319E02D023A03130319E62D21141030CE
:100C080003179500C72F16088316031325068312AA
:100C1800031D162E031717088316031324068312C1
:100C28000319C82F2308023A031D1D2EF030A30014
:100C380087102308083A0319C72F7A30C6000330F3
:100C4800C7000A168A1156270A300A128A1567251C
:100C58000A128A11C72F1A0803132B06031DC72F60
:100C68000317190803132C06031DC72F03171808A9
:100C780003132D06031DC72F7830C6000530C700A3
:100C88000A168A1156270A128A1103179608031D95
:100C9800622E17080313A200A20803195E2E08305B
:100CA800A30093303407A600033003180430350737
:100CB800A7007C2EF030A30087107C2E0313230896
:100CC800023A0319712E0230A300BA303407A60085
:100CD8000A3003180B303507A700031717088316C7
:100CE8000313A40083120317160883160313A50021
:100CF8000A128A1524250A128A11C72F17085A3A88
:100D0800031D8C2E0A168A11D3250A128A11C72FA1
:100D18000A128A15E3230A128A11C72F1330031304
:100D2800C6000130C7000A168A115627133003136C
:100D3800C6000130C7000A168A1156270A128A11FE
:100D480003132308083A0319C72F05300A128A1516
:100D580067250A128A11C72F1A0803132B06031DC9
:100D6800C72F0317190803132C06031DC72F0317D2
:100D7800180803132D06031DC72FCE30C6000430F4
:100D8800C7000A168A115627031717080A128A1568
:100D980087250A128A11C72F0A128A1524250A12D2
:100DA8008A11C72F150807390319072E013A0319A5
:100DB8002F2E033A03199A2E013A0319A42E073A43
:100DC8000319B02E013A0319822E033A0319922E01
:100DD800013A0319D02EC72F173084008317031345
:100DE8002F080006031DFB2E3008840A000603198D
:100DF800062F031717080313AF0003171808031368
:100E0800B000AE0107302E020318C72FAE0A0A162B
:100E18008A11102774080A168A11A8270A128A113B
:100E28002D2F03132D0803171A06031D2B2F031349
:100E38002C0803171906031D2B2F03132B08031760
:100E48001806031D2B2F03132A0803171706031D63
:100E5800C72FE4230A128A112114C72F03132D0860
:100E680003171A06031D482F03132C080317190626
:100E7800031D482F03132B0803171806031D482FBB
:100E880003132A0803171706031DC72F8B1383168E
:100E98008C184B2F83128D0101308C0083168C1314
:100EA80003108B1B03148B130C1555308D00AA30BF
:100EB8008D008C140C1103188B1783120514632FE3
:100EC80003132D0803171A06031D7A2F03132C0882
:100ED80003171906031D7A2F03132B080317180687
:100EE800031D7A2F03132A080317170603198C2FDB
:100EF800C72F03132308F23A031D842FF030A300F1
:100F080087108A2FF2300313A300871421149C2F13
:100F18001C08F7001B08F600982F760803197D2F88
:100F2800013A0319862F9C2F7708803A0319912FCD
:100F38000313211CC72F03179601960AE4230A12EC
:100F48008A11C72F16080319F02E013A0319152F15
:100F5800033A0319322F073A0319642FC72F0317CF
:100F6800150CF500F50C750C0F390319232C013AF3
:100F78000319F52C033A0319992D063A0319D62EAD
:100F88000B3A0319A62F83120313211CD22F0A121E
:100F98008A11D8270A128A112110D52F18168316FC
:100FA8008C160030831208008312031790019101F8
:100FB80001300A128A1541230A128A1100380319CE
:100FC800EE2FA30100303407A6007D3003187E30D1
:100FD8003507A7005A3003179400951301300A12F9
:100FE8008A1545200A128A11831698160C16831240
:100FF800080083014F080800820708340834FF34CA
:10100800083408340A34FF34FF34FF3409348312B7
:101018000317150CF400F40C740C0F39F4000530A8
:1010280074020318292808308A00150D150D013996
:10103800F400150CF500F50C750C0F39F500750763
:10104800740700200A128A154328150CF400F40CC2
:10105800740C0F390F3A031D422806301602031884
:10106800422810308A00150D150D0139F4001608B4
:101078001607740749200A128A154328FF300313FC
:1010880008008301C400FF30C800C9000B20831387
:10109800C700470F5028FF34FE30C707C60147086E
:1010A8004602031878284608143E8400831700086F
:1010B800C806C501481C6E284908F5004808F40010
:1010C8000310F50CF40C01307406C800A030750646
:1010D800C90071280310C90CC80CC50A083045029C
:1010E800031C5E28C60A5328C40803198828470821
:1010F800143E84008317490880004708153E840081
:1011080083174808800000344708143E840083177A
:101118000008F500F4014708153E8400831700080D
:10112800F40449087506031D9B284808740603192A
:101138000034FF34D32930303002031CCF29831206
:10114800BD018316B901B401B501102983123D0808
:10115800F4000310F40D0310740D0C3EAF3E840030
:1011680083130008F7003D08F4000310F40D031082
:10117800740D0B3EAF3E840083130008F6003D0853
:10118800F4000310F40D0310740D0D3EAF3E8400FF
:1011980083130008F5003D08F4000310F40D031054
:1011A800740D0E3EAF3E8400831300087507760762
:1011B80077078316B8000310B80C0310B80C031097
:1011C800B80C10308A0083123D0856200A128A157E
:1011D800003803190229053083163802031C072931
:1011E8000A30F400F5013808F402031CF50374080A
:1011F800B4070318B50A7508B5070E290830831611
:101208003802031C0A29B901B90A0E293808B4079B
:101218000318B50A8312BD0A0C3083123D028316E7
:1012280003181929B9080319AA28360A0319370A0D
:1012380003193129B908031D292935083702031D67
:1012480027293408360203183429AF01AF0AB00140
:10125800B00AFF30B600B700E129B908031DE1293B
:101268003408B6003508B700E129A60130080F395F
:101278000F3A031DCF298312BD013D08F400031066
:10128800F40D0310740D303CB73E8400831300083E
:10129800F7003D08F4000310F40D0310740D303C02
:1012A800B93E840083130008F6003D08F4000310DB
:1012B800F40D0310740D303CB83E8400831300080D
:1012C800F5003D08F4000310F40D0310740D303CD4
:1012D800B63E8400831300087507760777078316E0
:1012E800B8000310B80C0310B80C0310B80C0310A6
:1012F800A60D06303802031826148312BD0A0430DE
:101308003D02031C412909308316260203189D2932
:1013180010308A00260863200A128A15F400740A1D
:10132800B100A730B200B301B30A0230AF00B00178
:10133800CF29AF01B001E12930080339033A031D71
:10134800CF296608670769076807B8000310B80C53
:101358000310B80C0310B80C0630380232088400A9
:101368008313031CBA2933088004BC293309800578
:10137800803033020318C3290310B30DCF29B301FA
:10138800B30AB20AB10BCF298C10831212110330A1
:101398008316AF00D129B00AE1290130F529831657
:1013A80003132F0803199F28013A03193929033A0F
:1013B8000319A029013A0319D1298312BD013D0857
:1013C800BB3E840083130008F4003D08BA3E840045
:1013D800831374088000BD0A2F303D02031CE329E3
:1013E8000030831208008301BD000310BD0D8B136C
:1013F80007103D0893008316141CFF2987168312D3
:10140800071493018316141C062A871283121308E3
:10141800BD008B1708008301C6000310C60D4614D3
:101428008B130710460893008316141C182A83127E
:101438000714450893008316141C1F2A8B17831260
:1014480008003A308301C50000300F220A30C60078
:10145800C7010A168A1156270A128A153B30C50099
:1014680000300F220A30C600C7010A168A11562713
:101478000A128A155830C50001300F222030C500E5
:1014880002300F22C50103300F220130F721583AEC
:10149800031D01340230F721203A031D01340330C3
:1014A800F7210038031D01344230C50004300F22F3
:1014B8001430C50005300F229C30C50006300F22BD
:1014C8000430F721423A031D01340530F721143A5C
:1014D800031D01340630F7219C3A031D0134023004
:1014E800C50007300F228030C50008300F221230A7
:1014F800C5000A300F22C5010B300F2210308A00B8
:1015080002306D20C5000C300A128A150F221030E7
:10151800C5000D300F222630C5000E300F229C303A
:10152800C5000F300F226B30C50010300F225B3022
:10153800C50011300F227030C50012300F22C501CE
:10154800C50A13300F22C5011C300F221030C50008
:1015580040300F220830C50041300F223F30C5000F
:1015680042300F220430C50043300F22C5014430F9
:101578000F22C50145300F22C50146300F220A1639
:101588008A116E200A128A15C50000300F22103009
:101598008A0001306D20C50009300A128A150F2211
:1015A80010308A0002306D20C5000C300A128A15EE
:1015B8000F22A630C5000E300F220E30F721F4009E
:1015C800F41DE12A2630C5000E300F2210308A00A3
:1015D80004306D20C50000300A128A150F22103021
:1015E8008A0005306D20C50009300A128A150F22BD
:1015F80010308A0006306D20C5000C300A128A159A
:101608000F22A630C5000E300F220E30F721F4004D
:10161800F41D092B2630C5000E300F223F30C500BF
:1016280000300F225530C5000B300F220B30F72148
:10163800553A031D0134AA30C5000B300F220B3078
:10164800F721AA3A031D0234C5010B300F227B3063
:10165800C50000300F220230C600C7010A168A11E1
:1016680056270A128A157930C50000300F220A164B
:101678008A11D9250A128A1500348301C40064002E
:10168800CF0010308A004408F4000310F40D031052
:10169800740D6D20C50000300A128A150F22103013
:1016A8008A004408F4000310F40D0310740DF400CC
:1016B800740A6D20C50009300A128A150F221030ED
:1016C8008A004408F4000310F40D0310740D023E60
:1016D8006D20C5000C300A128A150F22C408031D9C
:1016E800782BC5010B300F220A168A11D9250A1248
:1016F8008A15440B003410308A004408F4000310A3
:10170800F40D0310740D033E6D20C5000B300A1252
:101718008A150F220A168A11CD250A128A15003455
:10172800831603138C10831212119101203092003A
:101738003730831692001C30831295009701831668
:10174800A1010230A000831203170510C5308316CB
:101758000313810064008312031705140B11FF3073
:10176800031381008B16121508008301CD00CC01EC
:101778000310CD1FC62BCD0DCB1FC32B4D148530A9
:10178800CD06C92BCD0DCB1B4D140310CB0DCC0AA8
:1017980008304C02031CBD2B4D0808008301CA0009
:1017A800DE2BCA0A4A03840083130008CB004808CA
:1017B800B923C800C903490FD52B480808000930C8
:1017C80083160313A600B101B001A001AF01831273
:1017D800D001FF308316B600B70083120317051037
:1017E80068308316031381006400831203170514FD
:1017F8000313810121309200F9308316920083127D
:10180800910112158C1083168C148312080009306C
:10181800831603132602031C132CE3230134260E1C
:10182800F0398312CB00F530B923BD00C800103061
:101838008A00831626086320003E8312C900A73059
:101848000A128A15D223BD00CB01B923BD0010307E
:101858008A008316260863200A128A15A73E840088
:101868008313000883123D060319082DE32302346D
:1018780027082506031D442C280824060319222DB1
:1018880083122308023A031D4D2CF030A300871061
:10189800532C2308083A031D532CE32300347A30D1
:1018A800C6000330C7000A168A1156270A128A157D
:1018B8000A3067250A128A150034290883122B0674
:1018C800031D222D8316280883122C06031D222DA2
:1018D8008316270883122D06031D222D7830C60093
:1018E8000530C7000A168A1156270A128A152308D6
:1018F800023A0319892C0230A300BA303407A60033
:101908000A3003180B303507A70083162B08A400EC
:101918002A08A50024250A128A15003413308312D8
:10192800C6000130C7000A168A11562713308312E1
:10193800C6000130C7000A168A1156270A128A15EE
:1019480083122308083A031DAB2CE3230034053027
:1019580067250A128A150034290883122B06031DED
:10196800222D8316280883122C06031D222D831688
:10197800270883122D06031D222DCE30C600043001
:10198800C7000A168A1156270A128A1583162A08CA
:101998008725E323003424250A128A1500342908F0
:1019A80083122B06031D222D8316280883122C066A
:1019B800031D222D8316270883122D06031D222DB1
:1019C8007830C6000530C7000A168A1156270A1251
:1019D8008A1583162A088312A200A2080319FF2C6D
:1019E8000830A30093303407A600033003180430EE
:1019F8003507A700022DF030A300871024250A120E
:101A08008A150034E32303348316260803193C2C73
:101A1800013A0319612C033A03199A2C013A031964
:101A2800A42C073A0319B02C023A0319922C013A54
:101A38000319CF2C0F3A0319D32C062DE3230034B6
:101A480083160313A60183122D088316A700831299
:101A58002C088316A80083122B088316A900AA0154
:101A68002A08F0390138AA0083122308023A003004
:101A780003190130F400F40CF40C83162A087406D8
:101A88007F397406AA0028308312C8000430C900C0
:101A9800A730D223C700CB01B923C700A53A031D3D
:101AA800622D8316AA1628308312C8000430C90094
:101AB800A730D223C700CB01B923C7004708831634
:101AC800AB00942308008301C4000A168A1110276A
:101AD8004408F600F7010A128A11B3220A128A157D
:101AE8007408C500802D2230C6000130C7000A16D0
:101AF8008A1156270A128A15C503450F772D242502
:101B08000A128A1508008301C4000310C40DBB2DF6
:101B18003508F5003408F4000A128A11D52312306A
:101B2800F7000230F8004130F9000A128A116A23DE
:101B38000A128A1199230A128A157408C5007508B1
:101B4800C60024250A128A158316A008031DA82D8D
:101B580083124508C7004608C8000A168A1150268D
:101B68000A128A15F400F50175040319AC2DC40393
:101B7800440F8C2D08000330831603138E0416308F
:101B8800831203178500640005140A168A11C826F3
:101B98000A128A150A30AA00FD3003178D001F307B
:101BA8008F0083160C118C170C148310831083126A
:101BB8000E080C080313AB00FE3003178D001F300E
:101BC8008F0083160C118C170C148310831083124A
:101BD8000E080C080313AC00FF3003178D001F30EC
:101BE8008F0083160C118C170C148310831083122A
:101BF8000E080C080313AD0006300A168A112626B3
:101C08000A128A15A000A0080319132E000000006C
:101C180000000000BD0106300A168A117026A101D5
:101C280087102C08BB00BC01BC00BB012D08BB04FD
:101C38003B08C6003C08C7000A168A110627C030B0
:101C48008B0003300A168A1126260A128A15831673
:101C580003179000100F312E352E10081F3A031D60
:101C6800412E000000000000213090008312031371
:101C7800BD0003300A168A11702604300A168A112C
:101C880026260A128A15A0007C3A0319552E000050
:101C98000000000000007C30BD0004300A168A11E4
:101CA800702608300A168A1126260A128A15A000FC
:101CB8007A3A031D6B2EBD0108300A168A11702668
:101CC8000A128A15F030A30083160615CD2E0030AF
:101CD8000A168A11F7253230C600C7010A168A117A
:101CE8005627AA300A168A11F7253230C600C701CE
:101CF8000A168A1156272B082D072C070A168A114F
:101D0800F7253230C600C7010A168A1156272B0854
:101D18000A168A11F7253230C600C7010A168A1139
:101D280056272C080A168A11F7253230C600C70133
:101D38000A168A1156272D080A168A11F7250A301D
:101D4800C600C7010A168A115627831606153230AF
:101D58008312C600C7010A168A1156270A128A1565
:101D6800061DC12E5E30C6000130C7000A168A1152
:101D780056270A128A15061DCB2EA30100303407F8
:101D8800A6007D3003187E303507A700CD2EF03031
:101D9800A3000A168A1190260A128A150038031918
:101DA800DE2EA30100303407A6007D3003187E30F4
:101DB8003507A70083160C1483123508F50034087C
:101DC800F4000A128A11D523E230F700E430F80053
:101DD8004430F9000A128A116A230A128A119923D7
:101DE8007408A8007508A9000A128A15E3230A12C4
:101DF8008A150614A508031D0619222F053023028B
:101E0800031C212F0830250205300318152F250241
:101E1800031C102F0630152F02302502031C172F24
:101E28000730A300182FA30140303407A600013063
:101E3800031802303507A700A115A501500803199A
:101E48003B2F500B362FD0010A128A159E200A12FA
:101E58008A15013A031D3B2F0A128A150B240A1210
:101E68008A153B2F0A128A15E3230A128A150317CB
:101E78001008043A031D4D2F0A128A110F240A1262
:101E88008A1500380317031D5C2F930F5B2F930AE5
:101E98005B2F1008073A031D5D2F00300A128A15C0
:101EA80041230A128A15181683168C1683120317F3
:101EB80090010313330834060319FE2E6400340816
:101EC800B300A1189A2F2808C7002908C8000A16C5
:101ED8008A1150260A128A15F400F50175040319AF
:101EE800C62F3508F5003408F4000A128A11D523E4
:101EF800E230F700E430F8004430F9000A128A11A1
:101F08006A230A128A1199230A128A157408A800EA
:101F18007508A900031793080319942F9301C62F76
:101F28000A168A1190260A128A15C62F3108C70088
:101F38003208C8000A168A1150260A128A15F400B7
:101F4800F50175040319C62FCD30A105BB01F401B5
:101F5800F5013B083B07A13E840083177408800005
:101F6800840A750880003B083B07913E840083176C
:101F780074088000840A75088000BB0A08303B0298
:101F8800031CAB2FF030031323020318FE2E0A3074
:101F98002302031CD12FF030A3002608C70027080E
:101FA800C8000A168A1150260A128A15F400F5018B
:101FB80075040319FE2EA4012308023A031DE92F14
:101FC8008316A501F0308312FD2F2308083A031D5C
:101FD800FC2FA2080319FE2FA20BF32FFC2F93301E
:101FE8003407A6000330031804303507A700FE2F76
:101FF800F030A3008710FE2E8207CC34CC34CC34CA
:10200800CC34CC34CC34CC34CC34FF340034FF342E
:102018000034FF340034FF340034FF34FF34FF341D
:10202800FF34FF34FF34FF34FF34FF34FF34FF3410
:10203800FF34FF34FF34FF34FF34FF34FF34FF3400
:10204800FF34FF34FF34FF34FF34EE34EE34AA3467
:10205800AA34FF34FF34FF34FF34CC34FC34FF346B
:10206800FF34FF34FF34FF34FF34CC34CC34CC3469
:10207800FF34FF34FF34FF34FF34FF34FF34FF34C0
:10208800FF34FF34FF34FF34FF3482070D34083443
:102098000D340934FF340934FF34FF34FF34FF347E
:1020A800FF340B3482070134003401340034003427
:1020B800013400340134013400340134003482071F
:1020C800023405340034003404340034003400345D
:1020D800043482071134443460340034E1348134E8
:1020E80048340F348207013400340134003400349A
:0620F80001340034013444
:102B9A000D308301C500C50BD02D08008316031321
:102BAA008C108312121108007D308301C500C50301
:102BBA00450FDC2D0800831203179008031DE72D2B
:102BCA000030E82D01300313080083160313AF0801
:102BDA00031DF42DA008031DF42D0030F52D01303E
:102BEA00831208008301BD008B13061100003D0803
:102BFA0093008316141CFE2D0000831206158B17F2
:102C0A00080083010710213093008316141C0A2E32
:102C1A00831207146B3093008316141C112E83122F
:102C2A00080083010710213093008316141C1A2E02
:102C3A00831207147B3093008316141C212E8312EF
:102C4A0008008301C400831603178C18282E8312E8
:102C5A000313440803178D0083168C130C14831274
:102C6A000C08031308008301BB009F0183169F0110
:102C7A00831281389F00BC010A303C0203184A2E95
:102C8A00BC0A0A303C02031C452E9F1400009F1800
:102C9A004C2E1E0808008B138312031348083502B2
:102CAA00031D592E47083402031C6E2E3508F50001
:102CBA003408F4004708F402031CF5034808F50237
:102CCA00803075020030031974028B17031C01341B
:102CDA0000348B1700348301BE00831603178C1847
:102CEA00722E831203133E0803178D0003133D0847
:102CFA0003178C0083168C1303108B1B03148B137E
:102D0A000C1555308D00AA308D008C140C11031847
:102D1A008B17830108008301181283168C129812EC
:102D2A000C12831203179001910103133508F50061
:102D3A003408F4000A128A11D523A930F7002B307F
:102D4A00F8004530F9000A128A116A230A128A1118
:102D5A0099237408B1007508B2000A128A1525224F
:102D6A000A168A1100380319BC2E0130C62E00300B
:102D7A000A128A1541230A168A11181683168C1606
:102D8A000030831208000430831603139500603064
:102D9A0081000430831286001A30831686000830B8
:102DAA008312850003308316850041308312870021
:102DBA009030831687000330031788000A30890091
:102DCA008130831203139F0083169F0111308312EF
:102DDA009000E93083169700831203178916A530ED
:102DEA008700403083160313940031308312940015
:102DFA000C308316990004309800803083129800B2
:102E0A00080083014608B7004708B800B901BA01AB
:102E1A00B601B60A08008301B608031D182FC601B9
:102E2A00C60AC70106276D30F8004E30F900C630D1
:102E3A00FA004130FB003708F4003808F500390879
:102E4A00F6003A08F7000A128A1176220A168A113F
:102E5A003930F8003030F900FA01FB0178087407BC
:102E6A00FC007508FD0079080318790FFD0776083C
:102E7A00FE007A0803187A0FFE077708FF007B081E
:102E8A0003187B0FFF077C08B7007D08B8007E088F
:102E9A00B9007F08BA00F5003908F4007F30F5055B
:102EAA0008009C2F0F08CB000E08CA004B080F061B
:102EBA00031D572F6400C6304A07C80003300318A1
:102ECA0004304B07C90049084B02031D6E2F4808FE
:102EDA004A02031C822F4B08F5004A08F4004808EE
:102EEA00F402031CF5034908F5028030750200302C
:102EFA0003197402031C9C2F932F4908F5004808F4
:102F0A00F4004A08F402031CF5034B08F50280306A
:102F1A00750201300319740203189C2F0F08CB00A5
:102F2A000E08CA004B080F060319682F932F831245
:102F3A00031346080319C703C603460A0319470AB7
:102F4A0003190800572F8301C400FA2F0F08C7007E
:102F5A00C801F500F4010E087404C7007508C8001A
:102F6A000F06031DAB2F5A304707C500153003184B
:102F7A0016304807C600640046084802031DC72FDA
:102F8A0045084702031CDB2F4808F5004708F400F0
:102F9A004508F402031CF5034608F5028030750261
:102FAA00003003197402031CFA2FEC2F4608F500AF
:102FBA004508F4004708F402031CF5034808F50223
:102FCA00803075020130031974020318FA2F0F08B2
:102FDA00C700C801F500F4010E087404C70075089B
:102FEA00C8000F060319C12FEC2F83120313C40361
:062FFA00440FAB2F08009C
:04400E00C123FF3E8D
:00000001FF
