:0600000002308A00112A03
:10000800F30003088301D1000408D2000A08D300D2
:100018008A017408DA007E08DC007F08DE007508B3
:10002800E0007608DB007708E3007808DD0079084F
:10003800E1007A08DF007B08E2007C08D9007D082F
:10004800D8005408D6005508D700831603138C1C13
:10005800462883128C1C4628831201088316E9005F
:10006800831281018C101630831669020318432805
:10007800133069028312031C44280610AA2883122D
:100088000614AA288B1A0B1DAA285D308312810733
:100098009E282108F400F5017508103E8312D5004A
:1000A8007408783E0318D50A0A128A1142220A12E5
:1000B8008A11013A031D63280C309704662807113A
:1000C800F33097058316A10A2108083A031DA928C9
:1000D8000530A100A301A30AA20104309128220837
:1000E800A73E840083130008230503197F280C30DA
:1000F80083129704832883120711F3309705803001
:100108008316230203188B280310A30DA928A30123
:10011800A30AA20AA10BA9280530A000A928F33038
:100128008312970507118B128316A00102308312E0
:10013800D000A92883162008023A03194D28063A48
:1001480003197328013A031993280B1183168C1E7F
:10015800472983128C1E472983121A08CE001819C2
:10016800B728981C3629981CBC28181200001816A5
:10017800023003171002031CA5290A168A11DB2571
:100188000A128A11031791011008043A0319A529C4
:10019800342903134E08553A0317031DE228910A20
:1001A8001108043A031DA5290A168A11CB250A123B
:1001B8008A11031791019001900AA5299101A52997
:1001C80003134E085A3A031DF0285A3003179400B7
:1001D8009101910A02302B290317910A1108083A54
:1001E800031DA5292D29910A1103143E84008317A4
:1001F80003134E08800003171108043A031DA529AC
:100208000A168A116D270A128A1103179200120F13
:100218000E292D2903302B29910A1103143E84003D
:10022800831703134E088000031712081102031CDA
:10023800A5290313181283168C1283120317910130
:100248000A168A11DB250A128A1104300317900056
:10025800A5290A168A11DB250A128A1103179101AA
:100268009001A529031710080319CD28013A03198D
:10027800E428033A0319F728013A03191029073A21
:100288000319A5292D2983160C1EA52983120C1ED6
:10029800A52992295530031399000317910A1108CB
:1002A8000A3A031DA32991019001900AA329FF305E
:1002B800031399000317910A1108023A031DA32991
:1002C8000A168A116D270A128A11031792009101E2
:1002D80003309029910A1103143E84008317000803
:1002E80003139900031712081102031CA329910193
:1002F800053090295C30031399000317910A110304
:10030800031DA329063090298316031398120C1293
:1003180083120317910107309000A3298312031752
:10032800100803194E29013A03195B29023A0319E7
:100338006E29063A03197E29033A031988290313FB
:100348000C12831203130C1CEA2983160C1CEA29CD
:100358008312B40A0319B50A0619A50AF030230254
:100368000318E92910308A002308F4000310F40D5B
:100378000310F40D0310740DF4002408F5000310A5
:10038800F50C0310F50C0310750C073974070020E1
:100398000A128A11F4000130F50024080739F60022
:1003A800F60AD8290310F50DF60BD6297508740539
:1003B8000319E1292119E329E5292119E5298714D8
:1003C800E629871083120313A40A0C10031383125F
:1003D8005A08F4005C08FE005E08FF006008F5009B
:1003E8005B08F6006308F7005D08F8006108F9008B
:1003F8005F08FA006208FB005908FC005808FD0075
:100408005608D4005708D5005208840053088A00BB
:1004180051088300F30E730E0900203084004F301A
:1004280030220230D5005830D4004F30840051308B
:100438003522A0308400EA3030228317103084003F
:100448005E30302290308400B13030220A128A1592
:10045800B12D04068001840A0406031D2D2A6400B8
:100468000034F4000A128A1145220A128A11800007
:10047800840A0408740603190034362A8312031305
:10048800D400D51B502A551B582A55088A005408F1
:10049800D40A0319D50A8200831355188317540800
:1004A800D40A840000080800003400340310FF3028
:1004B800F407F409031CF507F509031CF607F60908
:1004C800031CF707F709080084017408FC00750885
:1004D800FD007608FE007708FF00F601F701F40139
:1004E800F5010310FF0CFE0CFD0CFC0C031C8A2A02
:1004F8007808F40779080318790FF5077A080318BC
:100508007A0FF6077B0803187B0FF7077C087D0432
:100518007E047F040319962A0310F80DF90DFA0DCD
:10052800FB0D752A840803190034770880008403BA
:1005380076088000840375088000840374088000AE
:100548000034FA01F51FAF2AF409F40A0319F50378
:10055800F5097A17FA1777088039FA06F71FBB2AC0
:10056800F609F60A0319F703F709BB2AFA01F80195
:10057800F90176087704031DC42AF401F501003453
:100588001F30FA040310FA0AF60DF70D031CC72AE8
:10059800F70CF60C77087502031DD42A7608740246
:1005A800031CDC2A7608F4027708031C770AF50294
:1005B800F80DF90DFA0BFA1ACC2AFA1FE82AF809ED
:1005C800F80A0319F903F9097808F6007908F70019
:1005D8007A1F0034F409F40A0319F503F509003405
:1005E800FC01750D760DFA007A080319FF2AFC0D37
:1005F800F601F5170800F401F501F6010034FC10C6
:10060800780D790DFB007B0803190F2B0318FC14D8
:10061800F901F8170800FB01F701F801F9010800D2
:100628007A080319FF2AF513FC0C7A0CF600031854
:10063800F517CA2BFA08031D322BF401F501F60150
:10064800CA2B76030319F40A0319F50A0319F60AE3
:100658000310F60CF50CF40CFA0A1E2BF608031D11
:10066800252B740875040319212BF51B142BFA0389
:100678000319212B0310F40DF50D392B7A087B0291
:10068800031C512B031908000310F60CF50CF40C8D
:10069800FA0A7A087B02462B0310F90CF80CF70CBF
:1006A800FB0A7A087B0603190800502B8030F906EC
:1006B8008401F422032342237C1C6A2BF409F509E4
:1006C800F609F40A0319F50A0319F60AFC1C742B37
:1006D800F709F809F909F70A0319F80A0319F90AD1
:1006E8007708F40778080318780FF50779080318CE
:1006F800790FF607FC01F61F1E2BF409F509F60918
:10070800F40A0319F50A0319F60A7C141E2B84014E
:10071800F422F7018230FA07FA1BFF2AF030FA07B1
:10072800FA1BA72B18307A020318FF2AFA08031DB0
:10073800A02B7C185A220800FA030310F40DF50DBB
:10074800F60DF70D9A2B0310F60CF50CF40CFA0FB6
:10075800A72B9D2BF71FB32B7C145A22B42BFC011B
:100768008E30FA008401F70803191E2B0310F70CCA
:10077800F60CF50CF40CFA0AB72BF601F51BF60388
:100788007608F700AE2BF601F701B32B840803199E
:100798000034760880008403750880008403740898
:1007A8008000003483120317951FE82B00300A16C7
:1007B8008A11A7270A128A1100380319A62F1816BA
:1007C80083168C160130C92F0313C52F190CF4009A
:1007D800F40C740C07390319012C0313211A012C8A
:1007E80003132116031717080739F4007407913EFD
:1007F800840083178001840A8001031717080739CA
:10080800F4007407913E8400831716080006031D40
:10081800102C1708840A00060319BA2F190807397B
:10082800F4000130F600F701F40A1D2C0310F60D50
:10083800F70DF40B1A2CFF30F607031CF707031308
:100848002D08F605F701031718087F39F400F5019C
:1008580077087506031D322C76087406031DBA2F17
:1008680017080739F4007407A13E84008317160897
:100878008000840A17088000622CF13003132302D9
:100888000318702C0630A30040303407A60001304E
:10089800031802305C2C053003132302031C702C50
:1008A8000530A30093303407A60003300318043042
:1008B8003507A700602C0313A115702C190CF5003F
:1008C800F50C750C0739013A0319412C033A031941
:1008D8004F2C013A03195F2C0A168A11D5260A12E1
:1008E8008A110130F600031715080739F700F70ACF
:1008F8007F2C0310F60DF70B7D2C7608F600760397
:1009080074050A128A152F200A128A112A08031759
:10091800960003132B080317970003132C080317DB
:10092800980003132D080317990095010313A11DBF
:100938009F2C0317151403133508F5003408F40029
:100948000A128A11C723A930F7002B30F800453066
:10095800F9000A128A115C230A128A118B230A12DF
:100968008A117408B1007508B2000330A104BA2FC7
:1009780003132D0803171906031DD22C03132C0883
:1009880003171806031DD22C03132B080317170689
:10099800031DD22C03132A0803171606031DBA2FAA
:1009A8000313BF013F083F07A13E840083170008D7
:1009B800C000840A0008C10040040319F12C400853
:1009C800BD004108BE003F083F07913E84008317E1
:1009D8003D088000840A3E088000BF0A08303F02B4
:1009E800031CD62C3D08F500F4017408C2007508F4
:1009F800C3003E08F400F5014208F4044308F50476
:100A0800FF307405BD000F307505BE0003171508CB
:100A18000739013A031D1F2D03132308F03A031D5C
:100A28001F2D0630A30040303407A60001300318FC
:100A380002303507A700003003133E0205300319C2
:100A48003D02031C352D00303E02083003193D02DB
:100A5800031C442D00303E020D3003193D020318DB
:100A6800442D3508F5003408F4000A128A11C7230A
:100A78000A128A11A930F7002B30F8004630502DA1
:100A88003508F5003408F4000A128A11C723A93082
:100A9800F7002B30F8004530F9000A128A115C2360
:100AA8000A128A118B230A128A117408B100750878
:100AB800B200A114A111BA2F03132D0803171B06A6
:100AC800031D762D03132C0803171A06031D762D14
:100AD80003132B0803171906031D762D03132A0881
:100AE80003171806031DBA2F03132A0803179600C5
:100AF80003132B080317970003132C0803179800F8
:100B080003132D080317990003133508F50034085B
:100B1800F4000A128A11C723A930F7002B30F80015
:100B28004530F9000A128A115C230A128A118B23B4
:100B38000A128A117408B1007508B200BC2D213060
:100B48000313A104CA2D0A128A1516250A128A113E
:100B5800C92D2308F03A031DC92D0630A3004030E3
:100B68003407A6000130031802303507A700C92D45
:100B7800031715080739013A0319A32D043A031975
:100B8800A72D023A03130319AD2D211410300317B2
:100B98009500BA2F16088316031325068312031D22
:100BA800DD2D031717088316031324068312031970
:100BB800BB2F2308023A031DE82DF030A300211DA6
:100BC800E72D8714E82D87102308083A0319BA2F50
:100BD8007A30C6000330C7000A168A111B270A306C
:100BE8000A128A1559250A128A11BA2F1A080313EC
:100BF8002B06031DBA2F0317190803132C06031D10
:100C0800BA2F0317180803132D06031DBA2F7830BF
:100C1800C6000530C7000A168A111B270A128A1156
:100C280003179608031D312E17080313A200A20804
:100C38000319292E0830A30093303407A600033087
:100C4800031804303507A7004B2EF030A300211DF0
:100C58002F2E87144B2E87104B2E03132308023A8E
:100C68000319402E0230A300BA303407A6000A3018
:100C780003180B303507A70003171708831603134B
:100C8800A40083120317160883160313A5000A127B
:100C98008A1516250A128A11BA2F17085A3A031DFF
:100CA8005B2E0A168A11A2250A128A11BA2F0A1275
:100CB8008A15CC230A128A11BA2F13300313C600DF
:100CC8000130C7000A168A111B2713300313C60008
:100CD8000130C7000A168A111B270A128A1103134A
:100CE8002308083A0319BA2F05300A128A1559251C
:100CF8000A128A11BA2F1A0803132B06031DBA2FDA
:100D08000317190803132C06031DBA2F0317180815
:100D180003132D06031DBA2FCE30C6000430C700BA
:100D28000A168A111B27031717080A128A1579252C
:100D38000A128A11BA2F0A128A1516250A128A115E
:100D4800BA2F150807390319CE2D013A0319FA2DC0
:100D5800033A0319692E013A0319732E073A031946
:100D68007F2E013A0319512E033A0319612E013AD5
:100D780003199F2EBA2F17308400831703132F08E7
:100D88000006031DCA2E3008840A00060319D52E52
:100D9800031717080313AF00031718080313B0004D
:100DA800AE0107302E020318BA2FAE0A0A168A11AE
:100DB800D52674080A128A152F200A128A11FC2EC9
:100DC80003132D0803171A06031DFA2E03132C0804
:100DD80003171906031DFA2E03132B080317180609
:100DE800031DFA2E03132A0803171706031DBA2F2B
:100DF8000A128A11CB270A128A112114BA2F031357
:100E08002D0803171A06031D192F03132C0803179F
:100E18001906031D192F03132B0803171806031DA2
:100E2800192F03132A0803171706031DBA2F8B134C
:100E380083168C181C2F83128D0101308C008316A9
:100E48008C1303108B1B03148B130C1555308D005A
:100E5800AA308D008C140C1103188B1783120514FB
:100E6800342F03132D0803171A06031D4B2F0313E2
:100E78002C0803171906031D4B2F03132B08031700
:100E88001806031D4B2F03132A0803171706031907
:100E98007A2FBA2F03132308F23A031D552FF03087
:100EA800A300211D602F8714612FF2300313A300C4
:100EB8002119602F8714612F87108312782F04302F
:100EC8000313A10621196A2F00306B2F7730831284
:100ED800C40006300A168A1115260A128A11211D25
:100EE800772F8714782F871021148D2F1C08F7006F
:100EF8001B08F600892F760803194E2F013A0319AB
:100F0800592F033A0319632F8D2F7708803A031955
:100F18007F2F0313211CBA2F03179601960A0A1272
:100F28008A11CB270A128A11BA2F16080319BF2E65
:100F3800013A0319E42E033A0319032F073A031958
:100F4800352FBA2F0317150CF500F50C750C0F3952
:100F58000319EA2B013A0319BC2C033A0319602D33
:100F6800063A0319A52E0B3A0319992F8312031376
:100F7800211CC52F0A128A150A200A128A1121106B
:100F8800C82F181683168C160030831208008301A8
:100F98002A080317970003132B0803179800031355
:100FA8002C080317990003132D0803179A0003133D
:100FB8002308F03A0319211DE32FF130E42F230809
:100FC80003179B0002300A168A11EB250A128A11B0
:100FD80003179C008316100883129D007C309E0026
:100FE8000313080082070234053400340034043443
:100FF8000034003400340434831203179008031DAE
:10100800072800300828013003130800831203174B
:101018009001910101300A128A152A230A128A15B1
:10102800003803192028A30100303407A6007D30BA
:1010380003187E303507A7005A300317940095131C
:1010480001300A168A11A7270A128A1583169816DC
:101058000C16831208008301C40081280F08C700FA
:10106800C801F500F4010E087404C7007508C8002B
:101078000F06031D32285A304707C50015300318DC
:1010880016304807C600640046084802031D4E286B
:1010980045084702031C62284808F5004708F40081
:1010A8004508F402031CF5034608F5028030750272
:1010B800003003197402031C812873284608F500C0
:1010C8004508F4004708F402031CF5034808F50234
:1010D80080307502013003197402031881280F0843
:1010E800C700C801F500F4010E087404C7007508AC
:1010F800C8000F0603194828732883120313C40372
:10110800440F32280800BC2930303002031CB829AB
:101118008312BD018316B901B401B501F928831200
:101128003D08F4000310F40D0310740D0C3EAF3E9F
:10113800840083130008F7003D08F4000310F40D41
:101148000310740D0B3EAF3E840083130008F600B5
:101158003D08F4000310F40D0310740D0D3EAF3E6E
:10116800840083130008F5003D08F4000310F40D13
:101178000310740D0E3EAF3E8400831300087507FC
:10118800760777078316B8000310B80C0310B80C5D
:101198000310B80C10308A0083123D0849200A1247
:1011A8008A1500380319EB28053083163802031C0A
:1011B800F0280A30F400F5013808F402031CF5039E
:1011C8007408B4070318B50A7508B507F728083076
:1011D80083163802031CF328B901B90AF72838081E
:1011E800B4070318B50A8312BD0A0C3083123D02F6
:1011F800831603180229B90803199328360A031914
:10120800370A03191A29B908031D122935083702A4
:10121800031D10293408360203181D29AF01AF0A2F
:10122800B001B00AFF30B600B700CA29B908031DDB
:10123800CA293408B6003508B700CA29A6013008FB
:101248000F390F3A031DB8298312BD013D08F40078
:101258000310F40D0310740D303CB73E8400831363
:101268000008F7003D08F4000310F40D0310740D96
:10127800303CB93E840083130008F6003D08F400B2
:101288000310F40D0310740D303CB83E8400831332
:101298000008F5003D08F4000310F40D0310740D68
:1012A800303CB63E8400831300087507760777073D
:1012B8008316B8000310B80C0310B80C0310B80C50
:1012C8000310A60D06303802031826148312BD0A2F
:1012D80004303D02031C2A2909308316260203180C
:1012E800862907308A002608F6270A128A15F4008C
:1012F800740AB100A730B200B301B30A0230AF00DC
:10130800B001B829AF01B001CA2930080339033A3E
:10131800031DB8296608670769076807B80003103E
:10132800B80C0310B80C0310B80C06303802320899
:1013380084008313031CA32933088004A5293309D7
:101348008005803033020318AC290310B30DB82987
:10135800B301B30AB20AB10BB8298C108312121167
:1013680003308316AF00BA29B00ACA290130DE2932
:10137800831603132F0803198828013A0319222911
:10138800033A03198929013A0319BA298312BD01BD
:101398003D08BB3E840083130008F4003D08BA3EB4
:1013A8008400831374088000BD0A2F303D02031C9B
:1013B800CC290030831208008301BD000310BD0D45
:1013C8008B1307103D0893008316141CE829871611
:1013D8008312071493018316141CEF2987128312B2
:1013E8001308BD008B1708008301C6000310C60D43
:1013F80046148B130710460893008316141C012A01
:1014080083120714450893008316141C082A8B17A7
:10141800831208003A308301C5000030F8210A30F1
:10142800C600C7010A168A111B270A128A153B3003
:10143800C5000030F8210A30C600C7010A168A1113
:101448001B270A128A155830C5000130F8212030B0
:10145800C5000230F821C5010330F8210130E02130
:10146800583A031D01340230E021203A031D0134AB
:101478000330E0210038031D01344230C500043038
:10148800F8211430C5000530F8219C30C50006301D
:10149800F8210430E021423A031D01340530E021EF
:1014A800143A031D01340630E0219C3A031D01342F
:1014B8000230C5000730F8218030C5000830F82117
:1014C8001230C5000A30F821C5010B30F821103060
:1014D8008A0002306E20C5000C300A128A15F821E5
:1014E8001030C5000D30F8212630C5000E30F82127
:1014F8009C30C5000F30F8216B30C5001030F82142
:101508005B30C5001130F8217030C5001230F82169
:10151800C501C50A1330F821C5011C30F821103067
:10152800C5004030F8210830C5004130F8213F306F
:10153800C5004230F8210430C5004330F821C50108
:101548004430F821C5014530F821C5014630F8215D
:101558000A168A116F200A128A15C5000030F82170
:1015680010308A0001306E20C50009300A128A1531
:10157800F82110308A0002306E20C5000C300A12A3
:101588008A15F821A630C5000E30F8210E30E0216A
:10159800F400F41DCA2A2630C5000E30F821103098
:1015A8008A0004306E20C50000300A128A15F8211E
:1015B80010308A0005306E20C50009300A128A15DD
:1015C800F82110308A0006306E20C5000C300A124F
:1015D8008A15F821A630C5000E30F8210E30E0211A
:1015E800F400F41DF22A2630C5000E30F8213F30F1
:1015F800C5000030F8215530C5000B30F8210B30FC
:10160800E021553A031D0134AA30C5000B30F821FA
:101618000B30E021AA3A031D0234C5010B30F82132
:101628007B30C5000030F8210230C600C7010A1619
:101638008A111B270A128A157930C5000030F82153
:101648000A168A11A8250A128A1500348301C400D3
:101658006400CF0010308A004408F4000310F40D31
:101668000310740D6E20C50000300A128A15F82187
:1016780010308A004408F4000310F40D0310740DB0
:10168800F400740A6E20C50009300A128A15F82180
:1016980010308A004408F4000310F40D0310740D90
:1016A800023E6E20C5000C300A128A15F821C408C3
:1016B800031D612BC5010B30F8210A168A11A825D4
:1016C8000A128A15440B003410308A004408F400CA
:1016D8000310F40D0310740D033E6E20C5000B308B
:1016E8000A128A15F8210A168A119C250A128A15E7
:1016F8000034831603138C108312121191012030C9
:1017080092003730831692001C308312950097019F
:101718008316A1010230A000831203170510C530FB
:1017280083160313810064008312031705140B1139
:10173800FF30031381008B16121508008301CD00BA
:10174800CC010310CD1FAF2BCD0DCB1FAC2B4D14EF
:101758008530CD06B22BCD0DCB1B4D140310CB0D10
:10176800CC0A08304C02031CA62B4D080800830144
:10177800CA00C72BCA0A4A03840083130008CB0097
:101788004808A223C800C903490FBE2B480808000F
:10179800093083160313A600B101B001A001AF01FF
:1017A8008312D001FF308316B600B70083120317E7
:1017B8000510683083160313810064008312031731
:1017C80005140313810121309200F9308316920029
:1017D8008312910112158C1083168C148312080041
:1017E8000930831603132602031CFC2BCC23013477
:1017F800260EF0398312CB00F530A223BD00C800B5
:1018080007308A0083162608F627003E8312C9008F
:10181800A7300A128A15BB23BD00CB01A223BD0045
:1018280007308A0083162608F6270A128A15A73E6B
:1018380084008313000883123D060319FA2CCC2375
:10184800023427082506031D2D2C28082406031911
:10185800142D83122308023A031D3A2CF030A300FA
:10186800211D382C8714402C8710402C2308083A57
:10187800031D402CCC2300347A300313C6000330F8
:10188800C7000A168A111B270A128A150A30592519
:101898000A128A150034290883122B06031D142DF9
:1018A8008316280883122C06031D142D8316270877
:1018B80083122D06031D142D7830C6000530C7008D
:1018C8000A168A111B270A128A152308023A0319D5
:1018D800772C0230A300BA303407A6000A30031868
:1018E8000B303507A70083162B08A4002A08A5008B
:1018F80016250A128A15003413308312C6000130E7
:10190800C7000A168A111B2713308312C60001303C
:10191800C7000A168A111B270A128A158312230880
:10192800083A031D992CCC230034053059250A1296
:101938008A150034290883122B06031D142D8316DB
:10194800280883122C06031D142D831627088312DA
:101958002D06031D142DCE30C6000430C7000A160C
:101968008A111B270A128A1583162A087925CC237F
:10197800003416250A128A150034290883122B060A
:10198800031D142D8316280883122C06031D142DFD
:101998008316270883122D06031D142D7830C600E0
:1019A8000530C7000A168A111B270A128A158316E2
:1019B8002A088312A200A2080319ED2C0830A300FC
:1019C80093303407A6000330031804303507A70006
:1019D800F42CF030A300211DF32C8714F42C87106D
:1019E80016250A128A150034CC23033483162608D8
:1019F8000319252C013A03194F2C033A0319882C93
:101A0800013A0319922C073A03199E2C023A03193A
:101A1800802C013A0319BD2C0F3A0319C12CF82C5C
:101A2800CC23003483160313A60183122D088316D2
:101A3800A70083122C088316A80083122B0883168C
:101A4800A900AA012A08F0390138AA00831223083C
:101A5800023A003003190130F400F40CF40C831638
:101A68002A0874067F397406AA0028308312C80031
:101A78000430C900A730BB23C700CB01A223C7008D
:101A8800A53A031D542D8316AA1628308312C800C0
:101A98000430C900A730BB23C700CB01A223C7006D
:101AA80047088316AB007D2308008301C4000A168B
:101AB8008A11D5264408F600F7010A128A11A522D0
:101AC8000A128A157408C500722D2230C60001302A
:101AD800C7000A168A111B270A128A15C503450F63
:101AE800692D16250A128A1508008301C4000310FF
:101AF800C40DAD2D3508F5003408F4000A128A111A
:101B0800C7231230F7000230F8004130F9000A12FA
:101B18008A115C230A128A118B230A128A15740807
:101B2800C5007508C60016250A128A158316A0086E
:101B3800031D9A2D83124508C7004608C8000A16D7
:101B48008A1135260A128A15F400F501750403195D
:101B58009E2DC403440F7E2D080003308316031303
:101B68008E041630831203178500640005140A16C4
:101B78008A118D260A128A150A30AA00FD30031729
:101B88008D001F308F0083160C118C170C148310D6
:101B9800831083120E080C080313AB00FE300317E2
:101BA8008D001F308F0083160C118C170C148310B6
:101BB800831083120E080C080313AC00FF300317C0
:101BC8008D001F308F0083160C118C170C14831096
:101BD800831083120E080C080313AD0006300A1692
:101BE8008A11EB250A128A15A000773A0319082EE4
:101BF80000000000000000007730C40006300A161C
:101C08008A1115260A128A150430A100211D0E2EEC
:101C180087140F2E87102C08BB00BC01BC00BB0129
:101C28002D08BB043B08C6003C08C7000A168A11E9
:101C3800CB26C0308B0003300A168A11EB250A1216
:101C48008A15831603179000100F2B2E2F2E1008BD
:101C58001F3A031D3B2E00000000000021309000B9
:101C680083120313C40003300A168A1115260430A0
:101C78000A168A11EB250A128A15A0007C3A031964
:101C88004F2E00000000000000007C30C40004302B
:101C98000A168A11152608300A168A11EB250A1227
:101CA8008A15A0007A3A031D652EC40108300A1669
:101CB8008A1115260A128A15F030A3008316061514
:101CC800C72E00300A168A11BC253230C600C7015B
:101CD8000A168A111B27AA300A168A11BC25323027
:101CE800C600C7010A168A111B272B082D072C07C7
:101CF8000A168A11BC253230C600C7010A168A1195
:101D08001B272B080A168A11BC253230C600C701CA
:101D18000A168A111B272C080A168A11BC2532308C
:101D2800C600C7010A168A111B272D080A168A1130
:101D3800BC250A30C600C7010A168A111B2783165C
:101D4800061532308312C600C7010A168A111B27EE
:101D58000A128A15061DBB2E5E30C6000130C70068
:101D68000A168A111B270A128A15061DC52EA301F9
:101D780000303407A6007D3003187E303507A700F1
:101D8800C72EF030A3000A168A1155260A128A15A2
:101D980000380319D82EA30100303407A6007D307F
:101DA80003187E303507A70083160C1483123508F4
:101DB800F5003408F4000A128A11C723E230F7004C
:101DC800E430F8004430F9000A128A115C230A1240
:101DD8008A118B237408A8007508A9000A128A15AD
:101DE800CC230A128A15061483120313A508031DAF
:101DF80006191E2F05302302031C1D2F083025024B
:101E080005300318112F2502031C0C2F0630112F43
:101E180002302502031C132F0730A300142FA3013F
:101E280040303407A6000130031802303507A700F8
:101E3800A115A50150080319372F500B322FD001D7
:101E48000A128A1587200A128A15013A031D372FAC
:101E58000A128A15F4230A128A15372F0A128A15CC
:101E6800CC230A128A1503171008043A031D492FB8
:101E78000A128A11D6230A128A1500380317031D7D
:101E8800582F930F572F930A572F1008073A031DFF
:101E9800592F00300A128A152A230A128A15181691
:101EA80083168C1683120317900103133308340624
:101EB8000319F82E64003408B300A118962F2808D7
:101EC800C7002908C8000A168A1135260A128A1579
:101ED800F400F50175040319C22F3508F50034081C
:101EE800F4000A128A11C723E230F700E430F80040
:101EF8004430F9000A128A115C230A128A118B23D2
:101F08000A128A157408A8007508A900031793080F
:101F18000319902F9301C22F0A168A1155260A1207
:101F28008A15C22F3108C7003208C8000A168A115C
:101F380035260A128A15F400F50175040319C22F13
:101F4800CD30A105BB01F401F5013B083B07A13EDB
:101F58008400831774088000840A750880003B0891
:101F68003B07913E8400831774088000840A750833
:101F78008000BB0A08303B02031CA72FF030031374
:101F880023020318F82E0A302302031CCD2FF03049
:101F9800A3002608C7002708C8000A168A11352694
:101FA8000A128A15F400F50175040319F82EA40124
:101FB8002308023A031DE52F8316A501F03083128A
:101FC800F92F2308083A031DF82FA2080319FA2F3E
:101FD800A20BEF2FF82F93303407A6000330031815
:101FE80004303507A700FA2FF030A300211DFE2F7B
:101FF8008714F82E8710F82E8207CC34CC34CC34D2
:10200800CC34CC34CC34CC34CC34FF340034FF342E
:102018000034FF340034FF340034FF34FF34FF341D
:10202800FF34FF34FF34FF34FF34FF34FF34FF3410
:10203800FF34FF34FF34FF34FF34FF34FF34FF3400
:10204800FF34FF34FF34FF34FF341134113451347A
:102058005534003400340034003441341034003432
:102068000034003400340034003441341034043473
:1020780041340034003400340034FF34FF34FF347A
:10208800FF34FF34FF34FF34FF3482070134003457
:102098000134003400340134003401340134003494
:1020A8000134003482070D3408340D340934FF3408
:1020B8000934FF34FF34FF34FF34FF340B34820714
:1020C80008340834FF34083408340A34FF34FF3441
:1020D800FF34093482071134443460340034E13465
:1020E800813448340F348207013400340134003419
:0820F80000340134003401340E
:102B320083014F0808000D308301C500C50B9F2D8E
:102B42000800831603138C108312121108007D30C3
:102B52008301C500C503450FAB2D0800831603137F
:102B6200AF08031DB92DA008031DB92D0030BA2DE1
:102B72000130831208008301BD008B13061100008F
:102B82003D0893008316141CC32D00008312061502
:102B92008B17080083010710213093008316141C41
:102BA200CF2D831207147B3093008316141CD62D6D
:102BB2008312080083010710213093008316141C2E
:102BC200DF2D831207146B3093008316141CE62D3D
:102BD200831208008301C400831603178C18ED2D9D
:102BE20083120313440803178D0083168C130C14ED
:102BF20083120C08031308008301BB009F01831694
:102C02009F01831281389F00BC010A303C020318E5
:102C12000F2EBC0A0A303C02031C0A2E9F1400002D
:102C22009F18112E1E0808008301C5008316031782
:102C32008C18172E83120313450803178D000313F4
:102C4200440803178C0083168C1303108B1B031488
:102C52008B130C1555308D00AA308D008C140C117D
:102C620003188B17830108008B1383120313480880
:102C72003502031D3E2E47083402031C532E35082D
:102C8200F5003408F4004708F402031CF503480871
:102C9200F502803075020030031974028B17031C91
:102CA200013400348B1700348301181283168C12FE
:102CB20098120C1283120317900191010313350825
:102CC200F5003408F4000A128A11C723A930F7006C
:102CD2002B30F8004530F9000A128A115C230A12DF
:102CE2008A118B237408B1007508B2000A128A1582
:102CF2000E220A168A1100380319812E01308B2EFA
:102D020000300A128A152A230A168A111816831607
:102D12008C160030831208000430831603139500CA
:102D2200603081000430831286001A3083168600D8
:102D320008308312850003308316850041308312E8
:102D420087009030831687000330031788000A300B
:102D520089008130831203139F0083169F01113073
:102D620083129000E93083169700831203178916A5
:102D7200A53087004030831603139400313083124C
:102D820094000C308316990004309800803083122E
:102D92009800080083014608B7004708B800B90147
:102DA200BA01B601B60A08008301B608031DDD2E7A
:102DB200C601C60AC701CB266D30F8004E30F900B5
:102DC200C630FA004130FB003708F4003808F5003D
:102DD2003908F6003A08F7000A128A1168220A1620
:102DE2008A113930F8003030F900FA01FB01780815
:102DF2007407FC007508FD0079080318790FFD07B8
:102E02007608FE007A0803187A0FFE077708FF009B
:102E12007B0803187B0FFF077C08B7007D08B8000A
:102E22007E08B9007F08BA00F5003908F4007F3047
:102E3200F5050800612F0F08CB000E08CA004B08E9
:102E42000F06031D1C2F6400C6304A07C80003305A
:102E5200031804304B07C90049084B02031D332FE6
:102E620048084A02031C472F4B08F5004A08F400A1
:102E72004808F402031CF5034908F5028030750284
:102E8200003003197402031C612F582F4908F50002
:102E92004808F4004A08F402031CF5034B08F50243
:102EA200803075020130031974020318612F0F0874
:102EB200CB000E08CA004B080F0603192D2F582FFE
:102EC2008312031346080319C703C603460A0319EC
:102ED200470A031908001C2F83120317150CF4006C
:102EE200F40C740C0F39F4000530740203188B2FA4
:102EF20010308A00150D150D0139F400150CF5007E
:102F0200F50C750C0F39F5007507740763200A1666
:102F12008A11A52F150CF400F40C740C0F390F3A1A
:102F2200031DA42F063016020318A42F10308A00A6
:102F3200150D150D0139F4001608160774075620F1
:102F42000A168A11A52FFF30031308008301C4005B
:102F5200FF30C800C9006D278313C700470FB22F87
:102F6200FF34FE30C707C601470846020318DA2FAE
:102F72004608143E840083170008C806C501481C91
:102F8200D02F4908F5004808F4000310F50CF40CA2
:102F920001307406C800A0307506C900D32F031093
:102FA200C90CC80CC50A08304502031CC02FC60A4A
:102FB200B52FC4080319EA2F4708143E840083176B
:102FC200490880004708153E84008317480880009E
:102FD20000344708143E840083170008F500F4010A
:102FE2004708153E840083170008F4044908750653
:0E2FF200031DFD2F4808740603190034FF3438
:04400E00C123FF3E8D
:00000001FF
