:0600000001308A00D52941
:10000800F30003088301D0000408D1000A08D200D5
:100018008A017408E0007E08D8007F08D9007508B6
:10002800DE007608DD007708D7007808DB0079085D
:10003800DC007A08E1007B08E2007C08DA007D0831
:10004800DF005508D3005608D4008B1A0B1D7628FC
:100058005D308312031381076A280130A106211C31
:1000680039280C30831297043D2883120711F33086
:100078009705640075282208A73E840083130008AA
:10008800230503194B280C30831297044F28831239
:100098000711F33097058030831623020318572879
:1000A8000310A30D7528A301A30AA20AA10B7528A2
:1000B8000530A0007528F3308312970507118B12BD
:1000C8008316A00102308312CF00752883162008FA
:1000D800023A03193128063A03193F28013A03194D
:1000E8005F280B11831603138C1E142983128C1E90
:1000F800142983121A08CD0018198428981C03297A
:10010800981C8928181200001816023003171002CC
:10011800031C72290A128A15BE210A128A110317B2
:1001280091011008043A03197229012903134D0893
:10013800553A0317031DAF28910A1108043A031D05
:1001480072290A128A15AE210A128A11031791011F
:100158009001900A72299101722903134D085A3AA5
:10016800031DBD285A30031794009101910A0230EB
:10017800F8280317910A1108083A031D7229FA286A
:10018800910A1103143E8400831703134D0880005D
:1001980003171108043A031D72290A128A156323EA
:1001A8000A128A1103179200120FDB28FA2803306B
:1001B800F828910A1103143E8400831703134D088D
:1001C8008000031712081102031C72290313181266
:1001D80083168C128312031791010A128A15BE2105
:1001E8000A128A1104300317900072290A128A151C
:1001F800BE210A128A11031791019001722903176F
:10020800100803199A28013A0319B128033A031967
:10021800C428013A0319DD28073A03197229FA2874
:1002280083160C1E722983120C1E72295F29553001
:10023800031399000317910A11080A3A031D70293C
:1002480091019001900A7029FF3003139900031758
:10025800910A1108023A031D70290A128A156323AC
:100268000A128A1103179200910103305D29910A3D
:100278001103143E84008317000803139900031721
:1002880012081102031C7029910105305D295C30A8
:10029800031399000317910A1103031D70290630EF
:1002A8005D298316031398120C1283120317910108
:1002B80007309000702983120317100803191B29AF
:1002C800013A03192829023A03193B29063A031966
:1002D8004B29033A0319552903130C1283120313EC
:1002E8000C1CAE2983160C1CAE298312B30A031901
:1002F800B40AF03022020318AD2908308A00220817
:10030800F4000310F40D0310F40D0310740DF40041
:100318002308F5000310F50C0310F50C0310750CF9
:100328000739740700200A128A11F4000130F50019
:1003380023080739F600F60AA3290310F50DF60B72
:10034800A129750874050319AB298714AC298710EE
:10035800A30A0C10031383126008F4005808FE0067
:100368005908FF005E08F5005D08F6005708F70019
:100378005B08F8005C08F9006108FA006208FB00F5
:100388005A08FC005F08FD005308D5005408D60041
:100398005108840052088A0050088300F30E730E37
:1003A8000900203084004E30F4210230D6001C3081
:1003B800D5004E3084005030F921A0308400AF3091
:1003C800F4218317103084005E30F42190308400CB
:1003D800B130F4210A128A15E02C04068001840A3F
:1003E8000406031DF12964000034F4000A128A117E
:1003F80009220A128A118000840A04087406031963
:100408000034FA2983120313D500D61B142A561B6D
:100418001C2A56088A005508D50A0319D60A8200EC
:100428008313561883175508D50A84000008080056
:10043800003400340310FF30F407F409031CF507F7
:10044800F509031CF607F609031CF707F709080066
:1004580084017408FC007508FD007608FE00770822
:10046800FF00F601F701F401F5010310FF0CFE0C83
:10047800FD0CFC0C031C4E2A7808F40779080318B5
:10048800790FF5077A0803187A0FF6077B0803181F
:100498007B0FF7077C087D047E047F0403195A2A22
:1004A8000310F80DF90DFA0DFB0D392A840803190C
:1004B8000034770880008403760880008403750878
:1004C80080008403740880000034FA01F51F732A41
:1004D800F409F40A0319F503F5097A17FA177708E6
:1004E8008039FA06F71F7F2AF609F60A0319F70377
:1004F800F7097F2AFA01F801F90176087704031D44
:10050800882AF401F50100341F30FA040310FA0AAE
:10051800F60DF70D031C8B2AF70CF60C77087502FD
:10052800031D982A76087402031CA02A7608F40290
:100538007708031C770AF502F80DF90DFA0BFA1A79
:10054800902AFA1FAC2AF809F80A0319F903F909DD
:100558007808F6007908F7007A1F0034F409F40ADD
:100568000319F503F5090034FC01750D760DFA0041
:100578007A080319C32AFC0DF601F5170800F401DF
:10058800F501F6010034FC10780D790DFB007B08AD
:100598000319D32A0318FC14F901F8170800FB0102
:1005A800F701F801F90108007A080319C32AF513BD
:1005B800FC0C7A0CF6000318F5178E2BFA08031DAD
:1005C800F62AF401F501F6018E2B76030319F40AD5
:1005D8000319F50A0319F60A0310F60CF50CF40CC6
:1005E800FA0AE22AF608031DE92A740875040319B1
:1005F800E52AF51BD82AFA030319E52A0310F40D96
:10060800F50DFD2A7A087B02031C152B0319080037
:100618000310F60CF50CF40CFA0A7A087B020A2B84
:100628000310F90CF80CF70CFB0A7A087B0603197F
:100638000800142B8030F9068401B822C72206234B
:100648007C1C2E2BF409F509F609F40A0319F50A9E
:100658000319F60AFC1C382BF709F809F909F70AF7
:100668000319F80A0319F90A7708F4077808031830
:10067800780FF50779080318790FF607FC01F61FBC
:10068800E22AF409F509F609F40A0319F50A031927
:10069800F60A7C14E22A8401B822F7018230FA07AC
:1006A800FA1BC32AF030FA07FA1B6B2B18307A02B0
:1006B8000318C32AFA08031D642B7C181E2208009D
:1006C800FA030310F40DF50DF60DF70D5E2B03106C
:1006D800F60CF50CF40CFA0F6B2B612BF71F772B2C
:1006E8007C141E22782BFC018E30FA008401F70856
:1006F8000319E22A0310F70CF60CF50CF40CFA0AAD
:100708007B2BF601F51BF6037608F700722BF60132
:10071800F701772B840803190034760880008403D6
:100728007508800084037408800000348301290858
:100738000317970003132A080317980003132B08BD
:100748000317990003132C0803179A0003132208B0
:10075800F03A0319241DB22BF130B32B22080317EA
:100768009B0002300A128A15CE210A128A11031739
:100778009C008316100883129D007B309E00031393
:10078800080083120317951FD72B00300A128A1509
:100798009D230A128A1100380319562F181683163A
:1007A8008C160130792F0313752F190CF400F40CF3
:1007B800740C07390319F02B0313241AF02B0313B5
:1007C8002416031717080739F4007407913E8400AC
:1007D80083178001840A8001031717080739F4007A
:1007E8007407913E8400831716080006031DFF2B2B
:1007F8001708840A000603196A2F19080739F40034
:100808000130F600F701F40A0C2C0310F60DF70D71
:10081800F40B092CFF30F607031CF70703132C0809
:10082800F605F701031718087F39F400F501770872
:100838007506031D212C76087406031D6A2F1708F8
:100848000739F4007407A13E840083171608800056
:10085800840A17088000512CF13003132202031870
:100868005F2C0630A20040303307A5000130031882
:1008780002304B2C053003132202031C5F2C053079
:10088800A20093303307A50003300318043034075F
:10089800A6004F2C0313A4155F2C190CF500F50CBA
:1008A800750C0739013A0319302C033A03193E2C09
:1008B800013A03194E2C0A128A15CB220A128A1100
:1008C8000130F600031715080739F700F70A6E2CF0
:1008D8000310F60DF70B6C2C7608F60076037405FA
:1008E8000A128A117B270A128A112908031796000F
:1008F80003132A080317970003132B0803179800FC
:1009080003132C080317990095010313A41D8E2CBB
:100918000317151403133408F5003308F4000A12FA
:100928008A118B23A930F7002B30F8004530F900E5
:100938000A128A1120230A128A114F230A128A11D5
:100948007408B0007508B1000330A4046A2F0313BB
:100958002C0803171906031DC12C03132B080317B2
:100968001806031DC12C03132A0803171706031DB5
:10097800C12C0313290803171606031D6A2F031336
:10098800BE013E083E07A13E840083170008BF0051
:10099800840A0008C0003F040319E02C3F08BC008B
:1009A8004008BD003E083E07913E840083173C087E
:1009B8008000840A3D088000BE0A08303E02031CFD
:1009C800C52C3C08F500F4017408C1007508C20084
:1009D8003D08F400F5014108F4044208F504FF302D
:1009E8007405BC000F307505BD00031715080739DD
:1009F800013A031D0E2D03132208F03A031D0E2D94
:100A08000630A20040303307A50001300318023039
:100A18003407A600003003133D02053003193C02D9
:100A2800031C242D00303D02083003193C02031C2E
:100A3800332D00303D020D3003193C020318332DCD
:100A48003408F5003308F4000A128A118B230A12BD
:100A58008A11A930F7002B30F80046303F2D3408B2
:100A6800F5003308F4000A128A118B23A930F70025
:100A78002B30F8004530F9000A128A1120230A1297
:100A88008A114F230A128A117408B0007508B10040
:100A9800A414A4116A2F03132C0803171B06031DA3
:100AA800652D03132B0803171A06031D652D031361
:100AB8002A0803171906031D652D031329080317B0
:100AC8001806031D6A2F031329080317960003133A
:100AD8002A080317970003132B080317980003131A
:100AE8002C080317990003133408F5003308F400A1
:100AF8000A128A118B23A930F7002B30F8004530F1
:100B0800F9000A128A1120230A128A114F230A12A5
:100B18008A117408B0007508B100AB2D2130031399
:100B2800A404B92D0A128A1545240A128A11B82D6F
:100B38002208F03A031DB82D0630A20040303307D2
:100B4800A5000130031802303407A600B82D03179A
:100B580015080739013A0319922D043A0319962DFD
:100B6800023A031303199C2D24141030031795001F
:100B78006A2F16088316031325068312031DCC2D2E
:100B880003171708831603132406831203196B2F00
:100B98002208023A031DD32DF030A2008714220840
:100BA800083A03196A2F7A30C5000330C6000A12C2
:100BB8008A1511230A300A128A1588240A128A1102
:100BC8006A2F1A0803132A06031D6A2F0317190828
:100BD80003132B06031D6A2F0317180803132C068B
:100BE800031D6A2F7830C5000530C6000A128A1521
:100BF80011230A128A1103179608031D182E1708C5
:100C08000313A100A1080319142E0830A200933081
:100C18003307A5000330031804303407A600322E2A
:100C2800F030A2008714322E03132208023A031967
:100C3800272E0230A200BA303307A5000A30031865
:100C48000B303407A6000317170883160313A400F4
:100C580083120317160883160313A5000A128A15B0
:100C680045240A128A116A2F13300313C500013074
:100C7800C6000A128A15112313300313C500013068
:100C8800C6000A128A1511230A128A1103132208B0
:100C9800083A03196A2F05300A128A1588240A129D
:100CA8008A116A2F1A0803132A06031D6A2F0317CD
:100CB800190803132B06031D6A2F031718080313BB
:100CC8002C06031D6A2FCE30C5000430C6000A1258
:100CD8008A151123031717080A128A15A8240A125D
:100CE8008A116A2F0A128A1545240A128A116A2F54
:100CF800150807390319BD2D013A0319E52D033AE3
:100D08000319402E013A03194A2E073A0319562EA1
:100D1800023A0319382E013A0319762E6A2F173032
:100D28008400831703132E080006031D9E2E2F0828
:100D3800840A00060319A92E031717080313AE0027
:100D4800031718080313AF00AD0107302D0203186D
:100D58006A2FAD0A0A128A15CB2274080A128A1160
:100D68007B270A128A11D02E03132C0803171A06A0
:100D7800031DCE2E03132B0803171906031DCE2EB1
:100D880003132A0803171806031DCE2E0313290878
:100D980003171706031D6A2F9A230A128A112414AF
:100DA8006A2F03132C0803171A06031DEB2E0313CF
:100DB8002B0803171906031DEB2E03132A08031724
:100DC8001806031DEB2E0313290803171706031D26
:100DD8006A2F8B1383168C18EE2E83128D01013027
:100DE8008C0083168C1303108B1B03148B130C15A8
:100DF80055308D00AA308D008C140C1103188B17F8
:100E080083120514062F03132C0803171A06031D53
:100E18001D2F03132B0803171906031D1D2F03137A
:100E28002A0803171806031D1D2F03132908031783
:100E3800170603192F2F6A2F03132208F23A031DEE
:100E4800272FF030A20087142D2FF2300313A200B1
:100E5800871024143F2F1C08F7001B08F6003B2FAF
:100E680076080319202F013A0319292F3F2F7708F5
:100E7800803A0319342F0313241C6A2F0317960191
:100E8800960A9A230A128A116A2F16080319932EB2
:100E9800013A0319B82E033A0319D52E073A031954
:100EA800072F6A2F0317150CF500F50C750C0F3971
:100EB8000319D92B013A0319AB2C033A03194F2D07
:100EC800063A03197C2E0B3A0319492F8312031390
:100ED800241C752F0A128A11D3270A128A1124108A
:100EE800782F181683168C16003083120800830199
:100EF800C300CD2F0F08C600C701F500F4010E0886
:100F08007404C6007508C7000F06031D7E2F5A30EB
:100F18004607C4001530031816304707C50064009B
:100F280045084702031D9A2F44084602031CAE2FAA
:100F38004708F5004608F4004408F402031CF503CA
:100F48004508F50280307502003003197402031C4D
:100F5800CD2FBF2F4508F5004408F4004608F402D9
:100F6800031CF5034708F5028030750201300319A8
:100F780074020318CD2F0F08C600C701F500F4014D
:100F88000E087404C6007508C7000F060319942FCD
:100F9800BF2F83120313C303430F7E2F080083124E
:100FA80003179001910101300A128A15AD270A1220
:100FB8008A1100380319E92FA20100303307A50070
:100FC8007D3003187E303407A6005A30031794008A
:100FD800951301300A128A159D230A128A11831665
:100FE80098160C16831208007D308301C400C403D0
:060FF800440FFB2F08006E
:101000008207CC34CC34CC34CC34CC34CC34CC3457
:10101000CC34FF340034FF340034FF340034FF3468
:101020000034FF34FF34FF34FF34FF34FF34FF3427
:10103000FF34FF34FF34FF34FF34FF34FF34FF3418
:10104000FF34FD34FF34FF34FF34FF34FF34FF340A
:10105000FF34EE34EE34AA34AA34FF34FF34FF34C4
:10106000FF34CC34FC34FF34FF34FF34FF34FF341E
:10107000FF34CC34CC34CC34FF34FF34FF34FF3471
:10108000FF34FF34FF34FF34FF34FF34FF34FF34C8
:10109000FF3482070D3408340D340934FF34093429
:1010A000FF34FF34FF34FF34FF340B348207013444
:1010B000003401340034003401340034013401348C
:1010C000003401340034820708340834FF34083413
:1010D00008340A34FF34FF34FF3409348207023401
:1010E0000534003400340434003400340034043453
:1010F00082070134003401340034003401340034F8
:10110000013482071134443460340034E1348134D2
:0411100048348034AB
:1013360083014E0808000D308301C400C40BA129A7
:101346000800831203179008031DAB290030AC294F
:101356000130031308008301071021309300831620
:10136600141CB229831207147B3093008316141CB5
:10137600B9298312080083010710213093008316D0
:10138600141CC229831207146B3093008316141C95
:10139600C929831208008301C300831603178C181A
:1013A600D02983120313430803178D0083168C1369
:1013B6000C1483120C080313080064000A128A1521
:1013C60045240A128A158316A008031DE629D03083
:1013D6008312C5000730C6000A128A1511230A12A5
:1013E6008A1508008301BA009F0183169F018312A4
:1013F60081389F00BB010A303B020318072ABB0A4B
:101406000A303B02031C022A9F1400009F18092A77
:101416001E0808008B138312031347083402031DAA
:10142600162A46083302031C2B2A3408F500330813
:10143600F4004608F402031CF5034708F502803061
:1014460075020030031974028B17031C0134003433
:101456008B1700348301BD00831603178C182F2ABF
:10146600831203133D0803178D0003133C0803176B
:101476008C0083168C1303108B1B03148B130C1513
:1014860055308D00AA308D008C140C1103188B1763
:10149600830108008301181283168C1298120C120D
:1014A600831203179001910103133408F5003308E2
:1014B600F4000A128A118B23A930F7002B30F800AA
:1014C6004530F9000A128A1120230A128A114F2385
:1014D6007408B0007508B1000A128A1591260A121E
:1014E6008A1500380319792A0130832A00300A1236
:1014F6008A15AD270A128A15181683168C1600301F
:10150600831208006030831603138100243095008F
:10151600831286001A3083168600083083128500EF
:10152600033083168500413083128700903083167E
:101536008700031788010A3089008130831203135C
:101546009F0083169F01113083129000E9308316A5
:101556009700831203178916A5308700403083163B
:10156600031394003130831294000C3083169900D3
:1015760004309800803083129800080083014508E3
:10158600B6004608B700B801B901B501B50A0800AA
:101596008301B508031DD32AC501C50AC601C122A8
:1015A6006D30F8004E30F900C630FA004130FB00CD
:1015B6003608F4003708F5003808F6003908F70051
:1015C6000A128A112C220A128A153930F800303094
:1015D600F900FA01FB0178087407FC007508FD00A4
:1015E60079080318790FFD077608FE007A080318B4
:1015F6007A0FFE077708FF007B0803187B0FFF07AB
:101606007C08B6007D08B7007E08B8007F08B900E0
:10161600F5003808F4007F30F5050800572B0F0851
:10162600CA000E08C9004A080F06031D122B6400E3
:10163600C6304907C7000330031804304A07C800FC
:1016460048084A02031D292B47084902031C3D2B63
:101656004A08F5004908F4004708F402031CF5039C
:101666004808F50280307502003003197402031C25
:10167600572B4E2B4808F5004708F4004908F4029A
:10168600031CF5034A08F502803075020130031980
:1016960074020318572B0F08CA000E08C9004A081F
:1016A6000F060319232B4E2B831203134508031928
:1016B600C603C503450A0319460A03190800122B77
:1016C60083120317150CF400F40C740C0F39F40094
:1016D600053074020318812B08308A00150D150D8C
:1016E6000139F400150CF500F50C750C0F39F500F1
:1016F6007507740763200A128A159B2B150CF400D4
:10170600F40C740C0F390F3A031D9A2B063016028F
:1017160003189A2B08308A00150D150D0139F400AF
:1017260016081607740749200A128A159B2BFF30E4
:10173600031308008301C300FF30C700C8006323FA
:101746008313C600460FA82BFF34FE30C607C5011B
:10175600460845020318D02B4508143E840083171B
:101766000008C706C401471CC62B4808F5004708F1
:10177600F4000310F50CF40C01307406C700A03019
:101786007506C800C92B0310C80CC70CC40A08305C
:101796004402031CB62BC50AAB2BC3080319E02B66
:1017A6004608143E84008317480880004608153E04
:1017B600840083174708800000344608143E8400DE
:1017C60083170008F500F4014608153E84008317C8
:1017D6000008F40448087506031DF32B4708740631
:1017E60003190034FF34831603138C10831212116D
:1017F6009101203092003730831692001C308312FC
:10180600950097018316A1010230A00083120317E9
:101816000510C53083160313810064008312031775
:1018260005140B11FF30031381008B1612150800E7
:101836008301CC00CB010310CC1F282CCC0DCA1F72
:10184600252C4C148530CC062B2CCC0DCA1B4C14E5
:101856000310CA0DCB0A08304B02031C1F2C4C0880
:1018660008008301C900402CC90A49038400831378
:101876000008CA0047081B24C700C803480F372CB6
:101886004708080083160313A60183122C08831643
:10189600A70083122B088316A80083122A08831632
:1018A600A900AA012A08F0390138AA0083122208E1
:1018B600023A003003190130F400F40CF40C8316DC
:1018C6002A0874067F397406AA0028308312C700D6
:1018D6000430C800A7303424C600CA011B24C60041
:1018E600A53A031D832C8316AA1628308312C70037
:1018F6000430C800A7303424C600CA011B24C60021
:1019060046088316AB00F62308008301C3000A12BB
:101916008A15CB224308F600F7010A128A116922BA
:101926000A128A157408C400A12C2230C5000130A1
:10193600C6000A128A1511230A128A15C403440F17
:10194600982C45240A128A1508008301C300031047
:10195600C30DDC2C3408F5003308F4000A128A1192
:101966008B231230F7000230F8004130F9000A12DA
:101976008A1120230A128A114F230A128A15740823
:10198600C4007508C50045240A128A158316A008E6
:10199600031DC92C83124408C6004508C7000A1255
:1019A6008A150D220A128A15F400F5017504031929
:1019B600CD2CC303430FAD2C08000330831603134D
:1019C6008E041630831203178500640005140A126C
:1019D6008A1585220A128A150B30A900FD300317D5
:1019E6008D001F308F0083160C118C170C1483107A
:1019F600831083120E080C080313AA00FE30031787
:101A06008D001F308F0083160C118C170C14831059
:101A1600831083120E080C080313AB00FF30031764
:101A26008D001F308F0083160C118C170C14831039
:101A3600831083120E080C080313AC0006300A123A
:101A46008A15CE210A128A15A000A0080319342D82
:101A56000000000000000000BC0106300A128A15D2
:101A66002D22A40187142B08BA00BB01BB00BA01C2
:101A76002C08BA043A08C5003B08C6000A128A15A3
:101A8600C122C0308B0003300A128A15CE210A12F9
:101A96008A15831603179000100F522D562D100825
:101AA6001F3A031D622D0000000000002130900047
:101AB60083120313BC0003300A128A152D22043048
:101AC6000A128A15CE210A128A15A0007B3A03193A
:101AD600762D00000000000000007B30BC000430C2
:101AE6000A128A152D2283160615F0308312A200DB
:101AF6000A128A154D220A128A15003803198C2DEE
:101B0600A20100303307A5007D3003187E3034076C
:101B1600A60083160C142C308312BC000130BD00C5
:101B26000A128A15E0210A128A158E2D031710084B
:101B3600043A031DAB2D0A128A11C5230A128A150F
:101B460000380317031DBA2D930FB92D930AB92D2B
:101B56001008073A031DBB2D00300A128A15AD275F
:101B66000A128A15181683168C168312031790010B
:101B76000313320833060319992D64003308B200A3
:101B8600A418F82D2708C6002808C7000A128A15C7
:101B96000D220A128A15F400F50175040319242E84
:101BA6003408F5003308F4000A128A118B23E23058
:101BB600F700E430F8004430F9000A128A112023B5
:101BC6000A128A114F230A128A157408A70075088B
:101BD600A800031793080319F22D9301242E0A1265
:101BE6008A154D220A128A15242E3008C60031089D
:101BF600C7000A128A150D220A128A15F400F50189
:101C060075040319242ECD30A405BA01F401F5019B
:101C16003A083A07A13E8400831774088000840AB4
:101C2600750880003A083A07913E840083177408C5
:101C36008000840A75088000BA0A08303A02031C3C
:101C4600092EF0300313220203185D2E0A302202F9
:101C5600031C2F2EF030A2002508C6002608C70058
:101C66000A128A150D220A128A15F400F501750466
:101C76000319992DA3012208023A031D472E831644
:101C8600A501F03083125B2E2208083A031D5A2E56
:101C9600A10803195F2EA10B512E5A2E933033073C
:101CA600A5000330031804303407A6005F2EF03079
:101CB600A2005F2E051C612E8714992D8710992D81
:101CC6008301BC000310BC0D8B1307103C08930066
:101CD6008316141C6B2E8716831207149301831622
:101CE600141C722E871283121308BC008B1708006F
:101CF6008301C5000310C50D45148B130710450855
:101D060093008316141C842E831207144408930030
:101D16008316141C8B2E8B17831208003A3083010E
:101D2600C40000307B260A30C500C6010A128A1597
:101D360011230A128A153B30C40000307B260A3074
:101D4600C500C6010A128A1511230A128A155830CF
:101D5600C40001307B262030C40002307B26C4013B
:101D660003307B2601306326583A031D01340230C6
:101D76006326203A031D0134033063260038031D11
:101D860001344230C40004307B261430C4000530D0
:101D96007B269C30C40006307B2604306326423AFC
:101DA600031D013405306326143A031D0134063041
:101DB60063269C3A031D01340230C40007307B269B
:101DC6008030C40008307B261230C4000A307B26DF
:101DD600C4010B307B2608308A0002308120C40003
:101DE6000C300A128A157B261030C4000D307B2673
:101DF6002630C4000E307B269C30C4000F307B2674
:101E06006B30C40010307B265B30C40011307B265B
:101E16007030C40012307B26C401C40A13307B26FE
:101E2600C4011C307B261030C40040307B260830AD
:101E3600C40041307B263F30C40042307B2604304C
:101E4600C40043307B26C40144307B26C4014530A0
:101E56007B26C40146307B260A128A1582200A1286
:101E66008A15C40000307B2608308A0001308120A4
:101E7600C40009300A128A157B2608308A0002300F
:101E86008120C4000C300A128A157B26A630C400B5
:101E96000E307B260E306326F400F41D4D2F2630BF
:101EA600C4000E307B2608308A0004308120C4002E
:101EB60000300A128A157B2608308A0005308120F8
:101EC600C40009300A128A157B2608308A000630BB
:101ED6008120C4000C300A128A157B26A630C40065
:101EE6000E307B260E306326F400F41D752F263047
:101EF600C4000E307B263F30C40000307B265530B0
:101F0600C4000B307B260B306326553A031D013483
:101F1600AA30C4000B307B260B306326AA3A031D79
:101F26000234C4010B307B267B30C40000307B2694
:101F36000230C500C6010A128A1511230A128A1533
:101F46007930C40000307B260A128A11F8270A125B
:101F56008A1500348301C3006400CE0008308A006D
:101F66004308F4000310F40D0310740D8120C4001F
:101F760000300A128A157B2608308A004308F400CE
:101F86000310F40D0310740DF400740A8120C400CC
:101F960009300A128A157B2608308A004308F400A5
:101FA6000310F40D0310740D023E8120C4000C30A2
:101FB6000A128A157B26C308031DE42FC4010B30C1
:101FC6007B260A128A11F8270A128A15430B003457
:101FD60008308A004308F4000310F40D0310740D52
:101FE600033E8120C4000B300A128A157B260A1292
:0A1FF6008A159E210A128A15003494
:04400E00C123FF3E8D
:00000001FF
