:0600000002308A001F2AF5
:10000800F30003088301D1000408D2000A08D300D2
:100018008A017408DA007E08DB007F08DC007508B6
:10002800D8007608D9007708DD007808E10079085B
:10003800E2007A08E0007B08DF007C08DE007D082B
:10004800E3005608D4005708D500831603138C1C08
:100058005B2883128C1C5B28831201088316E90035
:10006800831281018C102208F23A031D4928831655
:100078006908143A8312031D44282419462848287D
:100088002419482887144928871012308316031327
:10009800690203185128E901572817306902031C1F
:1000A80057280830E90001308312D000BF288B1A86
:1000B8000B1DBF285D3083128107B3282108F40087
:1000C800F5017508103E8312D7007408823E0318A4
:1000D800D70A0A128A1150220A128A11013A031DFC
:1000E80078280C3097047B280711F330970583167E
:1000F800A10A2108083A031DBE280530A100A30162
:10010800A30AA2010430A6282208A73E840083136C
:1001180000082305031994280C30831297049828A3
:1001280083120711F33097058030831623020318D2
:10013800A0280310A30DBE28A301A30AA20AA10B9D
:10014800BE280530A000BE28F3308312970507119A
:100158008B128316A00102308312D000BE288316AA
:100168002008023A03196228063A03198828013A36
:100178000319A8280B1183168C1E5C2983128C1E68
:100188005C2983121A08CE001819CC28981C4B2910
:10019800981CD128181200001816023003171002F4
:1001A800031CBA290A168A1102260A128A11031791
:1001B80091011008043A0319BA29492903134E0872
:1001C800553A0317031DF728910A1108043A031D2D
:1001D800BA290A168A1112260A128A1103179101DE
:1001E8009001900ABA299101BA2903134E085A3A84
:1001F800031D05295A30031794009101910A023012
:1002080040290317910A1108083A031DBA294229FF
:10021800910A1103143E8400831703134E088000CB
:1002280003171108043A031DBA290A128A150A206D
:100238000A128A1103179200120F23294229033048
:100248004029910A1103143E8400831703134E08B2
:100258008000031712081102031CBA29031318128D
:1002680083168C128312031791010A168A1102262B
:100278000A128A11043003179000BA290A168A1143
:1002880002260A128A11031791019001BA2903174D
:1002980010080319E228013A0319F928033A031947
:1002A8000C29013A03192529073A0319BA294229C1
:1002B80083160C1EBA2983120C1EBA29A729553099
:1002C800031399000317910A11080A3A031DB82964
:1002D80091019001900AB829FF3003139900031780
:1002E800910A1108023A031DB8290A128A150A2030
:1002F8000A128A110317920091010330A529910A65
:100308001103143E84008317000803139900031790
:1003180012081102031CB82991010530A5295C3087
:10032800031399000317910A1103031DB829063016
:10033800A5298316031398120C128312031791012F
:1003480007309000B829831203171008031963298E
:10035800013A03197029023A03198329063A031945
:100368009329033A03199D2903130C1283120313CB
:100378000C1CF82983160C1CF8298312B40A0319DB
:10038800B50A0619A50AF03022020318F729103019
:100398008A002208F4000310F40D0310F40D031072
:1003A800740DF4002308F5000310F50C0310F50C88
:1003B8000310750C0739740700200A128A11F4001B
:1003C8000130F50023080739F600F60AED29031075
:1003D800F50DF60BEB29750874050319F529871037
:1003E800F6298714A30A0C10031383125A08F40081
:1003F8005B08FE005C08FF005808F5005908F60085
:100408005D08F7006108F8006208F9006008FA0062
:100418005F08FB005E08FC006308FD005408D60076
:100428005508D7005208840053088A0051088300F1
:10043800F30E730E0900203084004F303E22023044
:10044800D7006630D6004F30840051304322A030A8
:100458008400EA303E228317103084005E303E224A
:1004680090308400B1303E220A128A15BE2D04064F
:100478008001840A0406031D3B2A64000034F4004A
:100488000A128A1153220A128A118000840A040867
:10049800740603190034442A83120313D600D71BA9
:1004A8005E2A571B662A57088A005608D60A031977
:1004B800D70A82008313571883175608D60A840070
:1004C80000080800003400340310FF30F407F40972
:1004D800031CF507F509031CF607F609031CF707C3
:1004E800F709080084017408FC007508FD00760807
:1004F800FE007708FF00F601F701F401F50103108B
:10050800FF0CFE0CFD0CFC0C031C982A7808F40761
:1005180079080318790FF5077A0803187A0FF60790
:100528007B0803187B0FF7077C087D047E047F0493
:100538000319A42A0310F80DF90DFA0DFB0D832AEF
:100548008408031900347708800084037608800043
:100558008403750880008403740880000034FA015D
:10056800F51FBD2AF409F40A0319F503F5097A17EA
:10057800FA1777088039FA06F71FC92AF609F60A22
:100588000319F703F709C92AFA01F801F9017608EE
:100598007704031DD22AF401F50100341F30FA0450
:1005A8000310FA0AF60DF70D031CD52AF70CF60C02
:1005B80077087502031DE22A76087402031CEA2AEA
:1005C8007608F4027708031C770AF502F80DF90D8E
:1005D800FA0BFA1ADA2AFA1FF62AF809F80A03199E
:1005E800F903F9097808F6007908F7007A1F00344A
:1005F800F409F40A0319F503F5090034FC01750D33
:10060800760DFA007A0803190D2BFC0DF601F51783
:100618000800F401F501F6010034FC10780D790D9D
:10062800FB007B0803191D2B0318FC14F901F817AC
:100638000800FB01F701F801F90108007A0803191D
:100648000D2BF513FC0C7A0CF6000318F517D82BB4
:10065800FA08031D402BF401F501F601D82B7603A7
:100668000319F40A0319F50A0319F60A0310F60C1C
:10067800F50CF40CFA0A2C2BF608031D332B74081E
:10068800750403192F2BF51B222BFA0303192F2BA3
:100698000310F40DF50D472B7A087B02031C5F2B22
:1006A800031908000310F60CF50CF40CFA0A7A0882
:1006B8007B02542B0310F90CF80CF70CFB0A7A0890
:1006C8007B06031908005E2B8030F906840102239B
:1006D800112350237C1C782BF409F509F609F40A38
:1006E8000319F50A0319F60AFC1C822BF709F80905
:1006F800F909F70A0319F80A0319F90A7708F40738
:1007080078080318780FF50779080318790FF607A2
:10071800FC01F61F2C2BF409F509F609F40A031954
:10072800F50A0319F60A7C142C2B84010223F7011D
:100738008230FA07FA1B0D2BF030FA07FA1BB52B9B
:1007480018307A0203180D2BFA08031DAE2B7C18FB
:1007580068220800FA030310F40DF50DF60DF70DE5
:10076800A82B0310F60CF50CF40CFA0FB52BAB2BD9
:10077800F71FC12B7C146822C22BFC018E30FA00B3
:100788008401F70803192C2B0310F70CF60CF50C51
:10079800F40CFA0AC52BF601F51BF6037608F700E8
:1007A800BC2BF601F701C12B840803190034760825
:1007B8008000840375088000840374088000003476
:1007C80083012A080317970003132B0803179800BF
:1007D80003132C080317990003132D0803179A0015
:1007E80003132208F03A0319241DFC2BF130FD2BCA
:1007F800220803179B0002300A168A1122260A12C1
:100808008A1103179C008316100883129D007D30FF
:100818009E000313080083120317951F212C003034
:100828000A128A1544200A128A1100380319BB2FAC
:10083800181683168C160130DE2F0313DA2F190EC3
:10084800F400F40C740C0339033A0319CF2F190C74
:10085800F400F40C740C07390319422C0313241AFE
:10086800422C03132416031717080739F4007407DA
:10087800913E840083178001840A800103171708BA
:100888000739F4007407913E8400831716080006A0
:10089800031D512C1708840A00060319CF2F1908C5
:1008A8000739F4000130F600F701F40A5E2C031052
:1008B800F60DF70DF40B5B2CFF30F607031CF7075A
:1008C80003132D08F605F701031718087F39F400FC
:1008D800F50177087506031D732C76087406031D49
:1008E800CF2F17080739F4007407A13E8400831737
:1008F80016088000840A17088000A32CF13003131F
:1009080022020318B12C0630A20040303407A6009A
:100918000130031802309D2C053003132202031CFA
:10092800B12C0530A20093303407A6000330031819
:1009380004303507A700A12C0313A415B12C190CFA
:10094800F500F50C750C0739013A0319822C033AA6
:100958000319902C013A0319A02C0A168A111027A2
:100968000A128A110130F600031715080739F70033
:10097800F70AC02C0310F60DF70BBE2C7608F6000C
:10098800760374050A168A11A8270A128A112A08FA
:100998000317960003132B080317970003132C085B
:1009A8000317980003132D080317990095010313E3
:1009B800A41DE02C0317151403133508F50034089B
:1009C800F4000A128A11D523A930F7002B30F80059
:1009D8004530F9000A128A116A230A128A119923EA
:1009E8000A128A117408B1007508B2000330A40411
:1009F800CF2F03132D0803171906031D132D0313F7
:100A08002C0803171806031D132D03132B080317AF
:100A18001706031D132D03132A0803171606031DB3
:100A2800CF2F0313BF013F083F07A13E8400831760
:100A38000008C000840A0008C10040040319322DD0
:100A48004008BD004108BE003F083F07913E8400B2
:100A580083173D088000840A3E088000BF0A0830DA
:100A68003F02031C172D3D08F500F4017408C2006D
:100A78007508C3003E08F400F5014208F404430871
:100A8800F504FF307405BD000F307505BE0003176F
:100A980015080739013A031D602D03132208F03A9F
:100AA800031D602D0630A20040303407A600013037
:100AB800031802303507A700003003133E02053043
:100AC80003193D02031C762D00303E02083003193D
:100AD8003D02031C852D00303E020D3003193D02F6
:100AE8000318852D3508F5003408F4000A128A1118
:100AF800D5230A128A11A930F7002B30F8004630A6
:100B0800912D3508F5003408F4000A128A11D5230E
:100B1800A930F7002B30F8004530F9000A128A1185
:100B28006A230A128A1199230A128A117408B100D9
:100B38007508B200A414A411CF2F03132D080317AE
:100B48001B06031DB72D03132C0803171A06031DD4
:100B5800B72D03132B0803171906031DB72D03130D
:100B68002A0803171806031DCF2F03132A08031793
:100B7800960003132B080317970003132C08031779
:100B8800980003132D080317990003133508F5007F
:100B98003408F4000A128A11D523A930F7002B3043
:100BA800F8004530F9000A128A116A230A128A11DC
:100BB80099230A128A117408B1007508B200FD2D34
:100BC80021300313A4040B2E0A128A1523250A12B6
:100BD8008A110A2E2208F03A031D0A2E0630A200B6
:100BE80040303407A6000130031802303507A7004B
:100BF8000A2E031715080739013A0319E42D043A98
:100C08000319E82D023A03130319EE2D24141030AA
:100C180003179500CF2F1608831603132506831292
:100C2800031D1E2E031717088316031324068312A9
:100C38000319D02F2208023A031D252EF030A200F6
:100C480087102208083A0319CF2F7A30C6000330DC
:100C5800C7000A168A1156270A300A128A1566250D
:100C68000A128A11CF2F1A0803132B06031DCF2F40
:100C78000317190803132C06031DCF2F0317180891
:100C880003132D06031DCF2F7830C6000530C7008B
:100C98000A168A1156270A128A1103179608031D85
:100CA8006A2E17080313A100A1080319662E08303D
:100CB800A20093303407A600033003180430350728
:100CC800A700842EF030A2008710842E0313220878
:100CD800023A0319792E0230A200BA303407A6006E
:100CE8000A3003180B303507A700031717088316B7
:100CF8000313A40083120317160883160313A50011
:100D08000A128A1523250A128A11CF2F17085A3A70
:100D1800031D942E0A168A11D9250A128A11CF2F7B
:100D28000A128A15E2230A128A11CF2F13300313ED
:100D3800C6000130C7000A168A115627133003135C
:100D4800C6000130C7000A168A1156270A128A11EE
:100D580003132208083A0319CF2F05300A128A15FF
:100D680066250A128A11CF2F1A0803132B06031DB2
:100D7800CF2F0317190803132C06031DCF2F0317B2
:100D8800180803132D06031DCF2FCE30C6000430DC
:100D9800C7000A168A115627031717080A128A1558
:100DA80086250A128A11CF2F0A128A1523250A12BC
:100DB8008A11CF2F1508073903190F2E013A031985
:100DC800372E033A0319A22E013A0319AC2E073A1B
:100DD8000319B82E013A03198A2E033A03199A2ED9
:100DE800013A0319D82ECF2F173084008317031325
:100DF8002F080006031D032F3008840A0006031974
:100E08000E2F031717080313AF000317180803134F
:100E1800B000AE0107302E020318CF2FAE0A0A1613
:100E28008A11102774080A168A11A8270A128A112B
:100E3800352F03132D0803171A06031D332F031329
:100E48002C0803171906031D332F03132B08031748
:100E58001806031D332F03132A0803171706031D4B
:100E6800CF2FE4230A128A112414CF2F03132D083D
:100E780003171A06031D502F03132C08031719060E
:100E8800031D502F03132B0803171806031D502F9B
:100E980003132A0803171706031DCF2F8B13831676
:100EA8008C18532F83128D0101308C0083168C13FC
:100EB80003108B1B03148B130C1555308D00AA30AF
:100EC8008D008C140C1103188B17831205146B2FCB
:100ED80003132D0803171A06031D822F03132C086A
:100EE80003171906031D822F03132B08031718066F
:100EF800031D822F03132A08031717060319942FBB
:100F0800CF2F03132208F23A031D8C2FF030A200D2
:100F18008710922FF2300313A20087142414A42FF1
:100F28001C08F7001B08F600A02F76080319852F68
:100F3800013A03198E2FA42F7708803A0319992FA5
:100F48000313241CCF2F03179601960AE4230A12D1
:100F58008A11CF2F16080319F82E013A03191D2FED
:100F6800033A03193A2F073A03196C2FCF2F0317A7
:100F7800150CF500F50C750C0F390319232C013AE3
:100F88000319FD2C033A0319A12D063A0319DE2E85
:100F98000B3A0319AE2F83120313241CDA2F0A16F7
:100FA8008A116C260A128A112410DD2F181683164E
:100FB8008C160030831208008301BE0083160317C5
:100FC8008C18E22F831203133E0803178D000313B6
:100FD8003D0803178C0083168C1303108B1B031416
:100FE8008B130C1555308D00AA308D008C140C1104
:100FF80003188B1783010800831203179008031D39
:10100800072800300828013003130800831203174B
:10101800150CF400F40C740C0F39F400053074024C
:101028000318282810308A00150D150D0139F40011
:10103800150CF500F50C750C0F39F50075077407DC
:1010480063200A128A154228150CF400F40C740C5B
:101058000F390F3A031D412806301602031841289C
:1010680010308A00150D150D0139F4001608160701
:10107800740749200A128A154228FF300313080012
:101088008301C400FF30C800C9000A208313C700C9
:10109800470F4F28FF34FE30C707C60147084602EE
:1010A800031877284608143E840083170008C806EA
:1010B800C501481C6D284908F5004808F4000310CC
:1010C800F50CF40C01307406C800A0307506C90090
:1010D80070280310C90CC80CC50A08304502031C47
:1010E8005D28C60A5228C408031987284708143EF1
:1010F80084008317490880004708153E8400831739
:101108004808800000344708143E8400831700080C
:10111800F500F4014708153E840083170008F4041D
:1011280049087506031D9A284808740603190034EF
:10113800FF34D22930303002031CCE298312BD017E
:101148008316B901B401B5010F2983123D08F400D3
:101158000310F40D0310740D0C3EAF3E840083138E
:101168000008F7003D08F4000310F40D0310740D97
:101178000B3EAF3E840083130008F6003D08F400E0
:101188000310F40D0310740D0D3EAF3E840083135D
:101198000008F5003D08F4000310F40D0310740D69
:1011A8000E3EAF3E84008313000875077607770765
:1011B8008316B8000310B80C0310B80C0310B80C51
:1011C80010308A0083123D0856200A128A1500380A
:1011D80003190129053083163802031C06290A3031
:1011E800F400F5013808F402031CF5037408B40789
:1011F8000318B50A7508B5070D2908308316380293
:10120800031C0929B901B90A0D293808B4070318BC
:10121800B50A8312BD0A0C3083123D0283160318E7
:101228001829B9080319A928360A0319370A03190E
:101238003029B908031D282935083702031D262936
:101248003408360203183329AF01AF0AB001B00AD7
:10125800FF30B600B700E029B908031DE0293408BB
:10126800B6003508B700E029A60130080F390F3A53
:10127800031DCE298312BD013D08F4000310F40DAF
:101288000310740D303CB73E840083130008F70048
:101298003D08F4000310F40D0310740D303CB93E02
:1012A800840083130008F6003D08F4000310F40DD1
:1012B8000310740D303CB83E840083130008F50019
:1012C8003D08F4000310F40D0310740D303CB63ED5
:1012D8008400831300087507760777078316B8001C
:1012E8000310B80C0310B80C0310B80C0310A60DAB
:1012F80006303802031826148312BD0A04303D0252
:10130800031C402909308316260203189C29103033
:101318008A0026086E200A128A15F400740AB100A1
:10132800A730B200B301B30A0230AF00B001CE2932
:10133800AF01B001E02930080339033A031DCE2973
:101348006608670769076807B8000310B80C031038
:10135800B80C0310B80C0630380232088400831326
:10136800031CB92933088004BB2933098005803060
:1013780033020318C2290310B30DCE29B301B30AEF
:10138800B20AB10BCE298C108312121103308316C6
:10139800AF00D029B00AE0290130F42983160313DD
:1013A8002F0803199E28013A03193829033A03190B
:1013B8009F29013A0319D0298312BD013D08BB3E7C
:1013C800840083130008F4003D08BA3E84008313A8
:1013D80074088000BD0A2F303D02031CE22900304A
:1013E800831208008301BD000310BD0D8B13071085
:1013F8003D0893008316141CFE29871683120714D0
:1014080093018316141C052A871283121308BD0042
:101418008B1708008301C6000310C60D46148B13F2
:101428000710460893008316141C172A8312071402
:10143800450893008316141C1E2A8B178312080074
:101448003A308301C50000300E220A30C600C701B9
:101458000A168A1156270A128A153B30C500003031
:101468000E220A30C600C7010A168A1156270A1228
:101478008A155830C50001300E222030C5000230D0
:101488000E22C50103300E220130F621583A031D01
:1014980001340230F621203A031D01340330F621CD
:1014A8000038031D01344230C50004300E221430C8
:1014B800C50005300E229C30C50006300E220430CF
:1014C800F621423A031D01340530F621143A031D72
:1014D80001340630F6219C3A031D01340230C50060
:1014E80007300E228030C50008300E221230C500A9
:1014F8000A300E22C5010B300E2210308A0002304D
:101508007820C5000C300A128A150E221030C5004A
:101518000D300E222630C5000E300E229C30C5003C
:101528000F300E226B30C50010300E225B30C50024
:1015380011300E227030C50012300E22C501C50AC6
:1015480013300E22C5011C300E221030C500403069
:101558000E220830C50041300E223F30C50042300F
:101568000E220430C50043300E22C50144300E223D
:10157800C50145300E22C50146300E220A168A11D1
:1015880079200A128A15C50000300E2210308A0010
:1015980001307820C50009300A128A150E22103051
:1015A8008A0002307820C5000C300A128A150E22F3
:1015B800A630C5000E300E220E30F621F400F41DC0
:1015C800E02A2630C5000E300E2210308A00043082
:1015D8007820C50000300A128A150E2210308A00C1
:1015E80005307820C50009300A128A150E221030FD
:1015F8008A0006307820C5000C300A128A150E229F
:10160800A630C5000E300E220E30F621F400F41D6F
:10161800082B2630C5000E300E223F30C5000030A2
:101628000E225530C5000B300E220B30F621553AEC
:10163800031D0134AA30C5000B300E220B30F621F1
:10164800AA3A031D0234C5010B300E227B30C500B7
:1016580000300E220230C600C7010A168A1156272A
:101668000A128A157930C50000300E220A168A112E
:10167800DF250A128A1500348301C4006400CF00F4
:1016880010308A004408F4000310F40D0310740DA0
:101698007820C50000300A128A150E2210308A0000
:1016A8004408F4000310F40D0310740DF400740AD8
:1016B8007820C50009300A128A150E2210308A00D7
:1016C8004408F4000310F40D0310740D023E782052
:1016D800C5000C300A128A150E22C408031D772B88
:1016E800C5010B300E220A168A11DF250A128A1547
:1016F800440B003410308A004408F4000310F40D41
:101708000310740D033E7820C5000B300A128A15A9
:101718000E220A168A11D3250A128A150034831656
:1017280003138C108312121191012030920037306C
:10173800831692001C308312950097018316A1012D
:101748000230A000831203170510C5308316031357
:10175800810064008312031705140B11FF30031373
:1017680081008B16121508008301CD00CC010310EF
:10177800CD1FC52BCD0DCB1FC22B4D148530CD06EB
:10178800C82BCD0DCB1B4D140310CB0DCC0A083044
:101798004C02031CBC2B4D0808008301CA00DD2B3A
:1017A800CA0A4A03840083130008CB004808B823F8
:1017B800C800C903490FD42B48080800093083160C
:1017C8000313A600B101B001A001AF018312D0013B
:1017D800FF308316B600B700831203170510683070
:1017E800831603138100640083120317051403137F
:1017F800810121309200F930831692008312910101
:1018080012158C1083168C14831208000930831665
:1018180003132602031C122CE2230134260EF0398E
:101828008312CB00F530B823BD00C80010308A0001
:10183800831626086E20003E8312C900A7300A12BC
:101848008A15D123BD00CB01B823BD0010308A0012
:10185800831626086E200A128A15A73E8400831371
:10186800000883123D060319072DE22302342708D6
:101878002506031D432C280824060319212D83124D
:101888002208023A031D4C2CF030A2008710522C7B
:101898002208083A031D522CE22300347A30C6008D
:1018A8000330C7000A168A1156270A128A150A3009
:1018B80066250A128A150034290883122B06031D8F
:1018C800212D8316280883122C06031D212D83162B
:1018D800270883122D06031D212D7830C6000530F8
:1018E800C7000A168A1156270A128A152208023AD0
:1018F8000319882C0230A200BA303407A6000A3037
:1019080003180B303507A70083162B08A4002A08F4
:10191800A50023250A128A15003413308312C60045
:101928000130C7000A168A11562713308312C600E1
:101938000130C7000A168A1156270A128A1583121F
:101948002208083A031DAA2CE22300340530662534
:101958000A128A150034290883122B06031D212D2B
:101968008316280883122C06031D212D83162708A9
:1019780083122D06031D212DCE30C6000430C7006A
:101988000A168A1156270A128A1583162A088625E6
:10199800E223003423250A128A1500342908831209
:1019A8002B06031D212D8316280883122C06031DE0
:1019B800212D8316270883122D06031D212D78302B
:1019C800C6000530C7000A168A1156270A128A155A
:1019D80083162A088312A100A1080319FE2C0830D7
:1019E800A20093303407A6000330031804303507EB
:1019F800A700012DF030A200871023250A128A15AE
:101A08000034E22303348316260803193B2C013AD9
:101A18000319602C033A0319992C013A0319A32CD2
:101A2800073A0319AF2C023A0319912C013A03190A
:101A3800CE2C0F3A0319D22C052DE223003483163D
:101A48000313A60183122D088316A70083122C08FE
:101A58008316A80083122B088316A900AA012A0856
:101A6800F0390138AA0083122208023A003003191B
:101A78000130F400F40CF40C83162A0874067F393C
:101A88007406AA0028308312C8000430C900A730A1
:101A9800D123C700CB01B823C700A53A031D612D88
:101AA8008316AA1628308312C8000430C900A7304C
:101AB800D123C700CB01B823C70047088316AB0062
:101AC800932308008301C4000A168A1110274408CA
:101AD800F600F7010A128A11B3220A128A1574084D
:101AE800C5007F2D2230C6000130C7000A168A11B2
:101AF80056270A128A15C503450F762D23250A1283
:101B08008A1508008301C4000310C40DBA2D3508D6
:101B1800F5003408F4000A128A11D5231230F700B0
:101B28000230F8004130F9000A128A116A230A12B9
:101B38008A1199230A128A157408C5007508C60007
:101B480023250A128A158316A008031DA72D8312C0
:101B58004508C7004608C8000A168A114C260A120A
:101B68008A15F400F50175040319AB2DC403440F5D
:101B78008B2D08000330831603138E04163083124E
:101B880003178500640005140A168A11C9260A126B
:101B98008A151430AA00FD3003178D001F308F00FE
:101BA80083160C118C170C148310831083120E08E3
:101BB8000C080313AB00FE3003178D001F308F0095
:101BC80083160C118C170C148310831083120E08C3
:101BD8000C080313AC00FF3003178D001F308F0073
:101BE80083160C118C170C148310831083120E08A3
:101BF8000C080313AD0006300A168A1122260A12B1
:101C08008A15A000A0080319122E00000000000089
:101C18000000BD0106300A128A11E027A4018710CE
:101C28002C08BB00BC01BC00BB012D08BB043B0851
:101C3800C6003C08C7000A168A110627C0308B0068
:101C480003300A168A1122260A128A1583160317E8
:101C58009000100F302E342E10081F3A031D402E0E
:101C68000000000000002130900083120313BD0023
:101C780003300A128A11E02704300A168A11222634
:101C88000A128A15A0007D3A0319542E000000009C
:101C9800000000007D30BD0004300A128A11E027E0
:101CA80008300A168A1122260A128A15A0007A3AE2
:101CB800031D6B2EBD0108300A128A11E0270A1293
:101CC8008A15F030A200243083168604CD2E003009
:101CD8000A168A11F3253230C600C7010A168A117E
:101CE8005627AA300A168A11F3253230C600C701D2
:101CF8000A168A1156272B082D072C070A168A114F
:101D0800F3253230C600C7010A168A1156272B0858
:101D18000A168A11F3253230C600C7010A168A113D
:101D280056272C080A168A11F3253230C600C70137
:101D38000A168A1156272D080A168A11F3250A3021
:101D4800C600C7010A168A115627831606153230AF
:101D58008312C600C7010A168A1156270A128A1565
:101D6800061DC12E5E30C6000130C7000A168A1152
:101D780056270A128A15061DCB2EA20100303407F9
:101D8800A6007D3003187E303507A700CD2EF03031
:101D9800A2000A168A1191260A128A150038031918
:101DA800DE2EA20100303407A6007D3003187E30F5
:101DB8003507A70083160C1483123508F50034087C
:101DC800F4000A128A11D523E230F700E430F80053
:101DD8004430F9000A128A116A230A128A119923D7
:101DE8007408A8007508A9000A128A15E2230A12C5
:101DF8008A150614A508031D0619222F053022028C
:101E0800031C212F0830250205300318152F250241
:101E1800031C102F0630152F02302502031C172F24
:101E28000730A200182FA20140303407A600013065
:101E3800031802303507A700A415A5015008031997
:101E48003B2F500B362FD0010A128A159D200A12FB
:101E58008A15013A031D3B2F0A128A150A240A1211
:101E68008A153B2F0A128A15E2230A128A150317CC
:101E78001008043A031D4D2F0A128A110F240A1262
:101E88008A1500380317031D5C2F930F5B2F930AE5
:101E98005B2F1008073A031D5D2F00300A128A15C0
:101EA80040230A128A15181683168C1683120317F4
:101EB80090010313330834060319FE2E6400340816
:101EC800B300A4189A2F2808C7002908C8000A16C2
:101ED8008A114C260A128A15F400F50175040319B3
:101EE800C62F3508F5003408F4000A128A11D523E4
:101EF800E230F700E430F8004430F9000A128A11A1
:101F08006A230A128A1199230A128A157408A800EA
:101F18007508A900031793080319942F9301C62F76
:101F28000A168A1191260A128A15C62F3108C70087
:101F38003208C8000A168A114C260A128A15F400BB
:101F4800F50175040319C62FCD30A405BB01F401B2
:101F5800F5013B083B07A13E840083177408800005
:101F6800840A750880003B083B07913E840083176C
:101F780074088000840A75088000BB0A08303B0298
:101F8800031CAB2FF030031322020318FE2E0A3075
:101F98002202031CD12FF030A2002608C700270810
:101FA800C8000A168A114C260A128A15F400F5018F
:101FB80075040319FE2EA3012208023A031DE92F16
:101FC8008316A501F0308312FD2F2208083A031D5D
:101FD800FC2FA1080319FE2FA10BF32FFC2F933020
:101FE8003407A6000330031804303507A700FE2F76
:101FF800F030A2008710FE2E8207CC34CC34CC34CB
:10200800CC34CC34CC34CC34CC34FF340034FF342E
:102018000034FF340034FF340034FF34FF34FF341D
:10202800FF34FF34FF34FF34FF34FF34FF34FF3410
:10203800FF34FF34FF34FF34FF34FD34FF34FF3402
:10204800FF34FF34FF34FF34FF34EE34EE34AA3467
:10205800AA34FF34FF34FF34FF34CC34FC34FF346B
:10206800FF34FF34FF34FF34FF34CC34CC34CC3469
:10207800FF34FF34FF34FF34FF34FF34FF34FF34C0
:10208800FF34FF34FF34FF34FF3482070D34083443
:102098000D340934FF340934FF34FF34FF34FF347E
:1020A800FF340B3482070134003401340034003427
:1020B800013400340134013400340134003482071F
:1020C80008340834FF34083408340A34FF34FF3441
:1020D800FF340934820702340534003400340434F0
:1020E800003400340034043482071134443460343A
:1020F8000034E134813448340F3482070134003429
:0C21080001340034003401340034013490
:102BA00083014F0808000D308301C500C50BD62DE9
:102BB0000800831603138C108312121108007D3055
:102BC0008301C500C503450FE22D080083160313DA
:102BD000AF08031DF02DA008031DF02D0030F12DCE
:102BE0000130831208008301BD008B130611000021
:102BF0003D0893008316141CFA2D0000831206155D
:102C00008B17080083010710213093008316141CD2
:102C1000062E831207146B3093008316141C0D2E9E
:102C20008312080083010710213093008316141CBF
:102C3000162E831207147B3093008316141C1D2E4E
:102C4000831208008301C400831603178C18242EF6
:102C500083120313440803178D0083168C130C147E
:102C600083120C08031308008301BB009F01831625
:102C70009F01831281389F00BC010A303C02031877
:102C8000462EBC0A0A303C02031C412E9F14000051
:102C90009F18482E1E0808008B1383120313480840
:102CA0003502031D552E47083402031C6A2E3508D1
:102CB000F5003408F4004708F402031CF503480843
:102CC000F502803075020030031974028B17031C63
:102CD000013400348B1700348312031790019101E3
:102CE00001300A128A1540230A168A110038031986
:102CF000822EA20100303407A6007D3003187E30FA
:102D00003507A7005A3003179400951301300A12B3
:102D10008A1544200A168A11831698160C168312F7
:102D200008008301181283168C1298120C12831259
:102D300003179001910103133508F5003408F400DE
:102D40000A128A11D523A930F7002B30F80045303C
:102D5000F9000A128A116A230A128A119923740847
:102D6000B1007508B2000A128A1524220A168A11C7
:102D700000380319BD2E0130C72E00300A128A1503
:102D800040230A168A11181683168C1600308312F7
:102D900008006030831603138100243095008312ED
:102DA00086003A308316860008308312850003308F
:102DB0008316850041308312870090308316870088
:102DC0000330031788000A3089008130831203130F
:102DD0009F0083169F01113083129000E930831603
:102DE0009700831203178916A53087004030831699
:102DF000031394003130831294000C308316990031
:102E0000043098008030831298000800830146083F
:102E1000B7004708B800B901BA01B601B60A080000
:102E20008301B608031D182FC601C60AC70106276D
:102E30006D30F8004E30F900C630FA004130FB002A
:102E40003708F4003808F5003908F6003A08F700AA
:102E50000A128A1176220A168A113930F8003030A7
:102E6000F900FA01FB0178087407FC007508FD0001
:102E700079080318790FFD077608FE007A08031811
:102E80007A0FFE077708FF007B0803187B0FFF0708
:102E90007C08B7007D08B8007E08B9007F08BA003A
:102EA000F5003908F4007F30F50508009C2F0F0865
:102EB000CB000E08CA004B080F06031D572F6400F5
:102EC000C6304A07C8000330031804304B07C90056
:102ED00049084B02031D6E2F48084A02031C822F2B
:102EE0004B08F5004A08F4004808F402031CF503F7
:102EF0004908F50280307502003003197402031C82
:102F00009C2F932F4908F5004808F4004A08F40262
:102F1000031CF5034B08F5028030750201300319DC
:102F2000740203189C2F0F08CB000E08CA004B0830
:102F30000F060319682F932F8312031346080319F2
:102F4000C703C603460A0319470A03190800572F87
:102F50008301C400FA2F0F08C700C801F500F4016F
:102F60000E087404C7007508C8000F06031DAB2FB8
:102F70005A304707C5001530031816304807C600F9
:102F8000640046084802031DC72F45084702031C7A
:102F9000DB2F4808F5004708F4004508F402031C3D
:102FA000F5034608F50280307502003003197402FB
:102FB000031CFA2FEC2F4608F5004508F4004708DB
:102FC000F402031CF5034808F50280307502013055
:102FD000031974020318FA2F0F08C700C801F5007F
:102FE000F4010E087404C7007508C8000F06031921
:102FF000C12FEC2F83120313C403440FAB2F08001F
:04400E00C123FF3E8D
:00000001FF
