:0600000001308A00CC294A
:10000800F30003088301D0000408D1000A08D200D5
:100018008A017408E0007E08D8007F08D9007508B6
:10002800DE007608DD007708D7007808DB0079085D
:10003800DC007A08E1007B08E2007C08DA007D0831
:10004800DF005508D3005608D4008B1A0B1D6D2805
:100058005D3083120313810761280C3083129704E3
:1000680064006C282208A73E840083130008230537
:10007800031942280C30831297044628831207116B
:10008800F330970580308316230203184E28031097
:10009800A30D6C28A301A30AA20AA10B6C280530A2
:1000A800A0006C28F3308312970507118B12831672
:1000B800A00102308312CF006C2883162008023A70
:1000C80003193128063A03193628013A0319562824
:1000D8000B11831603138C1E0B2983128C1E0B29FC
:1000E80083121A08CD0018197B28981CFA28981C26
:1000F8008028181200001816023003171002031C7B
:1001080069290A128A11EF270A128A110317910125
:100118001008043A03196929F82803134D08553AB9
:100128000317031DA628910A1108043A031D69291B
:100138000A128A15BE210A128A1103179101900129
:10014800900A69299101692903134D085A3A031D38
:10015800B4285A30031794009101910A0230EF280D
:100168000317910A1108083A031D6929F128910A11
:100178001103143E8400831703134D0880000317EE
:100188001108043A031D69290A128A1563230A1201
:100198008A1103179200120FD228F1280330EF2892
:1001A800910A1103143E8400831703134D0880003D
:1001B800031712081102031C692903131812831666
:1001C8008C128312031791010A128A11EF270A125F
:1001D8008A1104300317900069290A128A11EF273F
:1001E8000A128A110317910190016929031710084F
:1001F80003199128013A0319A828033A0319BB28BF
:10020800013A0319D428073A03196929F1288316F2
:100218000C1E692983120C1E6929562955300313AF
:1002280099000317910A11080A3A031D67299101D9
:100238009001900A6729FF30031399000317910A68
:100248001108023A031D67290A128A1563230A1244
:100258008A1103179200910103305429910A11035E
:10026800143E84008317000803139900031712082B
:100278001102031C67299101053054295C300313CE
:1002880099000317910A1103031D672906305429A1
:100298008316031398120C12831203179101073067
:1002A8009000672983120317100803191229013ACD
:1002B80003191F29023A03193229063A0319422958
:1002C800033A03194C2903130C12831203130C1C51
:1002D800A52983160C1CA5298312B30A0319B40A8D
:1002E800F03022020318A42908308A002208F400FA
:1002F8000310F40D0310F40D0310740DF40023081B
:10030800F5000310F50C0310F50C0310750C0739F4
:10031800740700200A128A11F4000130F50023083E
:100328000739F600F60A9A290310F50DF60B9829F5
:10033800750874050319A2298714A3298710A30A2D
:100348000C10031383126008F4005808FE005908C3
:10035800FF005E08F5005D08F6005708F7005B0827
:10036800F8005C08F9006108FA006208FB005A0806
:10037800FC005F08FD005308D5005408D60051085A
:10038800840052088A0050088300F30E730E090097
:10039800203084004E30EB210230D6001330D500D7
:1003A8004E3084005030F021A0308400AF30EB2173
:1003B8008317103084005E30EB2190308400B13018
:1003C800EB210A128A15E02C04068001840A04062F
:1003D800031DE82964000034F4000A128A1100227F
:1003E8000A128A118000840A04087406031900346A
:1003F800F12983120313D500D61B0B2A561B132A87
:1004080056088A005508D50A0319D60A82008313AC
:10041800561883175508D50A8400000808000034C8
:1004280000340310FF30F407F409031CF507F5093D
:10043800031CF607F609031CF707F70908008401EF
:100448007408FC007508FD007608FE007708FF00B8
:10045800F601F701F401F5010310FF0CFE0CFD0C89
:10046800FC0C031C452A7808F40779080318790F4F
:10047800F5077A0803187A0FF6077B0803187B0F2D
:10048800F7077C087D047E047F040319512A0310B2
:10049800F80DF90DFA0DFB0D302A84080319003404
:1004A800770880008403760880008403750880003C
:1004B8008403740880000034FA01F51F6A2AF409DD
:1004C800F40A0319F503F5097A17FA17770880393A
:1004D800FA06F71F762AF609F60A0319F703F70949
:1004E800762AFA01F801F90176087704031D7F2AB4
:1004F800F401F50100341F30FA040310FA0AF60D6E
:10050800F70D031C822AF70CF60C77087502031DF9
:100518008F2A76087402031C972A7608F402770853
:10052800031C770AF502F80DF90DFA0BFA1A872A57
:10053800FA1FA32AF809F80A0319F903F909780830
:10054800F6007908F7007A1F0034F409F40A031951
:10055800F503F5090034FC01750D760DFA007A08EB
:100568000319BA2AFC0DF601F5170800F401F50184
:10057800F6010034FC10780D790DFB007B08031997
:10058800CA2A0318FC14F901F8170800FB01F7013F
:10059800F801F90108007A080319BA2AF513FC0CC6
:1005A8007A0CF6000318F517852BFA08031DED2AB7
:1005B800F401F501F601852B76030319F40A0319F2
:1005C800F50A0319F60A0310F60CF50CF40CFA0AEE
:1005D800D92AF608031DE02A740875040319DC2AD1
:1005E800F51BCF2AFA030319DC2A0310F40DF50DC5
:1005F800F42A7A087B02031C0C2B03190800031049
:10060800F60CF50CF40CFA0A7A087B02012B03109D
:10061800F90CF80CF70CFB0A7A087B06031908009A
:100628000B2B8030F9068401AF22BE22FD227C1CF0
:10063800252BF409F509F609F40A0319F50A031933
:10064800F60AFC1C2F2BF709F809F909F70A031910
:10065800F80A0319F90A7708F40778080318780FD5
:10066800F50779080318790FF607FC01F61FD92A50
:10067800F409F509F609F40A0319F50A0319F60A43
:100688007C14D92A8401AF22F7018230FA07FA1BB9
:10069800BA2AF030FA07FA1B622B18307A020318CC
:1006A800BA2AFA08031D5B2B7C1815220800FA03E6
:1006B8000310F40DF50DF60DF70D552B0310F60C80
:1006C800F50CF40CFA0F622B582BF71F6E2B7C14C9
:1006D80015226F2BFC018E30FA008401F7080319EC
:1006E800D92A0310F70CF60CF50CF40CFA0A722B45
:1006F800F601F51BF6037608F700692BF601F701FA
:100708006E2B84080319003476088000840375086A
:1007180080008403740880000034830129080317CB
:10072800970003132A080317980003132B080317CD
:10073800990003132C0803179A0003132208F03AB0
:100748000319241DA92BF130AA2B220803179B009B
:1007580002300A128A15CE210A128A1103179C0048
:100768008316100883129D007B309E000313080037
:1007780083120317951FCE2B00300A128A159D236A
:100788000A128A11003803194D2F181683168C1671
:100798000130702F03136C2F190CF400F40C740C37
:1007A80007390319E72B0313241AE72B031324161D
:1007B800031717080739F4007407913E840083175C
:1007C8008001840A8001031717080739F4007407A9
:1007D800913E8400831716080006031DF62B1708A0
:1007E800840A00060319612F19080739F40001303B
:1007F800F600F701F40A032C0310F60DF70DF40BBD
:10080800002CFF30F607031CF70703132C08F60526
:10081800F701031718087F39F400F5017708750602
:10082800031D182C76087406031D612F1708073955
:10083800F4007407A13E8400831716088000840A18
:1008480017088000482CF130031322020318562C95
:100858000630A20040303307A500013003180230EB
:10086800422C053003132202031C562C0530A2002B
:1008780093303307A5000330031804303407A6006B
:10088800462C0313A415562C190CF500F50C750C01
:100898000739013A0319272C033A0319352C013A71
:1008A8000319452C0A128A15CB220A128A11013023
:1008B800F600031715080739F700F70A652C031027
:1008C800F60DF70B632C7608F600760374050A120A
:1008D8008A1172270A128A1129080317960003132E
:1008E8002A080317970003132B080317980003130C
:1008F8002C080317990095010313A41D852C0317D1
:10090800151403133408F5003308F4000A128A1189
:100918008223A930F7002B30F8004530F9000A127D
:100928008A1117230A128A1146230A128A11740897
:10093800B0007508B1000330A404612F03132C081C
:1009480003171906031DB82C03132B0803171806E1
:10095800031DB82C03132A0803171706031DB82C08
:100968000313290803171606031D612F0313BE017D
:100978003E083E07A13E840083170008BF00840A92
:100988000008C0003F040319D72C3F08BC004008EA
:10099800BD003E083E07913E840083173C08800056
:1009A800840A3D088000BE0A08303E02031CBC2CA5
:1009B8003C08F500F4017408C1007508C2003D0840
:1009C800F400F5014108F4044208F504FF30740509
:1009D800BC000F307505BD00031715080739013A2B
:1009E800031D052D03132208F03A031D052D0630BB
:1009F800A20040303307A500013003180230340745
:100A0800A600003003133D02053003193C02031C05
:100A18001B2D00303D02083003193C02031C2A2D0F
:100A280000303D020D3003193C0203182A2D34080A
:100A3800F5003308F4000A128A1182230A128A1177
:100A4800A930F7002B30F8004630362D3408F50071
:100A58003308F4000A128A118223A930F7002B30D8
:100A6800F8004530F9000A128A1117230A128A1170
:100A780046230A128A117408B0007508B100A4143C
:100A8800A411612F03132C0803171B06031D5C2DEB
:100A980003132B0803171A06031D5C2D03132A08DA
:100AA80003171906031D5C2D0313290803171806DD
:100AB800031D612F031329080317960003132A083F
:100AC8000317970003132B080317980003132C0828
:100AD8000317990003133408F5003308F4000A12C9
:100AE8008A118223A930F7002B30F8004530F9002D
:100AF8000A128A1117230A128A1146230A128A1126
:100B08007408B0007508B100A22D21300313A404A5
:100B1800B02D0A128A1545240A128A11AF2D22080F
:100B2800F03A031DAF2D0630A20040303307A50070
:100B38000130031802303407A600AF2D031715083B
:100B48000739013A0319892D043A03198D2D023A00
:100B580003130319932D2414103003179500612FE4
:100B680016088316031325068312031DC32D0317C6
:100B7800170883160313240683120319622F220809
:100B8800023A031DCA2DF030A20087142208083A41
:100B98000319612F7A30C5000330C6000A128A157E
:100BA80011230A300A128A1588240A128A11612F21
:100BB8001A0803132A06031D612F031719080313C4
:100BC8002B06031D612F0317180803132C06031D9A
:100BD800612F7830C5000530C6000A128A15112326
:100BE8000A128A1103179608031D0F2E17080313FC
:100BF800A100A10803190B2E0830A2009330330777
:100C0800A5000330031804303407A600292EF0305D
:100C1800A2008714292E03132208023A03191E2E54
:100C28000230A200BA303307A5000A3003180B308F
:100C38003407A6000317170883160313A4008312AA
:100C48000317160883160313A5000A128A154524EC
:100C58000A128A11612F13300313C5000130C60030
:100C68000A128A15112313300313C5000130C60078
:100C78000A128A1511230A128A1103132208083A44
:100C88000319612F05300A128A1588240A128A115D
:100C9800612F1A0803132A06031D612F0317190869
:100CA80003132B06031D612F0317180803132C06C3
:100CB800031D612FCE30C5000430C6000A128A1504
:100CC8001123031717080A128A15A8240A128A1171
:100CD800612F0A128A1545240A128A11612F1508F4
:100CE80007390319B42D013A0319DC2D033A031906
:100CF800372E013A0319412E073A03194D2E023AAD
:100D080003192F2E013A03196D2E612F1730840015
:100D1800831703132E080006031D952E2F08840A37
:100D280000060319A02E031717080313AE000317B4
:100D380018080313AF00AD0107302D020318612F07
:100D4800AD0A0A128A15CB2274080A128A11722770
:100D58000A128A11C72E03132C0803171A06031D3B
:100D6800C52E03132B0803171906031DC52E0313DD
:100D78002A0803171806031DC52E0313290803178D
:100D88001706031D612F91230A128A112414612F5B
:100D980003132C0803171A06031DE22E03132B084E
:100DA80003171906031DE22E03132A080317180652
:100DB800031DE22E0313290803171706031D612FCD
:100DC8008B1383168C18E52E83128D0101308C004D
:100DD80083168C1303108B1B03148B130C155530BF
:100DE8008D00AA308D008C140C1103188B178312F8
:100DF8000514FD2E03132C0803171A06031D142FC0
:100E080003132B0803171906031D142F03132A08AD
:100E180003171806031D142F0313290803171706B1
:100E28000319262F612F03132208F23A031D1E2FE0
:100E3800F030A2008714242FF2300313A200871089
:100E48002414362F1C08F7001B08F600322F7608EA
:100E58000319172F013A0319202F362F7708803AE4
:100E680003192B2F0313241C612F03179601960ACD
:100E780091230A128A11612F160803198A2E013A42
:100E88000319AF2E033A0319CC2E073A0319FE2E85
:100E9800612F0317150CF500F50C750C0F390319A4
:100EA800D02B013A0319A22C033A0319462D063A0E
:100EB8000319732E0B3A0319402F83120313241CB2
:100EC8006C2F0A128A11CA270A128A1124106F2F4E
:100ED800181683168C160030831208008301C3008D
:100EE800C42F0F08C600C701F500F4010E087404EA
:100EF800C6007508C7000F06031D752F5A30460730
:100F0800C4001530031816304707C50064004508AB
:100F18004702031D912F44084602031CA52F4708CA
:100F2800F5004608F4004408F402031CF5034508DC
:100F3800F50280307502003003197402031CC42FB7
:100F4800B62F4508F5004408F4004608F402031CCF
:100F5800F5034708F5028030750201300319740261
:100F68000318C42F0F08C600C701F500F4010E08C6
:100F78007404C6007508C7000F0603198B2FB62F17
:100F880083120313C303430F752F0800831203173B
:100F98009001910101300A128A15AD270A128A11AF
:100FA80000380319E02FA20100303307A5007D3077
:100FB80003187E303407A6005A300317940095139F
:100FC80001300A128A159D230A128A11831698166F
:100FD8000C16831208008301071021309300831632
:100FE800141CF32F831207146B3093008316141C00
:060FF800FA2F831208002D
:101000008207CC34CC34CC34CC34CC34CC34CC3457
:10101000CC34FF340034FF340034FF340034FF3468
:101020000034FF34FF34FF34FF34FF34FF34FF3427
:10103000FF34FF34FF34FF34FF34FF34FF34FF3418
:10104000FF34FD34FF34FF34FF34FF34FF34FF340A
:10105000FF34EE34EE34AA34AA34FF34FF34FF34C4
:10106000FF34CC34FC34FF34FF34FF34FF34FF341E
:10107000FF34CC34CC34CC34FF34FF34FF34FF3471
:10108000FF34FF34FF34FF34FF34FF34FF34FF34C8
:10109000FF3482070D3408340D340934FF34093429
:1010A000FF34FF34FF34FF34FF340B348207013444
:1010B000003401340034003401340034013401348C
:1010C000003401340034820708340834FF34083413
:1010D00008340A34FF34FF34FF3409348207023401
:1010E0000534003400340434003400340034043453
:1010F00082070134003401340034003401340034F8
:10110000013482071134443460340034E1348134D2
:0411100048348034AB
:1013480083014E0808000D308301C400C40BAA298C
:1013580008007D308301C400C403440FB02908008D
:10136800831203179008031DBB290030BC290130E4
:101378000313080083010710213093008316141CFF
:10138800C229831207147B3093008316141CC929C1
:10139800831208008301C300831603178C18D02911
:1013A80083120313430803178D0083168C130C1440
:1013B80083120C080313080064000A128A154524D6
:1013C8000A128A158316A008031DE629D030831255
:1013D800C5000730C6000A128A1511230A128A1599
:1013E80008008301BA009F0183169F018312813888
:1013F8009F00BB010A303B020318072ABB0A0A30C8
:101408003B02031C022A9F1400009F18092A1E0889
:1014180008008B138312031347083402031D162A8E
:1014280046083302031C2B2A3408F5003308F4005D
:101438004608F402031CF5034708F50280307502DC
:101448000030031974028B17031C013400348B1706
:1014580000348301BD00831603178C182F2A8312CA
:1014680003133D0803178D0003133C0803178C0072
:1014780083168C1303108B1B03148B130C15553018
:101488008D00AA308D008C140C1103188B17830162
:1014980008008301181283168C1298120C128312FA
:1014A80003179001910103133408F5003308F40081
:1014B8000A128A118223A930F7002B30F800453030
:1014C800F9000A128A1117230A128A11462374088E
:1014D800B0007508B1000A128A1591260A128A15F9
:1014E80000380319792A0130832A00300A128A1534
:1014F800AD270A128A15181683168C160030831227
:10150800080060308316031381002430950083128D
:1015180086001A308316860008308312850003304F
:101528008316850041308312870090308316870028
:10153800031788010A3089008130831203139F0042
:1015480083169F01113083129000E93083169700AB
:10155800831203178916A5308700403083160313BA
:1015680094003130831294000C30831699000430B3
:101578009800803083129800080083014508B6005F
:101588004608B700B801B901B501B50A08008301DA
:10159800B508031DD32AC501C50AC601C1226D308D
:1015A800F8004E30F900C630FA004130FB0036082A
:1015B800F4003708F5003808F6003908F7000A1271
:1015C8008A1123220A128A153930F8003030F900BE
:1015D800FA01FB0178087407FC007508FD0079081A
:1015E8000318790FFD077608FE007A0803187A0FAA
:1015F800FE077708FF007B0803187B0FFF077C08AE
:10160800B6007D08B7007E08B8007F08B900F5006D
:101618003808F4007F30F5050800572B0F08CA007A
:101628000E08C9004A080F06031D122B6400C630B5
:101638004907C7000330031804304A07C8004808A0
:101648004A02031D292B47084902031C3D2B4A085F
:10165800F5004908F4004708F402031CF50348089C
:10166800F50280307502003003197402031C572BF1
:101678004E2B4808F5004708F4004908F402031CFB
:10168800F5034A08F5028030750201300319740227
:101698000318572B0F08CA000E08C9004A080F067E
:1016A8000319232B4E2B8312031345080319C60372
:1016B800C503450A0319460A03190800122B8312A9
:1016C8000317150CF400F40C740C0F39F4000530F2
:1016D80074020318812B08308A00150D150D013985
:1016E800F400150CF500F50C750C0F39F5007507AD
:1016F800740763200A128A159B2B150CF400F40C4E
:10170800740C0F390F3A031D9A2B06301602031872
:101718009A2B08308A00150D150D0139F4001608AA
:101728001607740749200A128A159B2BFF300313EA
:1017380008008301C300FF30C700C8006323831378
:10174800C600460FA82BFF34FE30C607C501460861
:1017580045020318D02B4508143E8400831700085F
:10176800C706C401471CC62B4808F5004708F40003
:101778000310F50CF40C01307406C700A030750690
:10178800C800C92B0310C80CC70CC40A083044028F
:10179800031CB62BC50AAB2BC3080319E02B46085C
:1017A800143E84008317480880004608153E8400CC
:1017B80083174708800000344608143E84008317C6
:1017C8000008F500F4014608153E84008317000858
:1017D800F40448087506031DF32B4708740603191B
:1017E8000034FF34831603138C10831212119101F5
:1017F800203092003730831692001C3083129500F7
:1018080097018316A1010230A00083120317051067
:10181800C53083160313810064008312031705146F
:101828000B11FF30031381008B161215080083017A
:10183800CC00CB010310CC1F282CCC0DCA1F252CA3
:101848004C148530CC062B2CCC0DCA1B4C14031021
:10185800CA0DCB0A08304B02031C1F2C4C08080089
:101868008301C900402CC90A490384008313000876
:10187800CA0047081B24C700C803480F372C47086D
:10188800080083160313A60183122C088316A700E9
:1018980083122B088316A80083122A088316A9002E
:1018A800AA012A08F0390138AA0083122208023A4C
:1018B800003003190130F400F40CF40C83162A08E4
:1018C80074067F397406AA0028308312C7000430D2
:1018D800C800A7303424C600CA011B24C600A53A94
:1018E800031D832C8316AA1628308312C7000430E0
:1018F800C800A7303424C600CA011B24C600460805
:101908008316AB00F62308008301C3000A128A1568
:10191800CB224308F600F7010A128A1160220A1244
:101928008A157408C400A12C2230C5000130C600F5
:101938000A128A1511230A128A15C403440F982C17
:1019480045240A128A1508008301C3000310C30D39
:10195800DC2C3408F5003308F4000A128A118223BB
:101968001230F7000230F8004130F9000A128A11EB
:1019780017230A128A1146230A128A157408C4000A
:101988007508C50045240A128A158316A008031D88
:10199800C92C83124408C6004508C7000A128A15D4
:1019A8000D220A128A15F400F50175040319CD2CCD
:1019B800C303430FAD2C08000330831603138E04B2
:1019C8001630831203178500640005140A128A155D
:1019D80085220A128A150B30A900FD3003178D00E5
:1019E8001F308F0083160C118C170C148310831072
:1019F80083120E080C080313AA00FE3003178D008B
:101A08001F308F0083160C118C170C148310831051
:101A180083120E080C080313AB00FF3003178D0068
:101A28001F308F0083160C118C170C148310831031
:101A380083120E080C080313AC0006300A128A152C
:101A4800CE210A128A15A000A0080319342D00001F
:101A5800000000000000BC0106300A128A152D2281
:101A6800A40187142B08BA00BB01BB00BA012C08DB
:101A7800BA043A08C5003B08C6000A128A15C122F2
:101A8800C0308B0003300A128A15CE210A128A153B
:101A9800831603179000100F522D562D10081F3A69
:101AA800031D622D00000000000021309000831209
:101AB8000313BC0003300A128A152D2204300A12BF
:101AC8008A15CE210A128A15A0007B3A0319762DB1
:101AD80000000000000000007B30BC0004300A1247
:101AE8008A152D2283160615F0308312A2000A12D9
:101AF8008A154D220A128A15003803198C2DA20165
:101B080000303307A5007D3003187E303407A60067
:101B180083160C142C308312BC000130BD000A124D
:101B28008A15E0210A128A158E2D03171008043A27
:101B3800031DAB2D0A128A11BC230A128A1500381C
:101B48000317031DBA2D930FB92D930AB92D100849
:101B5800073A031DBB2D00300A128A15AD270A1259
:101B68008A15181683168C1683120317900103130F
:101B7800320833060319992D64003308B200A418FB
:101B8800F82D2708C6002808C7000A128A150D2252
:101B98000A128A15F400F50175040319242E340875
:101BA800F5003308F4000A128A118223E230F700A4
:101BB800E430F8004430F9000A128A1117230A1297
:101BC8008A1146230A128A157408A7007508A80006
:101BD800031793080319F22D9301242E0A128A156C
:101BE8004D220A128A15242E3008C6003108C70073
:101BF8000A128A150D220A128A15F400F5017504D5
:101C08000319242ECD30A405BA01F401F5013A08D0
:101C18003A07A13E8400831774088000840A750877
:101C280080003A083A07913E8400831774088000C0
:101C3800840A75088000BA0A08303A02031C092E83
:101C4800F0300313220203185D2E0A302202031C0F
:101C58002F2EF030A2002508C6002608C7000A1259
:101C68008A150D220A128A15F400F5017504031964
:101C7800992DA3012208023A031D472E8316A501B8
:101C8800F03083125B2E2208083A031D5A2EA10851
:101C980003195F2EA10B512E5A2E93303307A5003E
:101CA8000330031804303407A6005F2EF030A2007A
:101CB8005F2E051C612E8714992D8710992D83019D
:101CC800BC000310BC0D8B1307103C08930083164F
:101CD800141C6B2E87168312071493018316141C89
:101CE800722E871283121308BC008B170800830119
:101CF800C5000310C50D45148B1307104508930044
:101D08008316141C842E8312071444089300831628
:101D1800141C8B2E8B17831208003A308301C400E1
:101D280000307B260A30C500C6010A128A15112325
:101D38000A128A153B30C40000307B260A30C500E1
:101D4800C6010A128A1511230A128A155830C400CE
:101D580001307B262030C40002307B26C4010330CA
:101D68007B2601306326583A031D0134023063266E
:101D7800203A031D0134033063260038031D013463
:101D88004230C40004307B261430C40005307B2662
:101D98009C30C40006307B2604306326423A031D7B
:101DA800013405306326143A031D013406306326D6
:101DB8009C3A031D01340230C40007307B26803072
:101DC800C40008307B261230C4000A307B26C401C8
:101DD8000B307B2608308A0002308120C4000C308A
:101DE8000A128A157B261030C4000D307B26263057
:101DF800C4000E307B269C30C4000F307B266B302D
:101E0800C40010307B265B30C40011307B26703054
:101E1800C40012307B26C401C40A13307B26C401D7
:101E28001C307B261030C40040307B260830C400AC
:101E380041307B263F30C40042307B260430C4004A
:101E480043307B26C40144307B26C40145307B26C1
:101E5800C40146307B260A128A1582200A128A1586
:101E6800C40000307B2608308A0001308120C4007D
:101E780009300A128A157B2608308A000230812030
:101E8800C4000C300A128A157B26A630C4000E3016
:101E98007B260E306326F400F41D4D2F2630C40037
:101EA8000E307B2608308A0004308120C4000030C0
:101EB8000A128A157B2608308A0005308120C40062
:101EC80009300A128A157B2608308A0006308120DC
:101ED800C4000C300A128A157B26A630C4000E30C6
:101EE8007B260E306326F400F41D752F2630C400BF
:101EF8000E307B263F30C40000307B265530C400AE
:101F08000B307B260B306326553A031D0134AA306B
:101F1800C4000B307B260B306326AA3A031D02341B
:101F2800C4010B307B267B30C40000307B26023096
:101F3800C500C6010A128A1511230A128A157930BA
:101F4800C40000307B260A128A15AD210A128A15B0
:101F580000348301C3006400CE0008308A004308BF
:101F6800F4000310F40D0310740D8120C400003038
:101F78000A128A157B2608308A004308F4000310E9
:101F8800F40D0310740DF400740A8120C4000930A4
:101F98000A128A157B2608308A004308F4000310C9
:101FA800F40D0310740D023E8120C4000C300A1297
:101FB8008A157B26C308031DE42FC4010B307B263A
:101FC8000A128A15AD210A128A15430B003408300B
:101FD8008A004308F4000310F40D0310740D033E47
:101FE8008120C4000B300A128A157B260A128A1532
:081FF800A7210A128A1500342A
:04400E00C123FF3E8D
:00000001FF
