:0600000002308A002B2AE9
:10000800F30003088301D3000408D4000A08D500CC
:100018008A017408DC007E08DD007F08DE007508B0
:10002800DA007608DB007708DF007808E300790853
:10003800E4007A08E2007B08E1007C08E0007D0823
:10004800E5005808D6005908D700831603138C1CFE
:100058005B2883128C1C5B28831201088316E90035
:10006800831281018C102208F23A031D4928831655
:100078006908143A8312031D44282619462848287B
:100088002619482887144928871012308316031325
:10009800690203185128E901572817306902031C1F
:1000A80057280830E90001308312D200BF288B1A84
:1000B8000B1DBF285D3083128107B3282108F40087
:1000C800F5017508103E8312D9007408823E0318A2
:1000D800D90A0A128A115C220A128A11013A031DEE
:1000E80078280C3097047B280711F330970583167E
:1000F800A10A2108083A031DBE280530A100A30162
:10010800A30AA2010430A6282208A73E840083136C
:1001180000082305031994280C30831297049828A3
:1001280083120711F33097058030831623020318D2
:10013800A0280310A30DBE28A301A30AA20AA10B9D
:10014800BE280530A000BE28F3308312970507119A
:100158008B128316A00102308312D200BE288316A8
:100168002008023A03196228063A03198828013A36
:100178000319A8280B1183168C1E5C2983128C1E68
:100188005C2983121A08D0001819CC28981C4B290E
:10019800981CD128181200001816023003171002F4
:1001A800031CBA290A168A11DE250A128A110317B6
:1001B80091011008043A0319BA2949290313500870
:1001C800553A0317031DF728910A1108043A031D2D
:1001D800BA290A168A11EE250A128A110317910103
:1001E8009001900ABA299101BA29031350085A3A82
:1001F800031D05295A30031794009101910A023012
:1002080040290317910A1108083A031DBA294229FF
:10021800910A1103143E84008317031350088000C9
:1002280003171108043A031DBA290A168A116D2703
:100238000A128A1103179200120F23294229033048
:100248004029910A1103143E8400831703135008B0
:100258008000031712081102031CBA29031318128D
:1002680083168C128312031791010A168A11DE2550
:100278000A128A11043003179000BA290A168A1143
:10028800DE250A128A11031791019001BA29031772
:1002980010080319E228013A0319F928033A031947
:1002A8000C29013A03192529073A0319BA294229C1
:1002B80083160C1EBA2983120C1EBA29A729553099
:1002C800031399000317910A11080A3A031DB82964
:1002D80091019001900AB829FF3003139900031780
:1002E800910A1108023A031DB8290A168A116D27C6
:1002F8000A128A110317920091010330A529910A65
:100308001103143E84008317000803139900031790
:1003180012081102031CB82991010530A5295C3087
:10032800031399000317910A1103031DB829063016
:10033800A5298316031398120C128312031791012F
:1003480007309000B829831203171008031963298E
:10035800013A03197029023A03198329063A031945
:100368009329033A03199D2903130C1283120313CB
:100378000C1C042A83160C1C042A8312B60A0319BF
:10038800B70A0619A70AA5080319861ACD2906105F
:10039800A40AF03022020318032A10308A00220827
:1003A800F4000310F40D0310F40D0310740DF400A1
:1003B8002308F5000310F50C0310F50C0310750C59
:1003C8000739740700200A128A11F4000130F50079
:1003D80023080739F600F60AF3290310F50DF60B82
:1003E800F129750874050319FF298714A50803194D
:1003F800022AA503022A87100430A500A30A0C10BC
:10040800031383125C08F4005D08FE005E08FF0019
:100418005A08F5005B08F6005F08F7006308F80063
:100428006408F9006208FA006108FB006008FC0033
:100438006508FD005608D8005708D90054088400FC
:1004480055088A0053088300F30E730E0900203004
:10045800840051304A220230D9007230D80051301D
:10046800840053304F22A0308400EA304A22831798
:10047800103084005E304A2290308400B1304A2225
:100488000A128A15A32D04068001840A0406031D96
:10049800472A64000034F4000A128A115F220A1203
:1004A8008A118000840A0408740603190034502A4B
:1004B80083120313D800D91B6A2A591B722A5908B8
:1004C8008A005808D80A0319D90A820083135918D0
:1004D80083175808D80A840000080800003400343C
:1004E8000310FF30F407F409031CF507F509031C92
:1004F800F607F609031CF707F709080084017408D2
:10050800FC007508FD007608FE007708FF00F6017C
:10051800F701F401F5010310FF0CFE0CFD0CFC0CB7
:10052800031CA42A7808F40779080318790FF5073B
:100538007A0803187A0FF6077B0803187B0FF7076A
:100548007C087D047E047F040319B02A0310F80D8B
:10055800F90DFA0DFB0D8F2A84080319003477086A
:100568008000840376088000840375088000840373
:10057800740880000034FA01F51FC92AF409F40A46
:100588000319F503F5097A17FA1777088039FA0677
:10059800F71FD52AF609F60A0319F703F709D52A2A
:1005A800FA01F801F90176087704031DDE2AF4013F
:1005B800F50100341F30FA040310FA0AF60DF70D9E
:1005C800031CE12AF70CF60C77087502031DEE2AC6
:1005D80076087402031CF62A7608F4027708031CCE
:1005E800770AF502F80DF90DFA0BFA1AE62AFA1F3E
:1005F800022BF809F80A0319F903F9097808F60033
:100608007908F7007A1F0034F409F40A0319F5038E
:10061800F5090034FC01750D760DFA007A08031906
:10062800192BFC0DF601F5170800F401F501F60188
:100638000034FC10780D790DFB007B080319292B79
:100648000318FC14F901F8170800FB01F701F80179
:10065800F90108007A080319192BF513FC0C7A0C18
:10066800F6000318F517E42BFA08031D4C2BF401C8
:10067800F501F601E42B76030319F40A0319F50AC8
:100688000319F60A0310F60CF50CF40CFA0A382BC9
:10069800F608031D3F2B7408750403193B2BF51B43
:1006A8002E2BFA0303193B2B0310F40DF50D532BD6
:1006B8007A087B02031C6B2B031908000310F60C45
:1006C800F50CF40CFA0A7A087B02602B0310F90C7B
:1006D800F80CF70CFB0A7A087B06031908006A2B4A
:1006E8008030F90684010E231D235C237C1C842B97
:1006F800F409F509F609F40A0319F50A0319F60AC3
:10070800FC1C8E2BF709F809F909F70A0319F80AEE
:100718000319F90A7708F40778080318780FF5071A
:1007280079080318790FF607FC01F61F382BF4092E
:10073800F509F609F40A0319F50A0319F60A7C14EF
:10074800382B84010E23F7018230FA07FA1B192B84
:10075800F030FA07FA1BC12B18307A020318192B4C
:10076800FA08031DBA2B7C1874220800FA03031038
:10077800F40DF50DF60DF70DB42B0310F60CF50C72
:10078800F40CFA0FC12BB72BF71FCD2B7C14742256
:10079800CE2BFC018E30FA008401F7080319382BA0
:1007A8000310F70CF60CF50CF40CFA0AD12BF60131
:1007B800F51BF6037608F700C82BF601F701CD2BD9
:1007C80084080319003476088000840375088000C3
:1007D800840374088000003483012C0803179700F1
:1007E80003132D080317980003132E080317990005
:1007F80003132F0803179A0003132208F03A03196A
:10080800261D082CF130092C220803179B00023002
:100818000A128A11EA270A128A1103179C00831602
:10082800100883129D007D309E0003130800831278
:100838000317951F2D2C00300A168A11A7270A12B4
:100848008A1100380319C52F181683168C16013023
:10085800E82F0313E42F190CF400F40C740C073977
:100868000319462C0313261A462C031326160317BE
:1008780017080739F4007407913E84008317800134
:10088800840A8001031717080739F4007407913E9A
:100898008400831716080006031D552C1708840AC0
:1008A80000060319D92F19080739F4000130F6009A
:1008B800F701F40A622C0310F60DF70DF40B5F2C08
:1008C800FF30F607031CF70703132F08F605F70197
:1008D800031718087F39F400F50177087506031D1A
:1008E800772C76087406031DD92F17080739F400EA
:1008F8007407A13E8400831716088000840A17082D
:100908008000A72CF130031322020318B52C0630FF
:10091800A20040303607A800013003180230A12C8D
:10092800053003132202031CB52C0530A2009330B6
:100938003607A8000330031804303707A900A52C90
:100948000313A615B52C190CF500F50C750C073911
:10095800013A0319862C033A0319942C013A031916
:10096800A42C0A168A11D5260A128A110130F6001B
:10097800031715080739F700F70AC42C0310F60DFA
:10098800F70BC22C7608F600760374050A128A154E
:100998002A200A128A112C080317960003132D081F
:1009A8000317970003132E080317980003132F0843
:1009B8000317990095010313A61DE42C03171514BA
:1009C8000313261FE92C0317951403133708F500A2
:1009D8003608F4000A128A11E123A930F7002B30F7
:1009E800F8004530F9000A128A1176230A128A1192
:1009F800A5230A128A117408B3007508B4000330DD
:100A0800A604D92F03132F0803171906031D1C2D3D
:100A180003132E0803171806031D1C2D03132D0896
:100A280003171706031D1C2D03132C08031716069E
:100A3800031DD92F0313C10141084107A13E8400BA
:100A480083170008C200840A0008C300420403197F
:100A58003B2D4208BF004308C00041084107913EB2
:100A6800840083173F088000840A40088000C10A78
:100A780008304102031C202D3F08F500F4017408DA
:100A8800C4007508C5004008F400F5014408F404E2
:100A98004508F504FF307405BF000F307505C00028
:100AA800031715080739013A031D692D0313220896
:100AB800F03A031D692D0630A20040303607A80021
:100AC8000130031802303707A90000300313400231
:100AD800053003193F02031C7F2D00304002083007
:100AE80003193F02031C8E2D003040020D300319FC
:100AF8003F0203188E2D3708F5003608F4000A1255
:100B08008A11E1230A128A11A930F7002B30F80064
:100B180046309A2D3708F5003608F4000A128A1173
:100B2800E123A930F7002B30F8004530F9000A120C
:100B38008A1176230A128A11A5230A128A117408C7
:100B4800B3007508B400A614B730A605D92F03134F
:100B58002F0803171B06031DC12D03132E080317A7
:100B68001A06031DC12D03132D0803171906031DAB
:100B7800C12D03132C0803171806031DD92F0313BF
:100B88002C080317960003132D0803179700031367
:100B98002E080317980003132F080317990003134F
:100BA8003708F5003608F4000A128A11E123A93043
:100BB800F7002B30F8004530F9000A128A11762325
:100BC8000A128A11A5230A128A117408B30075083B
:100BD800B400072E21300313A604152E0A128A1515
:100BE80008250A128A11142E2208F03A031D142E21
:100BF8000630A20040303607A80001300318023042
:100C08003707A900142E031715080739013A0319E5
:100C1800EE2D043A0319F22D023A03130319F82DA5
:100C28002614103003179500D92F160883160313BE
:100C380025068312031D282E03171708831603138E
:100C4800240683120319DA2F2208023A031D2F2ED5
:100C5800F030A20087102208083A0319D92F7A30F9
:100C6800C8000330C9000A168A111B270A300A1265
:100C78008A154B250A128A11D92F1A0803132D0633
:100C8800031DD92F0317190803132E06031DD92F87
:100C98000317180803132F06031DD92F7830C8002F
:100CA8000530C9000A168A111B270A128A11031770
:100CB8009608031D742E17080313A100A108031931
:100CC800702E0830A20093303607A80003300318AE
:100CD80004303707A9008E2EF030A20087108E2E20
:100CE80003132208023A0319832E0230A200BA30F5
:100CF8003607A8000A3003180B303707A900031776
:100D0800170883160313A400831203171608831603
:100D18000313A5000A128A1508250A128A11D92F69
:100D280017085A3A031D9E2E0A168A11AB250A1275
:100D38008A11D92F0A128A15C7230A128A11D92FA4
:100D480013300313C8000130C9000A168A111B2783
:100D580013300313C8000130C9000A168A111B2773
:100D68000A128A1103132208083A0319D92F0530E9
:100D78000A128A154B250A128A11D92F1A08031349
:100D88002D06031DD92F0317190803132E06031D5B
:100D9800D92F0317180803132F06031DD92FCE3098
:100DA800C8000430C9000A168A111B270317170840
:100DB8000A128A156B250A128A11D92F0A128A1566
:100DC80008250A128A11D92F150807390319192E6F
:100DD800013A0319412E033A0319AC2E013A0319BB
:100DE800B62E073A0319C22E013A0319942E033A74
:100DF8000319A42E013A0319E22ED92F17308400C3
:100E08008317031331080006031D0D2F3208840AC7
:100E180000060319182F031717080313B100031747
:100E280018080313B200B001073030020318D92F95
:100E3800B00A0A168A11D52674080A128A152A20B9
:100E48000A128A113F2F03132F0803171A06031DCE
:100E58003D2F03132E0803171906031D3D2F0313F7
:100E68002D0803171806031D3D2F03132C0803171D
:100E78001706031DD92FF0230A128A112614D92F19
:100E880003132F0803171A06031D5A2F03132E08DE
:100E980003171906031D5A2F03132D0803171806E5
:100EA800031D5A2F03132C0803171706031DD92FE8
:100EB8008B1383168C185D2F83128D0101308C00E3
:100EC80083168C1303108B1B03148B130C155530CE
:100ED8008D00AA308D008C140C1103188B17831207
:100EE8000514752F03132F0803171A06031D8C2FDB
:100EF80003132E0803171906031D8C2F03132D083F
:100F080003171806031D8C2F03132C080317170645
:100F180003199E2FD92F03132208F23A031D962F87
:100F2800F030A20087109C2FF2300313A200871420
:100F38002614AE2F1C08F7001B08F600AA2F760807
:100F480003198F2F013A0319982FAE2F7708803A8B
:100F58000319A32F0313261CD92F03179601960AEA
:100F6800F0230A128A11D92F16080319022F013A01
:100F78000319272F033A0319442F073A0319762F29
:100F8800D92F0317150CF500F50C750C0F3903193B
:100F98002F2C013A0319062D033A0319AB2D063AF3
:100FA8000319E82E0B3A0319B82F83120313261CD2
:100FB800E42F0A128A1505200A128A112610E72F33
:100FC800181683168C160030831208008301C60099
:100FD800831603178C18EC2F831203134608031784
:100FE8008D0083168C130C1483120C08031308004D
:060FF8008301510808000E
:10100A00831203179001910101300A128A152523D0
:10101A000A128A15003803191B28A2010030360764
:10102A00A8007D3003187E303707A9005A3003170D
:10103A009400951301300A168A11A7270A128A15F5
:10104A00831698160C16831208008301C6007C28A2
:10105A000F08C900CA01F500F4010E087404C9009A
:10106A007508CA000F06031D2D285A304907C70004
:10107A001530031816304A07C800640048084A02A7
:10108A00031D492847084902031C5D284A08F50040
:10109A004908F4004708F402031CF5034808F5025E
:1010AA0080307502003003197402031C7C286E28F4
:1010BA004808F5004708F4004908F402031CF50340
:1010CA004A08F502803075020130031974020318C8
:1010DA007C280F08C900CA01F500F4010E0874043F
:1010EA00C9007508CA000F06031943286E2883121F
:1010FA000313C603460F2D280800B72930303002E3
:10110A00031CB3298312BF018316B901B401B501C7
:10111A00F42883123F08F4000310F40D0310740D31
:10112A000C3EAF3E840083130008F7003F08F4002A
:10113A000310F40D0310740D0B3EAF3E84008313AD
:10114A000008F6003F08F4000310F40D0310740DB4
:10115A000D3EAF3E840083130008F5003F08F400FB
:10116A000310F40D0310740D0E3EAF3E840083137A
:10117A0000087507760777078316B8000310B80CBE
:10118A000310B80C0310B80C10308A0083123F0801
:10119A0056200A128A1500380319E62805308316E4
:1011AA003802031CEB280A30F400F5013808F4026F
:1011BA00031CF5037408B4070318B50A7508B507C4
:1011CA00F228083083163802031CEE28B901B90A3E
:1011DA00F2283808B4070318B50A8312BF0A0C307C
:1011EA0083123F0283160318FD28B90803198E28B3
:1011FA00360A0319370A03191529B908031D0D29D7
:10120A0035083702031D0B2934083602031818293A
:10121A00AF01AF0AB001B00AFF30B600B700C52966
:10122A00B908031DC5293408B6003508B700C52911
:10123A00A60130080F390F3A031DB3298312BF01E3
:10124A003F08F4000310F40D0310740D303CB73E50
:10125A00840083130008F7003F08F4000310F40D1C
:10126A000310740D303CB93E840083130008F60065
:10127A003F08F4000310F40D0310740D303CB83E1F
:10128A00840083130008F5003F08F4000310F40DEE
:10129A000310740D303CB63E8400831300087507B2
:1012AA00760777078316B8000310B80C0310B80C3A
:1012BA000310B80C0310A60D0630380203182614C2
:1012CA008312BF0A04303F02031C25290930831602
:1012DA0026020318812910308A0026086E200A1275
:1012EA008A15F400740AB100A730B200B301B30A38
:1012FA000230AF00B001B329AF01B001C5293008EF
:10130A000339033A031DB3296608670769076807A3
:10131A00B8000310B80C0310B80C0310B80C063050
:10132A003802320884008313031C9E293308800480
:10133A00A02933098005803033020318A729031036
:10134A00B30DB329B301B30AB20AB10BB3298C1096
:10135A008312121103308316AF00B529B00AC529CA
:10136A000130D929831603132F0803198328013A58
:10137A0003191D29033A03198429013A0319B529C6
:10138A008312BF013F08BB3E840083130008F400A8
:10139A003F08BA3E8400831374088000BF0A2F30C6
:1013AA003F02031CC7290030831208008301BF00D3
:1013BA000310BF0D8B1307103F0893008316141CEC
:1013CA00E32987168312071493018316141CEA294A
:1013DA00871283121308BF008B1708008301C80005
:1013EA000310C80D48148B1307104808930083167E
:1013FA00141CFC2983120714470893008316141C33
:10140A00032A8B17831208003A308301C700003081
:10141A00F3210A30C800C9010A168A111B270A12C9
:10142A008A153B30C7000030F3210A30C800C901D1
:10143A000A168A111B270A128A155830C70001306A
:10144A00F3212030C7000230F321C7010330F32112
:10145A000130DB21583A031D01340230DB21203AE6
:10146A00031D01340330DB210038031D01344230EF
:10147A00C7000430F3211430C7000530F3219C3033
:10148A00C7000630F3210430DB21423A031D013440
:10149A000530DB21143A031D01340630DB219C3A66
:1014AA00031D01340230C7000730F3218030C70022
:1014BA000830F3211230C7000A30F321C7010B307C
:1014CA00F32110308A0002307820C7000C300A124B
:1014DA008A15F3211030C7000D30F3212630C700DA
:1014EA000E30F3219C30C7000F30F3216B30C70058
:1014FA001030F3215B30C7001130F3217030C70080
:10150A001230F321C701C70A1330F321C7011C3077
:10151A00F3211030C7004030F3210830C7004130B2
:10152A00F3213F30C7004230F3210430C700433073
:10153A00F321C7014430F321C7014530F321C70124
:10154A004630F3210A168A1179200A128A15C70031
:10155A000030F32110308A0001307820C7000930AA
:10156A000A128A15F32110308A0002307820C70047
:10157A000C300A128A15F321A630C7000E30F32167
:10158A000E30DB21F400F41DC52A2630C7000E30C8
:10159A00F32110308A0004307820C70000300A1284
:1015AA008A15F32110308A0005307820C7000930E7
:1015BA000A128A15F32110308A0006307820C700F3
:1015CA000C300A128A15F321A630C7000E30F32117
:1015DA000E30DB21F400F41DED2A2630C7000E3050
:1015EA00F3213F30C7000030F3215530C7000B30DC
:1015FA00F3210B30DB21553A031D0134AA30C70011
:10160A000B30F3210B30DB21AA3A031D0234C70148
:10161A000B30F3217B30C7000030F3210230C800C1
:10162A00C9010A168A111B270A128A157930C700BE
:10163A000030F3210A168A11B1250A128A150034DC
:10164A008301C6006400D10010308A004608F40005
:10165A000310F40D0310740D7820C70000300A122D
:10166A008A15F32110308A004608F4000310F40D9D
:10167A000310740DF400740A7820C70009300A12A6
:10168A008A15F32110308A004608F4000310F40D7D
:10169A000310740D023E7820C7000C300A128A1516
:1016AA00F321C608031D5C2BC7010B30F3210A1670
:1016BA008A11B1250A128A15460B003410308A00A5
:1016CA004608F4000310F40D0310740D033E78204D
:1016DA00C7000B300A128A15F3210A168A11A525AA
:1016EA000A128A150034831603138C1083121211FE
:1016FA009101203092003730831692001C308312F9
:10170A00950097018316A1010230A00083120317E6
:10171A000510C53083160313810064008312031772
:10172A0005140B11FF30031381008B1612150800E4
:10173A008301CF00CE010310CF1FAA2BCF0DCD1FDF
:10174A00A72B4F148530CF06AD2BCF0DCD1B4F14D1
:10175A000310CD0DCE0A08304E02031CA12B4F08F0
:10176A0008008301CC00C22BCC0A4C0384008313EB
:10177A000008CD004A089D23CA00CB034B0FB92BA2
:10178A004A080800093083160313A600B101B00104
:10179A00A001AF018312D201FF308316B600B70051
:1017AA00831203170510683083160313810064003F
:1017BA008312031705140313810121309200F930B3
:1017CA00831692008312910112158C1083168C14C1
:1017DA00831208000930831603132602031CF72B11
:1017EA00C7230134260EF0398312CD00F5309D232C
:1017FA00BF00CA0010308A00831626086E20003EF9
:10180A008312CB00A7300A128A15B623BF00CD0176
:10181A009D23BF0010308A00831626086E200A1204
:10182A008A15A73E84008313000883123F06031912
:10183A00EC2CC723023427082506031D282C280868
:10184A0024060319062D83122208023A031D312C9D
:10185A00F030A2008710372C2208083A031D372CD3
:10186A00C72300347A30C8000330C9000A168A1127
:10187A001B270A128A150A304B250A128A150034C8
:10188A00290883122D06031D062D831628088312A4
:10189A002E06031D062D8316270883122F06031D05
:1018AA00062D7830C8000530C9000A168A111B2790
:1018BA000A128A152208023A03196D2C0230A20074
:1018CA00BA303607A8000A3003180B303707A900C8
:1018DA0083162B08A4002A08A50008250A128A15CF
:1018EA00003413308312C8000130C9000A168A1165
:1018FA001B2713308312C8000130C9000A168A1147
:10190A001B270A128A1583122208083A031D8F2CF4
:10191A00C723003405304B250A128A1500342908DA
:10192A0083122D06031D062D8316280883122E0600
:10193A00031D062D8316270883122F06031D062D65
:10194A00CE30C8000430C9000A168A111B270A12B1
:10195A008A1583162A086B25C723003408250A121C
:10196A008A150034290883122D06031D062D8316B5
:10197A00280883122E06031D062D831627088312B4
:10198A002F06031D062D7830C8000530C9000A1637
:10199A008A111B270A128A1583162A088312A100A4
:1019AA00A1080319E32C0830A20093303607A800D7
:1019BA000330031804303707A900E62CF030A200E0
:1019CA00871008250A128A150034C72303348316A0
:1019DA0026080319202C013A0319452C033A031946
:1019EA007E2C013A0319882C073A0319942C023ADF
:1019FA000319762C013A0319B32C0F3A0319B72CA1
:101A0A00EA2CC723003483160313A60183122F0876
:101A1A008316A70083122E088316A80083122D08A6
:101A2A008316A900AA012A08F0390138AA008312EC
:101A3A002208023A003003190130F400F40CF40CC5
:101A4A0083162A0874067F397406AA00283083127E
:101A5A00CA000430CB00A730B623C900CD019D23AC
:101A6A00C900A53A031D462D8316AA1628308312EB
:101A7A00CA000430CB00A730B623C900CD019D238C
:101A8A00C90049088316AB00782308008301C60001
:101A9A000A168A11D5264608F600F7010A128A1193
:101AAA00BF220A128A157408C700642D2230C800A2
:101ABA000130C9000A168A111B270A128A15C703A0
:101ACA00470F5B2D08250A128A1508008301C600F4
:101ADA000310C60D9F2D3708F5003608F4000A12C8
:101AEA008A11E1231230F7000230F8004130F90080
:101AFA000A128A1176230A128A11A5230A128A1552
:101B0A007408C7007508C80008250A128A158316C2
:101B1A00A008031D8C2D83124708C9004808CA0073
:101B2A000A168A1116260A128A15F400F501750496
:101B3A000319902DC603460F702D08000330831633
:101B4A0003138E04163083120317850064000514EC
:101B5A000A168A118E260A128A151130AC00FD3037
:101B6A0003178D001F308F0083160C118C170C146D
:101B7A008310831083120E080C080313AD00FE3085
:101B8A0003178D001F308F0083160C118C170C144D
:101B9A008310831083120E080C080313AE00FF3063
:101BAA0003178D001F308F0083160C118C170C142D
:101BBA008310831083120E080C080313AF00A501CB
:101BCA00A60187142E08BD00BE01BE00BD012F0864
:101BDA00BD043D08C8003E08C9000A168A11CB2672
:101BEA00C0308B0003300A128A11EA270A128A15BA
:101BFA00831603179000100F032E072E10081F3AA2
:101C0A00031D132E000000000000213090008312F3
:101C1A000313BF0003300A168A11362604300A124B
:101C2A008A11EA270A128A15A0007D3A0319272E7B
:101C3A0000000000000000007D30BF0004300A16DA
:101C4A008A11362608300A128A11EA270A128A15D8
:101C5A00A0007A3A031D3E2EBF0108300A168A11E7
:101C6A0036260A128A15F030A2002430831686041A
:101C7A00A02E00300A168A11CF253230C800C901B9
:101C8A000A168A111B27AA300A168A11CF25323062
:101C9A00C800C9010A168A111B272D082F072E070B
:101CAA000A168A11CF253230C800C9010A168A11CC
:101CBA001B272D080A168A11CF253230C800C90100
:101CCA000A168A111B272E080A168A11CF253230C6
:101CDA00C800C9010A168A111B272F080A168A1179
:101CEA00CF250A30C800C9010A168A111B27831694
:101CFA00061532308312C800C9010A168A111B2739
:101D0A000A128A15061D942E5E30C8000130C900D9
:101D1A000A168A111B270A128A15061D9E2EA2016F
:101D2A0000303607A8007D3003187E303707A90037
:101D3A00A02EF030A2000A168A1156260A128A1517
:101D4A0000380319B12EA20100303607A8007D30F1
:101D5A0003187E303707A90083160C14831237083C
:101D6A00F5003608F4000A128A11E123E230F7007E
:101D7A00E430F8004430F9000A128A1176230A1274
:101D8A008A11A5237408AA007508AB000A128A15DD
:101D9A00C7230A128A150614A408031D861EF72EE5
:101DAA0005302402031CE62E0430A200A301A5007C
:101DBA0010303607A8000030031801303707A90091
:101DCA00F52E02302402031CF52EF030A20050300A
:101DDA00A604A301A5013608A8003708A90087149C
:101DEA00A4010614A708031D0619212F0530220293
:101DFA00031C202F08302702053003180E2F270254
:101E0A00031C092F06300E2F02302702031C162F3F
:101E1A000730A20000303607A8007D3003187E3054
:101E2A001D2FA20140303607A800013003180230E6
:101E3A003707A900A615A701520803193A2F520B12
:101E4A00352FD2010A128A1582200A128A15013AFE
:101E5A00031D3A2F0A128A15EF230A128A153A2FFE
:101E6A000A128A15C7230A128A1503171008043A98
:101E7A00031D4C2F0A128A111B240A128A150038D4
:101E8A000317031D5B2F930F5A2F930A5A2F10081B
:101E9A00073A031D5C2F00300A128A1525230A12FD
:101EAA008A15181683168C168312031790010313CA
:101EBA00350836060319D12E64003608B500A6186F
:101ECA00992F2A08C9002B08CA000A168A11162651
:101EDA000A128A15F400F50175040319C52F37088B
:101EEA00F5003608F4000A128A11E123E230F700FD
:101EFA00E430F8004430F9000A128A1176230A12F3
:101F0A008A11A5230A128A157408AA007508AB005B
:101F1A00031793080319932F9301C52F0A168A11E1
:101F2A0056260A128A15C52F3308C9003408CA0072
:101F3A000A168A1116260A128A15F400F501750482
:101F4A000319C52FCD30A605BD01F401F5013D08E1
:101F5A003D07A13E8400831774088000840A75082F
:101F6A0080003D083D07913E840083177408800075
:101F7A00840A75088000BD0A08303D02031CAA2F96
:101F8A00F030031322020318D12E0A302202031C56
:101F9A00D02FF030A2002808C9002908CA000A1662
:101FAA008A1116260A128A15F400F5017504031916
:101FBA00D12EA301A5012208023A031DE92F831697
:101FCA00A501F0308312FD2F2208083A031DFC2FC9
:101FDA00A1080319FE2FA10BF32FFC2F933036070C
:101FEA00A8000330031804303707A900FE2FF03089
:101FFA00A2008714D12E8207CC34CC34CC34CC3412
:10200A00CC34CC34CC34CC34FF340034FF340034F8
:10201A00FF340034FF340034FF34FF34FF34FF341C
:10202A00FF34FF34FF34FF34FF34FF34FF34FF340E
:10203A00FF34FF34FF34FF34FD34FF34FF34FF3400
:10204A00FF34FF34FF34FF34EE34EE34AA34AA34BA
:10205A00FF34FF34FF34FF34CC34FC34FF34FF3414
:10206A00FF34FF34FF34FF34CC34CC34CC34FF3467
:10207A00FF34FF34FF34FF34FF34FF34FF34FF34BE
:10208A00FF34FF34FF34FF3482070D3408340D3433
:10209A000934FF340934FF34FF34FF34FF34FF348A
:1020AA000B34820701340034013400340034013423
:1020BA000034013401340034013400348207083416
:1020CA000834FF34083408340A34FF34FF34FF3448
:1020DA0009348207023405340034003404340034ED
:1020EA000034003404348207113444346034003438
:1020FA00E134813448340F34820701340034013426
:0A210A0000340034013400340134C5
:102B4A000D308301C700C70BA82D08008316031395
:102B5A008C108312121108007D308301C700C7034D
:102B6A00470FB42D0800831203179008031DBF2DC9
:102B7A000030C02D01300313080083160313AF0879
:102B8A00031DCC2DA008031DCC2D0030CD2D013006
:102B9A00831208008301BF008B13061100003F084F
:102BAA0093008316141CD62D0000831206158B176A
:102BBA00080083010710213093008316141CE22DAC
:102BCA00831207146B3093008316141CE92D8312A9
:102BDA00080083010710213093008316141CF22D7C
:102BEA00831207147B3093008316141CF92D831269
:102BFA0008008301BD009F0183169F01831281385B
:102C0A009F00BE010A303E020318102EBE0A0A3087
:102C1A003E02031C0B2E9F1400009F18122E1E0842
:102C2A0008008B13831203134A083702031D1F2E51
:102C3A0049083602031C342E3708F5003608F4001A
:102C4A004908F402031CF5034A08F50280307502AC
:102C5A000030031974028B17031C013400348B17DC
:102C6A0000348301C000831603178C18382E831290
:102C7A000313400803178D0003133F0803178C0042
:102C8A0083168C1303108B1B03148B130C155530EE
:102C9A008D00AA308D008C140C1103188B17830138
:102CAA0008008301181283168C1298120C128312D0
:102CBA0003179001910103133708F5003608F40051
:102CCA000A128A11E123A930F7002B30F8004530A7
:102CDA00F9000A128A1176230A128A11A5237408A6
:102CEA00B3007508B4000A128A1509220A168A1155
:102CFA0000380319822E01308C2E00300A128A15F0
:102D0A0025230A168A11181683168C160030831288
:102D1A000800603083160313810024309500831263
:102D2A0086003A3083168600083083128500033005
:102D3A0083168500413083128700903083168700FE
:102D4A000330031788000A30890081308312031385
:102D5A009F0083169F01113083129000E930831679
:102D6A009700831203178916A5308700403083160F
:102D7A00031394003130831294000C3083169900A7
:102D8A0004309800803083129800080083014808B4
:102D9A00B9004908BA00BB01BC01B801B80A080069
:102DAA008301B808031DDD2EC801C80AC901CB2654
:102DBA006D30F8004E30F900C630FA004130FB00A1
:102DCA003908F4003A08F5003B08F6003C08F70019
:102DDA000A128A1182220A168A113930F800303012
:102DEA00F900FA01FB0178087407FC007508FD0078
:102DFA0079080318790FFD077608FE007A08031888
:102E0A007A0FFE077708FF007B0803187B0FFF077E
:102E1A007C08B9007D08BA007E08BB007F08BC00A8
:102E2A00F5003B08F4007F30F5050800612F0F0814
:102E3A00CD000E08CC004D080F06031D1C2F6400A0
:102E4A00C6304C07CA000330031804304D07CB00C4
:102E5A004B084D02031D332F4A084C02031C472F0F
:102E6A004D08F5004C08F4004A08F402031CF50367
:102E7A004B08F50280307502003003197402031CF6
:102E8A00612F582F4B08F5004A08F4004C08F40249
:102E9A00031CF5034D08F502803075020130031951
:102EAA0074020318612F0F08CD000E08CC004D08DC
:102EBA000F0603192D2F582F8312031348080319DD
:102ECA00C903C803480A0319490A031908001C2F31
:102EDA0083120317150CF400F40C740C0F39F40068
:102EEA000530740203188B2F10308A00150D150D4A
:102EFA000139F400150CF500F50C750C0F39F500C5
:102F0A007507740763200A168A11A52F150CF40099
:102F1A00F40C740C0F390F3A031DA42F0630160255
:102F2A000318A42F10308A00150D150D0139F4006D
:102F3A0016081607740749200A168A11A52FFF30AA
:102F4A00031308008301C600FF30CA00CB006D27B7
:102F5A008313C900490FB22FFF34FE30C907C801D5
:102F6A00490848020318DA2F4808143E84008317D8
:102F7A000008CA06C7014A1CD02F4B08F5004A08A8
:102F8A00F4000310F50CF40C01307406CA00A030EA
:102F9A007506CB00D32F0310CB0CCA0CC70A083016
:102FAA004702031CC02FC80AB52FC6080319EA2F07
:102FBA004908143E840083174B0880004908153ECF
:102FCA00840083174A08800000344908143E8400AC
:102FDA0083170008F500F4014908153E8400831799
:102FEA000008F4044B087506031DFD2F4A087406F1
:062FFA0003190034FF344E
:04400E00C123FF3E8D
:00000001FF
