:0600000002308A00262AEE
:10000800F30003088301D1000408D2000A08D300D2
:100018008A017408DA007E08DC007F08DE007508B3
:10002800E0007608DB007708E3007808DD0079084F
:10003800E1007A08DF007B08E2007C08D9007D082F
:10004800D8005408D6005508D700831603138C1C13
:100058005B2883128C1C5B28831201088316E90035
:10006800831281018C102308F23A031D4928831654
:100078006908143A8312031D442821194628482880
:10008800211948288714492887101230831603132A
:10009800690203185128E901572817306902031C1F
:1000A80057280830E90001308312D000BF288B1A86
:1000B8000B1DBF285D3083128107B3282108F40087
:1000C800F5017508103E8312D5007408823E0318A6
:1000D800D50A0A128A1157220A128A11013A031DF7
:1000E80078280C3097047B280711F330970583167E
:1000F800A10A2108083A031DBE280530A100A30162
:10010800A30AA2010430A6282208A73E840083136C
:1001180000082305031994280C30831297049828A3
:1001280083120711F33097058030831623020318D2
:10013800A0280310A30DBE28A301A30AA20AA10B9D
:10014800BE280530A000BE28F3308312970507119A
:100158008B128316A00102308312D000BE288316AA
:100168002008023A03196228063A03198828013A36
:100178000319A8280B1183168C1E5C2983128C1E68
:100188005C2983121A08CE001819CC28981C4B2910
:10019800981CD128181200001816023003171002F4
:1001A800031CBA290A168A11D6250A128A110317BE
:1001B80091011008043A0319BA29492903134E0872
:1001C800553A0317031DF728910A1108043A031D2D
:1001D800BA290A168A11C6250A128A11031791012B
:1001E8009001900ABA299101BA2903134E085A3A84
:1001F800031D05295A30031794009101910A023012
:1002080040290317910A1108083A031DBA294229FF
:10021800910A1103143E8400831703134E088000CB
:1002280003171108043A031DBA290A168A116D2703
:100238000A128A1103179200120F23294229033048
:100248004029910A1103143E8400831703134E08B2
:100258008000031712081102031CBA29031318128D
:1002680083168C128312031791010A168A11D62558
:100278000A128A11043003179000BA290A168A1143
:10028800D6250A128A11031791019001BA2903177A
:1002980010080319E228013A0319F928033A031947
:1002A8000C29013A03192529073A0319BA294229C1
:1002B80083160C1EBA2983120C1EBA29A729553099
:1002C800031399000317910A11080A3A031DB82964
:1002D80091019001900AB829FF3003139900031780
:1002E800910A1108023A031DB8290A168A116D27C6
:1002F8000A128A110317920091010330A529910A65
:100308001103143E84008317000803139900031790
:1003180012081102031CB82991010530A5295C3087
:10032800031399000317910A1103031DB829063016
:10033800A5298316031398120C128312031791012F
:1003480007309000B829831203171008031963298E
:10035800013A03197029023A03198329063A031945
:100368009329033A03199D2903130C1283120313CB
:100378000C1CFF2983160C1CFF298312B40A0319CD
:10038800B50A0619A50AF03023020318FE29103011
:100398008A002308F4000310F40D0310F40D031071
:1003A800740DF4002408F5000310F50C0310F50C87
:1003B8000310750C0739740700200A128A11F4001B
:1003C8000130F50024080739F600F60AED29031074
:1003D800F50DF60BEB29750874050319F629211993
:1003E800F829FA292119FA298714FB298710831279
:1003F8000313A40A0C10031383125A08F4005C08B0
:10040800FE005E08FF006008F5005B08F600630860
:10041800F7005D08F8006108F9005F08FA00620853
:10042800FB005908FC005808FD005608D40057087E
:10043800D5005208840053088A0051088300F30E3F
:10044800730E0900203084004F3045220230D50059
:100458006D30D4004F30840051304A22A0308400DF
:10046800EA3045228317103084005E3045229030F0
:100478008400B13045220A128A15B12D0406800184
:10048800840A0406031D422A64000034F4000A1298
:100498008A115A220A128A118000840A04087406F2
:1004A800031900344B2A83120313D400D51B652A81
:1004B800551B6D2A55088A005408D40A0319D50A11
:1004C80082008313551883175408D40A840000083F
:1004D8000800003400340310FF30F407F409031C4B
:1004E800F507F509031CF607F609031CF707F709D2
:1004F800080084017408FC007508FD007608FE00F9
:100508007708FF00F601F701F401F5010310FF0C6D
:10051800FE0CFD0CFC0C031C9F2A7808F4077908D4
:100528000318790FF5077A0803187A0FF6077B087E
:1005380003187B0FF7077C087D047E047F040319EA
:10054800AB2A0310F80DF90DFA0DFB0D8A2A840861
:100558000319003477088000840376088000840338
:10056800750880008403740880000034FA01F51FC0
:10057800C42AF409F40A0319F503F5097A17FA17D6
:1005880077088039FA06F71FD02AF609F60A031900
:10059800F703F709D02AFA01F801F9017608770478
:1005A800031DD92AF401F50100341F30FA040310A1
:1005B800FA0AF60DF70D031CDC2AF70CF60C77087F
:1005C8007502031DE92A76087402031CF12A7608CD
:1005D800F4027708031C770AF502F80DF90DFA0BF7
:1005E800FA1AE12AFA1FFD2AF809F80A0319F90389
:1005F800F9097808F6007908F7007A1F0034F40939
:10060800F40A0319F503F5090034FC01750D760D9C
:10061800FA007A080319142BFC0DF601F5170800E7
:10062800F401F501F6010034FC10780D790DFB009A
:100638007B080319242B0318FC14F901F817080088
:10064800FB01F701F801F90108007A080319142BD6
:10065800F513FC0C7A0CF6000318F517DF2BFA08D3
:10066800031D472BF401F501F601DF2B760303196F
:10067800F40A0319F50A0319F60A0310F60CF50C27
:10068800F40CFA0A332BF608031D3A2B7408750488
:100698000319362BF51B292BFA030319362B0310E4
:1006A800F40DF50D4E2B7A087B02031C662B0319FB
:1006B80008000310F60CF50CF40CFA0A7A087B0211
:1006C8005B2B0310F90CF80CF70CFB0A7A087B0675
:1006D80003190800652B8030F906840109231823C3
:1006E80057237C1C7F2BF409F509F609F40A031932
:1006F800F50A0319F60AFC1C892BF709F809F90908
:10070800F70A0319F80A0319F90A7708F4077808A9
:100718000318780FF50779080318790FF607FC0115
:10072800F61F332BF409F509F609F40A0319F50A3B
:100738000319F60A7C14332B84010923F70182304C
:10074800FA07FA1B142BF030FA07FA1BBC2B1830E7
:100758007A020318142BFA08031DB52B7C186F2294
:100768000800FA030310F40DF50DF60DF70DAF2B85
:100778000310F60CF50CF40CFA0FBC2BB22BF71F78
:10078800C82B7C146F22C92BFC018E30FA0084011F
:10079800F7080319332B0310F70CF60CF50CF40CBF
:1007A800FA0ACC2BF601F51BF6037608F700C32BE3
:1007B800F601F701C82B8408031900347608800075
:1007C8008403750880008403740880000034831251
:1007D8000317951FFD2B00300A168A11A7270A1246
:1007E8008A1100380319BB2F181683168C1601308E
:1007F800DE2F0313DA2F190CF400F40C740C0739EC
:100808000319162C0313211A162C03132116031788
:1008180017080739F4007407913E84008317800194
:10082800840A8001031717080739F4007407913EFA
:100838008400831716080006031D252C1708840A50
:1008480000060319CF2F19080739F4000130F60004
:10085800F701F40A322C0310F60DF70DF40B2F2CC8
:10086800FF30F607031CF70703132D08F605F701F9
:10087800031718087F39F400F50177087506031D7A
:10088800472C76087406031DCF2F17080739F40084
:100898007407A13E8400831716088000840A17088D
:1008A8008000772CF130031323020318852C0630BF
:1008B800A30040303407A600013003180230712C21
:1008C800053003132302031C852C0530A300933045
:1008D8003407A6000330031804303507A700752C29
:1008E8000313A115852C190CF500F50C750C0739A7
:1008F800013A0319562C033A0319642C013A0319D7
:10090800742C0A168A11D5260A128A110130F600AB
:10091800031715080739F700F70A942C0310F60D8A
:10092800F70B922C7608F600760374050A128A15DE
:100938002F200A128A112A080317960003132B087E
:100948000317970003132C080317980003132D08A7
:100958000317990095010313A11DB42C031715144F
:1009680003133508F5003408F4000A128A11DC2351
:10097800A930F7002B30F8004530F9000A128A1127
:1009880071230A128A11A0230A128A117408B1006D
:100998007508B2000330A104CF2F03132D080317E5
:1009A8001906031DE72C03132C0803171806031D4B
:1009B800E72C03132B0803171706031DE72C031353
:1009C8002A0803171606031DCF2F0313BF013F087C
:1009D8003F07A13E840083170008C000840A00086E
:1009E800C10040040319062D4008BD004108BE009F
:1009F8003F083F07913E840083173D088000840A22
:100A08003E088000BF0A08303F02031CEB2C3D085B
:100A1800F500F4017408C2007508C3003E08F4002C
:100A2800F5014208F4044308F504FF307405BD00DD
:100A38000F307505BE00031715080739013A031D65
:100A4800342D03132308F03A031D342D0630A30078
:100A580040303407A6000130031802303507A700DC
:100A6800003003133E02053003193D02031C4A2DD2
:100A780000303E02083003193D02031C592D003096
:100A88003E020D3003193D020318592D3508F500B3
:100A98003408F4000A128A11DC230A128A11A930D8
:100AA800F7002B30F8004630652D3508F50034087E
:100AB800F4000A128A11DC23A930F7002B30F80061
:100AC8004530F9000A128A1171230A128A11A023EB
:100AD8000A128A117408B1007508B200A114A11194
:100AE800CF2F03132D0803171B06031D8B2D03138C
:100AF8002C0803171A06031D8B2D03132B08031745
:100B08001906031D8B2D03132A0803171806031D46
:100B1800CF2F03132A080317960003132B08031774
:100B2800970003132C080317980003132D080317C5
:100B3800990003133508F5003408F4000A128A11E5
:100B4800DC23A930F7002B30F8004530F9000A12F1
:100B58008A1171230A128A11A0230A128A117408B1
:100B6800B1007508B200D12D21300313A104DF2D87
:100B78000A128A1516250A128A11DE2D2308F03A60
:100B8800031DDE2D0630A30040303407A6000130D7
:100B9800031802303507A700DE2D0317150807399B
:100BA800013A0319B82D043A0319BC2D023A03136C
:100BB8000319C22D2114103003179500CF2F1608E2
:100BC8008316031325068312031DF22D0317170836
:100BD80083160313240683120319D02F2308023A1D
:100BE800031DFD2DF030A300211DFC2D8714FD2DC4
:100BF80087102308083A0319CF2F7A30C60003302C
:100C0800C7000A168A111B270A300A128A155925A5
:100C18000A128A11CF2F1A0803132B06031DCF2F90
:100C28000317190803132C06031DCF2F03171808E1
:100C380003132D06031DCF2F7830C6000530C700DB
:100C48000A168A111B270A128A1103179608031D10
:100C5800462E17080313A200A20803193E2E0830D7
:100C6800A30093303407A600033003180430350777
:100C7800A700602EF030A300211D442E8714602E9B
:100C88008710602E03132308023A0319552E0230E9
:100C9800A300BA303407A6000A3003180B30350712
:100CA800A7000317170883160313A400831203175A
:100CB800160883160313A5000A128A1516250A12A8
:100CC8008A11CF2F17085A3A031D702E0A168A1157
:100CD80093250A128A11CF2F0A128A15CC230A12D9
:100CE8008A11CF2F13300313C6000130C7000A162C
:100CF8008A111B2713300313C6000130C7000A16D8
:100D08008A111B270A128A1103132308083A0319A8
:100D1800CF2F05300A128A1559250A128A11CF2FAA
:100D28001A0803132B06031DCF2F031719080313E3
:100D38002C06031DCF2F0317180803132D06031DB8
:100D4800CF2FCE30C6000430C7000A168A111B27E1
:100D5800031717080A128A1579250A128A11CF2F44
:100D68000A128A1516250A128A11CF2F1508073973
:100D78000319E32D013A03190F2E033A03197E2EA6
:100D8800013A0319882E073A0319942E013A0319D8
:100D9800662E033A0319762E013A0319B42ECF2F83
:100DA80017308400831703132F080006031DDF2E56
:100DB8003008840A00060319EA2E031717080313DC
:100DC800AF00031718080313B000AE0107302E0256
:100DD8000318CF2FAE0A0A168A11D52674080A12EC
:100DE8008A152F200A128A11112F03132D080317B1
:100DF8001A06031D0F2F03132C0803171906031DCA
:100E08000F2F03132B0803171806031D0F2F0313A7
:100E18002A0803171706031DCF2F0A128A15042064
:100E28000A128A112114CF2F03132D0803171A064B
:100E3800031D2E2F03132C0803171906031D2E2F2D
:100E480003132B0803171806031D2E2F03132A0854
:100E580003171706031DCF2F8B1383168C18312FFA
:100E680083128D0101308C0083168C1303108B1BA9
:100E780003148B130C1555308D00AA308D008C147B
:100E88000C1103188B1783120514492F03132D080F
:100E980003171A06031D602F03132C0803171906DE
:100EA800031D602F03132B0803171806031D602F5B
:100EB80003132A080317170603198F2FCF2F0313BD
:100EC8002308F23A031D6A2FF030A300211D752F65
:100ED8008714762FF2300313A3002119752F871476
:100EE800762F871083128D2F04300313A106211942
:100EF8007F2F0030802F77308312C40006300A1607
:100F08008A1110260A128A11211D8C2F87148D2F01
:100F180087102114A22F1C08F7001B08F6009E2F2B
:100F280076080319632F013A03196E2F033A031940
:100F3800782FA22F7708803A0319942F0313211CC6
:100F4800CF2F03179601960A0A128A1504200A124F
:100F58008A11CF2F16080319D42E013A0319F92E36
:100F6800033A0319182F073A03194A2FCF2F0317EB
:100F7800150CF500F50C750C0F390319FF2B013A08
:100F88000319D12C033A0319752D063A0319BA2E01
:100F98000B3A0319AE2F83120313211CDA2F0A16FA
:100FA8008A1130260A128A112110DD2F181683168D
:100FB8008C160030831208008B1383120313480821
:100FC8003502031DE92F47083402031CFE2F35089C
:100FD800F5003408F4004708F402031CF503480838
:100FE800F502803075020030031974028B17031C58
:080FF800013400348B170034B2
:1010020083014F08080083012A080317970003137E
:101012002B080317980003132C08031799000313D6
:101022002D0803179A0003132308F03A0319211D10
:101032001C28F1301D28230803179B0002300A16D2
:101042008A11E6250A128A1503179C0083161008D6
:1010520083129D007B309E00031308008301C400AD
:1010620081280F08C700C801F500F4010E087404B6
:10107200C7007508C8000F06031D32285A304707FB
:10108200C5001530031816304807C600640046082C
:101092004802031D4E2845084702031C62284808DF
:1010A200F5004708F4004508F402031CF50346085E
:1010B200F50280307502003003197402031C812886
:1010C20073284608F5004508F4004708F402031C9B
:1010D200F5034808F50280307502013003197402E5
:1010E200031881280F08C700C801F500F4010E0893
:1010F2007404C7007508C8000F060319482873282E
:1011020083120313C403440F32280800BC29303071
:101112003002031CB8298312BD018316B901B40140
:10112200B501F92883123D08F4000310F40D0310F1
:10113200740D0C3EAF3E840083130008F7003D0897
:10114200F4000310F40D0310740D0B3EAF3E840047
:1011520083130008F6003D08F4000310F40D031099
:10116200740D0D3EAF3E840083130008F5003D0868
:10117200F4000310F40D0310740D0E3EAF3E840014
:10118200831300087507760777078316B8000310E4
:10119200B80C0310B80C0310B80C10308A0083127C
:1011A2003D0849200A128A1500380319EB28053038
:1011B20083163802031CF0280A30F400F5013808BF
:1011C200F402031CF5037408B4070318B50A750882
:1011D200B507F728083083163802031CF328B90133
:1011E200B90AF7283808B4070318B50A8312BD0AEA
:1011F2000C3083123D02831603180229B908031921
:101202009328360A0319370A03191A29B908031D44
:10121200122935083702031D102934083602031833
:101222001D29AF01AF0AB001B00AFF30B600B70006
:10123200CA29B908031DCA293408B6003508B700FF
:10124200CA29A60130080F390F3A031DB8298312A3
:10125200BD013D08F4000310F40D0310740D303C81
:10126200B73E840083130008F7003D08F400031022
:10127200F40D0310740D303CB93E84008313000852
:10128200F6003D08F4000310F40D0310740D303C19
:10129200B83E840083130008F5003D08F4000310F3
:1012A200F40D0310740D303CB63E84008313000825
:1012B2007507760777078316B8000310B80C03107A
:1012C200B80C0310B80C0310A60D06303802031830
:1012D20026148312BD0A04303D02031C2A29093058
:1012E200831626020318862910308A0026086E20EB
:1012F2000A128A15F400740AB100A730B200B301D1
:10130200B30A0230AF00B001B829AF01B001CA2957
:1013120030080339033A031DB829660867076907CD
:101322006807B8000310B80C0310B80C0310B80C0F
:1013320006303802320884008313031CA3293308C1
:101342008004A52933098005803033020318AC29B3
:101352000310B30DB829B301B30AB20AB10BB8290D
:101362008C108312121103308316AF00BA29B00A0F
:10137200CA290130DE29831603132F08031988288E
:10138200013A03192229033A03198929013A031957
:10139200BA298312BD013D08BB3E840083130008B5
:1013A200F4003D08BA3E8400831374088000BD0A2D
:1013B2002F303D02031CCC29003083120800830128
:1013C200BD000310BD0D8B1307103D08930083165B
:1013D200141CE82987168312071493018316141C20
:1013E200EF29871283121308BD008B1708008301AF
:1013F200C6000310C60D46148B130710460893004F
:101402008316141C012A83120714450893008316BD
:10141200141C082A8B17831208003A308301C50076
:101422000030F8210A30C600C7010A168A111B27AC
:101432000A128A153B30C5000030F8210A30C60076
:10144200C7010A168A111B270A128A155830C500CD
:101452000130F8212030C5000230F821C5010330E7
:10146200F8210130E021583A031D01340230E02115
:10147200203A031D01340330E0210038031D0134FA
:101482004230C5000430F8211430C5000530F8217F
:101492009C30C5000630F8210430E021423A031D99
:1014A20001340530E021143A031D01340630E021F5
:1014B2009C3A031D01340230C5000730F821803008
:1014C200C5000830F8211230C5000A30F821C501E4
:1014D2000B30F82110308A0002307820C5000C3021
:1014E2000A128A15F8211030C5000D30F821263075
:1014F200C5000E30F8219C30C5000F30F8216B304A
:10150200C5001030F8215B30C5001130F821703071
:10151200C5001230F821C501C50A1330F821C501F2
:101522001C30F8211030C5004030F8210830C500C9
:101532004130F8213F30C5004230F8210430C50067
:101542004330F821C5014430F821C5014530F82166
:10155200C5014630F8210A168A1179200A128A1525
:10156200C5000030F82110308A0001307820C50013
:1015720009300A128A15F82110308A0002307820C8
:10158200C5000C300A128A15F821A630C5000E30AB
:10159200F8210E30E021F400F41DCA2A2630C500DD
:1015A2000E30F82110308A0004307820C500003057
:1015B2000A128A15F82110308A0005307820C500F9
:1015C20009300A128A15F82110308A000630782074
:1015D200C5000C300A128A15F821A630C5000E305B
:1015E200F8210E30E021F400F41DF22A2630C50065
:1015F2000E30F8213F30C5000030F8215530C500CB
:101602000B30F8210B30E021553A031D0134AA308A
:10161200C5000B30F8210B30E021AA3A031D023439
:10162200C5010B30F8217B30C5000030F8210230B3
:10163200C600C7010A168A111B270A128A157930B9
:10164200C5000030F8210A168A1199250A128A1556
:1016520000348301C4006400CF0010308A004408C3
:10166200F4000310F40D0310740D7820C50000304F
:101672000A128A15F82110308A004408F400031077
:10168200F40D0310740DF400740A7820C5000930BB
:101692000A128A15F82110308A004408F400031057
:1016A200F40D0310740D023E7820C5000C300A12AE
:1016B2008A15F821C408031D612BC5010B30F821DE
:1016C2000A168A1199250A128A15440B0034103021
:1016D2008A004408F4000310F40D0310740D033E55
:1016E2007820C5000B300A128A15F8210A168A11D1
:1016F2008D250A128A150034831603138C10831267
:1017020012119101203092003730831692001C3062
:101712008312950097018316A1010230A000831263
:1017220003170510C530831603138100640083126A
:10173200031705140B11FF30031381008B161215CA
:1017420008008301CD00CC010310CD1FAF2BCD0DBE
:10175200CB1FAC2B4D148530CD06B22BCD0DCB1B40
:101762004D140310CB0DCC0A08304C02031CA62BDF
:101772004D0808008301CA00C72BCA0A4A03840025
:1017820083130008CB004808A223C800C903490FED
:10179200BE2B48080800093083160313A600B101C6
:1017A200B001A001AF018312D001FF308316B60051
:1017B200B7008312031705106830831603138100E4
:1017C2006400831203170514031381012130920070
:1017D200F930831692008312910112158C10831630
:1017E2008C14831208000930831603132602031C8B
:1017F200FC2BCC230134260EF0398312CB00F530BA
:10180200A223BD00C80010308A00831626086E206D
:10181200003E8312C900A7300A128A15BB23BD00FD
:10182200CB01A223BD0010308A00831626086E2049
:101832000A128A15A73E84008313000883123D060C
:101842000319FA2CCC23023427082506031D2D2C5C
:10185200280824060319142D83122308023A031DB3
:101862003A2CF030A300211D382C8714402C87100D
:10187200402C2308083A031D402CCC2300347A3034
:101882000313C6000330C7000A168A111B270A1267
:101892008A150A3059250A128A150034290883123A
:1018A2002B06031D142D8316280883122C06031DF4
:1018B200142D8316270883122D06031D142D78304C
:1018C200C6000530C7000A168A111B270A128A159C
:1018D2002308023A0319772C0230A300BA303407E6
:1018E200A6000A3003180B303507A70083162B0811
:1018F200A4002A08A50016250A128A1500341330FE
:101902008312C6000130C7000A168A111B27133042
:101912008312C6000130C7000A168A111B270A1259
:101922008A1583122308083A031D992CCC2300340C
:10193200053059250A128A150034290883122B060C
:10194200031D142D8316280883122C06031D142D43
:101952008316270883122D06031D142DCE30C600D0
:101962000430C7000A168A111B270A128A15831629
:101972002A087925CC23003416250A128A15003448
:10198200290883122B06031D142D8316280883129F
:101992002C06031D142D8316270883122D06031D02
:1019A200142D7830C6000530C7000A168A111B278D
:1019B2000A128A1583162A088312A200A2080319A2
:1019C200ED2C0830A30093303407A600033003182F
:1019D20004303507A700F42CF030A300211DF32CAE
:1019E2008714F42C871016250A128A150034CC238A
:1019F2000334831626080319252C013A03194F2CA8
:101A0200033A0319882C013A0319922C073A031955
:101A12009E2C023A0319802C013A0319BD2C0F3A6D
:101A22000319C12CF82CCC23003483160313A6010E
:101A320083122D088316A70083122C088316A80090
:101A420083122B088316A900AA012A08F03901384B
:101A5200AA0083122308023A003003190130F4006D
:101A6200F40CF40C83162A0874067F397406AA0053
:101A720028308312C8000430C900A730BB23C70036
:101A8200CB01A223C700A53A031D542D8316AA1623
:101A920028308312C8000430C900A730BB23C70016
:101AA200CB01A223C70047088316AB007D230800A1
:101AB2008301C4000A168A11D5264408F600F701EC
:101AC2000A128A11BA220A128A157408C500722DE6
:101AD2002230C6000130C7000A168A111B270A12DB
:101AE2008A15C503450F692D16250A128A150800A5
:101AF2008301C4000310C40DAD2D3508F500340870
:101B0200F4000A128A11DC231230F7000230F800C6
:101B12004130F9000A128A1171230A128A11A02394
:101B22000A128A157408C5007508C60016250A121D
:101B32008A158316A008031D9A2D83124508C70033
:101B42004608C8000A128A11E0270A128A15F40010
:101B5200F501750403199E2DC403440F7E2D080060
:101B62000330831603138E04163083120317850085
:101B7200640005140A168A118D260A128A150A3083
:101B8200AA00FD3003178D001F308F0083160C1141
:101B92008C170C148310831083120E080C08031385
:101BA200AB00FE3003178D001F308F0083160C111F
:101BB2008C170C148310831083120E080C08031365
:101BC200AC00FF3003178D001F308F0083160C11FD
:101BD2008C170C148310831083120E080C08031345
:101BE200AD0006300A168A11E6250A128A15A000EF
:101BF200773A0319082E0000000000000000773039
:101C0200C40006300A168A1110260A128A150430F8
:101C1200A100211D0E2E87140F2E87102C08BB0049
:101C2200BC01BC00BB012D08BB043B08C6003C083C
:101C3200C7000A168A11CB26C0308B0003300A1661
:101C42008A11E6250A128A15831603179000100FCF
:101C52002B2E2F2E10081F3A031D3B2E00000000D2
:101C620000002130900083120313C40003300A16CF
:101C72008A11102604300A168A11E6250A128A15DC
:101C8200A0007B3A03194F2E000000000000000064
:101C92007B30C40004300A168A11102608300A1656
:101CA2008A11E6250A128A15A0007A3A031D652ECA
:101CB200C40108300A168A1110260A128A15F03059
:101CC200A30083160615C72E00300A168A11B725FF
:101CD2003230C600C7010A168A111B27AA300A161B
:101CE2008A11B7253230C600C7010A168A111B278E
:101CF2002B082D072C070A168A11B7253230C60089
:101D0200C7010A168A111B272B080A168A11B72542
:101D12003230C600C7010A168A111B272C080A1680
:101D22008A11B7253230C600C7010A168A111B274D
:101D32002D080A168A11B7250A30C600C7010A16ED
:101D42008A111B278316061532308312C600C7017B
:101D52000A168A111B270A128A15061DBB2E5E302F
:101D6200C6000130C7000A168A111B270A128A15FB
:101D7200061DC52EA30100303407A6007D300318CE
:101D82007E303507A700C72EF030A3000A168A114D
:101D920055260A128A1500380319D82EA3010030DD
:101DA2003407A6007D3003187E303507A70083165E
:101DB2000C1483123508F5003408F4000A128A1153
:101DC200DC23E230F700E430F8004430F9000A1274
:101DD2008A1171230A128A11A0237408A8007508B7
:101DE200A9000A128A15CC230A128A150614831234
:101DF2000313A508031D06191E2F05302302031C19
:101E02001D2F0830250205300318112F2502031C4F
:101E12000C2F0630112F02302502031C132F07301E
:101E2200A300142FA30140303407A6000130031889
:101E320002303507A700A115A50150080319372F55
:101E4200500B322FD0010A128A1587200A128A15E6
:101E5200013A031D372F0A128A15F4230A128A1532
:101E6200372F0A128A15CC230A128A150317100873
:101E7200043A031D492F0A128A11EB230A128A150A
:101E820000380317031D582F930F572F930A572F0C
:101E92001008073A031D592F00300A128A152A2307
:101EA2000A128A15181683168C16831203179001CC
:101EB2000313330834060319F82E64003408B30000
:101EC200A118962F2808C7002908C8000A128A11EB
:101ED200E0270A128A15F400F50175040319C22FCE
:101EE2003508F5003408F4000A128A11DC23E230C6
:101EF200F700E430F8004430F9000A128A11712325
:101F02000A128A11A0230A128A157408A8007508F9
:101F1200A900031793080319902F9301C22F0A16E1
:101F22008A1155260A128A15C22F3108C7003208B3
:101F3200C8000A128A11E0270A128A15F400F50174
:101F420075040319C22FCD30A105BB01F401F501BF
:101F52003B083B07A13E8400831774088000840A73
:101F6200750880003B083B07913E84008317740884
:101F72008000840A75088000BB0A08303B02031CFB
:101F8200A72FF030031323020318F82E0A3023027E
:101F9200031CCD2FF030A3002608C7002708C80075
:101FA2000A128A11E0270A128A15F400F501750453
:101FB2000319F82EA4012308023A031DE52F831604
:101FC200A501F0308312F92F2308083A031DF82FD8
:101FD200A2080319FA2FA20BEF2FF82F9330340720
:101FE200A6000330031804303507A700FA2FF0309B
:101FF200A300211DFE2F8714F82E8710F82E8207CA
:10200200CC34CC34CC34CC34CC34CC34CC34CC34CE
:10201200FF340034FF340034FF340034FF34003422
:10202200FF34FF34FF34FF34FF34FF34FF34FF3416
:10203200FF34FF34FF34FF34FF34FF34FF34FF3406
:10204200FF34FF34FF34FF34FF34FF34FF34FF34F6
:10205200EE34EE34AA34AA34FF34FF34FF34FF34B2
:10206200CC34FC34FF34FF34FF34FF34FF34FF340C
:10207200CC34CC34CC34FF34FF34FF34FF34FF345F
:10208200FF34FF34FF34FF34FF34FF34FF34FF34B6
:102092008207013400340134003400340134003446
:1020A2000134013400340134003482070D34083421
:1020B2000D340934FF340934FF34FF34FF34FF3464
:1020C200FF340B34820708340834FF3408340834F0
:1020D2000A34FF34FF34FF340934820702340534F2
:1020E20000340034043400340034003404348207F1
:1020F2001134443460340034E134813448340F34D0
:1021020082070134003401340034003401340034D5
:02211200013496
:102B1A000D308301C500C50B902D080083160313E1
:102B2A008C108312121108007D308301C500C50381
:102B3A00450F9C2D0800831203179008031DA72D2B
:102B4A000030A82D01300313080083160313AF08C1
:102B5A00031DB42DA008031DB42D0030B52D01307E
:102B6A00831208008301BD008B13061100003D0883
:102B7A0093008316141CBE2D0000831206158B17B2
:102B8A00080083010710213093008316141CCA2DF4
:102B9A00831207147B3093008316141CD12D8312E1
:102BAA00080083010710213093008316141CDA2DC4
:102BBA00831207146B3093008316141CE12D8312C1
:102BCA0008008301C400831603178C18E82D8312AA
:102BDA000313440803178D0083168C130C148312F5
:102BEA000C08031308008301BB009F0183169F0191
:102BFA00831281389F00BC010A303C0203180A2E56
:102C0A00BC0A0A303C02031C052E9F1400009F18C0
:102C1A000C2E1E0808008301C500831603178C18A2
:102C2A00122E83120313450803178D000313440859
:102C3A0003178C0083168C1303108B1B03148B133E
:102C4A000C1555308D00AA308D008C140C11031808
:102C5A008B17830108008312031790019101013039
:102C6A000A128A152A230A168A1100380319462ECF
:102C7A00A30100303407A6007D3003187E303507E3
:102C8A00A7005A3003179400951301300A168A11C7
:102C9A00A7270A168A11831698160C16831208009B
:102CAA008301181283168C1298120C1283120317BE
:102CBA009001910103133508F5003408F4000A1253
:102CCA008A11DC23A930F7002B30F8004530F900CF
:102CDA000A128A1171230A128A11A0237408B100F8
:102CEA007508B2000A128A150E220A168A110038CD
:102CFA000319812E01308B2E00300A128A152A23DD
:102D0A000A168A11181683168C16003083120800C8
:102D1A000430831603139500603081000430831257
:102D2A0086001A3083168600083083128500033025
:102D3A0083168500413083128700903083168700FE
:102D4A000330031788000A30890081308312031385
:102D5A009F0083169F01113083129000E930831679
:102D6A009700831203178916A5308700403083160F
:102D7A00031394003130831294000C3083169900A7
:102D8A0004309800803083129800080083014608B6
:102D9A00B7004708B800B901BA01B601B60A080077
:102DAA008301B608031DDD2EC601C60AC701CB265C
:102DBA006D30F8004E30F900C630FA004130FB00A1
:102DCA003708F4003808F5003908F6003A08F70021
:102DDA000A128A117D220A168A113930F800303017
:102DEA00F900FA01FB0178087407FC007508FD0078
:102DFA0079080318790FFD077608FE007A08031888
:102E0A007A0FFE077708FF007B0803187B0FFF077E
:102E1A007C08B7007D08B8007E08B9007F08BA00B0
:102E2A00F5003908F4007F30F5050800612F0F0816
:102E3A00CB000E08CA004B080F06031D1C2F6400A6
:102E4A00C6304A07C8000330031804304B07C900CC
:102E5A0049084B02031D332F48084A02031C472F17
:102E6A004B08F5004A08F4004808F402031CF5036D
:102E7A004908F50280307502003003197402031CF8
:102E8A00612F582F4908F5004808F4004A08F4024F
:102E9A00031CF5034B08F502803075020130031953
:102EAA0074020318612F0F08CB000E08CA004B08E2
:102EBA000F0603192D2F582F8312031346080319DF
:102ECA00C703C603460A0319470A031908001C2F39
:102EDA0083120317150CF400F40C740C0F39F40068
:102EEA000530740203188B2F10308A00150D150D4A
:102EFA000139F400150CF500F50C750C0F39F500C5
:102F0A007507740763200A168A11A52F150CF40099
:102F1A00F40C740C0F390F3A031DA42F0630160255
:102F2A000318A42F10308A00150D150D0139F4006D
:102F3A0016081607740756200A168A11A52FFF309D
:102F4A00031308008301C400FF30C800C9006D27BD
:102F5A008313C700470FB22FFF34FE30C707C601DD
:102F6A00470846020318DA2F4608143E84008317DE
:102F7A000008C806C501481CD02F4908F5004808B2
:102F8A00F4000310F50CF40C01307406C800A030EC
:102F9A007506C900D32F0310C90CC80CC50A08301E
:102FAA004502031CC02FC60AB52FC4080319EA2F0D
:102FBA004708143E84008317490880004708153ED5
:102FCA00840083174808800000344708143E8400B0
:102FDA0083170008F500F4014708153E840083179B
:102FEA000008F40449087506031DFD2F48087406F5
:062FFA0003190034FF344E
:04400E00C123FF3E8D
:00000001FF
