:060000000A168A15E12931
:10000800F30003088301D5000408D6000A08D700C6
:100018008A017408DE007E08DF007F08E0007508AA
:10002800DD007608DC007708E1007808E50079084B
:10003800E6007A08E4007B08E3007C08E2007D081B
:10004800E7005808DA005908DB00831603138C1CF4
:100058005B2883128C1C5B28831201088316E90035
:10006800831281018C102208F23A031D4928831655
:100078006908143A8312031D44282519462848287C
:100088002519482887144928871012308316031326
:10009800690203185128E901572817306902031C1F
:1000A80057280830E90001308312D400BF288B1A82
:1000B8000B1DBF285D3083128107B3282108F40087
:1000C800F5017508103E8312D9007408793E0318AB
:1000D800D90A0A128A115F220A128A11013A031DEB
:1000E80078280C3097047B280711F330970583167E
:1000F800A10A2108083A031DBE280530A100A30162
:10010800A30AA2010430A6282208A73E840083136C
:1001180000082305031994280C30831297049828A3
:1001280083120711F33097058030831623020318D2
:10013800A0280310A30DBE28A301A30AA20AA10B9D
:10014800BE280530A000BE28F3308312970507119A
:100158008B128316A00102308312D400BE288316A6
:100168002008023A03196228063A03198828013A36
:100178000319A8280B1183168C1E5C2983128C1E68
:100188005C2983121A08D1001819CC28981C4B290D
:10019800981CD128181200001816023003171002F4
:1001A800031CBA290A168A11AC250A128A110317E8
:1001B80091011008043A0319BA294929031351086F
:1001C800553A0317031DF728910A1108043A031D2D
:1001D800BA290A168A119C250A128A110317910155
:1001E8009001900ABA299101BA29031351085A3A81
:1001F800031D05295A30031794009101910A023012
:1002080040290317910A1108083A031DBA294229FF
:10021800910A1103143E84008317031351088000C8
:1002280003171108043A031DBA290A168A116D2703
:100238000A128A1103179200120F23294229033048
:100248004029910A1103143E8400831703135108AF
:100258008000031712081102031CBA29031318128D
:1002680083168C128312031791010A168A11AC2582
:100278000A128A11043003179000BA290A168A1143
:10028800AC250A128A11031791019001BA290317A4
:1002980010080319E228013A0319F928033A031947
:1002A8000C29013A03192529073A0319BA294229C1
:1002B80083160C1EBA2983120C1EBA29A729553099
:1002C800031399000317910A11080A3A031DB82964
:1002D80091019001900AB829FF3003139900031780
:1002E800910A1108023A031DB8290A168A116D27C6
:1002F8000A128A110317920091010330A529910A65
:100308001103143E84008317000803139900031790
:1003180012081102031CB82991010530A5295C3087
:10032800031399000317910A1103031DB829063016
:10033800A5298316031398120C128312031791012F
:1003480007309000B829831203171008031963298E
:10035800013A03197029023A03198329063A031945
:100368009329033A03199D2903130C1283120313CB
:100378000C1C072A83160C1C072A8312B50A0319BA
:10038800B60A0619A60A0A168A115E260A128A11E0
:100398000038031D861AD6292208F03A031DD629EB
:1003A8000610A40AF03022020318062A10308A0028
:1003B8002208F4000310F40D0310F40D0310740D5B
:1003C800F4002308F5000310F50C0310F50C0310D6
:1003D800750C0739740700200A128A11F4000130DD
:1003E800F50023080739F600F60AFC290310F50D75
:1003F800F60BFA29750874050319042A8714052AC7
:100408008710A30A0C10031383125E08F4005F0818
:10041800FE006008FF005D08F5005C08F600610852
:10042800F7006508F8006608F9006408FA00630830
:10043800FB006208FC006708FD005A08D8005B084A
:10044800D9005608840057088A0055088300F30E1F
:10045800730E09002030840053304D220230D90039
:100468007530D8005330840055305222A0308400B3
:10047800EA304D228317103084005E304D229030D0
:100488008400B1304D220A128A15BB2D0406800162
:10049800840A0406031D4A2A64000034F4000A1280
:1004A8008A1162220A128A118000840A04087406DA
:1004B80003190034532A83120313D800D91B6D2A59
:1004C800591B752A59088A005808D80A0319D90AE5
:1004D80082008313591883175808D80A8400000823
:1004E8000800003400340310FF30F407F409031C3B
:1004F800F507F509031CF607F609031CF707F709C2
:10050800080084017408FC007508FD007608FE00E8
:100518007708FF00F601F701F401F5010310FF0C5D
:10052800FE0CFD0CFC0C031CA72A7808F4077908BC
:100538000318790FF5077A0803187A0FF6077B086E
:1005480003187B0FF7077C087D047E047F040319DA
:10055800B32A0310F80DF90DFA0DFB0D922A840841
:100568000319003477088000840376088000840328
:10057800750880008403740880000034FA01F51FB0
:10058800CC2AF409F40A0319F503F5097A17FA17BE
:1005980077088039FA06F71FD82AF609F60A0319E8
:1005A800F703F709D82AFA01F801F9017608770460
:1005B800031DE12AF401F50100341F30FA04031089
:1005C800FA0AF60DF70D031CE42AF70CF60C770867
:1005D8007502031DF12A76087402031CF92A7608AD
:1005E800F4027708031C770AF502F80DF90DFA0BE7
:1005F800FA1AE92AFA1F052BF809F80A0319F90368
:10060800F9097808F6007908F7007A1F0034F40928
:10061800F40A0319F503F5090034FC01750D760D8C
:10062800FA007A0803191C2BFC0DF601F5170800CF
:10063800F401F501F6010034FC10780D790DFB008A
:100648007B0803192C2B0318FC14F901F817080070
:10065800FB01F701F801F90108007A0803191C2BBE
:10066800F513FC0C7A0CF6000318F517E72BFA08BB
:10067800031D4F2BF401F501F601E72B760303194F
:10068800F40A0319F50A0319F60A0310F60CF50C17
:10069800F40CFA0A3B2BF608031D422B7408750468
:1006A80003193E2BF51B312BFA0303193E2B0310BC
:1006B800F40DF50D562B7A087B02031C6E2B0319DB
:1006C80008000310F60CF50CF40CFA0A7A087B0201
:1006D800632B0310F90CF80CF70CFB0A7A087B065D
:1006E800031908006D2B8030F9068401112320239B
:1006F8005F237C1C872BF409F509F609F40A031912
:10070800F50A0319F60AFC1C912BF709F809F909EF
:10071800F70A0319F80A0319F90A7708F407780899
:100728000318780FF50779080318790FF607FC0105
:10073800F61F3B2BF409F509F609F40A0319F50A23
:100748000319F60A7C143B2B84011123F70182302C
:10075800FA07FA1B1C2BF030FA07FA1BC42B1830C7
:100768007A0203181C2BFA08031DBD2B7C1877226C
:100778000800FA030310F40DF50DF60DF70DB72B6D
:100788000310F60CF50CF40CFA0FC42BBA2BF71F58
:10079800D02B7C147722D12BFC018E30FA008401F7
:1007A800F70803193B2B0310F70CF60CF50CF40CA7
:1007B800FA0AD42BF601F51BF6037608F700CB2BC3
:1007C800F601F701D02B840803190034760880005D
:1007D8008403750880008403740880000034831241
:1007E8000317951F052C00300A168A11A7270A122D
:1007F8008A1100380319C32F181683168C16013076
:10080800E62F0313E22F190CF400F40C740C0739CB
:1008180003191E2C0313251A1E2C03132516031760
:1008280017080739F4007407913E84008317800184
:10083800840A8001031717080739F4007407913EEA
:100848008400831716080006031D2D2C1708840A38
:1008580000060319D72F19080739F4000130F600EC
:10086800F701F40A3A2C0310F60DF70DF40B372CA8
:10087800FF30F607031CF70703132E08F605F701E8
:10088800031718087F39F400F50177087506031D6A
:100898004F2C76087406031DD72F17080739F40064
:1008A8007407A13E8400831716088000840A17087D
:1008B80080007F2CF1300313220203188D2C0630A0
:1008C800A20040303507A700013003180230792C08
:1008D800053003132202031C8D2C0530A20093302F
:1008E8003507A7000330031804303607A8007D2C0D
:1008F8000313A5158D2C190CF500F50C750C07398B
:10090800013A03195E2C033A03196C2C013A0319B6
:100918007C2C0A168A11D5260A128A110130F60093
:10092800031715080739F700F70A9C2C0310F60D72
:10093800F70B9A2C7608F600760374050A128A15C6
:1009480039200A128A112B080317960003132C0862
:100958000317970003132D080317980003132E0895
:100968000317990095010313A51DBC2C0317151433
:1009780003133608F5003508F4000A128A11E42337
:10098800A930F7002B30F8004530F9000A128A1117
:1009980079230A128A11A8230A128A117408B2004C
:1009A8007508B3000330A504D72F03132E080317C7
:1009B8001906031DEF2C03132D0803171806031D32
:1009C800EF2C03132C0803171706031DEF2C031332
:1009D8002B0803171606031DD72F0313C20142085D
:1009E8004207A13E840083170008C300840A000858
:1009F800C400430403190E2D4308C0004408C10075
:100A080042084207913E8400831740088000840A08
:100A180041088000C20A08304202031CF32C400837
:100A2800F500F4017408C5007508C6004108F40013
:100A3800F5014508F4044608F504FF307405C000C4
:100A48000F307505C100031715080739013A031D52
:100A58003C2D03132208F03A031D3C2D0630A2005A
:100A680040303507A7000130031802303607A800C8
:100A7800003003134102053003194002031C522DB4
:100A880000304102083003194002031C612D003078
:100A980041020D30031940020318612D3608F50094
:100AA8003508F4000A128A11E4230A128A11A930BF
:100AB800F7002B30F80046306D2D3608F500350864
:100AC800F4000A128A11E423A930F7002B30F80049
:100AD8004530F9000A128A1179230A128A11A823CB
:100AE8000A128A117408B2007508B300A514A5117A
:100AF800D72F03132E0803171B06031D932D03136B
:100B08002D0803171A06031D932D03132C0803172A
:100B18001906031D932D03132B0803171806031D2D
:100B2800D72F03132B080317960003132C0803175A
:100B3800970003132D080317980003132E080317B3
:100B4800990003133608F5003508F4000A128A11D3
:100B5800E423A930F7002B30F8004530F9000A12D9
:100B68008A1179230A128A11A8230A128A11740891
:100B7800B2007508B300D92D21300313A504E72D61
:100B88000A128A1520250A128A11E62D2208F03A3F
:100B9800031DE62D0630A20040303507A7000130BE
:100BA800031802303607A800E62D03171508073981
:100BB800013A0319C02D043A0319C42D023A03134C
:100BC8000319CA2D2514103003179500D72F1608BE
:100BD8008316031325068312031DFA2D031717081E
:100BE80083160313240683120319D82F2208023A06
:100BF800031D052EF030A200251D042E8714052E96
:100C080087102208083A0319D72F7A30C900033011
:100C1800CA000A168A111B270A300A128A15632588
:100C28000A128A11D72F1A0803132C06031DD72F6F
:100C38000317190803132D06031DD72F03171808C8
:100C480003132E06031DD72F7830C9000530CA00BC
:100C58000A168A111B270A128A1103179608031D00
:100C68004E2E17080313A100A1080319462E0830B9
:100C7800A20093303507A700033003180430360765
:100C8800A800682EF030A200251D4C2E8714682E6F
:100C98008710682E03132208023A03195D2E0230CA
:100CA800A200BA303507A7000A3003180B30360700
:100CB800A8000317170883160313A4008312031749
:100CC800160883160313A5000A128A1520250A128E
:100CD8008A11D72F17085A3A031D782E0A168A1137
:100CE80063250A128A11D72F0A128A15D6230A12E7
:100CF8008A11D72F13300313C9000130CA000A160E
:100D08008A111B2713300313C9000130CA000A16C1
:100D18008A111B270A128A1103132208083A031999
:100D2800D72F05300A128A1563250A128A11D72F80
:100D38001A0803132C06031DD72F031719080313CA
:100D48002D06031DD72F0317180803132E06031D9E
:100D5800D72FCE30C9000430CA000A168A111B27C3
:100D6800031717080A128A1583250A128A11D72F22
:100D78000A128A1520250A128A11D72F1508073951
:100D88000319EB2D013A0319172E033A0319862E7E
:100D9800013A0319902E073A03199C2E013A0319B8
:100DA8006E2E033A03197E2E013A0319BC2ED72F53
:100DB800173084008317031330080006031DE72E3D
:100DC8003108840A00060319F22E031717080313C3
:100DD800B000031718080313B100AF0107302F0242
:100DE8000318D72FAF0A0A168A11D52674080A12D3
:100DF8008A1539200A128A11192F03132E0803178E
:100E08001A06031D172F03132D0803171906031DB0
:100E1800172F03132C0803171806031D172F031386
:100E28002B0803171706031DD72F0A168A11332616
:100E38000A128A112514D72F03132E0803171A062E
:100E4800031D362F03132D0803171906031D362F0C
:100E580003132C0803171806031D362F03132B083A
:100E680003171706031DD72F8B1383168C18392FDA
:100E780083128D0101308C0083168C1303108B1B99
:100E880003148B130C1555308D00AA308D008C146B
:100E98000C1103188B1783120514512F03132E08F6
:100EA80003171A06031D682F03132D0803171906C5
:100EB800031D682F03132C0803171806031D682F3A
:100EC80003132B08031717060319972FD72F03139C
:100ED8002208F23A031D722FF030A200251D7D2F43
:100EE80087147E2FF2300313A20025197D2F871453
:100EF8007E2F87108312952F04300313A50625191A
:100F0800872F0030882F77308312C70006300A16E3
:100F18008A11EE250A128A11251D942F8714952F00
:100F280087102514AA2F1C08F7001B08F600A62F07
:100F3800760803196B2F013A0319762F033A031920
:100F4800802FAA2F7708803A03199C2F0313251C9A
:100F5800D72F03179601960A0A168A1133260A1202
:100F68008A11D72F16080319DC2E013A0319012F0D
:100F7800033A0319202F073A0319522FD72F0317C3
:100F8800150CF500F50C750C0F390319072C013AEF
:100F98000319D92C033A03197D2D063A0319C22ED9
:100FA8000B3A0319B62F83120313251CE22F0A16D6
:100FB8008A110E260A128A112510E52F1816831693
:100FC8008C160030831208008301BE009F0183162F
:100FD8009F01831281389F00BF010A303F02031826
:100FE800FA2FBF0A0A303F02031CF52F9F14000096
:080FF8009F18FC2F1E080800E1
:101002008301181283168C1298120C128312031782
:101012009001910103133608F5003508F4000A1215
:101022008A11E423A930F7002B30F8004530F9008B
:101032000A128A1179230A128A11A8237408B200AB
:101042007508B3000A128A1518220A128A15003886
:1010520003192D280130372800300A128A1534234B
:101062000A128A15181683168C160030831208008D
:101072008301C7008B280F08CA00CB01F500F401D9
:101082000E087404CA007508CB000F06031D3C2825
:101092005A304A07C8001530031816304B07C900EA
:1010A200640049084B02031D582848084A02031CE1
:1010B2006C284B08F5004A08F4004808F402031CA7
:1010C200F5034908F50280307502003003197402F5
:1010D200031C8B287D284908F5004808F4004A08BB
:1010E200F402031CF5034B08F5028030750201304F
:1010F2000319740203188B280F08CA00CB01F500EC
:10110200F4010E087404CA007508CB000F06031917
:1011120052287D2883120313C703470F3C28080077
:10112200C62930303002031CC2298312C001831643
:10113200B901B401B501032983124008F400031078
:10114200F40D0310740D0C3EAF3E840083130008AF
:10115200F7004008F4000310F40D0310740D0B3E69
:10116200AF3E840083130008F6004008F400031029
:10117200F40D0310740D0D3EAF3E8400831300087E
:10118200F5004008F4000310F40D0310740D0E3E38
:10119200AF3E84008313000875077607770783162E
:1011A200B8000310B80C0310B80C0310B80C1030C0
:1011B2008A008312400849200A128A15003803194E
:1011C200F528053083163802031CFA280A30F40089
:1011D200F5013808F402031CF5037408B407031878
:1011E200B50A7508B5070129083083163802031CB1
:1011F200FD28B901B90A01293808B4070318B50A4C
:101202008312C00A0C3083124002831603180C2981
:10121200B90803199D28360A0319370A0319242924
:10122200B908031D1C2935083702031D1A29340881
:10123200360203182729AF01AF0AB001B00AFF3006
:10124200B600B700D429B908031DD4293408B60062
:101252003508B700D429A60130080F390F3A031D0B
:10126200C2298312C0014008F4000310F40D0310D8
:10127200740D303CB73E840083130008F700400829
:10128200F4000310F40D0310740D303CB93E8400D9
:1012920083130008F6004008F4000310F40D031055
:1012A200740D303CB83E840083130008F5004008FA
:1012B200F4000310F40D0310740D303CB63E8400AC
:1012C200831300087507760777078316B8000310A3
:1012D200B80C0310B80C0310B80C0310A60D06309E
:1012E2003802031826148312C00A04304002031C79
:1012F20034290930831626020318902910308A00F7
:1013020026086E200A128A15F400740AB100A7306A
:10131200B200B301B30A0230AF00B001C229AF017B
:10132200B001D42930080339033A031DC2296608E3
:10133200670769076807B8000310B80C0310B80CF8
:101342000310B80C06303802320884008313031CE1
:10135200AD2933088004AF29330980058030330278
:101362000318B6290310B30DC229B301B30AB20A96
:10137200B10BC2298C108312121103308316AF00F5
:10138200C429B00AD4290130E829831603132F088F
:1013920003199228013A03192C29033A03199329B4
:1013A200013A0319C4298312C0014008BB3E8400DC
:1013B20083130008F4004008BA3E840083137408C3
:1013C2008000C00A2F304002031CD629003083124D
:1013D20008008301C0000310C00D8B1307104008E2
:1013E20093008316141CF2298716831207149301A3
:1013F2008316141CF929871283121308C0008B1755
:1014020008008301C9000310C90D49148B1307108A
:10141200490893008316141C0B2A831207144808E8
:1014220093008316141C122A8B17831208003A3079
:101432008301C800003002220A30C900CA010A161C
:101442008A111B270A128A153B30C800003002227B
:101452000A30C900CA010A168A111B270A128A1504
:101462005830C800013002222030C8000230022267
:10147200C801033002220130EA21583A031D013427
:101482000230EA21203A031D01340330EA210038F8
:10149200031D01344230C800043002221430C80057
:1014A200053002229C30C800063002220430EA21B4
:1014B200423A031D01340530EA21143A031D013476
:1014C2000630EA219C3A031D01340230C80007307D
:1014D20002228030C800083002221230C8000A30CE
:1014E2000222C8010B30022210308A000230812011
:1014F200C8000C300A128A1502221030C8000D30C2
:1015020002222630C8000E3002229C30C8000F3062
:1015120002226B30C800103002225B30C80011304A
:1015220002227030C80012300222C801C80A1330E9
:101532000222C8011C3002221030C80040300222B0
:101542000830C800413002223F30C8004230022237
:101552000430C80043300222C80144300222C801CC
:1015620045300222C801463002220A168A11822020
:101572000A128A15C8000030022210308A00013097
:101582008120C80009300A128A15022210308A000E
:1015920002308120C8000C300A128A150222A630BD
:1015A200C8000E3002220E30EA21F400F41DD42AC3
:1015B2002630C8000E30022210308A00043081200A
:1015C200C80000300A128A15022210308A00053043
:1015D2008120C80009300A128A15022210308A00BE
:1015E20006308120C8000C300A128A150222A63069
:1015F200C8000E3002220E30EA21F400F41DFC2A4B
:101602002630C8000E3002223F30C80000300222CD
:101612005530C8000B3002220B30EA21553A031D27
:101622000134AA30C8000B3002220B30EA21AA3A58
:10163200031D0234C8010B3002227B30C800003087
:1016420002220230C900CA010A168A111B270A1295
:101652008A157930C800003002220A168A116F25D5
:101662000A128A1500348301C7006400D3001030C7
:101672008A004708F4000310F40D0310740D812052
:10168200C80000300A128A15022210308A00470868
:10169200F4000310F40D0310740DF400740A812099
:1016A200C80009300A128A15022210308A0047083F
:1016B200F4000310F40D0310740D023E8120C800E3
:1016C2000C300A128A150222C708031D6B2BC801AF
:1016D2000B3002220A168A116F250A128A15470B4D
:1016E200003410308A004708F4000310F40D031090
:1016F200740D033E8120C8000B300A128A150222A3
:101702000A168A1169250A128A15003483160313F0
:101712008C108312121191012030920037308316FF
:1017220092001C308312950097018316A1010230AA
:10173200A000831203170510C5308316031381001E
:1017420064008312031705140B11FF300313810089
:101752008B16121508008301D000CF010310D01F91
:10176200B92BD00DCE1FB62B50148530D006BC2B12
:10177200D00DCE1B50140310CE0DCF0A08304F02ED
:10178200031CB02B500808008301CD00D12BCD0AD9
:101792004D03840083130008CE004B08AC23CB001A
:1017A200CC034C0FC82B4B080800093083160313D7
:1017B200A600B101B001A001AF018312D401FF3034
:1017C2008316B600B700831203170510683083161C
:1017D20003138100640083120317051403138101AC
:1017E20021309200F9308316920083129101121572
:1017F2008C1083168C14831208000930831603138D
:101802002602031C062CD6230134260EF03983123D
:10181200CE00F530AC23C000CB0010308A00831616
:1018220026086E20003E8312CC00A7300A128A15C9
:10183200C523C000CE01AC23C00010308A0083163D
:1018420026086E200A128A15A73E84008313000818
:10185200831240060319042DD623023427082506D5
:10186200031D372C2808240603191E2D8312220873
:10187200023A031D442CF030A200251D422C87148D
:101882004A2C87104A2C2208083A031D4A2CD623D8
:1018920000347A300313C9000330CA000A168A11D1
:1018A2001B270A128A150A3063250A128A15003488
:1018B200290883122C06031D1E2D83162808831265
:1018C2002D06031D1E2D8316270883122E06031DC7
:1018D2001E2D7830C9000530CA000A168A111B274E
:1018E2000A128A152208023A0319812C0230A20038
:1018F200BA303507A7000A3003180B303607A800A4
:1019020083162B08A4002A08A50020250A128A158E
:10191200003413308312C9000130CA000A168A113A
:101922001B2713308312C9000130CA000A168A111C
:101932001B270A128A1583122208083A031DA32CB8
:10194200D6230034053063250A128A15003429088B
:1019520083122C06031D1E2D8316280883122D06C2
:10196200031D1E2D8316270883122E06031D1E2D0E
:10197200CE30C9000430CA000A168A111B270A1287
:101982008A1583162A088325D623003420250A12B5
:101992008A150034290883122C06031D1E2D831676
:1019A200280883122D06031D1E2D83162708831275
:1019B2002E06031D1E2D7830C9000530CA000A16F6
:1019C2008A111B270A128A1583162A088312A1007C
:1019D200A1080319F72C0830A20093303507A7009D
:1019E2000330031804303607A800FE2CF030A200A2
:1019F200251DFD2C8714FE2C871020250A128A151E
:101A02000034D62303348316260803192F2C013AF7
:101A12000319592C033A0319922C013A03199C2CED
:101A2200073A0319A82C023A03198A2C013A03191E
:101A3200C72C0F3A0319CB2C022DD6230034831660
:101A42000313A60183122E088316A70083122D0802
:101A52008316A80083122C088316A900AA012A085B
:101A6200F0390138AA0083122208023A0030031921
:101A72000130F400F40CF40C83162A0874067F3942
:101A82007406AA0028308312CB000430CC00A730A1
:101A9200C523CA00CE01AC23CA00A53A031D5E2DA0
:101AA2008316AA1628308312CB000430CC00A7304C
:101AB200C523CA00CE01AC23CA004A088316AB0074
:101AC200872308008301C7000A168A11D526470812
:101AD200F600F7010A128A11C2220A128A15740844
:101AE200C8007C2D2230C9000130CA000A168A11B2
:101AF2001B270A128A15C803480F732D20250A12C4
:101B02008A1508008301C7000310C70DB72D3608D8
:101B1200F5003508F4000A128A11E4231230F700A6
:101B22000230F8004130F9000A128A1179230A12B0
:101B32008A11A8230A128A157408C8007508C900F8
:101B420020250A128A158316A008031DA42D8312CC
:101B52004808CA004908CB000A168A11CE250A1283
:101B62008A15F400F50175040319A82DC703470F60
:101B7200882D08000330831603138E041630831257
:101B820003178500640005140A168A118E260A12AC
:101B92008A151230AB00FD3003178D001F308F0005
:101BA20083160C118C170C148310831083120E08E9
:101BB2000C080313AC00FE3003178D001F308F009A
:101BC20083160C118C170C148310831083120E08C9
:101BD2000C080313AD00FF3003178D001F308F0078
:101BE20083160C118C170C148310831083120E08A9
:101BF2000C080313AE00A50187142D08BE00BF0117
:101C0200BF00BE012E08BE043E08C9003F08CA003C
:101C12000A168A11CB26C0308B0003300A168A11AD
:101C2200BC250A128A15831603179000100F1A2E6C
:101C32001E2E10081F3A031D2A2E0000000000006D
:101C42002130900083120313C70003300A168A1151
:101C5200EE2504300A168A11BC250A128A15A00044
:101C62007D3A03193E2E00000000000000007D3086
:101C7200C70004300A168A11EE2508300A168A11A6
:101C8200BC250A128A15A0007A3A031D552EC701F7
:101C920008300A168A11EE250A128A15F030A200BF
:101CA200243083168604B72E00300A168A118D2539
:101CB2003230C900CA010A168A111B27AA300A1635
:101CC2008A118D253230C900CA010A168A111B27D2
:101CD2002C082E072D070A168A118D253230C900CD
:101CE200CA010A168A111B272C080A168A118D2589
:101CF2003230C900CA010A168A111B272D080A169A
:101D02008A118D253230C900CA010A168A111B2791
:101D12002E080A168A118D250A30C900CA010A1630
:101D22008A111B278316061532308312C900CA0195
:101D32000A168A111B270A128A15061DAB2E5E305F
:101D4200C9000130CA000A168A111B270A128A1515
:101D5200061DB52EA20100303507A7007D300318FD
:101D62007E303607A800B72EF030A2000A128A157C
:101D720001200A128A1500380319C82EA201003068
:101D82003507A7007D3003187E303607A80083167A
:101D92000C1483123608F5003508F4000A128A1171
:101DA200E423E230F700E430F8004430F9000A128C
:101DB2008A1179230A128A11A8237408A9007508C6
:101DC200AA000A128A15D6230A128A150614A40832
:101DD200031D861EFE2E061405302402031CF72E58
:101DE2000A168A115E250A128A15FD2E0230240275
:101DF200031CFD2E5030A504A401A608031D0619DC
:101E0200222F05302202031C212F08302602053022
:101E12000318152F2602031C102F0630152F02302F
:101E22002602031C172F0730A200182FA2014030F0
:101E32003507A7000130031802303607A800A515A0
:101E4200A601540803193B2F540B362FD4010A1252
:101E52008A1591200A128A15013A031D3B2F0A1294
:101E62008A15FE230A128A153B2F0A128A15D623D7
:101E72000A128A1503171008043A031D4D2F0A127D
:101E82008A11F3230A128A1500380317031D5C2FE7
:101E9200930F5B2F930A5B2F1008073A031D5D2FE8
:101EA20000300A128A1534230A128A15181683166C
:101EB2008C16831203179001031334083506031995
:101EC200E82E64003508B400A5189A2F2908CA0024
:101ED2002A08CB000A168A11CE250A128A15F400A6
:101EE200F50175040319C62F3608F5003508F4000C
:101EF2000A128A11E423E230F700E430F800443099
:101F0200F9000A128A1179230A128A11A8230A12E5
:101F12008A157408A9007508AA0003179308031903
:101F2200942F9301C62F0A128A1501200A128A15CC
:101F3200C62F3208CA003308CB000A168A11CE25F2
:101F42000A128A15F400F50175040319C62FCD3063
:101F5200A505BE01F401F5013E083E07A13E84003D
:101F6200831774088000840A750880003E083E07C3
:101F7200913E8400831774088000840A75088000EB
:101F8200BE0A08303E02031CAB2FF03003132202BC
:101F92000318E82E0A302202031CD12FF030A200CF
:101FA2002708CA002808CB000A168A11CE250A1271
:101FB2008A15F400F50175040319E82EA30122081D
:101FC200023A031DE92F8316A501F0308312FD2F7B
:101FD2002208083A031DFC2FA1080319FE2FA10BAA
:101FE200F32FFC2F93303507A7000330031804307A
:101FF2003607A800FE2FF030A2008714E82E8207D1
:10200200CC34CC34CC34CC34CC34CC34CC34CC34CE
:10201200FF340034FF340034FF340034FF34003422
:10202200FF34FF34FF34FF34FF34FF34FF34FF3416
:10203200FF34FF34FF34FF34FF34FF34FF34FF3406
:10204200FD34FF34FF34FF34FF34FF34FF34FF34F8
:10205200EE34EE34AA34AA34FF34FF34FF34FF34B2
:10206200CC34FC34FF34FF34FF34FF34FF34FF340C
:10207200CC34CC34CC34FF34FF34FF34FF34FF345F
:10208200FF34FF34FF34FF34FF34FF34FF34FF34B6
:102092008207013400340134003400340134003446
:1020A2000134013400340134003482070D34083421
:1020B2000D340934FF340934FF34FF34FF34FF3464
:1020C200FF340B34820708340834FF3408340834F0
:1020D2000A34FF34FF34FF340934820702340534F2
:1020E20000340034043400340034003404348207F1
:1020F200013400340134003400340134003401343A
:1021020082071134443460340034E1348134483479
:022112000F3488
:102AB6008301530808008301B801B80AB70108006A
:102AC600831603138C108312121108000D30830134
:102AD600C800C80B6C2D08007D308301C800C803F0
:102AE600480F722D0800831203179008031D7D2DD1
:102AF60000307E2D01300313080083160313AF0840
:102B0600031D8A2DA008031D8A2D00308B2D013050
:102B1600831208008301C0008B13061100004008D1
:102B260093008316141C942D0000831206158B1730
:102B3600080083010710213093008316141CA02D72
:102B4600831207147B3093008316141CA72D83125F
:102B5600080083010710213093008316141CB02D42
:102B6600831207146B3093008316141CB72D83123F
:102B760008008301C700831603178C18BE2D831225
:102B86000313470803178D0083168C130C14831246
:102B96000C08031308008B13831203134B08360229
:102BA600031DD72D4A083502031CEC2D3608F50007
:102BB6003508F4004A08F402031CF5034B08F50235
:102BC600803075020030031974028B17031C013420
:102BD60000348B1700348301C800831603178C1842
:102BE600F02D83120313480803178D0003134708BB
:102BF60003178C0083168C1303108B1B03148B1383
:102C06000C1555308D00AA308D008C140C1103184C
:102C16008B1783010800831203179001910101307D
:102C26000A128A1534230A168A1100380319242E2B
:102C3600A20100303507A7007D3003187E30360725
:102C4600A8005A3003179400951301300A168A110A
:102C5600A7270A168A11831698160C1683120800DF
:102C660083012B080317970003132C0803179800FA
:102C760003132D080317990003132E0803179A0050
:102C860003132208F03A0319251D4B2EF1304C2E62
:102C9600220803179B0002300A168A11BC250A1661
:102CA6008A1103179C008316100883129D007D303D
:102CB6009E00031308008301B80803190134043089
:102CC6003802031C692EB701B801013438082B3EBF
:102CD600840083130008D200872E8714B701B80A30
:102CE60000345208F4003703F500F50A7C2E031071
:102CF600F40CF50B7A2E7408F400741C842E8714D9
:102D0600852E8710B70A003437080319842E093A2E
:102D16000319702E742E603083160313810024303D
:102D26009500831286003A30831686000830831297
:102D3600850003308316850041308312870090306A
:102D4600831687000330031788000A308900813014
:102D5600831203139F0083169F0111308312900084
:102D6600E93083169700831203178916A53087006A
:102D760040308316031394003130831294000C30D4
:102D8600831699000430980080308312980008005A
:102D960083014908BA004A08BB00BC01BD01B9015C
:102DA600B90A08008301B908031DDD2EC901C90A45
:102DB600CA01CB266D30F8004E30F900C630FA0055
:102DC6004130FB003A08F4003B08F5003C08F600E9
:102DD6003D08F7000A128A1185220A168A1139302F
:102DE600F8003030F900FA01FB0178087407FC009E
:102DF6007508FD0079080318790FFD077608FE00AF
:102E06007A0803187A0FFE077708FF007B08031875
:102E16007B0FFF077C08BA007D08BB007E08BC005C
:102E26007F08BD00F5003C08F4007F30F50508007A
:102E3600612F0F08CE000E08CD004E080F06031DA9
:102E46001C2F6400C6304D07CB0003300318043036
:102E56004E07CC004C084E02031D332F4B084D0283
:102E6600031C472F4E08F5004D08F4004B08F402EA
:102E7600031CF5034C08F502803075020030031977
:102E86007402031C612F582F4C08F5004B08F40000
:102E96004D08F402031CF5034E08F5028030750256
:102EA6000130031974020318612F0F08CE000E08B3
:102EB600CD004E080F0603192D2F582F831203132A
:102EC60049080319CA03C903490A03194A0A031917
:102ED60008001C2F83120317150CF400F40C740C55
:102EE6000F39F4000530740203188B2F10308A0056
:102EF600150D150D0139F400150CF500F50C750CC2
:102F06000F39F5007507740763200A168A11A52F75
:102F1600150CF400F40C740C0F390F3A031DA42F92
:102F2600063016020318A42F10308A00150D150D51
:102F36000139F40016081607740756200A168A1176
:102F4600A52FFF30031308008301C700FF30CB0015
:102F5600CC006D278313CA004A0FB22FFF34FE3010
:102F6600CA07C9014A0849020318DA2F4908143E5C
:102F7600840083170008CB06C8014B1CD02F4C08D1
:102F8600F5004B08F4000310F50CF40C0130740640
:102F9600CB00A0307506CC00D32F0310CC0CCB0C85
:102FA600C80A08304802031CC02FC90AB52FC70833
:102FB6000319EA2F4A08143E840083174C08800040
:102FC6004A08153E840083174B08800000344A08DF
:102FD600143E840083170008F500F4014A08153EE4
:102FE600840083170008F4044C087506031DFD2FA2
:0A2FF6004B08740603190034FF3481
:1030440082071134443460340034E1348134483428
:103054000F348301B901B8010A168A1537240A16F8
:103064008A15080000300A168A152A250A168A15B8
:10307400181683168C168312080082070D34083440
:103084000D340934FF34FF34FF340934FF344A3437
:1030940006340B34063411348301071021309300B5
:1030A4008316141C5228831207147B309300831652
:1030B400141C59288312080083010710213093003F
:1030C4008316141C6228831207146B309300831632
:1030D400141C6928831208008301A70083160317B0
:1030E4008C18702883120313270803178D00831686
:1030F4008C130C1483120C08031308008301330887
:1031040003178D000313340803178F0083160C1163
:103114008C170C148310831083120E08FD00FC011D
:103124000C08FC04031308008301A800831603178A
:103134008C18982883120313280803178D0003138F
:10314400270803178C0083168C1303108B1B03149E
:103154008B130C1555308D00AA308D008C140C1176
:1031640003188B178301080018308301850003308E
:10317400831685002430831286001A308316860055
:103184004130831287009030831687000330031781
:1031940088000A3089008130831203139F0083164C
:1031A4009F0111308312900003178701403083166A
:1031B400031394003030831294000C30831699006A
:1031C400043098008030831298000F300317850074
:1031D40083160313811183120800830110100F0852
:1031E400FF00FE010E08FC00FD017E08FC047F08C0
:1031F400FD040430FC070318FD0A7C08A807031823
:10320400A90A7D08A90710140F08FF00FE010E0883
:10321400FC00FD017E08FC047F08FD047D082902F2
:10322400031D16297C082802031C06290F08FF0029
:10323400FE010E08FC00FD017E08FC047F08FD046D
:1032440029087D02031D282928087C020318080088
:10325400182983012708AF002808B0002908AD0009
:103264002A08AB0027080F39AC00F030A705B529B0
:10327400AC08031D412910302A0203185D29AE0150
:103284002E082707B30028080318280AB4000A16D2
:103294008A1580200A168A152E082E07103E8400EF
:1032A40083177C088000840A7D088000AE0A1030F1
:1032B4002E02031C4229AE012C082E02031C76297F
:1032C400AA08031976292908840083130008031720
:1032D4008C000313290A8400000803178E000230AF
:1032E4000313A907AA038B292E082E07103E840076
:1032F4008317000803178C0003132E082E07103EB3
:10330400840083170008FC00840A0008FD000317EA
:103314008E000313270803178D00031328080317CF
:103324008F0083168C1893298C1783120313440877
:10333400713A031DA529831603170C1555308D000A
:10334400AA308D008C1400000000831603170C11A2
:1033540083120313AE0AA70A0319A80A10302E0217
:10336400031C5E29AC01AA080319DD293A292D089A
:10337400840083130008FC00840A0008FD007C0814
:10338400B1007D08B2002F08B3003008B4000A165B
:103394008A1580200A168A1532087D06031DD42951
:1033A40031087C06031D0134AB03AF0A0319B00ACC
:1033B40002308313AD07AB0803190034B929831213
:1033C4000313A001C4010A30C000FD30B3001F3054
:1033D400B4000A168A1580207C08C100FE30B300B0
:1033E4001F30B4000A168A1580207C08C200FF3002
:1033F400B3001F30B4000A168A1580207C08C3006D
:1034040001300A168A156E200A168A15A100A10831
:103414000319112A8030B500B601B60A152A053001
:10342400B6008430B50083160E080339033A031D31
:10343400412A00300A168A156E200A168A15A10040
:10344400A1080319312AA70100300A168A1596200B
:103454000A168A15E030BC000130BD00652A02302E
:103464000A168A156E20A100A10A2108A7000230BD
:103474000A168A1596200A168A15BC01642A831234
:10348400A201A301A401A50100302502031D542AB1
:1034940001302402031D542A86302302031D542ABA
:1034A400A030220203185E2AA20A0319A30A0319F0
:1034B400A40A0319A50A462A033083168E049630FB
:1034C4008312BC00BD010A168A15B6200A168A1595
:1034D4002B200A168A1534200A168A15B5080319F2
:1034E400D22A640083160C1E892A83120C1E892A90
:1034F4000A168A156E230A168A1500380319872AB4
:103504000A168A1534200A168A150C12702A831694
:103514008C1E9E2A83128C1E9E2A0A168A15F82255
:103524000A168A15003803199C2A0A168A15CD250D
:103534000A168A158C12702A83120C1C702A3D08F4
:103544003C04031DB62A01300A168A156E200A1699
:103554008A15A100A1080319B12AB501BA2A0530B8
:10356400B6008430B500BA2ABC080319BD03BC03F5
:103574000130FD00A00A20030F39FC0003107C0C6D
:10358400FC00FC0AC72A0310FD0DFC0BC52A7D08AC
:1035940036050319CF2A8710D02A87140C10702AF5
:1035A400C4010317850102308A002E2A0000D92A9B
:1035B40083160313210CFC00FC0C7C0C0F390F3A0E
:1035C400031DF52A073022020318F52A18308A0051
:1035D400210D210D0139FC00220822077C073F2020
:1035E4000A168A15F62AFF308312080083011A0886
:1035F400A6001819FF2A981C582B981C6B2B18121C
:10360400000018166B2B2608553A031D4A2BB80ADE
:103614003808043A031D6B2B0A168A154E200A1625
:103624008A15B901B90A4A2B26085A3A031D222BD6
:103634000230B900B801B80A26088316A0006B2B23
:10364400B80A3808083A031D6B2B0A168A155E203F
:103654000A168A15B9014A2B3808A03E8400831340
:1036640026088000B80A04303802031C6B2BDA22C7
:10367400A700270F442B0A168A155E200A168A15FE
:10368400B901B80138082706031D6B2B0330B900B4
:10369400B8016B2BB80A380B6B2B0A168A155E20FF
:1036A4000A168A15B901B80101306C2B39080319BF
:1036B400052B013A0319162B033A03192E2B013A51
:1036C40003194C2BB8010A168A155E200A168A15AE
:1036D400B901003083120800A02B55309900B80AB4
:1036E40038080A3A031DB32BB901B90A8F2BFF30EE
:1036F4009900B80A3808023A031DB32B02308E2B06
:103704003808A03E8400831300089900B80ADA221E
:103714003806031DB32B0330B900B801B32B5C305A
:103724009900B80A380BB32B0430B900B32BB90194
:10373400B801831698120C120130B42B83120313B0
:10374400390803196F2B013A0319792B033A03192A
:10375400822B013A0319912B073A0319992BB801CB
:10376400B901003083120800FF308301AA00AB00C6
:10377400DA22A900290FBF2BFF34FE30A907A801C4
:10378400290828020318E72B2808A03E8400831385
:103794000008AA06A7012A1CDD2B2B08FD002A0815
:1037A400FC000310FD0CFC0C01307C06AA00A030C8
:1037B4007D06AB00E02B0310AB0CAA0CA70A083063
:1037C4002702031CCD2BA80AC22B2908A03E840083
:1037D40083130008FD00FC01290AA03E8400831322
:1037E4000008FC042B087D06031DFA2B2A087C061E
:1037F4000319FE2BFF30FF2B003083120313A800A4
:103804002908A03E84002B088000290AA03E8400D9
:103814002A088000280808008301A6000310A60DCA
:103824000710260893008316141C152C8716831280
:10383400071493018316141C1C2C8712831213087B
:1038440008008301A9000310A90D291407102908F1
:1038540093008316141C2B2C83120714280893003E
:103864008316141C322C831208003A308301A800FA
:10387400003023241030A8002730A9000A168A1526
:10388400EF200A168A153B30A8000030232410309C
:10389400A8002730A9000A168A15EF200A168A15EF
:1038A4005830A800013023242030A80002302324FB
:1038B400A801033023244230A80004302324143008
:1038C400A800053023249C30A800063023240230AD
:1038D400A800073023248030A800083023241230A5
:1038E400A8000A302324A8010B30232418308A00AE
:1038F40002302220A8000C300A168A152324103026
:10390400A8000D3023242630A8000E3023249C3038
:10391400A8000F3023246B30A800103023245B3020
:10392400A800113023247030A80012302324A801E9
:10393400A80A13302324A8011C3023241030A80023
:10394400403023240830A800413023243F30A8000D
:10395400423023240430A80043302324A8014430F7
:103964002324A80145302324A801463023240A1621
:103974008A1523200A168A15A8000030232418303B
:103984008A0001302220A80009300A168A1523244F
:1039940018308A0002302220A8000C300A168A153A
:1039A4002324A630A8000E3023240E300E24FC005D
:1039B400FC1DD72C2630A8000E30232418308A0092
:1039C40004302220A80000300A168A152324183057
:1039D4008A0005302220A80009300A168A152324FB
:1039E40018308A0006302220A8000C300A168A15E6
:1039F4002324A630A8000E3023240E300E24FC000D
:103A0400FC1DFF2C2630A8000E3023243F30A800D4
:103A140000302324A8010B3023247B30A80000307D
:103A24002324D030A8000730A9000A168A15EF20F5
:103A34000A168A157930A80000302324D030A80053
:103A44000730A9000A168A15EF200A168A150800FD
:103A54008301A700A7081830031D3F2D8A002708FB
:103A6400FC000310FC0D03107C0D033E2220A80073
:103A74000B300A168A15232418308A002708FC0004
:103A84000310FC0D03107C0D2220A80000300A1640
:103A94008A15232418308A002708FC000310FC0D23
:103AA40003107C0DFC007C0A2220A80009300A16B1
:103AB4008A15232418308A002708FC000310FC0D03
:103AC40003107C0D023E2220A8000C300A168A1531
:103AD4002324FA30A800A9010A168A15EF200A1631
:103AE4008A15270B080018308A002708FC000310E9
:103AF400FC0D03107C0D033E2220A8000B300A1697
:103B04008A1523241430A800A9010A168A15EF2067
:103B14000A168A1508008301181283168C12831260
:103B2400B901B80101300A168A152A258316981698
:103B34007830A1050A168A15B6230A168A15831643
:103B44000C1683120800830140088316A300831215
:103B540041088316A400831242088316A500831229
:103B640043088316A600831235088316A700023083
:103B74000A168A156E208316A8003330A900043073
:103B84000A168A156E200A168A158316AA008D2530
:103B94000A168A15080083160313A11FF62F210C99
:103BA400FC00FC0C7C0C0F390F3A031DF62F0A168F
:103BB4008A15B6230A168A150038031DF62FB43069
:103BC400BC00BD01E32FA3308400831383123E089D
:103BD4000006031DF02D3F08840A0006831603190E
:103BE400FB2D23088312BE00831624088312BF0012
:103BF400831621080739FC000130FE00FF01FC0A8E
:103C0400062E0310FE0DFF0DFC0B032EFF30FE07E6
:103C1400031CFF0783124008FE05FF0183162508D5
:103C2400FC00FD017F087D06031D1A2E7E087C061C
:103C34008312031D080041088316260683120E060C
:103C4400A6002E2E7C30A8001530A9000A168A156D
:103C5400EF200A168A156400A603260F242EA52534
:103C64000A168A15F62F8312430883162606031DA7
:103C74004B2E8312420883162506031D4B2E8312F6
:103C8400410883162406031D4B2E83124008831615
:103C94002306031DF62FA5250A168A15F62F83126F
:103CA400430883162606031D672E831242088316D3
:103CB4002506031D672E8312410883162406031D5F
:103CC400672E8312400883162306031DF62F8130C6
:103CD4008312B500B701BA01BB01A70102300A166D
:103CE4008A159620A70101300A168A1596200A160D
:103CF4008A157130C4000F30B600F62F83123508D0
:103D0400813A0319892E3508823A031DF62F0130B2
:103D14008606A430840083133A080006031D952EFA
:103D24003B08840A0006031D4C2F0030831627022B
:103D340004300319260223080318F52E26078312DC
:103D4400A60005302602031CA92E0430A600831603
:103D540026088312A602D530FC001A30FD00831613
:103D64002608FC070318FD0A2708FD077C088312B0
:103D7400A7007D08A800A830A9002608AA000A16F2
:103D84008A152B210A168A15FC00FD017D04031DEA
:103D9400262F2608FC00FD0183162608FC070318BD
:103DA400FD0A2708FD077C088312A7007D08A800E8
:103DB40026082607083EA03EA900260883162302EB
:103DC4008312AA000A168A152B210A168A15FC00EA
:103DD400FD017D04031D262F3508813A0319432F65
:103DE4008130B500332FFC00FD012608FC070318C1
:103DF400FD0A2708FD0718307D02013003197C02F3
:103E0400031C0F2F27081F3AF03003192606031D41
:103E1400352F23080C3A031D352F26088312A700DB
:103E2400831627088312A800A830A9008316230844
:103E34008312AA000A168A152B210A168A15FC0079
:103E4400FD017D0403192C2F8230B5000230B70028
:103E54000530422F3508813A0319432F8130B500CC
:103E6400B7010F30422F20302702003003192602F9
:103E74000318432F82308312B5000430B700553045
:103E8400B60083123508813A031DF62FBA0A0319C6
:103E9400BB0AF62F8230B5005530B600B708031DB3
:103EA400F62F0330B700F62F831243088316260635
:103EB400031D6C2F8312420883162506031D6C2FE5
:103EC4008312410883162406031D6C2F83124008B5
:103ED400831623060319922FF62F05309B2FA73044
:103EE400840083133A080006031D7B2F3B08840AD1
:103EF4000006031D8D2FC401BC01BD018316A3015F
:103F0400A30A8312A701A70A01300A168A1596206C
:103F14000A168A159D2FB708031D9A2F03309B2F6D
:103F240083123508803A03196F2F013A0319712F50
:103F340037088316A3008D250A168A15F62F8312D7
:103F44004308831626068312031DB82F42088316DE
:103F540025068312031DB82F4108831624068312F5
:103F6400031DB82F4008831623068312031D08007F
:103F74003508813A031DF62FFC30A7001F30A80036
:103F8400A730A9000430AA000A168A152B210A16A4
:103F94008A15FC00FD017D040319D82F0230831615
:103FA400A300FF308312BC00BD00DF2F8316A301E2
:103FB400A30A04308312BC00BD018D250A168A159C
:103FC400F62F831622080319E52D013A0319352E1D
:103FD400023A0319512E073A0319802E013A0319A4
:0C3FE400562F033A0319A12F8312080086
:04400E00C123FF3E8D
:10420000000001000000330000000000000000007A
:00000001FF
