:0600000002308A00262AEE
:10000800F30003088301D1000408D2000A08D300D2
:100018008A017408DA007E08DC007F08DE007508B3
:10002800E0007608DB007708E3007808DD0079084F
:10003800E1007A08DF007B08E2007C08D9007D082F
:10004800D8005408D6005508D700831603138C1C13
:100058005B2883128C1C5B28831201088316E90035
:10006800831281018C102208F23A031D4928831655
:100078006908143A8312031D44282419462848287D
:100088002419482887144928871012308316031327
:10009800690203185128E901572817306902031C1F
:1000A80057280830E90001308312D000BF288B1A86
:1000B8000B1DBF285D3083128107B3282108F40087
:1000C800F5017508103E8312D5007408823E0318A6
:1000D800D50A0A128A1157220A128A11013A031DF7
:1000E80078280C3097047B280711F330970583167E
:1000F800A10A2108083A031DBE280530A100A30162
:10010800A30AA2010430A6282208A73E840083136C
:1001180000082305031994280C30831297049828A3
:1001280083120711F33097058030831623020318D2
:10013800A0280310A30DBE28A301A30AA20AA10B9D
:10014800BE280530A000BE28F3308312970507119A
:100158008B128316A00102308312D000BE288316AA
:100168002008023A03196228063A03198828013A36
:100178000319A8280B1183168C1E5C2983128C1E68
:100188005C2983121A08CE001819CC28981C4B2910
:10019800981CD128181200001816023003171002F4
:1001A800031CBA290A168A11C9250A128A110317CB
:1001B80091011008043A0319BA29492903134E0872
:1001C800553A0317031DF728910A1108043A031D2D
:1001D800BA290A168A11B9250A128A110317910138
:1001E8009001900ABA299101BA2903134E085A3A84
:1001F800031D05295A30031794009101910A023012
:1002080040290317910A1108083A031DBA294229FF
:10021800910A1103143E8400831703134E088000CB
:1002280003171108043A031DBA290A168A116D2703
:100238000A128A1103179200120F23294229033048
:100248004029910A1103143E8400831703134E08B2
:100258008000031712081102031CBA29031318128D
:1002680083168C128312031791010A168A11C92565
:100278000A128A11043003179000BA290A168A1143
:10028800C9250A128A11031791019001BA29031787
:1002980010080319E228013A0319F928033A031947
:1002A8000C29013A03192529073A0319BA294229C1
:1002B80083160C1EBA2983120C1EBA29A729553099
:1002C800031399000317910A11080A3A031DB82964
:1002D80091019001900AB829FF3003139900031780
:1002E800910A1108023A031DB8290A168A116D27C6
:1002F8000A128A110317920091010330A529910A65
:100308001103143E84008317000803139900031790
:1003180012081102031CB82991010530A5295C3087
:10032800031399000317910A1103031DB829063016
:10033800A5298316031398120C128312031791012F
:1003480007309000B829831203171008031963298E
:10035800013A03197029023A03198329063A031945
:100368009329033A03199D2903130C1283120313CB
:100378000C1CFF2983160C1CFF298312B40A0319CD
:10038800B50A0619A50AF03022020318FE29103012
:100398008A002208F4000310F40D0310F40D031072
:1003A800740DF4002308F5000310F50C0310F50C88
:1003B8000310750C0739740700200A128A11F4001B
:1003C8000130F50023080739F600F60AED29031075
:1003D800F50DF60BEB29750874050319F629241990
:1003E800F829FA292419FA298714FB298710831276
:1003F8000313A30A0C10031383125A08F4005C08B1
:10040800FE005E08FF006008F5005B08F600630860
:10041800F7005D08F8006108F9005F08FA00620853
:10042800FB005908FC005808FD005608D40057087E
:10043800D5005208840053088A0051088300F30E3F
:10044800730E0900203084004F3045220230D50059
:100458006D30D4004F30840051304A22A0308400DF
:10046800EA3045228317103084005E3045229030F0
:100478008400B13045220A128A15AA2D040680018B
:10048800840A0406031D422A64000034F4000A1298
:100498008A115A220A128A118000840A04087406F2
:1004A800031900344B2A83120313D400D51B652A81
:1004B800551B6D2A55088A005408D40A0319D50A11
:1004C80082008313551883175408D40A840000083F
:1004D8000800003400340310FF30F407F409031C4B
:1004E800F507F509031CF607F609031CF707F709D2
:1004F800080084017408FC007508FD007608FE00F9
:100508007708FF00F601F701F401F5010310FF0C6D
:10051800FE0CFD0CFC0C031C9F2A7808F4077908D4
:100528000318790FF5077A0803187A0FF6077B087E
:1005380003187B0FF7077C087D047E047F040319EA
:10054800AB2A0310F80DF90DFA0DFB0D8A2A840861
:100558000319003477088000840376088000840338
:10056800750880008403740880000034FA01F51FC0
:10057800C42AF409F40A0319F503F5097A17FA17D6
:1005880077088039FA06F71FD02AF609F60A031900
:10059800F703F709D02AFA01F801F9017608770478
:1005A800031DD92AF401F50100341F30FA040310A1
:1005B800FA0AF60DF70D031CDC2AF70CF60C77087F
:1005C8007502031DE92A76087402031CF12A7608CD
:1005D800F4027708031C770AF502F80DF90DFA0BF7
:1005E800FA1AE12AFA1FFD2AF809F80A0319F90389
:1005F800F9097808F6007908F7007A1F0034F40939
:10060800F40A0319F503F5090034FC01750D760D9C
:10061800FA007A080319142BFC0DF601F5170800E7
:10062800F401F501F6010034FC10780D790DFB009A
:100638007B080319242B0318FC14F901F817080088
:10064800FB01F701F801F90108007A080319142BD6
:10065800F513FC0C7A0CF6000318F517DF2BFA08D3
:10066800031D472BF401F501F601DF2B760303196F
:10067800F40A0319F50A0319F60A0310F60CF50C27
:10068800F40CFA0A332BF608031D3A2B7408750488
:100698000319362BF51B292BFA030319362B0310E4
:1006A800F40DF50D4E2B7A087B02031C662B0319FB
:1006B80008000310F60CF50CF40CFA0A7A087B0211
:1006C8005B2B0310F90CF80CF70CFB0A7A087B0675
:1006D80003190800652B8030F906840109231823C3
:1006E80057237C1C7F2BF409F509F609F40A031932
:1006F800F50A0319F60AFC1C892BF709F809F90908
:10070800F70A0319F80A0319F90A7708F4077808A9
:100718000318780FF50779080318790FF607FC0115
:10072800F61F332BF409F509F609F40A0319F50A3B
:100738000319F60A7C14332B84010923F70182304C
:10074800FA07FA1B142BF030FA07FA1BBC2B1830E7
:100758007A020318142BFA08031DB52B7C186F2294
:100768000800FA030310F40DF50DF60DF70DAF2B85
:100778000310F60CF50CF40CFA0FBC2BB22BF71F78
:10078800C82B7C146F22C92BFC018E30FA0084011F
:10079800F7080319332B0310F70CF60CF50CF40CBF
:1007A800FA0ACC2BF601F51BF6037608F700C32BE3
:1007B800F601F701C82B8408031900347608800075
:1007C8008403750880008403740880000034831251
:1007D8000317951FFD2B00300A168A11A7270A1246
:1007E8008A1100380319C32F181683168C16013086
:1007F800E62F0313E22F190EF400F40C740C0339DE
:10080800033A0319D72F190CF400F40C740C0739A8
:1008180003191E2C0313241A1E2C03132416031762
:1008280017080739F4007407913E84008317800184
:10083800840A8001031717080739F4007407913EEA
:100848008400831716080006031D2D2C1708840A38
:1008580000060319D72F19080739F4000130F600EC
:10086800F701F40A3A2C0310F60DF70DF40B372CA8
:10087800FF30F607031CF70703132D08F605F701E9
:10088800031718087F39F400F50177087506031D6A
:100898004F2C76087406031DD72F17080739F40064
:1008A8007407A13E8400831716088000840A17087D
:1008B80080007F2CF1300313220203188D2C0630A0
:1008C800A20040303407A600013003180230792C0A
:1008D800053003132202031C8D2C0530A20093302F
:1008E8003407A6000330031804303507A7007D2C11
:1008F8000313A4158D2C190CF500F50C750C07398C
:10090800013A03195E2C033A03196C2C013A0319B6
:100918007C2C0A168A11D5260A128A110130F60093
:10092800031715080739F700F70A9C2C0310F60D72
:10093800F70B9A2C7608F600760374050A128A15C6
:1009480028200A128A112A080317960003132B0875
:100958000317970003132C080317980003132D0897
:100968000317990095010313A41DBC2C0317151434
:1009780003133508F5003408F4000A128A11DC2341
:10098800A930F7002B30F8004530F9000A128A1117
:1009980071230A128A11A0230A128A117408B1005D
:1009A8007508B2000330A404D72F03132D080317CA
:1009B8001906031DEF2C03132C0803171806031D33
:1009C800EF2C03132B0803171706031DEF2C031333
:1009D8002A0803171606031DD72F0313BF013F0864
:1009E8003F07A13E840083170008C000840A00085E
:1009F800C100400403190E2D4008BD004108BE0087
:100A08003F083F07913E840083173D088000840A11
:100A18003E088000BF0A08303F02031CF32C3D0843
:100A2800F500F4017408C2007508C3003E08F4001C
:100A3800F5014208F4044308F504FF307405BD00CD
:100A48000F307505BE00031715080739013A031D55
:100A58003C2D03132208F03A031D3C2D0630A2005A
:100A680040303407A6000130031802303507A700CC
:100A7800003003133E02053003193D02031C522DBA
:100A880000303E02083003193D02031C612D00307E
:100A98003E020D3003193D020318612D3508F5009B
:100AA8003408F4000A128A11DC230A128A11A930C8
:100AB800F7002B30F80046306D2D3508F500340866
:100AC800F4000A128A11DC23A930F7002B30F80051
:100AD8004530F9000A128A1171230A128A11A023DB
:100AE8000A128A117408B1007508B200A414A4117E
:100AF800D72F03132D0803171B06031D932D03136C
:100B08002C0803171A06031D932D03132B0803172C
:100B18001906031D932D03132A0803171806031D2E
:100B2800D72F03132A080317960003132B0803175C
:100B3800970003132C080317980003132D080317B5
:100B4800990003133508F5003408F4000A128A11D5
:100B5800DC23A930F7002B30F8004530F9000A12E1
:100B68008A1171230A128A11A0230A128A117408A1
:100B7800B1007508B200D92D21300313A404E72D64
:100B88000A128A150F250A128A11E62D2208F03A50
:100B9800031DE62D0630A20040303407A6000130C0
:100BA800031802303507A700E62D03171508073983
:100BB800013A0319C02D043A0319C42D023A03134C
:100BC8000319CA2D2414103003179500D72F1608BF
:100BD8008316031325068312031DFA2D031717081E
:100BE80083160313240683120319D82F2208023A06
:100BF800031D052EF030A200241D042E8714052E97
:100C080087102208083A0319D72F7A30C600033014
:100C1800C7000A168A111B270A300A128A1552259C
:100C28000A128A11D72F1A0803132B06031DD72F70
:100C38000317190803132C06031DD72F03171808C9
:100C480003132D06031DD72F7830C6000530C700C3
:100C58000A168A111B270A128A1103179608031D00
:100C68004E2E17080313A100A1080319462E0830B9
:100C7800A20093303407A600033003180430350768
:100C8800A700682EF030A200241D4C2E8714682E71
:100C98008710682E03132208023A03195D2E0230CA
:100CA800A200BA303407A6000A3003180B30350703
:100CB800A7000317170883160313A400831203174A
:100CC800160883160313A5000A128A150F250A129F
:100CD8008A11D72F17085A3A031D782E0A168A1137
:100CE80086250A128A11D72F0A128A15C5230A12D5
:100CF8008A11D72F13300313C6000130C7000A1614
:100D08008A111B2713300313C6000130C7000A16C7
:100D18008A111B270A128A1103132208083A031999
:100D2800D72F05300A128A1552250A128A11D72F91
:100D38001A0803132B06031DD72F031719080313CB
:100D48002C06031DD72F0317180803132D06031DA0
:100D5800D72FCE30C6000430C7000A168A111B27C9
:100D6800031717080A128A1572250A128A11D72F33
:100D78000A128A150F250A128A11D72F1508073962
:100D88000319EB2D013A0319172E033A0319862E7E
:100D9800013A0319902E073A03199C2E013A0319B8
:100DA8006E2E033A03197E2E013A0319BC2ED72F53
:100DB80017308400831703132F080006031DE72E3E
:100DC8003008840A00060319F22E031717080313C4
:100DD800AF00031718080313B000AE0107302E0246
:100DE8000318D72FAE0A0A168A11D52674080A12D4
:100DF8008A1528200A128A11192F03132D080317A0
:100E08001A06031D172F03132C0803171906031DB1
:100E1800172F03132B0803171806031D172F031387
:100E28002A0803171706031DD72F0A168A112B261F
:100E38000A128A112414D72F03132D0803171A0630
:100E4800031D362F03132C0803171906031D362F0D
:100E580003132B0803171806031D362F03132A083C
:100E680003171706031DD72F8B1383168C18392FDA
:100E780083128D0101308C0083168C1303108B1B99
:100E880003148B130C1555308D00AA308D008C146B
:100E98000C1103188B1783120514512F03132D08F7
:100EA80003171A06031D682F03132C0803171906C6
:100EB800031D682F03132B0803171806031D682F3B
:100EC80003132A08031717060319972FD72F03139D
:100ED8002208F23A031D722FF030A200241D7D2F44
:100EE80087147E2FF2300313A20024197D2F871454
:100EF8007E2F87108312952F04300313A40624191C
:100F0800872F0030882F77308312C40006300A16E6
:100F18008A11EB250A128A11241D942F8714952F04
:100F280087102414AA2F1C08F7001B08F600A62F08
:100F3800760803196B2F013A0319762F033A031920
:100F4800802FAA2F7708803A03199C2F0313241C9B
:100F5800D72F03179601960A0A168A112B260A120A
:100F68008A11D72F16080319DC2E013A0319012F0D
:100F7800033A0319202F073A0319522FD72F0317C3
:100F8800150CF500F50C750C0F390319FF2B013AF8
:100F98000319D92C033A03197D2D063A0319C22ED9
:100FA8000B3A0319B62F83120313241CE22F0A12DB
:100FB8008A1503200A128A112410E52F18168316A1
:100FC8008C160030831208008301BB009F01831632
:100FD8009F01831281389F00BC010A303C0203182C
:100FE800FA2FBC0A0A303C02031CF52F9F1400009C
:100FF8009F18FC2F1E08080083014F080800831261
:1010080003179001910101300A128A1523230A124D
:101018008A15003803191928A20100303407A600E0
:101028007D3003187E303507A7005A300317940027
:10103800951301300A168A11A7270A128A158316F2
:1010480098160C16831208008301C4007A280F082A
:10105800C700C801F500F4010E087404C70075083C
:10106800C8000F06031D2B285A304707C500153046
:10107800031816304807C600640046084802031DD6
:10108800472845084702031C5B284808F50047081D
:10109800F4004508F402031CF5034608F502803005
:1010A8007502003003197402031C7A286C2846085C
:1010B800F5004508F4004708F402031CF503480846
:1010C800F5028030750201300319740203187A287A
:1010D8000F08C700C801F500F4010E087404C70022
:1010E8007508C8000F06031941286C2883120313DA
:1010F800C403440F2B280800B52930303002031CE4
:10110800B1298312BD018316B901B401B501F228D2
:1011180083123D08F4000310F40D0310740D0C3E07
:10112800AF3E840083130008F7003D08F400031065
:10113800F40D0310740D0B3EAF3E840083130008BA
:10114800F6003D08F4000310F40D0310740D0D3E75
:10115800AF3E840083130008F5003D08F400031037
:10116800F40D0310740D0E3EAF3E84008313000887
:101178007507760777078316B8000310B80C0310B5
:10118800B80C0310B80C10308A0083123D084920AF
:101198000A128A1500380319E42805308316380224
:1011A800031CE9280A30F400F5013808F402031C8E
:1011B800F5037408B4070318B50A7508B507F028CD
:1011C800083083163802031CEC28B901B90AF02844
:1011D8003808B4070318B50A8312BD0A0C30831205
:1011E8003D0283160318FB28B90803198C28360A10
:1011F8000319370A03191329B908031D0B293508E0
:101208003702031D09293408360203181629AF01CD
:10121800AF0AB001B00AFF30B600B700C329B90859
:10122800031DC3293408B6003508B700C329A60131
:1012380030080F390F3A031DB1298312BD013D084B
:10124800F4000310F40D0310740D303CB73E840015
:1012580083130008F7003D08F4000310F40D031091
:10126800740D303CB93E840083130008F6003D0835
:10127800F4000310F40D0310740D303CB83E8400E4
:1012880083130008F5003D08F4000310F40D031063
:10129800740D303CB63E840083130008750776074A
:1012A80077078316B8000310B80C0310B80C0310A6
:1012B800B80C0310A60D0630380203182614831242
:1012C800BD0A04303D02031C232909308316260277
:1012D80003187F2910308A0026086E200A128A1502
:1012E800F400740AB100A730B200B301B30A0230A7
:1012F800AF00B001B129AF01B001C32930080339EB
:10130800033A031DB1296608670769076807B8002B
:101318000310B80C0310B80C0310B80C06303802D0
:10132800320884008313031C9C29330880049E29F7
:1013380033098005803033020318A5290310B30D43
:10134800B129B301B30AB20AB10BB1298C108312C7
:10135800121103308316AF00B329B00AC329013034
:10136800D729831603132F0803198128013A031973
:101378001B29033A03198229013A0319B329831255
:10138800BD013D08BB3E840083130008F4003D08FE
:10139800BA3E8400831374088000BD0A2F303D02D2
:1013A800031CC5290030831208008301BD00031007
:1013B800BD0D8B1307103D0893008316141CE129FB
:1013C80087168312071493018316141CE8298712C1
:1013D80083121308BD008B1708008301C600031091
:1013E800C60D46148B130710460893008316141C69
:1013F800FA2983120714450893008316141C012A3E
:101408008B17831208003A308301C5000030F121A0
:101418000A30C600C7010A168A111B270A128A1544
:101428003B30C5000030F1210A30C600C7010A165A
:101438008A111B270A128A155830C5000130F1217C
:101448002030C5000230F121C5010330F1210130FF
:10145800D921583A031D01340230D921203A031DFD
:1014680001340330D9210038031D01344230C5004E
:101478000430F1211430C5000530F1219C30C5003D
:101488000630F1210430D921423A031D01340530D8
:10149800D921143A031D01340630D9219C3A031D81
:1014A80001340230C5000730F1218030C500083012
:1014B800F1211230C5000A30F121C5010B30F121AC
:1014C80010308A0002307820C5000C300A128A15C4
:1014D800F1211030C5000D30F1212630C5000E3045
:1014E800F1219C30C5000F30F1216B30C500103060
:1014F800F1215B30C5001130F1217030C500123088
:10150800F121C501C50A1330F121C5011C30F121B3
:101518001030C5004030F1210830C5004130F121BC
:101528003F30C5004230F1210430C5004330F1217D
:10153800C5014430F121C5014530F121C5014630CE
:10154800F1210A168A1179200A128A15C50000307D
:10155800F12110308A0001307820C50009300A12C4
:101568008A15F12110308A0002307820C5000C302D
:101578000A128A15F121A630C5000E30F1210E306D
:10158800D921F400F41DC32A2630C5000E30F121FC
:1015980010308A0004307820C50000300A128A15FD
:1015A800F12110308A0005307820C50009300A1270
:1015B8008A15F12110308A0006307820C5000C30D9
:1015C8000A128A15F121A630C5000E30F1210E301D
:1015D800D921F400F41DEB2A2630C5000E30F12184
:1015E8003F30C5000030F1215530C5000B30F121E6
:1015F8000B30D921553A031D0134AA30C5000B30F0
:10160800F1210B30D921AA3A031D0234C5010B3050
:10161800F1217B30C5000030F1210230C600C7013E
:101628000A168A111B270A128A157930C50000305C
:10163800F1210A168A118C250A128A1500348301B1
:10164800C4006400CF0010308A004408F40003107E
:10165800F40D0310740D7820C50000300A128A15A5
:10166800F12110308A004408F4000310F40D03102F
:10167800740DF400740A7820C50009300A128A151E
:10168800F12110308A004408F4000310F40D03100F
:10169800740D023E7820C5000C300A128A15F1211B
:1016A800C408031D5A2BC5010B30F1210A168A11F3
:1016B8008C250A128A15440B003410308A0044081D
:1016C800F4000310F40D0310740D033E7820C500D8
:1016D8000B300A128A15F1210A168A1180250A127E
:1016E8008A150034831603138C108312121191018A
:1016F800203092003730831692001C3083129500F8
:1017080097018316A1010230A00083120317051068
:10171800C530831603138100640083120317051470
:101728000B11FF30031381008B161215080083017B
:10173800CD00CC010310CD1FA82BCD0DCB1FA52BA1
:101748004D148530CD06AB2BCD0DCB1B4D1403109E
:10175800CB0DCC0A08304C02031C9F2B4D08080007
:101768008301CA00C02BCA0A4A03840083130008F5
:10177800CB0048089B23C800C903490FB72B48086A
:101788000800093083160313A600B101B001A001B7
:10179800AF018312D001FF308316B600B700831261
:1017A8000317051068308316031381006400831241
:1017B800031705140313810121309200F9308316B1
:1017C80092008312910112158C1083168C148312C7
:1017D80008000930831603132602031CF52BC523C2
:1017E8000134260EF0398312CB00F5309B23BD005F
:1017F800C80010308A00831626086E20003E831227
:10180800C900A7300A128A15B423BD00CB019B2357
:10181800BD0010308A00831626086E200A128A1529
:10182800A73E84008313000883123D060319F32C96
:10183800C523023427082506031D262C280824065C
:1018480003190D2D83122208023A031D332CF030A0
:10185800A200241D312C8714392C8710392C22081A
:10186800083A031D392CC52300347A300313C60007
:101878000330C7000A168A111B270A128A150A3074
:1018880052250A128A150034290883122B06031DD3
:101898000D2D8316280883122C06031D0D2D831683
:1018A800270883122D06031D0D2D7830C60005303C
:1018B800C7000A168A111B270A128A152208023A3B
:1018C8000319702C0230A200BA303407A6000A307F
:1018D80003180B303507A70083162B08A4002A0825
:1018E800A5000F250A128A15003413308312C6008A
:1018F8000130C7000A168A111B2713308312C6004D
:101908000130C7000A168A111B270A128A1583128A
:101918002208083A031D922CC523003405305225AD
:101928000A128A150034290883122B06031D0D2D6F
:101938008316280883122C06031D0D2D83162708ED
:1019480083122D06031D0D2DCE30C6000430C700AE
:101958000A168A111B270A128A1583162A08722565
:10196800C52300340F250A128A150034290883126A
:101978002B06031D0D2D8316280883122C06031D24
:101988000D2D8316270883122D06031D0D2D783083
:10199800C6000530C7000A168A111B270A128A15C5
:1019A80083162A088312A100A1080319E62C08301F
:1019B800A20093303407A60003300318043035071B
:1019C800A700ED2CF030A200241DEC2C8714ED2C80
:1019D80087100F250A128A150034C523033483168D
:1019E800260803191E2C013A0319482C033A031937
:1019F800812C013A03198B2C073A0319972C023AC8
:101A08000319792C013A0319B62C0F3A0319BA2C89
:101A1800F12CC523003483160313A60183122D0865
:101A28008316A70083122C088316A80083122B089C
:101A38008316A900AA012A08F0390138AA008312DE
:101A48002208023A003003190130F400F40CF40CB7
:101A580083162A0874067F397406AA002830831270
:101A6800C8000430C900A730B423C700CB019B23AA
:101A7800C700A53A031D4D2D8316AA1628308312D8
:101A8800C8000430C900A730B423C700CB019B238A
:101A9800C70047088316AB00762308008301C400FB
:101AA8000A168A11D5264408F600F7010A128A1187
:101AB800BA220A128A157408C5006B2D2230C60096
:101AC8000130C7000A168A111B270A128A15C50396
:101AD800450F622D0F250A128A1508008301C400DC
:101AE8000310C40DA62D3508F5003408F4000A12B9
:101AF8008A11DC231230F7000230F8004130F90077
:101B08000A128A1171230A128A11A0230A128A154D
:101B18007408C5007508C6000F250A128A158316B1
:101B2800A008031D932D83124508C7004608C80066
:101B38000A168A110B260A128A15F400F501750493
:101B48000319972DC403440F772D0800033083161B
:101B580003138E04163083120317850064000514DE
:101B68000A168A118E260A128A151430AA00FD3028
:101B780003178D001F308F0083160C118C170C145F
:101B88008310831083120E080C080313AB00FE3079
:101B980003178D001F308F0083160C118C170C143F
:101BA8008310831083120E080C080313AC00FF3057
:101BB80003178D001F308F0083160C118C170C141F
:101BC8008310831083120E080C080313AD0006302F
:101BD8000A168A11D9250A128A15A000773A031D18
:101BE800F82D0430A400072EA401A0080319072E1D
:101BF8000000000000000000C40106300A168A1127
:101C0800EB250A128A15241D0B2E87140C2E87101B
:101C18002C08BB00BC01BC00BB012D08BB043B0861
:101C2800C6003C08C7000A168A11CB26C0308B00B4
:101C380003300A168A11D9250A128A158316031742
:101C48009000100F282E2C2E10081F3A031D382E36
:101C58000000000000002130900083120313C4002C
:101C680003300A168A11EB2504300A168A11D92581
:101C78000A128A15A0007F3A03194C2E00000000B2
:101C8800000000007F30C40004300A168A11EB25DA
:101C980008300A168A11D9250A128A15A0007A3A3C
:101CA800031D632EC40108300A168A11EB250A1297
:101CB8008A15F030A200243083168604C52E003021
:101CC8000A168A11AA253230C600C7010A168A11D7
:101CD8001B27AA300A168A11AA253230C600C70166
:101CE8000A168A111B272B082D072C070A168A119A
:101CF800AA253230C600C7010A168A111B272B08ED
:101D08000A168A11AA253230C600C7010A168A1196
:101D18001B272C080A168A11AA253230C600C701CB
:101D28000A168A111B272D080A168A11AA250A30B5
:101D3800C600C7010A168A111B27831606153230FA
:101D48008312C600C7010A168A111B270A128A15B0
:101D5800061DB92E5E30C6000130C7000A168A116A
:101D68001B270A128A15061DC32EA201003034074C
:101D7800A6007D3003187E303507A700C52EF03049
:101D8800A2000A168A1156260A128A150038031963
:101D9800D62EA20100303407A6007D3003187E300D
:101DA8003507A70083160C1483123508F50034088C
:101DB800F4000A128A11DC23E230F700E430F8005C
:101DC8004430F9000A128A1171230A128A11A023D9
:101DD8007408A8007508A9000A128A15C5230A12F2
:101DE8008A15061483120313A508031D06191E2F4E
:101DF80005302202031C1D2F0B30250203181D2F4E
:101E08000830250205300318132F2502031C0E2F56
:101E18000630132F02302502031C1D2F0730A200A5
:101E280040303407A6000130031802303507A700F8
:101E3800A415A50150080319372F500B322FD001D4
:101E48000A128A1580200A128A15013A031D372FB3
:101E58000A128A15ED230A128A15372F0A128A15D3
:101E6800C5230A128A1503171008043A031D492FBF
:101E78000A128A11EB230A128A1500380317031D68
:101E8800582F930F572F930A572F1008073A031DFF
:101E9800592F00300A128A1523230A128A15181698
:101EA80083168C1683120317900103133308340624
:101EB8000319F62E64003408B300A418962F2808D6
:101EC800C7002908C8000A168A110B260A128A15A3
:101ED800F400F50175040319C22F3508F50034081C
:101EE800F4000A128A11DC23E230F700E430F8002B
:101EF8004430F9000A128A1171230A128A11A023A8
:101F08000A128A157408A8007508A900031793080F
:101F18000319902F9301C22F0A168A1156260A1206
:101F28008A15C22F3108C7003208C8000A168A115C
:101F38000B260A128A15F400F50175040319C22F3D
:101F4800CD30A405BB01F401F5013B083B07A13ED8
:101F58008400831774088000840A750880003B0891
:101F68003B07913E8400831774088000840A750833
:101F78008000BB0A08303B02031CA72FF030031374
:101F880022020318F62E0A302202031CCD2FF0304D
:101F9800A2002608C7002708C8000A168A110B26BF
:101FA8000A128A15F400F50175040319F62EA30127
:101FB8002208023A031DE52F8316A501F03083128B
:101FC800F92F2208083A031DF82FA1080319FA2F40
:101FD800A10BEF2FF82F93303407A6000330031816
:101FE80004303507A700FA2FF030A200241DFE2F79
:101FF8008714F62E8710F62E8207CC34CC34CC34D6
:10200800CC34CC34CC34CC34CC34FF340034FF342E
:102018000034FF340034FF340034FF34FF34FF341D
:10202800FF34FF34FF34FF34FF34FF34FF34FF3410
:10203800FF34FF34FF34FF34FF34FD34FF34FF3402
:10204800FF34FF34FF34FF34FF34EE34EE34AA3467
:10205800AA34FF34FF34FF34FF34CC34FC34FF346B
:10206800FF34FF34FF34FF34FF34CC34CC34CC3469
:10207800FF34FF34FF34FF34FF34FF34FF34FF34C0
:10208800FF34FF34FF34FF34FF3482070134003457
:102098000134003400340134003401340134003494
:1020A8000134003482070D3408340D340934FF3408
:1020B8000934FF34FF34FF34FF34FF340B34820714
:1020C80008340834FF34083408340A34FF34FF3441
:1020D800FF340934820702340534003400340434F0
:1020E800003400340034043482071134443460343A
:1020F8000034E134813448340F3482070134003429
:0C21080001340034003401340034013490
:102B00000D308301C500C50B832D08008316031308
:102B10008C108312121108007D308301C500C5039B
:102B2000450F8F2D0800831203179008031D9A2D5F
:102B300000309B2D01300313080083160313AF08E8
:102B4000031DA72DA008031DA72D0030A82D0130BF
:102B5000831208008301BD008B13061100003D089D
:102B600093008316141CB12D0000831206158B17D9
:102B7000080083010710213093008316141CBD2D1B
:102B8000831207147B3093008316141CC42D831208
:102B9000080083010710213093008316141CCD2DEB
:102BA000831207146B3093008316141CD42D8312E8
:102BB00008008301C400831603178C18DB2D8312D1
:102BC0000313440803178D0083168C130C1483120F
:102BD0000C08031308008301C500831603178C1823
:102BE000ED2D83120313450803178D0003134408CA
:102BF00003178C0083168C1303108B1B03148B1389
:102C00000C1555308D00AA308D008C140C11031852
:102C10008B17830108008B138312031348083502B6
:102C2000031D142E47083402031C292E3508F50015
:102C30003408F4004708F402031CF5034808F502C1
:102C4000803075020030031974028B17031C0134A5
:102C500000348B17003483012A08031797000313ED
:102C60002B080317980003132C080317990003136C
:102C70002D0803179A0003132208F03A0319241DA4
:102C8000432EF130442E220803179B0002300A160F
:102C90008A11D9250A168A1103179C008316100879
:102CA00083129D007F309E000313080083011812D9
:102CB00083168C1298120C12831203179001910143
:102CC00003133508F5003408F4000A128A11DC23D6
:102CD000A930F7002B30F8004530F9000A128A11AC
:102CE00071230A128A11A0237408B1007508B2007A
:102CF0000A128A1507220A168A1100380319822E31
:102D000001308C2E00300A128A1523230A168A11EC
:102D1000181683168C160030831208006030831654
:102D20000313810024309500831286003A30831605
:102D300086000830831285000330831685004130F9
:102D400083128700903083168700033003178800B2
:102D50000A3089008130831203139F0083169F017C
:102D6000113083129000E930831697008312031705
:102D70008916A53087004030831603139400313044
:102D8000831294000C308316990004309800803030
:102D900083129800080083014608B7004708B8006E
:102DA000B901BA01B601B60A08008301B608031DCD
:102DB000DD2EC601C60AC701CB266D30F8004E30A5
:102DC000F900C630FA004130FB003708F40038083B
:102DD000F5003908F6003A08F7000A128A117D2238
:102DE0000A168A113930F8003030F900FA01FB0177
:102DF00078087407FC007508FD0079080318790F3E
:102E0000FD077608FE007A0803187A0FFE07770898
:102E1000FF007B0803187B0FFF077C08B7007D08C5
:102E2000B8007E08B9007F08BA00F5003908F40040
:102E30007F30F5050800612F0F08CB000E08CA008F
:102E40004B080F06031D1C2F6400C6304A07C8003C
:102E50000330031804304B07C90049084B02031D17
:102E6000332F48084A02031C472F4B08F5004A0835
:102E7000F4004808F402031CF5034908F502803009
:102E80007502003003197402031C612F582F490882
:102E9000F5004808F4004A08F402031CF5034B0847
:102EA000F502803075020130031974020318612F96
:102EB0000F08CB000E08CA004B080F0603192D2F70
:102EC000582F8312031346080319C703C603460A83
:102ED0000319470A031908001C2F83120317150C46
:102EE000F400F40C740C0F39F4000530740203186C
:102EF0008B2F10308A00150D150D0139F400150CBB
:102F0000F500F50C750C0F39F50075077407632093
:102F10000A168A11A52F150CF400F40C740C0F3945
:102F20000F3A031DA42F063016020318A42F1030E9
:102F30008A00150D150D0139F400160816077407DF
:102F400056200A168A11A52FFF30031308008301AB
:102F5000C400FF30C800C9006D278313C700470FA6
:102F6000B22FFF34FE30C707C601470846020318D8
:102F7000DA2F4608143E840083170008C806C501EE
:102F8000481CD02F4908F5004808F4000310F50C40
:102F9000F40C01307406C800A0307506C900D32FA8
:102FA0000310C90CC80CC50A08304502031CC02F09
:102FB000C60AB52FC4080319EA2F4708143E840037
:102FC0008317490880004708153E84008317480886
:102FD000800000344708143E840083170008F50081
:102FE000F4014708153E840083170008F4044908DB
:102FF0007506031DFD2F4808740603190034FF34BD
:04400E00C123FF3E8D
:00000001FF
